{
  "contractName": "MediaRegistry",
  "abi": [
    {
      "inputs": [],
      "stateMutability": "nonpayable",
      "type": "constructor"
    },
    {
      "inputs": [
        {
          "internalType": "address",
          "name": "sender",
          "type": "address"
        },
        {
          "internalType": "uint256",
          "name": "tokenId",
          "type": "uint256"
        },
        {
          "internalType": "address",
          "name": "owner",
          "type": "address"
        }
      ],
      "name": "ERC721IncorrectOwner",
      "type": "error"
    },
    {
      "inputs": [
        {
          "internalType": "address",
          "name": "operator",
          "type": "address"
        },
        {
          "internalType": "uint256",
          "name": "tokenId",
          "type": "uint256"
        }
      ],
      "name": "ERC721InsufficientApproval",
      "type": "error"
    },
    {
      "inputs": [
        {
          "internalType": "address",
          "name": "approver",
          "type": "address"
        }
      ],
      "name": "ERC721InvalidApprover",
      "type": "error"
    },
    {
      "inputs": [
        {
          "internalType": "address",
          "name": "operator",
          "type": "address"
        }
      ],
      "name": "ERC721InvalidOperator",
      "type": "error"
    },
    {
      "inputs": [
        {
          "internalType": "address",
          "name": "owner",
          "type": "address"
        }
      ],
      "name": "ERC721InvalidOwner",
      "type": "error"
    },
    {
      "inputs": [
        {
          "internalType": "address",
          "name": "receiver",
          "type": "address"
        }
      ],
      "name": "ERC721InvalidReceiver",
      "type": "error"
    },
    {
      "inputs": [
        {
          "internalType": "address",
          "name": "sender",
          "type": "address"
        }
      ],
      "name": "ERC721InvalidSender",
      "type": "error"
    },
    {
      "inputs": [
        {
          "internalType": "uint256",
          "name": "tokenId",
          "type": "uint256"
        }
      ],
      "name": "ERC721NonexistentToken",
      "type": "error"
    },
    {
      "anonymous": false,
      "inputs": [
        {
          "indexed": true,
          "internalType": "address",
          "name": "owner",
          "type": "address"
        },
        {
          "indexed": true,
          "internalType": "address",
          "name": "approved",
          "type": "address"
        },
        {
          "indexed": true,
          "internalType": "uint256",
          "name": "tokenId",
          "type": "uint256"
        }
      ],
      "name": "Approval",
      "type": "event"
    },
    {
      "anonymous": false,
      "inputs": [
        {
          "indexed": true,
          "internalType": "address",
          "name": "owner",
          "type": "address"
        },
        {
          "indexed": true,
          "internalType": "address",
          "name": "operator",
          "type": "address"
        },
        {
          "indexed": false,
          "internalType": "bool",
          "name": "approved",
          "type": "bool"
        }
      ],
      "name": "ApprovalForAll",
      "type": "event"
    },
    {
      "anonymous": false,
      "inputs": [
        {
          "indexed": true,
          "internalType": "address",
          "name": "from",
          "type": "address"
        },
        {
          "indexed": true,
          "internalType": "address",
          "name": "to",
          "type": "address"
        },
        {
          "indexed": true,
          "internalType": "uint256",
          "name": "tokenId",
          "type": "uint256"
        }
      ],
      "name": "Transfer",
      "type": "event"
    },
    {
      "inputs": [
        {
          "internalType": "address",
          "name": "",
          "type": "address"
        }
      ],
      "name": "addressToTokenId",
      "outputs": [
        {
          "internalType": "uint256",
          "name": "",
          "type": "uint256"
        }
      ],
      "stateMutability": "view",
      "type": "function",
      "constant": true
    },
    {
      "inputs": [],
      "name": "admin",
      "outputs": [
        {
          "internalType": "address",
          "name": "",
          "type": "address"
        }
      ],
      "stateMutability": "view",
      "type": "function",
      "constant": true
    },
    {
      "inputs": [
        {
          "internalType": "address",
          "name": "to",
          "type": "address"
        },
        {
          "internalType": "uint256",
          "name": "tokenId",
          "type": "uint256"
        }
      ],
      "name": "approve",
      "outputs": [],
      "stateMutability": "nonpayable",
      "type": "function"
    },
    {
      "inputs": [
        {
          "internalType": "address",
          "name": "owner",
          "type": "address"
        }
      ],
      "name": "balanceOf",
      "outputs": [
        {
          "internalType": "uint256",
          "name": "",
          "type": "uint256"
        }
      ],
      "stateMutability": "view",
      "type": "function",
      "constant": true
    },
    {
      "inputs": [
        {
          "internalType": "uint256",
          "name": "tokenId",
          "type": "uint256"
        }
      ],
      "name": "getApproved",
      "outputs": [
        {
          "internalType": "address",
          "name": "",
          "type": "address"
        }
      ],
      "stateMutability": "view",
      "type": "function",
      "constant": true
    },
    {
      "inputs": [
        {
          "internalType": "address",
          "name": "owner",
          "type": "address"
        },
        {
          "internalType": "address",
          "name": "operator",
          "type": "address"
        }
      ],
      "name": "isApprovedForAll",
      "outputs": [
        {
          "internalType": "bool",
          "name": "",
          "type": "bool"
        }
      ],
      "stateMutability": "view",
      "type": "function",
      "constant": true
    },
    {
      "inputs": [],
      "name": "lastIssuedTokenId",
      "outputs": [
        {
          "internalType": "uint256",
          "name": "",
          "type": "uint256"
        }
      ],
      "stateMutability": "view",
      "type": "function",
      "constant": true
    },
    {
      "inputs": [],
      "name": "name",
      "outputs": [
        {
          "internalType": "string",
          "name": "",
          "type": "string"
        }
      ],
      "stateMutability": "view",
      "type": "function",
      "constant": true
    },
    {
      "inputs": [
        {
          "internalType": "uint256",
          "name": "tokenId",
          "type": "uint256"
        }
      ],
      "name": "ownerOf",
      "outputs": [
        {
          "internalType": "address",
          "name": "",
          "type": "address"
        }
      ],
      "stateMutability": "view",
      "type": "function",
      "constant": true
    },
    {
      "inputs": [
        {
          "internalType": "address",
          "name": "from",
          "type": "address"
        },
        {
          "internalType": "address",
          "name": "to",
          "type": "address"
        },
        {
          "internalType": "uint256",
          "name": "tokenId",
          "type": "uint256"
        }
      ],
      "name": "safeTransferFrom",
      "outputs": [],
      "stateMutability": "nonpayable",
      "type": "function"
    },
    {
      "inputs": [
        {
          "internalType": "address",
          "name": "from",
          "type": "address"
        },
        {
          "internalType": "address",
          "name": "to",
          "type": "address"
        },
        {
          "internalType": "uint256",
          "name": "tokenId",
          "type": "uint256"
        },
        {
          "internalType": "bytes",
          "name": "data",
          "type": "bytes"
        }
      ],
      "name": "safeTransferFrom",
      "outputs": [],
      "stateMutability": "nonpayable",
      "type": "function"
    },
    {
      "inputs": [
        {
          "internalType": "address",
          "name": "operator",
          "type": "address"
        },
        {
          "internalType": "bool",
          "name": "approved",
          "type": "bool"
        }
      ],
      "name": "setApprovalForAll",
      "outputs": [],
      "stateMutability": "nonpayable",
      "type": "function"
    },
    {
      "inputs": [
        {
          "internalType": "bytes4",
          "name": "interfaceId",
          "type": "bytes4"
        }
      ],
      "name": "supportsInterface",
      "outputs": [
        {
          "internalType": "bool",
          "name": "",
          "type": "bool"
        }
      ],
      "stateMutability": "view",
      "type": "function",
      "constant": true
    },
    {
      "inputs": [],
      "name": "symbol",
      "outputs": [
        {
          "internalType": "string",
          "name": "",
          "type": "string"
        }
      ],
      "stateMutability": "view",
      "type": "function",
      "constant": true
    },
    {
      "inputs": [
        {
          "internalType": "uint256",
          "name": "",
          "type": "uint256"
        }
      ],
      "name": "tokenIdToMediaHouses",
      "outputs": [
        {
          "internalType": "string",
          "name": "name",
          "type": "string"
        },
        {
          "internalType": "uint256",
          "name": "reputation",
          "type": "uint256"
        },
        {
          "internalType": "bool",
          "name": "isVerified",
          "type": "bool"
        }
      ],
      "stateMutability": "view",
      "type": "function",
      "constant": true
    },
    {
      "inputs": [
        {
          "internalType": "uint256",
          "name": "tokenId",
          "type": "uint256"
        }
      ],
      "name": "tokenURI",
      "outputs": [
        {
          "internalType": "string",
          "name": "",
          "type": "string"
        }
      ],
      "stateMutability": "view",
      "type": "function",
      "constant": true
    },
    {
      "inputs": [
        {
          "internalType": "address",
          "name": "from",
          "type": "address"
        },
        {
          "internalType": "address",
          "name": "to",
          "type": "address"
        },
        {
          "internalType": "uint256",
          "name": "tokenId",
          "type": "uint256"
        }
      ],
      "name": "transferFrom",
      "outputs": [],
      "stateMutability": "nonpayable",
      "type": "function"
    },
    {
      "inputs": [
        {
          "internalType": "string",
          "name": "name",
          "type": "string"
        }
      ],
      "name": "registerMediaHouse",
      "outputs": [],
      "stateMutability": "nonpayable",
      "type": "function"
    },
    {
      "inputs": [
        {
          "internalType": "uint256",
          "name": "tokenId",
          "type": "uint256"
        }
      ],
      "name": "verifyMediaHouse",
      "outputs": [],
      "stateMutability": "nonpayable",
      "type": "function"
    }
  ],
  "bytecode": "0x60806040525f60075534801562000014575f80fd5b506040518060400160405280600f81526020017f4d65646961486f757365426164676500000000000000000000000000000000008152506040518060400160405280600381526020017f4d48420000000000000000000000000000000000000000000000000000000000815250815f908162000091919062000350565b508060019081620000a3919062000350565b5050503360065f6101000a81548173ffffffffffffffffffffffffffffffffffffffff021916908373ffffffffffffffffffffffffffffffffffffffff16021790555062000434565b5f81519050919050565b7f4e487b71000000000000000000000000000000000000000000000000000000005f52604160045260245ffd5b7f4e487b71000000000000000000000000000000000000000000000000000000005f52602260045260245ffd5b5f60028204905060018216806200016857607f821691505b6020821081036200017e576200017d62000123565b5b50919050565b5f819050815f5260205f209050919050565b5f6020601f8301049050919050565b5f82821b905092915050565b5f60088302620001e27fffffffffffffffffffffffffffffffffffffffffffffffffffffffffffffffff82620001a5565b620001ee8683620001a5565b95508019841693508086168417925050509392505050565b5f819050919050565b5f819050919050565b5f62000238620002326200022c8462000206565b6200020f565b62000206565b9050919050565b5f819050919050565b620002538362000218565b6200026b62000262826200023f565b848454620001b1565b825550505050565b5f90565b6200028162000273565b6200028e81848462000248565b505050565b5b81811015620002b557620002a95f8262000277565b60018101905062000294565b5050565b601f8211156200030457620002ce8162000184565b620002d98462000196565b81016020851015620002e9578190505b62000301620002f88562000196565b83018262000293565b50505b505050565b5f82821c905092915050565b5f620003265f198460080262000309565b1980831691505092915050565b5f62000340838362000315565b9150826002028217905092915050565b6200035b82620000ec565b67ffffffffffffffff811115620003775762000376620000f6565b5b62000383825462000150565b62000390828285620002b9565b5f60209050601f831160018114620003c6575f8415620003b1578287015190505b620003bd858262000333565b8655506200042c565b601f198416620003d68662000184565b5f5b82811015620003ff57848901518255600182019150602085019450602081019050620003d8565b868310156200041f57848901516200041b601f89168262000315565b8355505b6001600288020188555050505b505050505050565b61263e80620004425f395ff3fe608060405234801561000f575f80fd5b506004361061011f575f3560e01c80636511bf2e116100ab578063a22cb4651161006f578063a22cb4651461032b578063b88d4fde14610347578063c87b56dd14610363578063e985e9c514610393578063f851a440146103c35761011f565b80636511bf2e14610275578063658ef049146102a557806370a08231146102c157806395d89b41146102f15780639ab557361461030f5761011f565b806323b872dd116100f257806323b872dd146101bd5780634068e22d146101d957806342842e0e146101f757806355f39118146102135780636352211e146102455761011f565b806301ffc9a71461012357806306fdde0314610153578063081812fc14610171578063095ea7b3146101a1575b5f80fd5b61013d600480360381019061013891906119cb565b6103e1565b60405161014a9190611a10565b60405180910390f35b61015b6104c2565b6040516101689190611ab3565b60405180910390f35b61018b60048036038101906101869190611b06565b610551565b6040516101989190611b70565b60405180910390f35b6101bb60048036038101906101b69190611bb3565b61056c565b005b6101d760048036038101906101d29190611bf1565b610582565b005b6101e1610681565b6040516101ee9190611c50565b60405180910390f35b610211600480360381019061020c9190611bf1565b610687565b005b61022d60048036038101906102289190611b06565b6106a6565b60405161023c93929190611c69565b60405180910390f35b61025f600480360381019061025a9190611b06565b61075e565b60405161026c9190611b70565b60405180910390f35b61028f600480360381019061028a9190611ca5565b61076f565b60405161029c9190611c50565b60405180910390f35b6102bf60048036038101906102ba9190611b06565b610784565b005b6102db60048036038101906102d69190611ca5565b610842565b6040516102e89190611c50565b60405180910390f35b6102f96108f8565b6040516103069190611ab3565b60405180910390f35b61032960048036038101906103249190611dfc565b610988565b005b61034560048036038101906103409190611e6d565b610ad1565b005b610361600480360381019061035c9190611f49565b610ae7565b005b61037d60048036038101906103789190611b06565b610b0c565b60405161038a9190611ab3565b60405180910390f35b6103ad60048036038101906103a89190611fc9565b610b72565b6040516103ba9190611a10565b60405180910390f35b6103cb610c00565b6040516103d89190611b70565b60405180910390f35b5f7f80ac58cd000000000000000000000000000000000000000000000000000000007bffffffffffffffffffffffffffffffffffffffffffffffffffffffff1916827bffffffffffffffffffffffffffffffffffffffffffffffffffffffff191614806104ab57507f5b5e139f000000000000000000000000000000000000000000000000000000007bffffffffffffffffffffffffffffffffffffffffffffffffffffffff1916827bffffffffffffffffffffffffffffffffffffffffffffffffffffffff1916145b806104bb57506104ba82610c25565b5b9050919050565b60605f80546104d090612034565b80601f01602080910402602001604051908101604052809291908181526020018280546104fc90612034565b80156105475780601f1061051e57610100808354040283529160200191610547565b820191905f5260205f20905b81548152906001019060200180831161052a57829003601f168201915b5050505050905090565b5f61055b82610c8e565b5061056582610d14565b9050919050565b61057e8282610579610d4d565b610d54565b5050565b5f73ffffffffffffffffffffffffffffffffffffffff168273ffffffffffffffffffffffffffffffffffffffff16036105f2575f6040517f64a0ae920000000000000000000000000000000000000000000000000000000081526004016105e99190611b70565b60405180910390fd5b5f6106058383610600610d4d565b610d66565b90508373ffffffffffffffffffffffffffffffffffffffff168173ffffffffffffffffffffffffffffffffffffffff161461067b578382826040517f64283d7b00000000000000000000000000000000000000000000000000000000815260040161067293929190612064565b60405180910390fd5b50505050565b60075481565b6106a183838360405180602001604052805f815250610ae7565b505050565b6008602052805f5260405f205f91509050805f0180546106c590612034565b80601f01602080910402602001604051908101604052809291908181526020018280546106f190612034565b801561073c5780601f106107135761010080835404028352916020019161073c565b820191905f5260205f20905b81548152906001019060200180831161071f57829003601f168201915b505050505090806001015490806002015f9054906101000a900460ff16905083565b5f61076882610c8e565b9050919050565b6009602052805f5260405f205f915090505481565b60065f9054906101000a900473ffffffffffffffffffffffffffffffffffffffff1673ffffffffffffffffffffffffffffffffffffffff163373ffffffffffffffffffffffffffffffffffffffff1614610813576040517f08c379a000000000000000000000000000000000000000000000000000000000815260040161080a906120e3565b60405180910390fd5b600160085f8381526020019081526020015f206002015f6101000a81548160ff02191690831515021790555050565b5f8073ffffffffffffffffffffffffffffffffffffffff168273ffffffffffffffffffffffffffffffffffffffff16036108b3575f6040517f89c62b640000000000000000000000000000000000000000000000000000000081526004016108aa9190611b70565b60405180910390fd5b60035f8373ffffffffffffffffffffffffffffffffffffffff1673ffffffffffffffffffffffffffffffffffffffff1681526020019081526020015f20549050919050565b60606001805461090790612034565b80601f016020809104026020016040519081016040528092919081815260200182805461093390612034565b801561097e5780601f106109555761010080835404028352916020019161097e565b820191905f5260205f20905b81548152906001019060200180831161096157829003601f168201915b5050505050905090565b5f61099233610842565b146109d2576040517f08c379a00000000000000000000000000000000000000000000000000000000081526004016109c99061214b565b60405180910390fd5b6109ea3360016007546109e59190612196565b610f71565b6040518060600160405280828152602001603281526020015f151581525060085f6001600754610a1a9190612196565b81526020019081526020015f205f820151815f019081610a3a9190612366565b50602082015181600101556040820151816002015f6101000a81548160ff0219169083151502179055509050506001600754610a769190612196565b60095f3373ffffffffffffffffffffffffffffffffffffffff1673ffffffffffffffffffffffffffffffffffffffff1681526020019081526020015f208190555060075f815480929190610ac990612435565b919050555050565b610ae3610adc610d4d565b8383610f8e565b5050565b610af2848484610582565b610b06610afd610d4d565b858585856110f7565b50505050565b6060610b1782610c8e565b505f610b216112a3565b90505f815111610b3f5760405180602001604052805f815250610b6a565b80610b49846112b9565b604051602001610b5a9291906124b6565b6040516020818303038152906040525b915050919050565b5f60055f8473ffffffffffffffffffffffffffffffffffffffff1673ffffffffffffffffffffffffffffffffffffffff1681526020019081526020015f205f8373ffffffffffffffffffffffffffffffffffffffff1673ffffffffffffffffffffffffffffffffffffffff1681526020019081526020015f205f9054906101000a900460ff16905092915050565b60065f9054906101000a900473ffffffffffffffffffffffffffffffffffffffff1681565b5f7f01ffc9a7000000000000000000000000000000000000000000000000000000007bffffffffffffffffffffffffffffffffffffffffffffffffffffffff1916827bffffffffffffffffffffffffffffffffffffffffffffffffffffffff1916149050919050565b5f80610c9983611383565b90505f73ffffffffffffffffffffffffffffffffffffffff168173ffffffffffffffffffffffffffffffffffffffff1603610d0b57826040517f7e273289000000000000000000000000000000000000000000000000000000008152600401610d029190611c50565b60405180910390fd5b80915050919050565b5f60045f8381526020019081526020015f205f9054906101000a900473ffffffffffffffffffffffffffffffffffffffff169050919050565b5f33905090565b610d6183838360016113bc565b505050565b5f80610d7184611383565b90505f73ffffffffffffffffffffffffffffffffffffffff168373ffffffffffffffffffffffffffffffffffffffff1614610db257610db181848661157b565b5b5f73ffffffffffffffffffffffffffffffffffffffff168173ffffffffffffffffffffffffffffffffffffffff1614610e3d57610df15f855f806113bc565b600160035f8373ffffffffffffffffffffffffffffffffffffffff1673ffffffffffffffffffffffffffffffffffffffff1681526020019081526020015f205f82825403925050819055505b5f73ffffffffffffffffffffffffffffffffffffffff168573ffffffffffffffffffffffffffffffffffffffff1614610ebc57600160035f8773ffffffffffffffffffffffffffffffffffffffff1673ffffffffffffffffffffffffffffffffffffffff1681526020019081526020015f205f82825401925050819055505b8460025f8681526020019081526020015f205f6101000a81548173ffffffffffffffffffffffffffffffffffffffff021916908373ffffffffffffffffffffffffffffffffffffffff160217905550838573ffffffffffffffffffffffffffffffffffffffff168273ffffffffffffffffffffffffffffffffffffffff167fddf252ad1be2c89b69c2b068fc378daa952ba7f163c4a11628f55a4df523b3ef60405160405180910390a4809150509392505050565b610f8a828260405180602001604052805f81525061163e565b5050565b5f73ffffffffffffffffffffffffffffffffffffffff168273ffffffffffffffffffffffffffffffffffffffff1603610ffe57816040517f5b08ba18000000000000000000000000000000000000000000000000000000008152600401610ff59190611b70565b60405180910390fd5b8060055f8573ffffffffffffffffffffffffffffffffffffffff1673ffffffffffffffffffffffffffffffffffffffff1681526020019081526020015f205f8473ffffffffffffffffffffffffffffffffffffffff1673ffffffffffffffffffffffffffffffffffffffff1681526020019081526020015f205f6101000a81548160ff0219169083151502179055508173ffffffffffffffffffffffffffffffffffffffff168373ffffffffffffffffffffffffffffffffffffffff167f17307eab39ab6107e8899845ad3d59bd9653f200f220920489ca2b5937696c31836040516110ea9190611a10565b60405180910390a3505050565b5f8373ffffffffffffffffffffffffffffffffffffffff163b111561129c578273ffffffffffffffffffffffffffffffffffffffff1663150b7a02868685856040518563ffffffff1660e01b8152600401611155949392919061252b565b6020604051808303815f875af192505050801561119057506040513d601f19601f8201168201806040525081019061118d9190612589565b60015b611211573d805f81146111be576040519150601f19603f3d011682016040523d82523d5f602084013e6111c3565b606091505b505f81510361120957836040517f64a0ae920000000000000000000000000000000000000000000000000000000081526004016112009190611b70565b60405180910390fd5b805181602001fd5b63150b7a0260e01b7bffffffffffffffffffffffffffffffffffffffffffffffffffffffff1916817bffffffffffffffffffffffffffffffffffffffffffffffffffffffff19161461129a57836040517f64a0ae920000000000000000000000000000000000000000000000000000000081526004016112919190611b70565b60405180910390fd5b505b5050505050565b606060405180602001604052805f815250905090565b60605f60016112c784611661565b0190505f8167ffffffffffffffff8111156112e5576112e4611cd8565b5b6040519080825280601f01601f1916602001820160405280156113175781602001600182028036833780820191505090505b5090505f82602001820190505b600115611378578080600190039150507f3031323334353637383961626364656600000000000000000000000000000000600a86061a8153600a858161136d5761136c6125b4565b5b0494505f8503611324575b819350505050919050565b5f60025f8381526020019081526020015f205f9054906101000a900473ffffffffffffffffffffffffffffffffffffffff169050919050565b80806113f457505f73ffffffffffffffffffffffffffffffffffffffff168273ffffffffffffffffffffffffffffffffffffffff1614155b15611526575f61140384610c8e565b90505f73ffffffffffffffffffffffffffffffffffffffff168373ffffffffffffffffffffffffffffffffffffffff161415801561146d57508273ffffffffffffffffffffffffffffffffffffffff168173ffffffffffffffffffffffffffffffffffffffff1614155b8015611480575061147e8184610b72565b155b156114c257826040517fa9fbf51f0000000000000000000000000000000000000000000000000000000081526004016114b99190611b70565b60405180910390fd5b811561152457838573ffffffffffffffffffffffffffffffffffffffff168273ffffffffffffffffffffffffffffffffffffffff167f8c5be1e5ebec7d5bd14f71427d1e84f3dd0314c0f7b2291e5b200ac8c7c3b92560405160405180910390a45b505b8360045f8581526020019081526020015f205f6101000a81548173ffffffffffffffffffffffffffffffffffffffff021916908373ffffffffffffffffffffffffffffffffffffffff16021790555050505050565b6115868383836117b2565b611639575f73ffffffffffffffffffffffffffffffffffffffff168373ffffffffffffffffffffffffffffffffffffffff16036115fa57806040517f7e2732890000000000000000000000000000000000000000000000000000000081526004016115f19190611c50565b60405180910390fd5b81816040517f177e802f0000000000000000000000000000000000000000000000000000000081526004016116309291906125e1565b60405180910390fd5b505050565b6116488383611872565b61165c611653610d4d565b5f8585856110f7565b505050565b5f805f90507a184f03e93ff9f4daa797ed6e38ed64bf6a1f01000000000000000083106116bd577a184f03e93ff9f4daa797ed6e38ed64bf6a1f01000000000000000083816116b3576116b26125b4565b5b0492506040810190505b6d04ee2d6d415b85acef810000000083106116fa576d04ee2d6d415b85acef810000000083816116f0576116ef6125b4565b5b0492506020810190505b662386f26fc10000831061172957662386f26fc10000838161171f5761171e6125b4565b5b0492506010810190505b6305f5e1008310611752576305f5e1008381611748576117476125b4565b5b0492506008810190505b612710831061177757612710838161176d5761176c6125b4565b5b0492506004810190505b6064831061179a57606483816117905761178f6125b4565b5b0492506002810190505b600a83106117a9576001810190505b80915050919050565b5f8073ffffffffffffffffffffffffffffffffffffffff168373ffffffffffffffffffffffffffffffffffffffff161415801561186957508273ffffffffffffffffffffffffffffffffffffffff168473ffffffffffffffffffffffffffffffffffffffff16148061182a57506118298484610b72565b5b8061186857508273ffffffffffffffffffffffffffffffffffffffff1661185083610d14565b73ffffffffffffffffffffffffffffffffffffffff16145b5b90509392505050565b5f73ffffffffffffffffffffffffffffffffffffffff168273ffffffffffffffffffffffffffffffffffffffff16036118e2575f6040517f64a0ae920000000000000000000000000000000000000000000000000000000081526004016118d99190611b70565b60405180910390fd5b5f6118ee83835f610d66565b90505f73ffffffffffffffffffffffffffffffffffffffff168173ffffffffffffffffffffffffffffffffffffffff1614611960575f6040517f73c6ac6e0000000000000000000000000000000000000000000000000000000081526004016119579190611b70565b60405180910390fd5b505050565b5f604051905090565b5f80fd5b5f80fd5b5f7fffffffff0000000000000000000000000000000000000000000000000000000082169050919050565b6119aa81611976565b81146119b4575f80fd5b50565b5f813590506119c5816119a1565b92915050565b5f602082840312156119e0576119df61196e565b5b5f6119ed848285016119b7565b91505092915050565b5f8115159050919050565b611a0a816119f6565b82525050565b5f602082019050611a235f830184611a01565b92915050565b5f81519050919050565b5f82825260208201905092915050565b5f5b83811015611a60578082015181840152602081019050611a45565b5f8484015250505050565b5f601f19601f8301169050919050565b5f611a8582611a29565b611a8f8185611a33565b9350611a9f818560208601611a43565b611aa881611a6b565b840191505092915050565b5f6020820190508181035f830152611acb8184611a7b565b905092915050565b5f819050919050565b611ae581611ad3565b8114611aef575f80fd5b50565b5f81359050611b0081611adc565b92915050565b5f60208284031215611b1b57611b1a61196e565b5b5f611b2884828501611af2565b91505092915050565b5f73ffffffffffffffffffffffffffffffffffffffff82169050919050565b5f611b5a82611b31565b9050919050565b611b6a81611b50565b82525050565b5f602082019050611b835f830184611b61565b92915050565b611b9281611b50565b8114611b9c575f80fd5b50565b5f81359050611bad81611b89565b92915050565b5f8060408385031215611bc957611bc861196e565b5b5f611bd685828601611b9f565b9250506020611be785828601611af2565b9150509250929050565b5f805f60608486031215611c0857611c0761196e565b5b5f611c1586828701611b9f565b9350506020611c2686828701611b9f565b9250506040611c3786828701611af2565b9150509250925092565b611c4a81611ad3565b82525050565b5f602082019050611c635f830184611c41565b92915050565b5f6060820190508181035f830152611c818186611a7b565b9050611c906020830185611c41565b611c9d6040830184611a01565b949350505050565b5f60208284031215611cba57611cb961196e565b5b5f611cc784828501611b9f565b91505092915050565b5f80fd5b5f80fd5b7f4e487b71000000000000000000000000000000000000000000000000000000005f52604160045260245ffd5b611d0e82611a6b565b810181811067ffffffffffffffff82111715611d2d57611d2c611cd8565b5b80604052505050565b5f611d3f611965565b9050611d4b8282611d05565b919050565b5f67ffffffffffffffff821115611d6a57611d69611cd8565b5b611d7382611a6b565b9050602081019050919050565b828183375f83830152505050565b5f611da0611d9b84611d50565b611d36565b905082815260208101848484011115611dbc57611dbb611cd4565b5b611dc7848285611d80565b509392505050565b5f82601f830112611de357611de2611cd0565b5b8135611df3848260208601611d8e565b91505092915050565b5f60208284031215611e1157611e1061196e565b5b5f82013567ffffffffffffffff811115611e2e57611e2d611972565b5b611e3a84828501611dcf565b91505092915050565b611e4c816119f6565b8114611e56575f80fd5b50565b5f81359050611e6781611e43565b92915050565b5f8060408385031215611e8357611e8261196e565b5b5f611e9085828601611b9f565b9250506020611ea185828601611e59565b9150509250929050565b5f67ffffffffffffffff821115611ec557611ec4611cd8565b5b611ece82611a6b565b9050602081019050919050565b5f611eed611ee884611eab565b611d36565b905082815260208101848484011115611f0957611f08611cd4565b5b611f14848285611d80565b509392505050565b5f82601f830112611f3057611f2f611cd0565b5b8135611f40848260208601611edb565b91505092915050565b5f805f8060808587031215611f6157611f6061196e565b5b5f611f6e87828801611b9f565b9450506020611f7f87828801611b9f565b9350506040611f9087828801611af2565b925050606085013567ffffffffffffffff811115611fb157611fb0611972565b5b611fbd87828801611f1c565b91505092959194509250565b5f8060408385031215611fdf57611fde61196e565b5b5f611fec85828601611b9f565b9250506020611ffd85828601611b9f565b9150509250929050565b7f4e487b71000000000000000000000000000000000000000000000000000000005f52602260045260245ffd5b5f600282049050600182168061204b57607f821691505b60208210810361205e5761205d612007565b5b50919050565b5f6060820190506120775f830186611b61565b6120846020830185611c41565b6120916040830184611b61565b949350505050565b7f4f6e6c792061646d696e000000000000000000000000000000000000000000005f82015250565b5f6120cd600a83611a33565b91506120d882612099565b602082019050919050565b5f6020820190508181035f8301526120fa816120c1565b9050919050565b7f416c7265616479207265676973746572656400000000000000000000000000005f82015250565b5f612135601283611a33565b915061214082612101565b602082019050919050565b5f6020820190508181035f83015261216281612129565b9050919050565b7f4e487b71000000000000000000000000000000000000000000000000000000005f52601160045260245ffd5b5f6121a082611ad3565b91506121ab83611ad3565b92508282019050808211156121c3576121c2612169565b5b92915050565b5f819050815f5260205f209050919050565b5f6020601f8301049050919050565b5f82821b905092915050565b5f600883026122257fffffffffffffffffffffffffffffffffffffffffffffffffffffffffffffffff826121ea565b61222f86836121ea565b95508019841693508086168417925050509392505050565b5f819050919050565b5f61226a61226561226084611ad3565b612247565b611ad3565b9050919050565b5f819050919050565b61228383612250565b61229761228f82612271565b8484546121f6565b825550505050565b5f90565b6122ab61229f565b6122b681848461227a565b505050565b5b818110156122d9576122ce5f826122a3565b6001810190506122bc565b5050565b601f82111561231e576122ef816121c9565b6122f8846121db565b81016020851015612307578190505b61231b612313856121db565b8301826122bb565b50505b505050565b5f82821c905092915050565b5f61233e5f1984600802612323565b1980831691505092915050565b5f612356838361232f565b9150826002028217905092915050565b61236f82611a29565b67ffffffffffffffff81111561238857612387611cd8565b5b6123928254612034565b61239d8282856122dd565b5f60209050601f8311600181146123ce575f84156123bc578287015190505b6123c6858261234b565b86555061242d565b601f1984166123dc866121c9565b5f5b82811015612403578489015182556001820191506020850194506020810190506123de565b86831015612420578489015161241c601f89168261232f565b8355505b6001600288020188555050505b505050505050565b5f61243f82611ad3565b91507fffffffffffffffffffffffffffffffffffffffffffffffffffffffffffffffff820361247157612470612169565b5b600182019050919050565b5f81905092915050565b5f61249082611a29565b61249a818561247c565b93506124aa818560208601611a43565b80840191505092915050565b5f6124c18285612486565b91506124cd8284612486565b91508190509392505050565b5f81519050919050565b5f82825260208201905092915050565b5f6124fd826124d9565b61250781856124e3565b9350612517818560208601611a43565b61252081611a6b565b840191505092915050565b5f60808201905061253e5f830187611b61565b61254b6020830186611b61565b6125586040830185611c41565b818103606083015261256a81846124f3565b905095945050505050565b5f81519050612583816119a1565b92915050565b5f6020828403121561259e5761259d61196e565b5b5f6125ab84828501612575565b91505092915050565b7f4e487b71000000000000000000000000000000000000000000000000000000005f52601260045260245ffd5b5f6040820190506125f45f830185611b61565b6126016020830184611c41565b939250505056fea2646970667358221220e4d83de9a8b0b9476501519d23716a729feb530e1daff1f40438a138d409106d64736f6c63430008150033",
  "immutableReferences": {},
  "source": "// SPDX-License-Identifier: GPL-3.0\r\n\r\n// contracts/MediaRegistry.sol\r\n\r\npragma solidity ^0.8.0;\r\n\r\nimport \"@openzeppelin/contracts/token/ERC721/ERC721.sol\";\r\n\r\ncontract MediaRegistry is ERC721(\"MediaHouseBadge\", \"MHB\") {\r\n\r\n    address public admin;\r\n    uint256 public lastIssuedTokenId = 0;\r\n    \r\n    struct MediaHouse {\r\n        string name;\r\n        uint256 reputation;\r\n        bool isVerified;\r\n    }\r\n    \r\n    mapping(uint256 => MediaHouse) public tokenIdToMediaHouses;\r\n    mapping(address => uint256) public addressToTokenId;\r\n\r\n    constructor() {\r\n        admin = msg.sender;\r\n    }\r\n\r\n    function registerMediaHouse(string memory name) external {\r\n        require(balanceOf(msg.sender) == 0, \"Already registered\");\r\n        _safeMint(msg.sender, lastIssuedTokenId + 1);\r\n        tokenIdToMediaHouses[lastIssuedTokenId + 1] = MediaHouse(name, 50, false);\r\n        addressToTokenId[msg.sender] = lastIssuedTokenId + 1;\r\n        lastIssuedTokenId++;\r\n    }\r\n\r\n    function verifyMediaHouse(uint256 tokenId) external {  // no internal calls required therefore using external and not public\r\n        require(msg.sender == admin, \"Only admin\");\r\n        tokenIdToMediaHouses[tokenId].isVerified = true;\r\n    }\r\n}",
  "sourcePath": "E:\\Blockchain\\misinform\\contracts\\MediaRegistry.sol",
  "compiler": {
    "name": "solc",
    "version": "0.8.21+commit.d9974bed.Emscripten.clang"
  },
  "schemaVersion": "3.4.16",
  "updatedAt": "2025-04-06T14:01:49.823Z",
  "networkType": "ethereum",
  "devdoc": {
    "errors": {
      "ERC721IncorrectOwner(address,uint256,address)": [
        {
          "details": "Indicates an error related to the ownership over a particular token. Used in transfers.",
          "params": {
            "owner": "Address of the current owner of a token.",
            "sender": "Address whose tokens are being transferred.",
            "tokenId": "Identifier number of a token."
          }
        }
      ],
      "ERC721InsufficientApproval(address,uint256)": [
        {
          "details": "Indicates a failure with the `operator`s approval. Used in transfers.",
          "params": {
            "operator": "Address that may be allowed to operate on tokens without being their owner.",
            "tokenId": "Identifier number of a token."
          }
        }
      ],
      "ERC721InvalidApprover(address)": [
        {
          "details": "Indicates a failure with the `approver` of a token to be approved. Used in approvals.",
          "params": {
            "approver": "Address initiating an approval operation."
          }
        }
      ],
      "ERC721InvalidOperator(address)": [
        {
          "details": "Indicates a failure with the `operator` to be approved. Used in approvals.",
          "params": {
            "operator": "Address that may be allowed to operate on tokens without being their owner."
          }
        }
      ],
      "ERC721InvalidOwner(address)": [
        {
          "details": "Indicates that an address can't be an owner. For example, `address(0)` is a forbidden owner in ERC-20. Used in balance queries.",
          "params": {
            "owner": "Address of the current owner of a token."
          }
        }
      ],
      "ERC721InvalidReceiver(address)": [
        {
          "details": "Indicates a failure with the token `receiver`. Used in transfers.",
          "params": {
            "receiver": "Address to which tokens are being transferred."
          }
        }
      ],
      "ERC721InvalidSender(address)": [
        {
          "details": "Indicates a failure with the token `sender`. Used in transfers.",
          "params": {
            "sender": "Address whose tokens are being transferred."
          }
        }
      ],
      "ERC721NonexistentToken(uint256)": [
        {
          "details": "Indicates a `tokenId` whose `owner` is the zero address.",
          "params": {
            "tokenId": "Identifier number of a token."
          }
        }
      ]
    },
    "events": {
      "Approval(address,address,uint256)": {
        "details": "Emitted when `owner` enables `approved` to manage the `tokenId` token."
      },
      "ApprovalForAll(address,address,bool)": {
        "details": "Emitted when `owner` enables or disables (`approved`) `operator` to manage all of its assets."
      },
      "Transfer(address,address,uint256)": {
        "details": "Emitted when `tokenId` token is transferred from `from` to `to`."
      }
    },
    "kind": "dev",
    "methods": {
      "approve(address,uint256)": {
        "details": "See {IERC721-approve}."
      },
      "balanceOf(address)": {
        "details": "See {IERC721-balanceOf}."
      },
      "getApproved(uint256)": {
        "details": "See {IERC721-getApproved}."
      },
      "isApprovedForAll(address,address)": {
        "details": "See {IERC721-isApprovedForAll}."
      },
      "name()": {
        "details": "See {IERC721Metadata-name}."
      },
      "ownerOf(uint256)": {
        "details": "See {IERC721-ownerOf}."
      },
      "safeTransferFrom(address,address,uint256)": {
        "details": "See {IERC721-safeTransferFrom}."
      },
      "safeTransferFrom(address,address,uint256,bytes)": {
        "details": "See {IERC721-safeTransferFrom}."
      },
      "setApprovalForAll(address,bool)": {
        "details": "See {IERC721-setApprovalForAll}."
      },
      "supportsInterface(bytes4)": {
        "details": "See {IERC165-supportsInterface}."
      },
      "symbol()": {
        "details": "See {IERC721Metadata-symbol}."
      },
      "tokenURI(uint256)": {
        "details": "See {IERC721Metadata-tokenURI}."
      },
      "transferFrom(address,address,uint256)": {
        "details": "See {IERC721-transferFrom}."
      }
    },
    "version": 1
  },
  "userdoc": {
    "kind": "user",
    "methods": {},
    "version": 1
  }
}