{
  "contractName": "MediaRegistry",
  "abi": [
    {
      "inputs": [
        {
          "internalType": "address",
          "name": "sender",
          "type": "address"
        },
        {
          "internalType": "uint256",
          "name": "tokenId",
          "type": "uint256"
        },
        {
          "internalType": "address",
          "name": "owner",
          "type": "address"
        }
      ],
      "name": "ERC721IncorrectOwner",
      "type": "error"
    },
    {
      "inputs": [
        {
          "internalType": "address",
          "name": "operator",
          "type": "address"
        },
        {
          "internalType": "uint256",
          "name": "tokenId",
          "type": "uint256"
        }
      ],
      "name": "ERC721InsufficientApproval",
      "type": "error"
    },
    {
      "inputs": [
        {
          "internalType": "address",
          "name": "approver",
          "type": "address"
        }
      ],
      "name": "ERC721InvalidApprover",
      "type": "error"
    },
    {
      "inputs": [
        {
          "internalType": "address",
          "name": "operator",
          "type": "address"
        }
      ],
      "name": "ERC721InvalidOperator",
      "type": "error"
    },
    {
      "inputs": [
        {
          "internalType": "address",
          "name": "owner",
          "type": "address"
        }
      ],
      "name": "ERC721InvalidOwner",
      "type": "error"
    },
    {
      "inputs": [
        {
          "internalType": "address",
          "name": "receiver",
          "type": "address"
        }
      ],
      "name": "ERC721InvalidReceiver",
      "type": "error"
    },
    {
      "inputs": [
        {
          "internalType": "address",
          "name": "sender",
          "type": "address"
        }
      ],
      "name": "ERC721InvalidSender",
      "type": "error"
    },
    {
      "inputs": [
        {
          "internalType": "uint256",
          "name": "tokenId",
          "type": "uint256"
        }
      ],
      "name": "ERC721NonexistentToken",
      "type": "error"
    },
    {
      "anonymous": false,
      "inputs": [
        {
          "indexed": true,
          "internalType": "address",
          "name": "owner",
          "type": "address"
        },
        {
          "indexed": true,
          "internalType": "address",
          "name": "approved",
          "type": "address"
        },
        {
          "indexed": true,
          "internalType": "uint256",
          "name": "tokenId",
          "type": "uint256"
        }
      ],
      "name": "Approval",
      "type": "event"
    },
    {
      "anonymous": false,
      "inputs": [
        {
          "indexed": true,
          "internalType": "address",
          "name": "owner",
          "type": "address"
        },
        {
          "indexed": true,
          "internalType": "address",
          "name": "operator",
          "type": "address"
        },
        {
          "indexed": false,
          "internalType": "bool",
          "name": "approved",
          "type": "bool"
        }
      ],
      "name": "ApprovalForAll",
      "type": "event"
    },
    {
      "anonymous": false,
      "inputs": [
        {
          "indexed": false,
          "internalType": "uint256",
          "name": "tokenId",
          "type": "uint256"
        }
      ],
      "name": "MediaHouseVerified",
      "type": "event"
    },
    {
      "anonymous": false,
      "inputs": [
        {
          "indexed": false,
          "internalType": "uint256",
          "name": "tokenId",
          "type": "uint256"
        },
        {
          "indexed": false,
          "internalType": "int256",
          "name": "change",
          "type": "int256"
        }
      ],
      "name": "ReputationChanged",
      "type": "event"
    },
    {
      "anonymous": false,
      "inputs": [
        {
          "indexed": true,
          "internalType": "address",
          "name": "from",
          "type": "address"
        },
        {
          "indexed": true,
          "internalType": "address",
          "name": "to",
          "type": "address"
        },
        {
          "indexed": true,
          "internalType": "uint256",
          "name": "tokenId",
          "type": "uint256"
        }
      ],
      "name": "Transfer",
      "type": "event"
    },
    {
      "anonymous": false,
      "inputs": [
        {
          "indexed": false,
          "internalType": "uint256",
          "name": "tokenId",
          "type": "uint256"
        },
        {
          "indexed": false,
          "internalType": "address",
          "name": "mediaHouse",
          "type": "address"
        }
      ],
      "name": "VerificationRequested",
      "type": "event"
    },
    {
      "anonymous": false,
      "inputs": [
        {
          "indexed": false,
          "internalType": "uint256",
          "name": "tokenId",
          "type": "uint256"
        },
        {
          "indexed": false,
          "internalType": "address",
          "name": "voter",
          "type": "address"
        },
        {
          "indexed": false,
          "internalType": "bool",
          "name": "approved",
          "type": "bool"
        },
        {
          "indexed": false,
          "internalType": "uint256",
          "name": "votingPower",
          "type": "uint256"
        }
      ],
      "name": "Voted",
      "type": "event"
    },
    {
      "inputs": [],
      "name": "REPUTATION_DELTA",
      "outputs": [
        {
          "internalType": "uint256",
          "name": "",
          "type": "uint256"
        }
      ],
      "stateMutability": "view",
      "type": "function",
      "constant": true
    },
    {
      "inputs": [],
      "name": "VERIFICATION_THRESHOLD",
      "outputs": [
        {
          "internalType": "uint256",
          "name": "",
          "type": "uint256"
        }
      ],
      "stateMutability": "view",
      "type": "function",
      "constant": true
    },
    {
      "inputs": [],
      "name": "VOTING_PERIOD",
      "outputs": [
        {
          "internalType": "uint256",
          "name": "",
          "type": "uint256"
        }
      ],
      "stateMutability": "view",
      "type": "function",
      "constant": true
    },
    {
      "inputs": [
        {
          "internalType": "address",
          "name": "",
          "type": "address"
        }
      ],
      "name": "addressToTokenId",
      "outputs": [
        {
          "internalType": "uint256",
          "name": "",
          "type": "uint256"
        }
      ],
      "stateMutability": "view",
      "type": "function",
      "constant": true
    },
    {
      "inputs": [
        {
          "internalType": "address",
          "name": "to",
          "type": "address"
        },
        {
          "internalType": "uint256",
          "name": "tokenId",
          "type": "uint256"
        }
      ],
      "name": "approve",
      "outputs": [],
      "stateMutability": "nonpayable",
      "type": "function"
    },
    {
      "inputs": [
        {
          "internalType": "address",
          "name": "owner",
          "type": "address"
        }
      ],
      "name": "balanceOf",
      "outputs": [
        {
          "internalType": "uint256",
          "name": "",
          "type": "uint256"
        }
      ],
      "stateMutability": "view",
      "type": "function",
      "constant": true
    },
    {
      "inputs": [
        {
          "internalType": "uint256",
          "name": "tokenId",
          "type": "uint256"
        }
      ],
      "name": "getApproved",
      "outputs": [
        {
          "internalType": "address",
          "name": "",
          "type": "address"
        }
      ],
      "stateMutability": "view",
      "type": "function",
      "constant": true
    },
    {
      "inputs": [
        {
          "internalType": "address",
          "name": "",
          "type": "address"
        },
        {
          "internalType": "uint256",
          "name": "",
          "type": "uint256"
        }
      ],
      "name": "hasVoted",
      "outputs": [
        {
          "internalType": "bool",
          "name": "",
          "type": "bool"
        }
      ],
      "stateMutability": "view",
      "type": "function",
      "constant": true
    },
    {
      "inputs": [
        {
          "internalType": "address",
          "name": "owner",
          "type": "address"
        },
        {
          "internalType": "address",
          "name": "operator",
          "type": "address"
        }
      ],
      "name": "isApprovedForAll",
      "outputs": [
        {
          "internalType": "bool",
          "name": "",
          "type": "bool"
        }
      ],
      "stateMutability": "view",
      "type": "function",
      "constant": true
    },
    {
      "inputs": [],
      "name": "name",
      "outputs": [
        {
          "internalType": "string",
          "name": "",
          "type": "string"
        }
      ],
      "stateMutability": "view",
      "type": "function",
      "constant": true
    },
    {
      "inputs": [
        {
          "internalType": "uint256",
          "name": "tokenId",
          "type": "uint256"
        }
      ],
      "name": "ownerOf",
      "outputs": [
        {
          "internalType": "address",
          "name": "",
          "type": "address"
        }
      ],
      "stateMutability": "view",
      "type": "function",
      "constant": true
    },
    {
      "inputs": [
        {
          "internalType": "address",
          "name": "from",
          "type": "address"
        },
        {
          "internalType": "address",
          "name": "to",
          "type": "address"
        },
        {
          "internalType": "uint256",
          "name": "tokenId",
          "type": "uint256"
        }
      ],
      "name": "safeTransferFrom",
      "outputs": [],
      "stateMutability": "nonpayable",
      "type": "function"
    },
    {
      "inputs": [
        {
          "internalType": "address",
          "name": "from",
          "type": "address"
        },
        {
          "internalType": "address",
          "name": "to",
          "type": "address"
        },
        {
          "internalType": "uint256",
          "name": "tokenId",
          "type": "uint256"
        },
        {
          "internalType": "bytes",
          "name": "data",
          "type": "bytes"
        }
      ],
      "name": "safeTransferFrom",
      "outputs": [],
      "stateMutability": "nonpayable",
      "type": "function"
    },
    {
      "inputs": [
        {
          "internalType": "address",
          "name": "operator",
          "type": "address"
        },
        {
          "internalType": "bool",
          "name": "approved",
          "type": "bool"
        }
      ],
      "name": "setApprovalForAll",
      "outputs": [],
      "stateMutability": "nonpayable",
      "type": "function"
    },
    {
      "inputs": [
        {
          "internalType": "bytes4",
          "name": "interfaceId",
          "type": "bytes4"
        }
      ],
      "name": "supportsInterface",
      "outputs": [
        {
          "internalType": "bool",
          "name": "",
          "type": "bool"
        }
      ],
      "stateMutability": "view",
      "type": "function",
      "constant": true
    },
    {
      "inputs": [],
      "name": "symbol",
      "outputs": [
        {
          "internalType": "string",
          "name": "",
          "type": "string"
        }
      ],
      "stateMutability": "view",
      "type": "function",
      "constant": true
    },
    {
      "inputs": [
        {
          "internalType": "uint256",
          "name": "",
          "type": "uint256"
        }
      ],
      "name": "tokenIdToMediaHouses",
      "outputs": [
        {
          "internalType": "string",
          "name": "name",
          "type": "string"
        },
        {
          "internalType": "uint256",
          "name": "reputation",
          "type": "uint256"
        },
        {
          "internalType": "bool",
          "name": "isVerified",
          "type": "bool"
        },
        {
          "internalType": "uint256",
          "name": "verificationRequestTimestamp",
          "type": "uint256"
        }
      ],
      "stateMutability": "view",
      "type": "function",
      "constant": true
    },
    {
      "inputs": [
        {
          "internalType": "uint256",
          "name": "tokenId",
          "type": "uint256"
        }
      ],
      "name": "tokenURI",
      "outputs": [
        {
          "internalType": "string",
          "name": "",
          "type": "string"
        }
      ],
      "stateMutability": "view",
      "type": "function",
      "constant": true
    },
    {
      "inputs": [
        {
          "internalType": "address",
          "name": "from",
          "type": "address"
        },
        {
          "internalType": "address",
          "name": "to",
          "type": "address"
        },
        {
          "internalType": "uint256",
          "name": "tokenId",
          "type": "uint256"
        }
      ],
      "name": "transferFrom",
      "outputs": [],
      "stateMutability": "nonpayable",
      "type": "function"
    },
    {
      "inputs": [
        {
          "internalType": "uint256",
          "name": "",
          "type": "uint256"
        },
        {
          "internalType": "uint256",
          "name": "",
          "type": "uint256"
        }
      ],
      "name": "verificationVotes",
      "outputs": [
        {
          "internalType": "address",
          "name": "voter",
          "type": "address"
        },
        {
          "internalType": "bool",
          "name": "approved",
          "type": "bool"
        },
        {
          "internalType": "uint256",
          "name": "votingPower",
          "type": "uint256"
        }
      ],
      "stateMutability": "view",
      "type": "function",
      "constant": true
    },
    {
      "inputs": [
        {
          "internalType": "string",
          "name": "name",
          "type": "string"
        }
      ],
      "name": "registerMediaHouse",
      "outputs": [],
      "stateMutability": "nonpayable",
      "type": "function"
    },
    {
      "inputs": [
        {
          "internalType": "uint256",
          "name": "tokenId",
          "type": "uint256"
        }
      ],
      "name": "requestVerification",
      "outputs": [],
      "stateMutability": "nonpayable",
      "type": "function"
    },
    {
      "inputs": [
        {
          "internalType": "uint256",
          "name": "tokenId",
          "type": "uint256"
        },
        {
          "internalType": "bool",
          "name": "approved",
          "type": "bool"
        }
      ],
      "name": "voteOnVerification",
      "outputs": [],
      "stateMutability": "nonpayable",
      "type": "function"
    },
    {
      "inputs": [],
      "name": "totalMediaHouses",
      "outputs": [
        {
          "internalType": "uint256",
          "name": "",
          "type": "uint256"
        }
      ],
      "stateMutability": "view",
      "type": "function",
      "constant": true
    },
    {
      "inputs": [
        {
          "internalType": "uint256",
          "name": "tokenId",
          "type": "uint256"
        }
      ],
      "name": "getVerificationVotes",
      "outputs": [
        {
          "components": [
            {
              "internalType": "address",
              "name": "voter",
              "type": "address"
            },
            {
              "internalType": "bool",
              "name": "approved",
              "type": "bool"
            },
            {
              "internalType": "uint256",
              "name": "votingPower",
              "type": "uint256"
            }
          ],
          "internalType": "struct MediaRegistry.VerificationVote[]",
          "name": "",
          "type": "tuple[]"
        }
      ],
      "stateMutability": "view",
      "type": "function",
      "constant": true
    }
  ],
  "bytecode": "0x6080604052600160065534801562000015575f80fd5b506040518060400160405280600f81526020017f4d65646961486f757365426164676500000000000000000000000000000000008152506040518060400160405280600381526020017f4d48420000000000000000000000000000000000000000000000000000000000815250815f908162000092919062000311565b508060019081620000a4919062000311565b505050620003f5565b5f81519050919050565b7f4e487b71000000000000000000000000000000000000000000000000000000005f52604160045260245ffd5b7f4e487b71000000000000000000000000000000000000000000000000000000005f52602260045260245ffd5b5f60028204905060018216806200012957607f821691505b6020821081036200013f576200013e620000e4565b5b50919050565b5f819050815f5260205f209050919050565b5f6020601f8301049050919050565b5f82821b905092915050565b5f60088302620001a37fffffffffffffffffffffffffffffffffffffffffffffffffffffffffffffffff8262000166565b620001af868362000166565b95508019841693508086168417925050509392505050565b5f819050919050565b5f819050919050565b5f620001f9620001f3620001ed84620001c7565b620001d0565b620001c7565b9050919050565b5f819050919050565b6200021483620001d9565b6200022c620002238262000200565b84845462000172565b825550505050565b5f90565b6200024262000234565b6200024f81848462000209565b505050565b5b8181101562000276576200026a5f8262000238565b60018101905062000255565b5050565b601f821115620002c5576200028f8162000145565b6200029a8462000157565b81016020851015620002aa578190505b620002c2620002b98562000157565b83018262000254565b50505b505050565b5f82821c905092915050565b5f620002e75f1984600802620002ca565b1980831691505092915050565b5f620003018383620002d6565b9150826002028217905092915050565b6200031c82620000ad565b67ffffffffffffffff811115620003385762000337620000b7565b5b62000344825462000111565b620003518282856200027a565b5f60209050601f83116001811462000387575f841562000372578287015190505b6200037e8582620002f4565b865550620003ed565b601f198416620003978662000145565b5f5b82811015620003c05784890151825560018201915060208501945060208101905062000399565b86831015620003e05784890151620003dc601f891682620002d6565b8355505b6001600288020188555050505b505050505050565b61369580620004035f395ff3fe608060405234801561000f575f80fd5b5060043610610171575f3560e01c80636352211e116100dc5780639ab5573611610095578063b88d4fde1161006f578063b88d4fde14610484578063c87b56dd146104a0578063e985e9c5146104d0578063f1d328dc1461050057610171565b80639ab557361461042e578063a22cb4651461044a578063b1610d7e1461046657610171565b80636352211e146103305780636511bf2e1461036057806370a08231146103905780637688ad65146103c0578063945135cb146103de57806395d89b411461041057610171565b80633f53b43f1161012e5780633f53b43f14610247578063425458251461026557806342842e0e1461029557806355f39118146102b157806358687398146102e45780635bae8b781461031457610171565b806301ffc9a71461017557806306fdde03146101a5578063081812fc146101c3578063095ea7b3146101f35780630c020f081461020f57806323b872dd1461022b575b5f80fd5b61018f600480360381019061018a91906124d7565b61051e565b60405161019c919061251c565b60405180910390f35b6101ad6105ff565b6040516101ba91906125bf565b60405180910390f35b6101dd60048036038101906101d89190612612565b61068e565b6040516101ea919061267c565b60405180910390f35b61020d600480360381019061020891906126bf565b6106a9565b005b61022960048036038101906102249190612612565b6106bf565b005b610245600480360381019061024091906126fd565b6107eb565b005b61024f6108ea565b60405161025c919061275c565b60405180910390f35b61027f600480360381019061027a91906126bf565b6108f0565b60405161028c919061251c565b60405180910390f35b6102af60048036038101906102aa91906126fd565b61091a565b005b6102cb60048036038101906102c69190612612565b610939565b6040516102db9493929190612775565b60405180910390f35b6102fe60048036038101906102f99190612612565b6109f7565b60405161030b91906128d4565b60405180910390f35b61032e6004803603810190610329919061291e565b610adc565b005b61034a60048036038101906103459190612612565b610e5c565b604051610357919061267c565b60405180910390f35b61037a6004803603810190610375919061295c565b610e6d565b604051610387919061275c565b60405180910390f35b6103aa60048036038101906103a5919061295c565b610e82565b6040516103b7919061275c565b60405180910390f35b6103c8610f38565b6040516103d5919061275c565b60405180910390f35b6103f860048036038101906103f39190612987565b610f3d565b604051610407939291906129c5565b60405180910390f35b610418610fa8565b60405161042591906125bf565b60405180910390f35b61044860048036038101906104439190612b26565b611038565b005b610464600480360381019061045f9190612b6d565b61116e565b005b61046e611184565b60405161047b919061275c565b60405180910390f35b61049e60048036038101906104999190612c49565b61118b565b005b6104ba60048036038101906104b59190612612565b6111b0565b6040516104c791906125bf565b60405180910390f35b6104ea60048036038101906104e59190612cc9565b611216565b6040516104f7919061251c565b60405180910390f35b6105086112a4565b604051610515919061275c565b60405180910390f35b5f7f80ac58cd000000000000000000000000000000000000000000000000000000007bffffffffffffffffffffffffffffffffffffffffffffffffffffffff1916827bffffffffffffffffffffffffffffffffffffffffffffffffffffffff191614806105e857507f5b5e139f000000000000000000000000000000000000000000000000000000007bffffffffffffffffffffffffffffffffffffffffffffffffffffffff1916827bffffffffffffffffffffffffffffffffffffffffffffffffffffffff1916145b806105f857506105f7826112b9565b5b9050919050565b60605f805461060d90612d34565b80601f016020809104026020016040519081016040528092919081815260200182805461063990612d34565b80156106845780601f1061065b57610100808354040283529160200191610684565b820191905f5260205f20905b81548152906001019060200180831161066757829003601f168201915b5050505050905090565b5f61069882611322565b506106a2826113a8565b9050919050565b6106bb82826106b66113e1565b6113e8565b5050565b3373ffffffffffffffffffffffffffffffffffffffff166106df82610e5c565b73ffffffffffffffffffffffffffffffffffffffff1614610735576040517f08c379a000000000000000000000000000000000000000000000000000000000815260040161072c90612dae565b60405180910390fd5b60075f8281526020019081526020015f206002015f9054906101000a900460ff1615610796576040517f08c379a000000000000000000000000000000000000000000000000000000000815260040161078d90612e16565b60405180910390fd5b4260075f8381526020019081526020015f20600301819055507fa3cac7c72dca9bd0861f2c164c8f3b00e8a9db7c0539ea939c9db9bbda01afc681336040516107e0929190612e34565b60405180910390a150565b5f73ffffffffffffffffffffffffffffffffffffffff168273ffffffffffffffffffffffffffffffffffffffff160361085b575f6040517f64a0ae92000000000000000000000000000000000000000000000000000000008152600401610852919061267c565b60405180910390fd5b5f61086e83836108696113e1565b6113fa565b90508373ffffffffffffffffffffffffffffffffffffffff168173ffffffffffffffffffffffffffffffffffffffff16146108e4578382826040517f64283d7b0000000000000000000000000000000000000000000000000000000081526004016108db93929190612e5b565b60405180910390fd5b50505050565b61012c81565b600a602052815f5260405f20602052805f5260405f205f915091509054906101000a900460ff1681565b61093483838360405180602001604052805f81525061118b565b505050565b6007602052805f5260405f205f91509050805f01805461095890612d34565b80601f016020809104026020016040519081016040528092919081815260200182805461098490612d34565b80156109cf5780601f106109a6576101008083540402835291602001916109cf565b820191905f5260205f20905b8154815290600101906020018083116109b257829003601f168201915b505050505090806001015490806002015f9054906101000a900460ff16908060030154905084565b606060095f8381526020019081526020015f20805480602002602001604051908101604052809291908181526020015f905b82821015610ad1578382905f5260205f2090600202016040518060600160405290815f82015f9054906101000a900473ffffffffffffffffffffffffffffffffffffffff1673ffffffffffffffffffffffffffffffffffffffff1673ffffffffffffffffffffffffffffffffffffffff1681526020015f820160149054906101000a900460ff1615151515815260200160018201548152505081526020019060010190610a29565b505050509050919050565b5f610ae633610e82565b11610b26576040517f08c379a0000000000000000000000000000000000000000000000000000000008152600401610b1d90612eda565b60405180910390fd5b600a5f3373ffffffffffffffffffffffffffffffffffffffff1673ffffffffffffffffffffffffffffffffffffffff1681526020019081526020015f205f8381526020019081526020015f205f9054906101000a900460ff1615610bbf576040517f08c379a0000000000000000000000000000000000000000000000000000000008152600401610bb690612f42565b60405180910390fd5b5f60075f8481526020019081526020015f206003015411610c15576040517f08c379a0000000000000000000000000000000000000000000000000000000008152600401610c0c90612faa565b60405180910390fd5b6203f48060075f8481526020019081526020015f2060030154610c389190612ff5565b421115610c7a576040517f08c379a0000000000000000000000000000000000000000000000000000000008152600401610c7190613072565b60405180910390fd5b5f60085f3373ffffffffffffffffffffffffffffffffffffffff1673ffffffffffffffffffffffffffffffffffffffff1681526020019081526020015f205490505f60075f8381526020019081526020015f2060010154905060095f8581526020019081526020015f2060405180606001604052803373ffffffffffffffffffffffffffffffffffffffff168152602001851515815260200183815250908060018154018082558091505060019003905f5260205f2090600202015f909190919091505f820151815f015f6101000a81548173ffffffffffffffffffffffffffffffffffffffff021916908373ffffffffffffffffffffffffffffffffffffffff1602179055506020820151815f0160146101000a81548160ff0219169083151502179055506040820151816001015550506001600a5f3373ffffffffffffffffffffffffffffffffffffffff1673ffffffffffffffffffffffffffffffffffffffff1681526020019081526020015f205f8681526020019081526020015f205f6101000a81548160ff0219169083151502179055507f7c2de587c00d75474a0c6c6fa96fd3b45dc974cd4e8a75f712bb84c950dce1b584338584604051610e459493929190613090565b60405180910390a1610e5684611605565b50505050565b5f610e6682611322565b9050919050565b6008602052805f5260405f205f915090505481565b5f8073ffffffffffffffffffffffffffffffffffffffff168273ffffffffffffffffffffffffffffffffffffffff1603610ef3575f6040517f89c62b64000000000000000000000000000000000000000000000000000000008152600401610eea919061267c565b60405180910390fd5b60035f8373ffffffffffffffffffffffffffffffffffffffff1673ffffffffffffffffffffffffffffffffffffffff1681526020019081526020015f20549050919050565b600a81565b6009602052815f5260405f208181548110610f56575f80fd5b905f5260205f2090600202015f9150915050805f015f9054906101000a900473ffffffffffffffffffffffffffffffffffffffff1690805f0160149054906101000a900460ff16908060010154905083565b606060018054610fb790612d34565b80601f0160208091040260200160405190810160405280929190818152602001828054610fe390612d34565b801561102e5780601f106110055761010080835404028352916020019161102e565b820191905f5260205f20905b81548152906001019060200180831161101157829003601f168201915b5050505050905090565b5f61104233610e82565b14611082576040517f08c379a00000000000000000000000000000000000000000000000000000000081526004016110799061311d565b60405180910390fd5b5f600654905061109233826116c8565b6040518060800160405280838152602001603281526020015f151581526020015f81525060075f8381526020019081526020015f205f820151815f0190816110da91906132d8565b50602082015181600101556040820151816002015f6101000a81548160ff021916908315150217905550606082015181600301559050508060085f3373ffffffffffffffffffffffffffffffffffffffff1673ffffffffffffffffffffffffffffffffffffffff1681526020019081526020015f208190555060065f815480929190611165906133a7565b91905055505050565b6111806111796113e1565b83836116e5565b5050565b6203f48081565b6111968484846107eb565b6111aa6111a16113e1565b8585858561184e565b50505050565b60606111bb82611322565b505f6111c56119fa565b90505f8151116111e35760405180602001604052805f81525061120e565b806111ed84611a10565b6040516020016111fe929190613428565b6040516020818303038152906040525b915050919050565b5f60055f8473ffffffffffffffffffffffffffffffffffffffff1673ffffffffffffffffffffffffffffffffffffffff1681526020019081526020015f205f8373ffffffffffffffffffffffffffffffffffffffff1673ffffffffffffffffffffffffffffffffffffffff1681526020019081526020015f205f9054906101000a900460ff16905092915050565b5f60016006546112b4919061344b565b905090565b5f7f01ffc9a7000000000000000000000000000000000000000000000000000000007bffffffffffffffffffffffffffffffffffffffffffffffffffffffff1916827bffffffffffffffffffffffffffffffffffffffffffffffffffffffff1916149050919050565b5f8061132d83611ada565b90505f73ffffffffffffffffffffffffffffffffffffffff168173ffffffffffffffffffffffffffffffffffffffff160361139f57826040517f7e273289000000000000000000000000000000000000000000000000000000008152600401611396919061275c565b60405180910390fd5b80915050919050565b5f60045f8381526020019081526020015f205f9054906101000a900473ffffffffffffffffffffffffffffffffffffffff169050919050565b5f33905090565b6113f58383836001611b13565b505050565b5f8061140584611ada565b90505f73ffffffffffffffffffffffffffffffffffffffff168373ffffffffffffffffffffffffffffffffffffffff161461144657611445818486611cd2565b5b5f73ffffffffffffffffffffffffffffffffffffffff168173ffffffffffffffffffffffffffffffffffffffff16146114d1576114855f855f80611b13565b600160035f8373ffffffffffffffffffffffffffffffffffffffff1673ffffffffffffffffffffffffffffffffffffffff1681526020019081526020015f205f82825403925050819055505b5f73ffffffffffffffffffffffffffffffffffffffff168573ffffffffffffffffffffffffffffffffffffffff161461155057600160035f8773ffffffffffffffffffffffffffffffffffffffff1673ffffffffffffffffffffffffffffffffffffffff1681526020019081526020015f205f82825401925050819055505b8460025f8681526020019081526020015f205f6101000a81548173ffffffffffffffffffffffffffffffffffffffff021916908373ffffffffffffffffffffffffffffffffffffffff160217905550838573ffffffffffffffffffffffffffffffffffffffff168273ffffffffffffffffffffffffffffffffffffffff167fddf252ad1be2c89b69c2b068fc378daa952ba7f163c4a11628f55a4df523b3ef60405160405180910390a4809150509392505050565b5f61160f82611d95565b50905061012c811061168e57600160075f8481526020019081526020015f206002015f6101000a81548160ff021916908315150217905550611652826001611e93565b7f75d081ee2c309857bd3e5aa32607c213de5dafe6c04c6764d25ed606357e595982604051611681919061275c565b60405180910390a16116c4565b6203f48060075f8481526020019081526020015f20600301546116b19190612ff5565b4211156116c3576116c2825f611e93565b5b5b5050565b6116e1828260405180602001604052805f81525061211a565b5050565b5f73ffffffffffffffffffffffffffffffffffffffff168273ffffffffffffffffffffffffffffffffffffffff160361175557816040517f5b08ba1800000000000000000000000000000000000000000000000000000000815260040161174c919061267c565b60405180910390fd5b8060055f8573ffffffffffffffffffffffffffffffffffffffff1673ffffffffffffffffffffffffffffffffffffffff1681526020019081526020015f205f8473ffffffffffffffffffffffffffffffffffffffff1673ffffffffffffffffffffffffffffffffffffffff1681526020019081526020015f205f6101000a81548160ff0219169083151502179055508173ffffffffffffffffffffffffffffffffffffffff168373ffffffffffffffffffffffffffffffffffffffff167f17307eab39ab6107e8899845ad3d59bd9653f200f220920489ca2b5937696c3183604051611841919061251c565b60405180910390a3505050565b5f8373ffffffffffffffffffffffffffffffffffffffff163b11156119f3578273ffffffffffffffffffffffffffffffffffffffff1663150b7a02868685856040518563ffffffff1660e01b81526004016118ac94939291906134d0565b6020604051808303815f875af19250505080156118e757506040513d601f19601f820116820180604052508101906118e4919061352e565b60015b611968573d805f8114611915576040519150601f19603f3d011682016040523d82523d5f602084013e61191a565b606091505b505f81510361196057836040517f64a0ae92000000000000000000000000000000000000000000000000000000008152600401611957919061267c565b60405180910390fd5b805181602001fd5b63150b7a0260e01b7bffffffffffffffffffffffffffffffffffffffffffffffffffffffff1916817bffffffffffffffffffffffffffffffffffffffffffffffffffffffff1916146119f157836040517f64a0ae920000000000000000000000000000000000000000000000000000000081526004016119e8919061267c565b60405180910390fd5b505b5050505050565b606060405180602001604052805f815250905090565b60605f6001611a1e8461213d565b0190505f8167ffffffffffffffff811115611a3c57611a3b612a02565b5b6040519080825280601f01601f191660200182016040528015611a6e5781602001600182028036833780820191505090505b5090505f82602001820190505b600115611acf578080600190039150507f3031323334353637383961626364656600000000000000000000000000000000600a86061a8153600a8581611ac457611ac3613559565b5b0494505f8503611a7b575b819350505050919050565b5f60025f8381526020019081526020015f205f9054906101000a900473ffffffffffffffffffffffffffffffffffffffff169050919050565b8080611b4b57505f73ffffffffffffffffffffffffffffffffffffffff168273ffffffffffffffffffffffffffffffffffffffff1614155b15611c7d575f611b5a84611322565b90505f73ffffffffffffffffffffffffffffffffffffffff168373ffffffffffffffffffffffffffffffffffffffff1614158015611bc457508273ffffffffffffffffffffffffffffffffffffffff168173ffffffffffffffffffffffffffffffffffffffff1614155b8015611bd75750611bd58184611216565b155b15611c1957826040517fa9fbf51f000000000000000000000000000000000000000000000000000000008152600401611c10919061267c565b60405180910390fd5b8115611c7b57838573ffffffffffffffffffffffffffffffffffffffff168273ffffffffffffffffffffffffffffffffffffffff167f8c5be1e5ebec7d5bd14f71427d1e84f3dd0314c0f7b2291e5b200ac8c7c3b92560405160405180910390a45b505b8360045f8581526020019081526020015f205f6101000a81548173ffffffffffffffffffffffffffffffffffffffff021916908373ffffffffffffffffffffffffffffffffffffffff16021790555050505050565b611cdd83838361228e565b611d90575f73ffffffffffffffffffffffffffffffffffffffff168373ffffffffffffffffffffffffffffffffffffffff1603611d5157806040517f7e273289000000000000000000000000000000000000000000000000000000008152600401611d48919061275c565b60405180910390fd5b81816040517f177e802f000000000000000000000000000000000000000000000000000000008152600401611d87929190613586565b60405180910390fd5b505050565b5f805f5b60095f8581526020019081526020015f2080549050811015611e8d5760095f8581526020019081526020015f208181548110611dd857611dd76135ad565b5b905f5260205f2090600202016001015482611df39190612ff5565b915060095f8581526020019081526020015f208181548110611e1857611e176135ad565b5b905f5260205f2090600202015f0160149054906101000a900460ff1615611e7a5760095f8581526020019081526020015f208181548110611e5c57611e5b6135ad565b5b905f5260205f2090600202016001015483611e779190612ff5565b92505b8080611e85906133a7565b915050611d99565b50915091565b5f5b60095f8481526020019081526020015f2080549050811015612115575f60095f8581526020019081526020015f208281548110611ed557611ed46135ad565b5b905f5260205f2090600202015f015f9054906101000a900473ffffffffffffffffffffffffffffffffffffffff1690505f60085f8373ffffffffffffffffffffffffffffffffffffffff1673ffffffffffffffffffffffffffffffffffffffff1681526020019081526020015f205490505f84151560095f8881526020019081526020015f208581548110611f6d57611f6c6135ad565b5b905f5260205f2090600202015f0160149054906101000a900460ff161515149050801561201657611fbf6064600a60075f8681526020019081526020015f2060010154611fba9190612ff5565b61234e565b60075f8481526020019081526020015f20600101819055507f3fbf22e7ab24ef2b8adda88edd51c1d18b5ae0688f3e7cd47dae3c14b1b81ceb82600a6040516120099291906135f2565b60405180910390a161209c565b6120405f600a60075f8681526020019081526020015f206001015461203b919061344b565b612366565b60075f8481526020019081526020015f20600101819055507f3fbf22e7ab24ef2b8adda88edd51c1d18b5ae0688f3e7cd47dae3c14b1b81ceb82600a61208590613619565b6040516120939291906135f2565b60405180910390a15b5f600a5f8573ffffffffffffffffffffffffffffffffffffffff1673ffffffffffffffffffffffffffffffffffffffff1681526020019081526020015f205f8881526020019081526020015f205f6101000a81548160ff021916908315150217905550505050808061210d906133a7565b915050611e95565b505050565b612124838361237e565b61213861212f6113e1565b5f85858561184e565b505050565b5f805f90507a184f03e93ff9f4daa797ed6e38ed64bf6a1f0100000000000000008310612199577a184f03e93ff9f4daa797ed6e38ed64bf6a1f010000000000000000838161218f5761218e613559565b5b0492506040810190505b6d04ee2d6d415b85acef810000000083106121d6576d04ee2d6d415b85acef810000000083816121cc576121cb613559565b5b0492506020810190505b662386f26fc10000831061220557662386f26fc1000083816121fb576121fa613559565b5b0492506010810190505b6305f5e100831061222e576305f5e100838161222457612223613559565b5b0492506008810190505b612710831061225357612710838161224957612248613559565b5b0492506004810190505b60648310612276576064838161226c5761226b613559565b5b0492506002810190505b600a8310612285576001810190505b80915050919050565b5f8073ffffffffffffffffffffffffffffffffffffffff168373ffffffffffffffffffffffffffffffffffffffff161415801561234557508273ffffffffffffffffffffffffffffffffffffffff168473ffffffffffffffffffffffffffffffffffffffff16148061230657506123058484611216565b5b8061234457508273ffffffffffffffffffffffffffffffffffffffff1661232c836113a8565b73ffffffffffffffffffffffffffffffffffffffff16145b5b90509392505050565b5f81831061235c578161235e565b825b905092915050565b5f8183116123745781612376565b825b905092915050565b5f73ffffffffffffffffffffffffffffffffffffffff168273ffffffffffffffffffffffffffffffffffffffff16036123ee575f6040517f64a0ae920000000000000000000000000000000000000000000000000000000081526004016123e5919061267c565b60405180910390fd5b5f6123fa83835f6113fa565b90505f73ffffffffffffffffffffffffffffffffffffffff168173ffffffffffffffffffffffffffffffffffffffff161461246c575f6040517f73c6ac6e000000000000000000000000000000000000000000000000000000008152600401612463919061267c565b60405180910390fd5b505050565b5f604051905090565b5f80fd5b5f80fd5b5f7fffffffff0000000000000000000000000000000000000000000000000000000082169050919050565b6124b681612482565b81146124c0575f80fd5b50565b5f813590506124d1816124ad565b92915050565b5f602082840312156124ec576124eb61247a565b5b5f6124f9848285016124c3565b91505092915050565b5f8115159050919050565b61251681612502565b82525050565b5f60208201905061252f5f83018461250d565b92915050565b5f81519050919050565b5f82825260208201905092915050565b5f5b8381101561256c578082015181840152602081019050612551565b5f8484015250505050565b5f601f19601f8301169050919050565b5f61259182612535565b61259b818561253f565b93506125ab81856020860161254f565b6125b481612577565b840191505092915050565b5f6020820190508181035f8301526125d78184612587565b905092915050565b5f819050919050565b6125f1816125df565b81146125fb575f80fd5b50565b5f8135905061260c816125e8565b92915050565b5f602082840312156126275761262661247a565b5b5f612634848285016125fe565b91505092915050565b5f73ffffffffffffffffffffffffffffffffffffffff82169050919050565b5f6126668261263d565b9050919050565b6126768161265c565b82525050565b5f60208201905061268f5f83018461266d565b92915050565b61269e8161265c565b81146126a8575f80fd5b50565b5f813590506126b981612695565b92915050565b5f80604083850312156126d5576126d461247a565b5b5f6126e2858286016126ab565b92505060206126f3858286016125fe565b9150509250929050565b5f805f606084860312156127145761271361247a565b5b5f612721868287016126ab565b9350506020612732868287016126ab565b9250506040612743868287016125fe565b9150509250925092565b612756816125df565b82525050565b5f60208201905061276f5f83018461274d565b92915050565b5f6080820190508181035f83015261278d8187612587565b905061279c602083018661274d565b6127a9604083018561250d565b6127b6606083018461274d565b95945050505050565b5f81519050919050565b5f82825260208201905092915050565b5f819050602082019050919050565b6127f18161265c565b82525050565b61280081612502565b82525050565b61280f816125df565b82525050565b606082015f8201516128295f8501826127e8565b50602082015161283c60208501826127f7565b50604082015161284f6040850182612806565b50505050565b5f6128608383612815565b60608301905092915050565b5f602082019050919050565b5f612882826127bf565b61288c81856127c9565b9350612897836127d9565b805f5b838110156128c75781516128ae8882612855565b97506128b98361286c565b92505060018101905061289a565b5085935050505092915050565b5f6020820190508181035f8301526128ec8184612878565b905092915050565b6128fd81612502565b8114612907575f80fd5b50565b5f81359050612918816128f4565b92915050565b5f80604083850312156129345761293361247a565b5b5f612941858286016125fe565b92505060206129528582860161290a565b9150509250929050565b5f602082840312156129715761297061247a565b5b5f61297e848285016126ab565b91505092915050565b5f806040838503121561299d5761299c61247a565b5b5f6129aa858286016125fe565b92505060206129bb858286016125fe565b9150509250929050565b5f6060820190506129d85f83018661266d565b6129e5602083018561250d565b6129f2604083018461274d565b949350505050565b5f80fd5b5f80fd5b7f4e487b71000000000000000000000000000000000000000000000000000000005f52604160045260245ffd5b612a3882612577565b810181811067ffffffffffffffff82111715612a5757612a56612a02565b5b80604052505050565b5f612a69612471565b9050612a758282612a2f565b919050565b5f67ffffffffffffffff821115612a9457612a93612a02565b5b612a9d82612577565b9050602081019050919050565b828183375f83830152505050565b5f612aca612ac584612a7a565b612a60565b905082815260208101848484011115612ae657612ae56129fe565b5b612af1848285612aaa565b509392505050565b5f82601f830112612b0d57612b0c6129fa565b5b8135612b1d848260208601612ab8565b91505092915050565b5f60208284031215612b3b57612b3a61247a565b5b5f82013567ffffffffffffffff811115612b5857612b5761247e565b5b612b6484828501612af9565b91505092915050565b5f8060408385031215612b8357612b8261247a565b5b5f612b90858286016126ab565b9250506020612ba18582860161290a565b9150509250929050565b5f67ffffffffffffffff821115612bc557612bc4612a02565b5b612bce82612577565b9050602081019050919050565b5f612bed612be884612bab565b612a60565b905082815260208101848484011115612c0957612c086129fe565b5b612c14848285612aaa565b509392505050565b5f82601f830112612c3057612c2f6129fa565b5b8135612c40848260208601612bdb565b91505092915050565b5f805f8060808587031215612c6157612c6061247a565b5b5f612c6e878288016126ab565b9450506020612c7f878288016126ab565b9350506040612c90878288016125fe565b925050606085013567ffffffffffffffff811115612cb157612cb061247e565b5b612cbd87828801612c1c565b91505092959194509250565b5f8060408385031215612cdf57612cde61247a565b5b5f612cec858286016126ab565b9250506020612cfd858286016126ab565b9150509250929050565b7f4e487b71000000000000000000000000000000000000000000000000000000005f52602260045260245ffd5b5f6002820490506001821680612d4b57607f821691505b602082108103612d5e57612d5d612d07565b5b50919050565b7f4e6f7420746f6b656e206f776e657200000000000000000000000000000000005f82015250565b5f612d98600f8361253f565b9150612da382612d64565b602082019050919050565b5f6020820190508181035f830152612dc581612d8c565b9050919050565b7f416c7265616479207665726966696564000000000000000000000000000000005f82015250565b5f612e0060108361253f565b9150612e0b82612dcc565b602082019050919050565b5f6020820190508181035f830152612e2d81612df4565b9050919050565b5f604082019050612e475f83018561274d565b612e54602083018461266d565b9392505050565b5f606082019050612e6e5f83018661266d565b612e7b602083018561274d565b612e88604083018461266d565b949350505050565b7f4f6e6c792072656769737465726564206d656469612063616e20766f746500005f82015250565b5f612ec4601e8361253f565b9150612ecf82612e90565b602082019050919050565b5f6020820190508181035f830152612ef181612eb8565b9050919050565b7f416c726561647920766f746564000000000000000000000000000000000000005f82015250565b5f612f2c600d8361253f565b9150612f3782612ef8565b602082019050919050565b5f6020820190508181035f830152612f5981612f20565b9050919050565b7f4e6f2061637469766520726571756573740000000000000000000000000000005f82015250565b5f612f9460118361253f565b9150612f9f82612f60565b602082019050919050565b5f6020820190508181035f830152612fc181612f88565b9050919050565b7f4e487b71000000000000000000000000000000000000000000000000000000005f52601160045260245ffd5b5f612fff826125df565b915061300a836125df565b925082820190508082111561302257613021612fc8565b5b92915050565b7f566f74696e6720706572696f6420656e646564000000000000000000000000005f82015250565b5f61305c60138361253f565b915061306782613028565b602082019050919050565b5f6020820190508181035f83015261308981613050565b9050919050565b5f6080820190506130a35f83018761274d565b6130b0602083018661266d565b6130bd604083018561250d565b6130ca606083018461274d565b95945050505050565b7f416c7265616479207265676973746572656400000000000000000000000000005f82015250565b5f61310760128361253f565b9150613112826130d3565b602082019050919050565b5f6020820190508181035f830152613134816130fb565b9050919050565b5f819050815f5260205f209050919050565b5f6020601f8301049050919050565b5f82821b905092915050565b5f600883026131977fffffffffffffffffffffffffffffffffffffffffffffffffffffffffffffffff8261315c565b6131a1868361315c565b95508019841693508086168417925050509392505050565b5f819050919050565b5f6131dc6131d76131d2846125df565b6131b9565b6125df565b9050919050565b5f819050919050565b6131f5836131c2565b613209613201826131e3565b848454613168565b825550505050565b5f90565b61321d613211565b6132288184846131ec565b505050565b5b8181101561324b576132405f82613215565b60018101905061322e565b5050565b601f821115613290576132618161313b565b61326a8461314d565b81016020851015613279578190505b61328d6132858561314d565b83018261322d565b50505b505050565b5f82821c905092915050565b5f6132b05f1984600802613295565b1980831691505092915050565b5f6132c883836132a1565b9150826002028217905092915050565b6132e182612535565b67ffffffffffffffff8111156132fa576132f9612a02565b5b6133048254612d34565b61330f82828561324f565b5f60209050601f831160018114613340575f841561332e578287015190505b61333885826132bd565b86555061339f565b601f19841661334e8661313b565b5f5b8281101561337557848901518255600182019150602085019450602081019050613350565b86831015613392578489015161338e601f8916826132a1565b8355505b6001600288020188555050505b505050505050565b5f6133b1826125df565b91507fffffffffffffffffffffffffffffffffffffffffffffffffffffffffffffffff82036133e3576133e2612fc8565b5b600182019050919050565b5f81905092915050565b5f61340282612535565b61340c81856133ee565b935061341c81856020860161254f565b80840191505092915050565b5f61343382856133f8565b915061343f82846133f8565b91508190509392505050565b5f613455826125df565b9150613460836125df565b925082820390508181111561347857613477612fc8565b5b92915050565b5f81519050919050565b5f82825260208201905092915050565b5f6134a28261347e565b6134ac8185613488565b93506134bc81856020860161254f565b6134c581612577565b840191505092915050565b5f6080820190506134e35f83018761266d565b6134f0602083018661266d565b6134fd604083018561274d565b818103606083015261350f8184613498565b905095945050505050565b5f81519050613528816124ad565b92915050565b5f602082840312156135435761354261247a565b5b5f6135508482850161351a565b91505092915050565b7f4e487b71000000000000000000000000000000000000000000000000000000005f52601260045260245ffd5b5f6040820190506135995f83018561266d565b6135a6602083018461274d565b9392505050565b7f4e487b71000000000000000000000000000000000000000000000000000000005f52603260045260245ffd5b5f819050919050565b6135ec816135da565b82525050565b5f6040820190506136055f83018561274d565b61361260208301846135e3565b9392505050565b5f613623826135da565b91507f8000000000000000000000000000000000000000000000000000000000000000820361365557613654612fc8565b5b815f03905091905056fea2646970667358221220876260195be810c13c44b7d3c058cd00f1df9878213a0e86642c18877a1098d764736f6c63430008150033",
  "immutableReferences": {},
  "source": "// SPDX-License-Identifier: GPL-3.0\r\npragma solidity ^0.8.0;\r\n\r\nimport \"@openzeppelin/contracts/token/ERC721/ERC721.sol\";\r\n\r\ncontract MediaRegistry is ERC721(\"MediaHouseBadge\", \"MHB\") {\r\n    // Structures\r\n    struct MediaHouse {\r\n        string name;\r\n        uint256 reputation; // 0-100 scale\r\n        bool isVerified;\r\n        uint256 verificationRequestTimestamp;\r\n    }\r\n    \r\n    struct VerificationVote {\r\n        address voter;\r\n        bool approved;\r\n        uint256 votingPower;\r\n    }\r\n    \r\n    // Constants\r\n    uint256 public constant VERIFICATION_THRESHOLD = 300; // 300 = 3 votes at 100 rep each\r\n    uint256 public constant VOTING_PERIOD = 3 days;\r\n    uint256 public constant REPUTATION_DELTA = 10; // Reputation change per vote\r\n    \r\n    // State\r\n    uint256 private _tokenCounter = 1;\r\n    \r\n    // Mappings\r\n    mapping(uint256 => MediaHouse) public tokenIdToMediaHouses;\r\n    mapping(address => uint256) public addressToTokenId;\r\n    // address -> token -> Media house details\r\n    mapping(uint256 => VerificationVote[]) public verificationVotes;\r\n    mapping(address => mapping(uint256 => bool)) public hasVoted;\r\n    \r\n    // Events\r\n    event VerificationRequested(uint256 tokenId, address mediaHouse);\r\n    event Voted(uint256 tokenId, address voter, bool approved, uint256 votingPower);\r\n    event MediaHouseVerified(uint256 tokenId);\r\n    event ReputationChanged(uint256 tokenId, int256 change);\r\n\r\n    // ========== CORE FUNCTIONS ========== //\r\n    function registerMediaHouse(string memory name) external {\r\n        require(balanceOf(msg.sender) == 0, \"Already registered\");\r\n        \r\n        uint256 newTokenId = _tokenCounter;\r\n        _safeMint(msg.sender, newTokenId);\r\n        \r\n        tokenIdToMediaHouses[newTokenId] = MediaHouse({\r\n            name: name,\r\n            reputation: 50, // Start with neutral reputation\r\n            isVerified: false,\r\n            verificationRequestTimestamp: 0\r\n        });\r\n        \r\n        addressToTokenId[msg.sender] = newTokenId;\r\n        _tokenCounter++;\r\n    }\r\n\r\n    function requestVerification(uint256 tokenId) external {\r\n        // can request verification for only its token\r\n        require(ownerOf(tokenId) == msg.sender, \"Not token owner\");\r\n        // already verified\r\n        require(!tokenIdToMediaHouses[tokenId].isVerified, \"Already verified\");\r\n        \r\n        // verification timestamp set, with an event triggered\r\n        tokenIdToMediaHouses[tokenId].verificationRequestTimestamp = block.timestamp;\r\n        emit VerificationRequested(tokenId, msg.sender);\r\n    }\r\n\r\n    function voteOnVerification(uint256 tokenId, bool approved) external {\r\n        require(balanceOf(msg.sender) > 0, \"Only registered media can vote\");\r\n        require(!hasVoted[msg.sender][tokenId], \"Already voted\");\r\n        require(tokenIdToMediaHouses[tokenId].verificationRequestTimestamp > 0, \"No active request\");\r\n        require(block.timestamp <= tokenIdToMediaHouses[tokenId].verificationRequestTimestamp + VOTING_PERIOD, \"Voting period ended\");\r\n        \r\n        uint256 voterTokenId = addressToTokenId[msg.sender];\r\n        uint256 votingPower = tokenIdToMediaHouses[voterTokenId].reputation;\r\n        \r\n        verificationVotes[tokenId].push(VerificationVote({\r\n            voter: msg.sender,\r\n            approved: approved,\r\n            votingPower: votingPower\r\n        }));\r\n        \r\n        hasVoted[msg.sender][tokenId] = true;\r\n        emit Voted(tokenId, msg.sender, approved, votingPower);\r\n        \r\n        _checkVerificationStatus(tokenId);\r\n    }\r\n\r\n    // ========== INTERNAL FUNCTIONS ========== //\r\n    function _checkVerificationStatus(uint256 tokenId) private {\r\n        (uint256 totalApprovalPower, ) = _calculateVotingPower(tokenId);\r\n        \r\n        if (totalApprovalPower >= VERIFICATION_THRESHOLD) {\r\n            tokenIdToMediaHouses[tokenId].isVerified = true;\r\n            _updateReputations(tokenId, true);\r\n            emit MediaHouseVerified(tokenId);\r\n        } else if (block.timestamp > tokenIdToMediaHouses[tokenId].verificationRequestTimestamp + VOTING_PERIOD) {\r\n            _updateReputations(tokenId, false);\r\n        }\r\n    }\r\n    \r\n    function _calculateVotingPower(uint256 tokenId) private view returns (uint256 totalApprovalPower, uint256 totalVotingPower) {\r\n        for (uint i = 0; i < verificationVotes[tokenId].length; i++) {\r\n            totalVotingPower += verificationVotes[tokenId][i].votingPower;\r\n            if (verificationVotes[tokenId][i].approved) {\r\n                totalApprovalPower += verificationVotes[tokenId][i].votingPower;\r\n            }\r\n        }\r\n    }\r\n    \r\n    function _updateReputations(uint256 tokenId, bool verificationPassed) private {\r\n\r\n        for (uint i = 0; i < verificationVotes[tokenId].length; i++) {\r\n            address voter = verificationVotes[tokenId][i].voter;\r\n            uint256 voterTokenId = addressToTokenId[voter];\r\n            bool voteCorrect = (verificationVotes[tokenId][i].approved == verificationPassed);\r\n            \r\n            if (voteCorrect) {\r\n                // reputation max of 100\r\n                tokenIdToMediaHouses[voterTokenId].reputation = \r\n                    _min(100, tokenIdToMediaHouses[voterTokenId].reputation + REPUTATION_DELTA);\r\n                emit ReputationChanged(voterTokenId, int256(REPUTATION_DELTA));\r\n            } else {\r\n                tokenIdToMediaHouses[voterTokenId].reputation = \r\n                    _max(0, tokenIdToMediaHouses[voterTokenId].reputation - REPUTATION_DELTA);\r\n                emit ReputationChanged(voterTokenId, -int256(REPUTATION_DELTA));\r\n            }\r\n            \r\n            hasVoted[voter][tokenId] = false;\r\n        }\r\n    }\r\n\r\n    // ========== HELPER FUNCTIONS ========== //\r\n    function _min(uint256 a, uint256 b) private pure returns (uint256) {\r\n        return a < b ? a : b;\r\n    }\r\n    \r\n    function _max(uint256 a, uint256 b) private pure returns (uint256) {\r\n        return a > b ? a : b;\r\n    }\r\n    \r\n    // ========== VIEW FUNCTIONS ========== //\r\n    function totalMediaHouses() public view returns (uint256) {\r\n        return _tokenCounter - 1;\r\n    }\r\n    \r\n    function getVerificationVotes(uint256 tokenId) public view returns (VerificationVote[] memory) {\r\n        return verificationVotes[tokenId];\r\n    }\r\n}",
  "sourcePath": "E:\\Blockchain\\misinform\\contracts\\MediaRegistry.sol",
  "compiler": {
    "name": "solc",
    "version": "0.8.21+commit.d9974bed.Emscripten.clang"
  },
  "schemaVersion": "3.4.16",
  "updatedAt": "2025-04-11T13:18:20.639Z",
  "networkType": "ethereum",
  "devdoc": {
    "errors": {
      "ERC721IncorrectOwner(address,uint256,address)": [
        {
          "details": "Indicates an error related to the ownership over a particular token. Used in transfers.",
          "params": {
            "owner": "Address of the current owner of a token.",
            "sender": "Address whose tokens are being transferred.",
            "tokenId": "Identifier number of a token."
          }
        }
      ],
      "ERC721InsufficientApproval(address,uint256)": [
        {
          "details": "Indicates a failure with the `operator`s approval. Used in transfers.",
          "params": {
            "operator": "Address that may be allowed to operate on tokens without being their owner.",
            "tokenId": "Identifier number of a token."
          }
        }
      ],
      "ERC721InvalidApprover(address)": [
        {
          "details": "Indicates a failure with the `approver` of a token to be approved. Used in approvals.",
          "params": {
            "approver": "Address initiating an approval operation."
          }
        }
      ],
      "ERC721InvalidOperator(address)": [
        {
          "details": "Indicates a failure with the `operator` to be approved. Used in approvals.",
          "params": {
            "operator": "Address that may be allowed to operate on tokens without being their owner."
          }
        }
      ],
      "ERC721InvalidOwner(address)": [
        {
          "details": "Indicates that an address can't be an owner. For example, `address(0)` is a forbidden owner in ERC-20. Used in balance queries.",
          "params": {
            "owner": "Address of the current owner of a token."
          }
        }
      ],
      "ERC721InvalidReceiver(address)": [
        {
          "details": "Indicates a failure with the token `receiver`. Used in transfers.",
          "params": {
            "receiver": "Address to which tokens are being transferred."
          }
        }
      ],
      "ERC721InvalidSender(address)": [
        {
          "details": "Indicates a failure with the token `sender`. Used in transfers.",
          "params": {
            "sender": "Address whose tokens are being transferred."
          }
        }
      ],
      "ERC721NonexistentToken(uint256)": [
        {
          "details": "Indicates a `tokenId` whose `owner` is the zero address.",
          "params": {
            "tokenId": "Identifier number of a token."
          }
        }
      ]
    },
    "events": {
      "Approval(address,address,uint256)": {
        "details": "Emitted when `owner` enables `approved` to manage the `tokenId` token."
      },
      "ApprovalForAll(address,address,bool)": {
        "details": "Emitted when `owner` enables or disables (`approved`) `operator` to manage all of its assets."
      },
      "Transfer(address,address,uint256)": {
        "details": "Emitted when `tokenId` token is transferred from `from` to `to`."
      }
    },
    "kind": "dev",
    "methods": {
      "approve(address,uint256)": {
        "details": "See {IERC721-approve}."
      },
      "balanceOf(address)": {
        "details": "See {IERC721-balanceOf}."
      },
      "getApproved(uint256)": {
        "details": "See {IERC721-getApproved}."
      },
      "isApprovedForAll(address,address)": {
        "details": "See {IERC721-isApprovedForAll}."
      },
      "name()": {
        "details": "See {IERC721Metadata-name}."
      },
      "ownerOf(uint256)": {
        "details": "See {IERC721-ownerOf}."
      },
      "safeTransferFrom(address,address,uint256)": {
        "details": "See {IERC721-safeTransferFrom}."
      },
      "safeTransferFrom(address,address,uint256,bytes)": {
        "details": "See {IERC721-safeTransferFrom}."
      },
      "setApprovalForAll(address,bool)": {
        "details": "See {IERC721-setApprovalForAll}."
      },
      "supportsInterface(bytes4)": {
        "details": "See {IERC165-supportsInterface}."
      },
      "symbol()": {
        "details": "See {IERC721Metadata-symbol}."
      },
      "tokenURI(uint256)": {
        "details": "See {IERC721Metadata-tokenURI}."
      },
      "transferFrom(address,address,uint256)": {
        "details": "See {IERC721-transferFrom}."
      }
    },
    "version": 1
  },
  "userdoc": {
    "kind": "user",
    "methods": {},
    "version": 1
  }
}