{
  "contractName": "ContentRegistry",
  "abi": [
    {
      "inputs": [
        {
          "internalType": "address",
          "name": "_userRegistry",
          "type": "address"
        }
      ],
      "stateMutability": "nonpayable",
      "type": "constructor"
    },
    {
      "anonymous": false,
      "inputs": [
        {
          "indexed": true,
          "internalType": "uint256",
          "name": "id",
          "type": "uint256"
        },
        {
          "indexed": false,
          "internalType": "uint256",
          "name": "authorTokenId",
          "type": "uint256"
        }
      ],
      "name": "ContentSubmitted",
      "type": "event"
    },
    {
      "anonymous": false,
      "inputs": [
        {
          "indexed": true,
          "internalType": "uint256",
          "name": "id",
          "type": "uint256"
        },
        {
          "indexed": false,
          "internalType": "uint256",
          "name": "voterTokenId",
          "type": "uint256"
        },
        {
          "indexed": false,
          "internalType": "bool",
          "name": "isUpvote",
          "type": "bool"
        }
      ],
      "name": "ContentVoted",
      "type": "event"
    },
    {
      "inputs": [
        {
          "internalType": "uint256",
          "name": "",
          "type": "uint256"
        }
      ],
      "name": "contents",
      "outputs": [
        {
          "internalType": "uint256",
          "name": "id",
          "type": "uint256"
        },
        {
          "internalType": "uint256",
          "name": "authorTokenId",
          "type": "uint256"
        },
        {
          "internalType": "string",
          "name": "dataHash",
          "type": "string"
        },
        {
          "internalType": "int256",
          "name": "voteScore",
          "type": "int256"
        },
        {
          "internalType": "bool",
          "name": "flagged",
          "type": "bool"
        }
      ],
      "stateMutability": "view",
      "type": "function",
      "constant": true
    },
    {
      "inputs": [
        {
          "internalType": "uint256",
          "name": "",
          "type": "uint256"
        },
        {
          "internalType": "uint256",
          "name": "",
          "type": "uint256"
        }
      ],
      "name": "downvoters",
      "outputs": [
        {
          "internalType": "uint256",
          "name": "",
          "type": "uint256"
        }
      ],
      "stateMutability": "view",
      "type": "function",
      "constant": true
    },
    {
      "inputs": [
        {
          "internalType": "uint256",
          "name": "",
          "type": "uint256"
        },
        {
          "internalType": "uint256",
          "name": "",
          "type": "uint256"
        }
      ],
      "name": "upvoters",
      "outputs": [
        {
          "internalType": "uint256",
          "name": "",
          "type": "uint256"
        }
      ],
      "stateMutability": "view",
      "type": "function",
      "constant": true
    },
    {
      "inputs": [],
      "name": "userRegistry",
      "outputs": [
        {
          "internalType": "contract IUserRegistry",
          "name": "",
          "type": "address"
        }
      ],
      "stateMutability": "view",
      "type": "function",
      "constant": true
    },
    {
      "inputs": [
        {
          "internalType": "uint256",
          "name": "",
          "type": "uint256"
        },
        {
          "internalType": "uint256",
          "name": "",
          "type": "uint256"
        }
      ],
      "name": "votes",
      "outputs": [
        {
          "internalType": "bool",
          "name": "",
          "type": "bool"
        }
      ],
      "stateMutability": "view",
      "type": "function",
      "constant": true
    },
    {
      "inputs": [
        {
          "internalType": "string",
          "name": "dataHash",
          "type": "string"
        }
      ],
      "name": "submitContent",
      "outputs": [],
      "stateMutability": "nonpayable",
      "type": "function"
    },
    {
      "inputs": [
        {
          "internalType": "uint256",
          "name": "contentId",
          "type": "uint256"
        },
        {
          "internalType": "bool",
          "name": "isUpvote",
          "type": "bool"
        }
      ],
      "name": "voteContent",
      "outputs": [],
      "stateMutability": "nonpayable",
      "type": "function"
    },
    {
      "inputs": [
        {
          "internalType": "uint256",
          "name": "contentId",
          "type": "uint256"
        }
      ],
      "name": "getUpvoters",
      "outputs": [
        {
          "internalType": "uint256[]",
          "name": "",
          "type": "uint256[]"
        }
      ],
      "stateMutability": "view",
      "type": "function",
      "constant": true
    },
    {
      "inputs": [
        {
          "internalType": "uint256",
          "name": "contentId",
          "type": "uint256"
        }
      ],
      "name": "getDownvoters",
      "outputs": [
        {
          "internalType": "uint256[]",
          "name": "",
          "type": "uint256[]"
        }
      ],
      "stateMutability": "view",
      "type": "function",
      "constant": true
    }
  ],
  "bytecode": "0x608060405234801562000010575f80fd5b50604051620014ed380380620014ed8339818101604052810190620000369190620000e1565b805f806101000a81548173ffffffffffffffffffffffffffffffffffffffff021916908373ffffffffffffffffffffffffffffffffffffffff1602179055505062000111565b5f80fd5b5f73ffffffffffffffffffffffffffffffffffffffff82169050919050565b5f620000ab8262000080565b9050919050565b620000bd816200009f565b8114620000c8575f80fd5b50565b5f81519050620000db81620000b2565b92915050565b5f60208284031215620000f957620000f86200007c565b5b5f6200010884828501620000cb565b91505092915050565b6113ce806200011f5f395ff3fe608060405234801561000f575f80fd5b5060043610610091575f3560e01c8063aa6ee29b11610064578063aa6ee29b1461011b578063af6be9621461014b578063b5ecf9121461017b578063c6e36a32146101af578063c999945c146101df57610091565b806329b5b1591461009557806330a1adeb146100c55780635c7460d6146100e1578063733387ec146100ff575b5f80fd5b6100af60048036038101906100aa919061096e565b61020f565b6040516100bc9190610a50565b60405180910390f35b6100df60048036038101906100da9190610bac565b610276565b005b6100e9610486565b6040516100f69190610c6d565b60405180910390f35b61011960048036038101906101149190610cbb565b6104a9565b005b6101356004803603810190610130919061096e565b610770565b6040516101429190610a50565b60405180910390f35b61016560048036038101906101609190610cf9565b6107d7565b6040516101729190610d46565b60405180910390f35b6101956004803603810190610190919061096e565b610802565b6040516101a6959493929190610e00565b60405180910390f35b6101c960048036038101906101c49190610cf9565b6108d5565b6040516101d69190610e58565b60405180910390f35b6101f960048036038101906101f49190610cf9565b6108ff565b6040516102069190610d46565b60405180910390f35b606060045f8381526020019081526020015f2080548060200260200160405190810160405280929190818152602001828054801561026a57602002820191905f5260205f20905b815481526020019060010190808311610256575b50505050509050919050565b5f805f9054906101000a900473ffffffffffffffffffffffffffffffffffffffff1673ffffffffffffffffffffffffffffffffffffffff16636f77926b336040518263ffffffff1660e01b81526004016102d09190610e91565b606060405180830381865afa1580156102eb573d5f803e3d5ffd5b505050506040513d601f19601f8201168201806040525081019061030f9190610f23565b5f015190505f600180549050905060016040518060a001604052808381526020018481526020018581526020015f81526020015f1515815250908060018154018082558091505060019003905f5260205f2090600502015f909190919091505f820151815f0155602082015181600101556040820151816002019081610395919061113f565b50606082015181600301556080820151816004015f6101000a81548160ff02191690831515021790555050505f8054906101000a900473ffffffffffffffffffffffffffffffffffffffff1673ffffffffffffffffffffffffffffffffffffffff1663cdc4e0138360016040518363ffffffff1660e01b815260040161041c929190611247565b5f604051808303815f87803b158015610433575f80fd5b505af1158015610445573d5f803e3d5ffd5b50505050807f475ec08b654fce35d69a70cee481c770d52b267cfc9d994512fc456576b7c95f836040516104799190610d46565b60405180910390a2505050565b5f8054906101000a900473ffffffffffffffffffffffffffffffffffffffff1681565b5f805f9054906101000a900473ffffffffffffffffffffffffffffffffffffffff1673ffffffffffffffffffffffffffffffffffffffff16636f77926b336040518263ffffffff1660e01b81526004016105039190610e91565b606060405180830381865afa15801561051e573d5f803e3d5ffd5b505050506040513d601f19601f820116820180604052508101906105429190610f23565b5f0151905060025f8281526020019081526020015f205f8481526020019081526020015f205f9054906101000a900460ff16156105b4576040517f08c379a00000000000000000000000000000000000000000000000000000000081526004016105ab906112b8565b60405180910390fd5b5f600184815481106105c9576105c86112d6565b5b905f5260205f209060050201905082610602577fffffffffffffffffffffffffffffffffffffffffffffffffffffffffffffffff610605565b60015b816003015f8282546106179190611330565b92505081905550600160025f8481526020019081526020015f205f8681526020019081526020015f205f6101000a81548160ff02191690831515021790555082156106965760035f8581526020019081526020015f2082908060018154018082558091505060019003905f5260205f20015f9091909190915055610730565b60045f8581526020019081526020015f2082908060018154018082558091505060019003905f5260205f20015f90919091909150557ffffffffffffffffffffffffffffffffffffffffffffffffffffffffffffffffb81600301541315801561070d5750806004015f9054906101000a900460ff16155b1561072f576001816004015f6101000a81548160ff0219169083151502179055505b5b837f30c719d128d626d788f1614835c7b0273fd96085b49d646ddb446ccd780cea508385604051610762929190611371565b60405180910390a250505050565b606060035f8381526020019081526020015f208054806020026020016040519081016040528092919081815260200182805480156107cb57602002820191905f5260205f20905b8154815260200190600101908083116107b7575b50505050509050919050565b6004602052815f5260405f2081815481106107f0575f80fd5b905f5260205f20015f91509150505481565b60018181548110610811575f80fd5b905f5260205f2090600502015f91509050805f01549080600101549080600201805461083c90610f7b565b80601f016020809104026020016040519081016040528092919081815260200182805461086890610f7b565b80156108b35780601f1061088a576101008083540402835291602001916108b3565b820191905f5260205f20905b81548152906001019060200180831161089657829003601f168201915b505050505090806003015490806004015f9054906101000a900460ff16905085565b6002602052815f5260405f20602052805f5260405f205f915091509054906101000a900460ff1681565b6003602052815f5260405f208181548110610918575f80fd5b905f5260205f20015f91509150505481565b5f604051905090565b5f80fd5b5f80fd5b5f819050919050565b61094d8161093b565b8114610957575f80fd5b50565b5f8135905061096881610944565b92915050565b5f6020828403121561098357610982610933565b5b5f6109908482850161095a565b91505092915050565b5f81519050919050565b5f82825260208201905092915050565b5f819050602082019050919050565b6109cb8161093b565b82525050565b5f6109dc83836109c2565b60208301905092915050565b5f602082019050919050565b5f6109fe82610999565b610a0881856109a3565b9350610a13836109b3565b805f5b83811015610a43578151610a2a88826109d1565b9750610a35836109e8565b925050600181019050610a16565b5085935050505092915050565b5f6020820190508181035f830152610a6881846109f4565b905092915050565b5f80fd5b5f80fd5b5f601f19601f8301169050919050565b7f4e487b71000000000000000000000000000000000000000000000000000000005f52604160045260245ffd5b610abe82610a78565b810181811067ffffffffffffffff82111715610add57610adc610a88565b5b80604052505050565b5f610aef61092a565b9050610afb8282610ab5565b919050565b5f67ffffffffffffffff821115610b1a57610b19610a88565b5b610b2382610a78565b9050602081019050919050565b828183375f83830152505050565b5f610b50610b4b84610b00565b610ae6565b905082815260208101848484011115610b6c57610b6b610a74565b5b610b77848285610b30565b509392505050565b5f82601f830112610b9357610b92610a70565b5b8135610ba3848260208601610b3e565b91505092915050565b5f60208284031215610bc157610bc0610933565b5b5f82013567ffffffffffffffff811115610bde57610bdd610937565b5b610bea84828501610b7f565b91505092915050565b5f73ffffffffffffffffffffffffffffffffffffffff82169050919050565b5f819050919050565b5f610c35610c30610c2b84610bf3565b610c12565b610bf3565b9050919050565b5f610c4682610c1b565b9050919050565b5f610c5782610c3c565b9050919050565b610c6781610c4d565b82525050565b5f602082019050610c805f830184610c5e565b92915050565b5f8115159050919050565b610c9a81610c86565b8114610ca4575f80fd5b50565b5f81359050610cb581610c91565b92915050565b5f8060408385031215610cd157610cd0610933565b5b5f610cde8582860161095a565b9250506020610cef85828601610ca7565b9150509250929050565b5f8060408385031215610d0f57610d0e610933565b5b5f610d1c8582860161095a565b9250506020610d2d8582860161095a565b9150509250929050565b610d408161093b565b82525050565b5f602082019050610d595f830184610d37565b92915050565b5f81519050919050565b5f82825260208201905092915050565b5f5b83811015610d96578082015181840152602081019050610d7b565b5f8484015250505050565b5f610dab82610d5f565b610db58185610d69565b9350610dc5818560208601610d79565b610dce81610a78565b840191505092915050565b5f819050919050565b610deb81610dd9565b82525050565b610dfa81610c86565b82525050565b5f60a082019050610e135f830188610d37565b610e206020830187610d37565b8181036040830152610e328186610da1565b9050610e416060830185610de2565b610e4e6080830184610df1565b9695505050505050565b5f602082019050610e6b5f830184610df1565b92915050565b5f610e7b82610bf3565b9050919050565b610e8b81610e71565b82525050565b5f602082019050610ea45f830184610e82565b92915050565b5f80fd5b5f81519050610ebc81610944565b92915050565b5f60608284031215610ed757610ed6610eaa565b5b610ee16060610ae6565b90505f610ef084828501610eae565b5f830152506020610f0384828501610eae565b6020830152506040610f1784828501610eae565b60408301525092915050565b5f60608284031215610f3857610f37610933565b5b5f610f4584828501610ec2565b91505092915050565b7f4e487b71000000000000000000000000000000000000000000000000000000005f52602260045260245ffd5b5f6002820490506001821680610f9257607f821691505b602082108103610fa557610fa4610f4e565b5b50919050565b5f819050815f5260205f209050919050565b5f6020601f8301049050919050565b5f82821b905092915050565b5f600883026110077fffffffffffffffffffffffffffffffffffffffffffffffffffffffffffffffff82610fcc565b6110118683610fcc565b95508019841693508086168417925050509392505050565b5f61104361103e6110398461093b565b610c12565b61093b565b9050919050565b5f819050919050565b61105c83611029565b6110706110688261104a565b848454610fd8565b825550505050565b5f90565b611084611078565b61108f818484611053565b505050565b5b818110156110b2576110a75f8261107c565b600181019050611095565b5050565b601f8211156110f7576110c881610fab565b6110d184610fbd565b810160208510156110e0578190505b6110f46110ec85610fbd565b830182611094565b50505b505050565b5f82821c905092915050565b5f6111175f19846008026110fc565b1980831691505092915050565b5f61112f8383611108565b9150826002028217905092915050565b61114882610d5f565b67ffffffffffffffff81111561116157611160610a88565b5b61116b8254610f7b565b6111768282856110b6565b5f60209050601f8311600181146111a7575f8415611195578287015190505b61119f8582611124565b865550611206565b601f1984166111b586610fab565b5f5b828110156111dc578489015182556001820191506020850194506020810190506111b7565b868310156111f957848901516111f5601f891682611108565b8355505b6001600288020188555050505b505050505050565b5f819050919050565b5f61123161122c6112278461120e565b610c12565b610dd9565b9050919050565b61124181611217565b82525050565b5f60408201905061125a5f830185610d37565b6112676020830184611238565b9392505050565b7f416c726561647920766f746564000000000000000000000000000000000000005f82015250565b5f6112a2600d83610d69565b91506112ad8261126e565b602082019050919050565b5f6020820190508181035f8301526112cf81611296565b9050919050565b7f4e487b71000000000000000000000000000000000000000000000000000000005f52603260045260245ffd5b7f4e487b71000000000000000000000000000000000000000000000000000000005f52601160045260245ffd5b5f61133a82610dd9565b915061134583610dd9565b92508282019050828112155f8312168382125f84121516171561136b5761136a611303565b5b92915050565b5f6040820190506113845f830185610d37565b6113916020830184610df1565b939250505056fea264697066735822122078fd5ef0f0c89d55ac8127cb107e40c8a6fa01f8f802a95b9b9c1326be6b69cb64736f6c63430008150033",
  "immutableReferences": {},
  "source": "// SPDX-License-Identifier: GPL-3.0\r\npragma solidity ^0.8.0;\r\n\r\nimport \"./IUserRegistry.sol\";\r\n\r\ncontract ContentRegistry {\r\n    IUserRegistry public userRegistry;\r\n\r\n    struct Content {\r\n        uint256 id;\r\n        uint256 authorTokenId;\r\n        string dataHash;\r\n        int256 voteScore;\r\n        bool flagged;\r\n    }\r\n\r\n    Content[] public contents;\r\n    mapping(uint256 => mapping(uint256 => bool)) public votes; // tokenId => contentId => voted\r\n    mapping(uint256 => uint256[]) public upvoters; // contentId => tokenIds\r\n    mapping(uint256 => uint256[]) public downvoters;\r\n\r\n    event ContentSubmitted(uint256 indexed id, uint256 authorTokenId);\r\n    event ContentVoted(uint256 indexed id, uint256 voterTokenId, bool isUpvote);\r\n\r\n    constructor(address _userRegistry) {\r\n        userRegistry = IUserRegistry(_userRegistry); \r\n    }\r\n\r\n    function submitContent(string memory dataHash) external {\r\n        uint256 tokenId = userRegistry.getUser(msg.sender).tokenId;\r\n        uint256 id = contents.length;\r\n        contents.push(Content(id, tokenId, dataHash, 0, false));\r\n        userRegistry.adjustReputation(tokenId, 1); // Small reward for contributing\r\n        emit ContentSubmitted(id, tokenId);\r\n    }\r\n\r\n    function voteContent(uint256 contentId, bool isUpvote) external {\r\n        uint256 tokenId = userRegistry.getUser(msg.sender).tokenId;\r\n        require(!votes[tokenId][contentId], \"Already voted\");\r\n\r\n        Content storage content = contents[contentId];\r\n        content.voteScore += isUpvote ? int256(1) : int256(-1);\r\n        votes[tokenId][contentId] = true;\r\n\r\n        if (isUpvote) {\r\n            upvoters[contentId].push(tokenId);\r\n        } else {\r\n            downvoters[contentId].push(tokenId);\r\n            if (content.voteScore <= -5 && !content.flagged) {\r\n                content.flagged = true;\r\n            }\r\n        }\r\n\r\n        emit ContentVoted(contentId, tokenId, isUpvote);\r\n    }\r\n\r\n    function getUpvoters(uint256 contentId) external view returns (uint256[] memory) {\r\n        return upvoters[contentId];\r\n    }\r\n\r\n    function getDownvoters(uint256 contentId) external view returns (uint256[] memory) {\r\n        return downvoters[contentId];\r\n    }\r\n}",
  "sourcePath": "E:\\Blockchain\\mis\\contracts\\ContentRegistry.sol",
  "compiler": {
    "name": "solc",
    "version": "0.8.21+commit.d9974bed.Emscripten.clang"
  },
  "schemaVersion": "3.4.16",
  "updatedAt": "2025-04-12T09:03:50.976Z",
  "networkType": "ethereum",
  "devdoc": {
    "kind": "dev",
    "methods": {},
    "version": 1
  },
  "userdoc": {
    "kind": "user",
    "methods": {},
    "version": 1
  }
}