{
  "contractName": "ContentRegistry",
  "abi": [
    {
      "inputs": [
        {
          "internalType": "uint256",
          "name": "",
          "type": "uint256"
        }
      ],
      "name": "contents",
      "outputs": [
        {
          "internalType": "uint256",
          "name": "id",
          "type": "uint256"
        },
        {
          "internalType": "address",
          "name": "author",
          "type": "address"
        },
        {
          "internalType": "string",
          "name": "data",
          "type": "string"
        },
        {
          "internalType": "bool",
          "name": "flagged",
          "type": "bool"
        },
        {
          "internalType": "bool",
          "name": "verified",
          "type": "bool"
        }
      ],
      "stateMutability": "view",
      "type": "function",
      "constant": true
    },
    {
      "inputs": [
        {
          "internalType": "address",
          "name": "",
          "type": "address"
        }
      ],
      "name": "reputation",
      "outputs": [
        {
          "internalType": "uint256",
          "name": "",
          "type": "uint256"
        }
      ],
      "stateMutability": "view",
      "type": "function",
      "constant": true
    },
    {
      "inputs": [
        {
          "internalType": "uint256",
          "name": "",
          "type": "uint256"
        },
        {
          "internalType": "address",
          "name": "",
          "type": "address"
        }
      ],
      "name": "votes",
      "outputs": [
        {
          "internalType": "int8",
          "name": "",
          "type": "int8"
        }
      ],
      "stateMutability": "view",
      "type": "function",
      "constant": true
    },
    {
      "inputs": [],
      "name": "registerUser",
      "outputs": [],
      "stateMutability": "nonpayable",
      "type": "function"
    },
    {
      "inputs": [
        {
          "internalType": "string",
          "name": "data",
          "type": "string"
        }
      ],
      "name": "submitContent",
      "outputs": [],
      "stateMutability": "nonpayable",
      "type": "function"
    },
    {
      "inputs": [
        {
          "internalType": "uint256",
          "name": "contentId",
          "type": "uint256"
        }
      ],
      "name": "flagContent",
      "outputs": [],
      "stateMutability": "nonpayable",
      "type": "function"
    }
  ],
  "bytecode": "0x608060405234801561000f575f80fd5b50610e3e8061001d5f395ff3fe608060405234801561000f575f80fd5b5060043610610060575f3560e01c806330a1adeb146100645780634d3820eb146100805780636c52b9871461008a578063b5ecf912146100a6578063b9f79451146100da578063d23254b41461010a575b5f80fd5b61007e6004803603810190610079919061071c565b61013a565b005b6100886102cd565b005b6100a4600480360381019061009f9190610796565b610391565b005b6100c060048036038101906100bb9190610796565b610493565b6040516100d19594939291906108a3565b60405180910390f35b6100f460048036038101906100ef9190610925565b610591565b6040516101019190610950565b60405180910390f35b610124600480360381019061011f9190610969565b6105a6565b60405161013191906109c1565b60405180910390f35b5f60015f3373ffffffffffffffffffffffffffffffffffffffff1673ffffffffffffffffffffffffffffffffffffffff1681526020019081526020015f2054116101b9576040517f08c379a00000000000000000000000000000000000000000000000000000000081526004016101b090610a24565b60405180910390fd5b5f6040518060a001604052805f8054905081526020013373ffffffffffffffffffffffffffffffffffffffff1681526020018381526020015f151581526020015f1515815250908060018154018082558091505060019003905f5260205f2090600402015f909190919091505f820151815f01556020820151816001015f6101000a81548173ffffffffffffffffffffffffffffffffffffffff021916908373ffffffffffffffffffffffffffffffffffffffff16021790555060408201518160020190816102889190610c3c565b506060820151816003015f6101000a81548160ff02191690831515021790555060808201518160030160016101000a81548160ff021916908315150217905550505050565b5f60015f3373ffffffffffffffffffffffffffffffffffffffff1673ffffffffffffffffffffffffffffffffffffffff1681526020019081526020015f20541461034c576040517f08c379a000000000000000000000000000000000000000000000000000000000815260040161034390610d55565b60405180910390fd5b603260015f3373ffffffffffffffffffffffffffffffffffffffff1673ffffffffffffffffffffffffffffffffffffffff1681526020019081526020015f2081905550565b5f60015f3373ffffffffffffffffffffffffffffffffffffffff1673ffffffffffffffffffffffffffffffffffffffff1681526020019081526020015f205411610410576040517f08c379a000000000000000000000000000000000000000000000000000000000815260040161040790610a24565b60405180910390fd5b5f805490508110610456576040517f08c379a000000000000000000000000000000000000000000000000000000000815260040161044d90610dbd565b60405180910390fd5b60015f828154811061046b5761046a610ddb565b5b905f5260205f2090600402016003015f6101000a81548160ff02191690831515021790555050565b5f81815481106104a1575f80fd5b905f5260205f2090600402015f91509050805f015490806001015f9054906101000a900473ffffffffffffffffffffffffffffffffffffffff16908060020180546104eb90610a6f565b80601f016020809104026020016040519081016040528092919081815260200182805461051790610a6f565b80156105625780601f1061053957610100808354040283529160200191610562565b820191905f5260205f20905b81548152906001019060200180831161054557829003601f168201915b505050505090806003015f9054906101000a900460ff16908060030160019054906101000a900460ff16905085565b6001602052805f5260405f205f915090505481565b6002602052815f5260405f20602052805f5260405f205f915091509054906101000a90045f0b81565b5f604051905090565b5f80fd5b5f80fd5b5f80fd5b5f80fd5b5f601f19601f8301169050919050565b7f4e487b71000000000000000000000000000000000000000000000000000000005f52604160045260245ffd5b61062e826105e8565b810181811067ffffffffffffffff8211171561064d5761064c6105f8565b5b80604052505050565b5f61065f6105cf565b905061066b8282610625565b919050565b5f67ffffffffffffffff82111561068a576106896105f8565b5b610693826105e8565b9050602081019050919050565b828183375f83830152505050565b5f6106c06106bb84610670565b610656565b9050828152602081018484840111156106dc576106db6105e4565b5b6106e78482856106a0565b509392505050565b5f82601f830112610703576107026105e0565b5b81356107138482602086016106ae565b91505092915050565b5f60208284031215610731576107306105d8565b5b5f82013567ffffffffffffffff81111561074e5761074d6105dc565b5b61075a848285016106ef565b91505092915050565b5f819050919050565b61077581610763565b811461077f575f80fd5b50565b5f813590506107908161076c565b92915050565b5f602082840312156107ab576107aa6105d8565b5b5f6107b884828501610782565b91505092915050565b6107ca81610763565b82525050565b5f73ffffffffffffffffffffffffffffffffffffffff82169050919050565b5f6107f9826107d0565b9050919050565b610809816107ef565b82525050565b5f81519050919050565b5f82825260208201905092915050565b5f5b8381101561084657808201518184015260208101905061082b565b5f8484015250505050565b5f61085b8261080f565b6108658185610819565b9350610875818560208601610829565b61087e816105e8565b840191505092915050565b5f8115159050919050565b61089d81610889565b82525050565b5f60a0820190506108b65f8301886107c1565b6108c36020830187610800565b81810360408301526108d58186610851565b90506108e46060830185610894565b6108f16080830184610894565b9695505050505050565b610904816107ef565b811461090e575f80fd5b50565b5f8135905061091f816108fb565b92915050565b5f6020828403121561093a576109396105d8565b5b5f61094784828501610911565b91505092915050565b5f6020820190506109635f8301846107c1565b92915050565b5f806040838503121561097f5761097e6105d8565b5b5f61098c85828601610782565b925050602061099d85828601610911565b9150509250929050565b5f815f0b9050919050565b6109bb816109a7565b82525050565b5f6020820190506109d45f8301846109b2565b92915050565b7f4e6f7420726567697374657265640000000000000000000000000000000000005f82015250565b5f610a0e600e83610819565b9150610a19826109da565b602082019050919050565b5f6020820190508181035f830152610a3b81610a02565b9050919050565b7f4e487b71000000000000000000000000000000000000000000000000000000005f52602260045260245ffd5b5f6002820490506001821680610a8657607f821691505b602082108103610a9957610a98610a42565b5b50919050565b5f819050815f5260205f209050919050565b5f6020601f8301049050919050565b5f82821b905092915050565b5f60088302610afb7fffffffffffffffffffffffffffffffffffffffffffffffffffffffffffffffff82610ac0565b610b058683610ac0565b95508019841693508086168417925050509392505050565b5f819050919050565b5f610b40610b3b610b3684610763565b610b1d565b610763565b9050919050565b5f819050919050565b610b5983610b26565b610b6d610b6582610b47565b848454610acc565b825550505050565b5f90565b610b81610b75565b610b8c818484610b50565b505050565b5b81811015610baf57610ba45f82610b79565b600181019050610b92565b5050565b601f821115610bf457610bc581610a9f565b610bce84610ab1565b81016020851015610bdd578190505b610bf1610be985610ab1565b830182610b91565b50505b505050565b5f82821c905092915050565b5f610c145f1984600802610bf9565b1980831691505092915050565b5f610c2c8383610c05565b9150826002028217905092915050565b610c458261080f565b67ffffffffffffffff811115610c5e57610c5d6105f8565b5b610c688254610a6f565b610c73828285610bb3565b5f60209050601f831160018114610ca4575f8415610c92578287015190505b610c9c8582610c21565b865550610d03565b601f198416610cb286610a9f565b5f5b82811015610cd957848901518255600182019150602085019450602081019050610cb4565b86831015610cf65784890151610cf2601f891682610c05565b8355505b6001600288020188555050505b505050505050565b7f416c7265616479207265676973746572656400000000000000000000000000005f82015250565b5f610d3f601283610819565b9150610d4a82610d0b565b602082019050919050565b5f6020820190508181035f830152610d6c81610d33565b9050919050565b7f496e76616c6964204944000000000000000000000000000000000000000000005f82015250565b5f610da7600a83610819565b9150610db282610d73565b602082019050919050565b5f6020820190508181035f830152610dd481610d9b565b9050919050565b7f4e487b71000000000000000000000000000000000000000000000000000000005f52603260045260245ffdfea2646970667358221220af2e1e28a2ab9197f08cc66d8b9a387afa40834605d83823cec9cbbb0a3266af64736f6c63430008150033",
  "immutableReferences": {},
  "source": "// SPDX-License-Identifier: GPL-3.0\r\npragma solidity ^0.8.0;\r\n\r\ncontract ContentRegistry {\r\n    struct Content {\r\n        uint256 id;\r\n        address author;\r\n        string data;\r\n        bool flagged;\r\n        bool verified;\r\n    }\r\n\r\n    Content[] public contents;\r\n    mapping(address => uint256) public reputation;\r\n    mapping(uint256 => mapping(address => int8)) public votes; // 1 for upvote, -1 for downvote\r\n\r\n    modifier onlyRegistered() {\r\n        require(reputation[msg.sender] > 0, \"Not registered\");\r\n        _;\r\n    }\r\n\r\n    function registerUser() external {\r\n        require(reputation[msg.sender] == 0, \"Already registered\");\r\n        reputation[msg.sender] = 50; // Default reputation\r\n    }\r\n\r\n    function submitContent(string memory data) external onlyRegistered {\r\n        contents.push(Content(contents.length, msg.sender, data, false, false));\r\n    }\r\n\r\n    function flagContent(uint256 contentId) external onlyRegistered {\r\n        require(contentId < contents.length, \"Invalid ID\");\r\n        contents[contentId].flagged = true;\r\n    }\r\n\r\n    // Internal function to adjust reputation\r\n    function _adjustReputation(address user, int256 delta) internal {\r\n        if (delta >= 0) {\r\n            reputation[user] += uint256(delta);\r\n        } else {\r\n            uint256 absDelta = uint256(-delta);\r\n            if (reputation[user] > absDelta) {\r\n                reputation[user] -= absDelta;\r\n            } else {\r\n                reputation[user] = 0;\r\n            }\r\n        }\r\n    }\r\n}\r\n",
  "sourcePath": "E:\\Blockchain\\mis\\contracts\\ContentRegistry.sol",
  "compiler": {
    "name": "solc",
    "version": "0.8.21+commit.d9974bed.Emscripten.clang"
  },
  "schemaVersion": "3.4.16",
  "updatedAt": "2025-04-11T20:39:29.738Z",
  "networkType": "ethereum",
  "devdoc": {
    "kind": "dev",
    "methods": {},
    "version": 1
  },
  "userdoc": {
    "kind": "user",
    "methods": {},
    "version": 1
  }
}