{
  "contractName": "Moderation",
  "abi": [
    {
      "inputs": [
        {
          "internalType": "address",
          "name": "_userRegistry",
          "type": "address"
        },
        {
          "internalType": "address",
          "name": "_contentRegistry",
          "type": "address"
        }
      ],
      "stateMutability": "nonpayable",
      "type": "constructor"
    },
    {
      "inputs": [],
      "name": "MIN_REP",
      "outputs": [
        {
          "internalType": "uint256",
          "name": "",
          "type": "uint256"
        }
      ],
      "stateMutability": "view",
      "type": "function",
      "constant": true
    },
    {
      "inputs": [],
      "name": "MOD_THRESHOLD",
      "outputs": [
        {
          "internalType": "uint256",
          "name": "",
          "type": "uint256"
        }
      ],
      "stateMutability": "view",
      "type": "function",
      "constant": true
    },
    {
      "inputs": [],
      "name": "contentRegistry",
      "outputs": [
        {
          "internalType": "contract ContentRegistry",
          "name": "",
          "type": "address"
        }
      ],
      "stateMutability": "view",
      "type": "function",
      "constant": true
    },
    {
      "inputs": [
        {
          "internalType": "uint256",
          "name": "",
          "type": "uint256"
        },
        {
          "internalType": "uint256",
          "name": "",
          "type": "uint256"
        }
      ],
      "name": "moderationVotes",
      "outputs": [
        {
          "internalType": "uint256",
          "name": "tokenId",
          "type": "uint256"
        },
        {
          "internalType": "bool",
          "name": "isCorrect",
          "type": "bool"
        }
      ],
      "stateMutability": "view",
      "type": "function",
      "constant": true
    },
    {
      "inputs": [],
      "name": "userRegistry",
      "outputs": [
        {
          "internalType": "contract IUserRegistry",
          "name": "",
          "type": "address"
        }
      ],
      "stateMutability": "view",
      "type": "function",
      "constant": true
    },
    {
      "inputs": [],
      "name": "getTop50PercentUsers",
      "outputs": [
        {
          "internalType": "uint256[]",
          "name": "",
          "type": "uint256[]"
        }
      ],
      "stateMutability": "view",
      "type": "function",
      "constant": true
    },
    {
      "inputs": [
        {
          "internalType": "uint256",
          "name": "contentId",
          "type": "uint256"
        },
        {
          "internalType": "bool",
          "name": "isCorrect",
          "type": "bool"
        }
      ],
      "name": "moderateContent",
      "outputs": [],
      "stateMutability": "nonpayable",
      "type": "function"
    }
  ],
  "bytecode": "0x608060405234801562000010575f80fd5b5060405162001af138038062001af1833981810160405281019062000036919062000122565b815f806101000a81548173ffffffffffffffffffffffffffffffffffffffff021916908373ffffffffffffffffffffffffffffffffffffffff1602179055508060015f6101000a81548173ffffffffffffffffffffffffffffffffffffffff021916908373ffffffffffffffffffffffffffffffffffffffff160217905550505062000167565b5f80fd5b5f73ffffffffffffffffffffffffffffffffffffffff82169050919050565b5f620000ec82620000c1565b9050919050565b620000fe81620000e0565b811462000109575f80fd5b50565b5f815190506200011c81620000f3565b92915050565b5f80604083850312156200013b576200013a620000bd565b5b5f6200014a858286016200010c565b92505060206200015d858286016200010c565b9150509250929050565b61197c80620001755f395ff3fe608060405234801561000f575f80fd5b506004361061007b575f3560e01c80635c7460d6116100595780635c7460d6146100d75780638e31e9fb146100f5578063ab05465e14610126578063ff04444b146101445761007b565b80630a743bd21461007f5780632041eb821461009d57806327a4f2bb146100b9575b5f80fd5b610087610162565b6040516100949190610ea5565b60405180910390f35b6100b760048036038101906100b29190610f2e565b610167565b005b6100c16105b1565b6040516100ce9190610fe6565b60405180910390f35b6100df6105d6565b6040516100ec919061101f565b60405180910390f35b61010f600480360381019061010a9190611038565b6105f9565b60405161011d929190611085565b60405180910390f35b61012e61063f565b60405161013b9190610ea5565b60405180910390f35b61014c610644565b6040516101599190611163565b60405180910390f35b602881565b5f805f9054906101000a900473ffffffffffffffffffffffffffffffffffffffff1673ffffffffffffffffffffffffffffffffffffffff16636f77926b336040518263ffffffff1660e01b81526004016101c191906111a3565b606060405180830381865afa1580156101dc573d5f803e3d5ffd5b505050506040513d601f19601f8201168201806040525081019061020091906112bd565b5f015190505f61020e610644565b90505f60015f9054906101000a900473ffffffffffffffffffffffffffffffffffffffff1673ffffffffffffffffffffffffffffffffffffffff1663b5ecf912866040518263ffffffff1660e01b815260040161026b9190610ea5565b5f60405180830381865afa158015610285573d5f803e3d5ffd5b505050506040513d5f823e3d601f19601f820116820180604052508101906102ad91906113fd565b94505050505060645f8054906101000a900473ffffffffffffffffffffffffffffffffffffffff1673ffffffffffffffffffffffffffffffffffffffff16636f77926b336040518263ffffffff1660e01b815260040161030d91906111a3565b606060405180830381865afa158015610328573d5f803e3d5ffd5b505050506040513d601f19601f8201168201806040525081019061034c91906112bd565b602001511015610391576040517f08c379a0000000000000000000000000000000000000000000000000000000008152600401610388906114ea565b60405180910390fd5b806103d1576040517f08c379a00000000000000000000000000000000000000000000000000000000081526004016103c890611552565b60405180910390fd5b5f805b835181101561041a57848482815181106103f1576103f0611570565b5b602002602001015103610407576001915061041a565b8080610412906115ca565b9150506103d4565b508061045b576040517f08c379a00000000000000000000000000000000000000000000000000000000081526004016104529061165b565b60405180910390fd5b5f5b60025f8881526020019081526020015f20805490508110156104ff578460025f8981526020019081526020015f20828154811061049d5761049c611570565b5b905f5260205f2090600202015f0154036104ec576040517f08c379a00000000000000000000000000000000000000000000000000000000081526004016104e3906116c3565b60405180910390fd5b80806104f7906115ca565b91505061045d565b5060025f8781526020019081526020015f206040518060400160405280868152602001871515815250908060018154018082558091505060019003905f5260205f2090600202015f909190919091505f820151815f01556020820151816001015f6101000a81548160ff021916908315150217905550505060028351610585919061170e565b60025f8881526020019081526020015f2080549050106105a9576105a886610998565b5b505050505050565b60015f9054906101000a900473ffffffffffffffffffffffffffffffffffffffff1681565b5f8054906101000a900473ffffffffffffffffffffffffffffffffffffffff1681565b6002602052815f5260405f208181548110610612575f80fd5b905f5260205f2090600202015f9150915050805f015490806001015f9054906101000a900460ff16905082565b606481565b60605f805f9054906101000a900473ffffffffffffffffffffffffffffffffffffffff1673ffffffffffffffffffffffffffffffffffffffff1663bdbed7226040518163ffffffff1660e01b81526004015f60405180830381865afa1580156106af573d5f803e3d5ffd5b505050506040513d5f823e3d601f19601f820116820180604052508101906106d79190611802565b90505f815190505f8111610720576040517f08c379a000000000000000000000000000000000000000000000000000000000815260040161071790611893565b60405180910390fd5b5f8167ffffffffffffffff81111561073b5761073a6111d0565b5b6040519080825280602002602001820160405280156107695781602001602082028036833780820191505090505b5090505f805b83811015610858575f805f9054906101000a900473ffffffffffffffffffffffffffffffffffffffff1673ffffffffffffffffffffffffffffffffffffffff16636f77926b336040518263ffffffff1660e01b81526004016107d191906111a3565b606060405180830381865afa1580156107ec573d5f803e3d5ffd5b505050506040513d601f19601f8201168201806040525081019061081091906112bd565b6020015190508084838151811061082a57610829611570565b5b602002602001018181525050808361084291906118b1565b9250508080610850906115ca565b91505061076f565b505f8382610866919061170e565b90505f805b858110156108b6578285828151811061088757610886611570565b5b6020026020010151106108a357818061089f906115ca565b9250505b80806108ae906115ca565b91505061086b565b505f8167ffffffffffffffff8111156108d2576108d16111d0565b5b6040519080825280602002602001820160405280156109005781602001602082028036833780820191505090505b5090505f805b87811015610989578487828151811061092257610921611570565b5b6020026020010151106109765788818151811061094257610941611570565b5b6020026020010151838380610956906115ca565b94508151811061096957610968611570565b5b6020026020010181815250505b8080610981906115ca565b915050610906565b50819850505050505050505090565b5f8060025f8481526020019081526020015f2090505f5b8180549050811015610a11578181815481106109ce576109cd611570565b5b905f5260205f2090600202016001015f9054906101000a900460ff16156109fe5782806109fa906115ca565b9350505b8080610a09906115ca565b9150506109af565b505f60028310159050610a248482610a2a565b50505050565b5f60015f9054906101000a900473ffffffffffffffffffffffffffffffffffffffff1673ffffffffffffffffffffffffffffffffffffffff1663aa6ee29b846040518263ffffffff1660e01b8152600401610a859190610ea5565b5f60405180830381865afa158015610a9f573d5f803e3d5ffd5b505050506040513d5f823e3d601f19601f82011682018060405250810190610ac79190611802565b90505f60015f9054906101000a900473ffffffffffffffffffffffffffffffffffffffff1673ffffffffffffffffffffffffffffffffffffffff166329b5b159856040518263ffffffff1660e01b8152600401610b249190610ea5565b5f60405180830381865afa158015610b3e573d5f803e3d5ffd5b505050506040513d5f823e3d601f19601f82011682018060405250810190610b669190611802565b90505f5b8251811015610c54575f8054906101000a900473ffffffffffffffffffffffffffffffffffffffff1673ffffffffffffffffffffffffffffffffffffffff1663cdc4e013848381518110610bc157610bc0611570565b5b602002602001015186610bf4577ffffffffffffffffffffffffffffffffffffffffffffffffffffffffffffffffd610bf7565b60055b6040518363ffffffff1660e01b8152600401610c1492919061191f565b5f604051808303815f87803b158015610c2b575f80fd5b505af1158015610c3d573d5f803e3d5ffd5b505050508080610c4c906115ca565b915050610b6a565b505f5b8151811015610d41575f8054906101000a900473ffffffffffffffffffffffffffffffffffffffff1673ffffffffffffffffffffffffffffffffffffffff1663cdc4e013838381518110610cae57610cad611570565b5b602002602001015186610cc2576005610ce4565b7ffffffffffffffffffffffffffffffffffffffffffffffffffffffffffffffffd5b6040518363ffffffff1660e01b8152600401610d0192919061191f565b5f604051808303815f87803b158015610d18575f80fd5b505af1158015610d2a573d5f803e3d5ffd5b505050508080610d39906115ca565b915050610c57565b505f60025f8681526020019081526020015f2090505f5b8180549050811015610e85575f851515838381548110610d7b57610d7a611570565b5b905f5260205f2090600202016001015f9054906101000a900460ff1615151490505f8054906101000a900473ffffffffffffffffffffffffffffffffffffffff1673ffffffffffffffffffffffffffffffffffffffff1663cdc4e013848481548110610dea57610de9611570565b5b905f5260205f2090600202015f015483610e24577ffffffffffffffffffffffffffffffffffffffffffffffffffffffffffffffffb610e27565b600a5b6040518363ffffffff1660e01b8152600401610e4492919061191f565b5f604051808303815f87803b158015610e5b575f80fd5b505af1158015610e6d573d5f803e3d5ffd5b50505050508080610e7d906115ca565b915050610d58565b505050505050565b5f819050919050565b610e9f81610e8d565b82525050565b5f602082019050610eb85f830184610e96565b92915050565b5f604051905090565b5f80fd5b5f80fd5b610ed881610e8d565b8114610ee2575f80fd5b50565b5f81359050610ef381610ecf565b92915050565b5f8115159050919050565b610f0d81610ef9565b8114610f17575f80fd5b50565b5f81359050610f2881610f04565b92915050565b5f8060408385031215610f4457610f43610ec7565b5b5f610f5185828601610ee5565b9250506020610f6285828601610f1a565b9150509250929050565b5f73ffffffffffffffffffffffffffffffffffffffff82169050919050565b5f819050919050565b5f610fae610fa9610fa484610f6c565b610f8b565b610f6c565b9050919050565b5f610fbf82610f94565b9050919050565b5f610fd082610fb5565b9050919050565b610fe081610fc6565b82525050565b5f602082019050610ff95f830184610fd7565b92915050565b5f61100982610fb5565b9050919050565b61101981610fff565b82525050565b5f6020820190506110325f830184611010565b92915050565b5f806040838503121561104e5761104d610ec7565b5b5f61105b85828601610ee5565b925050602061106c85828601610ee5565b9150509250929050565b61107f81610ef9565b82525050565b5f6040820190506110985f830185610e96565b6110a56020830184611076565b9392505050565b5f81519050919050565b5f82825260208201905092915050565b5f819050602082019050919050565b6110de81610e8d565b82525050565b5f6110ef83836110d5565b60208301905092915050565b5f602082019050919050565b5f611111826110ac565b61111b81856110b6565b9350611126836110c6565b805f5b8381101561115657815161113d88826110e4565b9750611148836110fb565b925050600181019050611129565b5085935050505092915050565b5f6020820190508181035f83015261117b8184611107565b905092915050565b5f61118d82610f6c565b9050919050565b61119d81611183565b82525050565b5f6020820190506111b65f830184611194565b92915050565b5f80fd5b5f601f19601f8301169050919050565b7f4e487b71000000000000000000000000000000000000000000000000000000005f52604160045260245ffd5b611206826111c0565b810181811067ffffffffffffffff82111715611225576112246111d0565b5b80604052505050565b5f611237610ebe565b905061124382826111fd565b919050565b5f8151905061125681610ecf565b92915050565b5f60608284031215611271576112706111bc565b5b61127b606061122e565b90505f61128a84828501611248565b5f83015250602061129d84828501611248565b60208301525060406112b184828501611248565b60408301525092915050565b5f606082840312156112d2576112d1610ec7565b5b5f6112df8482850161125c565b91505092915050565b5f80fd5b5f80fd5b5f67ffffffffffffffff82111561130a576113096111d0565b5b611313826111c0565b9050602081019050919050565b5f5b8381101561133d578082015181840152602081019050611322565b5f8484015250505050565b5f61135a611355846112f0565b61122e565b905082815260208101848484011115611376576113756112ec565b5b611381848285611320565b509392505050565b5f82601f83011261139d5761139c6112e8565b5b81516113ad848260208601611348565b91505092915050565b5f819050919050565b6113c8816113b6565b81146113d2575f80fd5b50565b5f815190506113e3816113bf565b92915050565b5f815190506113f781610f04565b92915050565b5f805f805f60a0868803121561141657611415610ec7565b5b5f61142388828901611248565b955050602061143488828901611248565b945050604086015167ffffffffffffffff81111561145557611454610ecb565b5b61146188828901611389565b9350506060611472888289016113d5565b9250506080611483888289016113e9565b9150509295509295909350565b5f82825260208201905092915050565b7f4c6f7720726570000000000000000000000000000000000000000000000000005f82015250565b5f6114d4600783611490565b91506114df826114a0565b602082019050919050565b5f6020820190508181035f830152611501816114c8565b9050919050565b7f4e6f7420666c61676765640000000000000000000000000000000000000000005f82015250565b5f61153c600b83611490565b915061154782611508565b602082019050919050565b5f6020820190508181035f83015261156981611530565b9050919050565b7f4e487b71000000000000000000000000000000000000000000000000000000005f52603260045260245ffd5b7f4e487b71000000000000000000000000000000000000000000000000000000005f52601160045260245ffd5b5f6115d482610e8d565b91507fffffffffffffffffffffffffffffffffffffffffffffffffffffffffffffffff82036116065761160561159d565b5b600182019050919050565b7f4e6f7420696e20746f702035302520726570757465642075736572732e0000005f82015250565b5f611645601d83611490565b915061165082611611565b602082019050919050565b5f6020820190508181035f83015261167281611639565b9050919050565b7f416c726561647920766f746564000000000000000000000000000000000000005f82015250565b5f6116ad600d83611490565b91506116b882611679565b602082019050919050565b5f6020820190508181035f8301526116da816116a1565b9050919050565b7f4e487b71000000000000000000000000000000000000000000000000000000005f52601260045260245ffd5b5f61171882610e8d565b915061172383610e8d565b925082611733576117326116e1565b5b828204905092915050565b5f67ffffffffffffffff821115611758576117576111d0565b5b602082029050602081019050919050565b5f80fd5b5f61177f61177a8461173e565b61122e565b905080838252602082019050602084028301858111156117a2576117a1611769565b5b835b818110156117cb57806117b78882611248565b8452602084019350506020810190506117a4565b5050509392505050565b5f82601f8301126117e9576117e86112e8565b5b81516117f984826020860161176d565b91505092915050565b5f6020828403121561181757611816610ec7565b5b5f82015167ffffffffffffffff81111561183457611833610ecb565b5b611840848285016117d5565b91505092915050565b7f4e6f2075736572730000000000000000000000000000000000000000000000005f82015250565b5f61187d600883611490565b915061188882611849565b602082019050919050565b5f6020820190508181035f8301526118aa81611871565b9050919050565b5f6118bb82610e8d565b91506118c683610e8d565b92508282019050808211156118de576118dd61159d565b5b92915050565b5f815f0b9050919050565b5f6119096119046118ff846118e4565b610f8b565b6113b6565b9050919050565b611919816118ef565b82525050565b5f6040820190506119325f830185610e96565b61193f6020830184611910565b939250505056fea2646970667358221220296d0c63144c7f9c5611bafcbc9a4b2b7a9b0e0c702c64aec01aadc8e7db866f64736f6c63430008150033",
  "immutableReferences": {},
  "source": "// SPDX-License-Identifier: GPL-3.0\r\npragma solidity ^0.8.0;\r\n\r\nimport \"./IUserRegistry.sol\";\r\nimport \"./ContentRegistry.sol\";\r\n\r\ncontract Moderation {\r\n    IUserRegistry public userRegistry;\r\n    ContentRegistry public contentRegistry;\r\n\r\n    struct ModerationVote {\r\n        uint256 tokenId;\r\n        bool isCorrect; // whether content should be flagged or not\r\n    }\r\n\r\n    mapping(uint256 => ModerationVote[]) public moderationVotes;\r\n    uint256 public constant MIN_REP = 100;\r\n    uint256 public constant MOD_THRESHOLD = 40;\r\n\r\n    constructor(address _userRegistry, address _contentRegistry) {\r\n        userRegistry = IUserRegistry(_userRegistry);\r\n        contentRegistry = ContentRegistry(_contentRegistry);\r\n    }\r\n\r\n    function getTop50PercentUsers() public view returns (uint256[] memory) {\r\n        uint256[] memory tokenIds = userRegistry.getAllTokenIds();\r\n        uint256 total = tokenIds.length;\r\n\r\n        require(total > 0, \"No users\");\r\n\r\n        uint256[] memory reputations = new uint256[](total);\r\n        uint256 sum = 0;\r\n\r\n        for (uint i = 0; i < total; i++) {\r\n            uint256 rep = userRegistry.getUser(msg.sender).reputation;\r\n            reputations[i] = rep;\r\n            sum += rep;\r\n        }\r\n\r\n        uint256 avg = sum / total;\r\n\r\n        uint256 count = 0;\r\n        for (uint i = 0; i < total; i++) {\r\n            if (reputations[i] >= avg) count++;\r\n        }\r\n\r\n        uint256[] memory topUsers = new uint256[](count);\r\n        uint256 idx = 0;\r\n        for (uint i = 0; i < total; i++) {\r\n            if (reputations[i] >= avg) {\r\n                topUsers[idx++] = tokenIds[i];\r\n            }\r\n        }\r\n\r\n        return topUsers;\r\n    }\r\n\r\n\r\n    function moderateContent(uint256 contentId, bool isCorrect) external {\r\n        uint256 tokenId = userRegistry.getUser(msg.sender).tokenId;\r\n        uint256[] memory topModerators = getTop50PercentUsers();\r\n        (,,,,bool flagged) = contentRegistry.contents(contentId);\r\n        require(userRegistry.getUser(msg.sender).reputation >= MIN_REP, \"Low rep\");\r\n        require(flagged, \"Not flagged\");\r\n\r\n        bool isTop = false;\r\n        for (uint i = 0; i < topModerators.length; i++) {\r\n            if (topModerators[i] == tokenId) {\r\n                isTop = true;\r\n                break;\r\n            }\r\n        }\r\n        require(isTop, \"Not in top 50% reputed users.\");\r\n\r\n        // Check duplicate votes\r\n        for (uint i = 0; i < moderationVotes[contentId].length; i++) {\r\n            require(moderationVotes[contentId][i].tokenId != tokenId, \"Already voted\");\r\n        }\r\n\r\n        moderationVotes[contentId].push(ModerationVote(tokenId, isCorrect));\r\n\r\n        if (moderationVotes[contentId].length >= topModerators.length / 2) {\r\n            _finalizeModeration(contentId);\r\n        }\r\n    }\r\n\r\n    function _finalizeModeration(uint256 contentId) private {\r\n        uint256 correctVotes;\r\n        ModerationVote[] storage votes = moderationVotes[contentId];\r\n        \r\n        for (uint i = 0; i < votes.length; i++) {\r\n            if (votes[i].isCorrect) correctVotes++;\r\n        }\r\n\r\n        bool verdict = correctVotes >= 2;\r\n        _updateReputations(contentId, verdict);\r\n    }\r\n\r\n    function _updateReputations(uint256 contentId, bool isCorrect) private {\r\n        // Update voters\r\n        uint256[] memory ups = contentRegistry.getUpvoters(contentId);\r\n        uint256[] memory downs = contentRegistry.getDownvoters(contentId);\r\n\r\n        for (uint i = 0; i < ups.length; i++) {\r\n            userRegistry.adjustReputation(ups[i], isCorrect ? int8(5) : -3);\r\n        }\r\n\r\n        for (uint i = 0; i < downs.length; i++) {\r\n            userRegistry.adjustReputation(downs[i], isCorrect ? -3 : int8(5));\r\n        }\r\n\r\n        // Update moderators\r\n        ModerationVote[] storage votes = moderationVotes[contentId];\r\n        for (uint i = 0; i < votes.length; i++) {\r\n            bool votedCorrectly = votes[i].isCorrect == isCorrect;\r\n            userRegistry.adjustReputation(votes[i].tokenId, votedCorrectly ? int8(10) : -5);\r\n        }\r\n    }\r\n}",
  "sourcePath": "E:\\Blockchain\\mis\\contracts\\Moderation.sol",
  "compiler": {
    "name": "solc",
    "version": "0.8.21+commit.d9974bed.Emscripten.clang"
  },
  "schemaVersion": "3.4.16",
  "updatedAt": "2025-04-12T09:03:50.987Z",
  "networkType": "ethereum",
  "devdoc": {
    "kind": "dev",
    "methods": {},
    "version": 1
  },
  "userdoc": {
    "kind": "user",
    "methods": {},
    "version": 1
  }
}