{
  "contractName": "Moderation",
  "abi": [
    {
      "anonymous": false,
      "inputs": [
        {
          "indexed": false,
          "internalType": "uint256",
          "name": "contentId",
          "type": "uint256"
        },
        {
          "indexed": false,
          "internalType": "bool",
          "name": "finalVerdict",
          "type": "bool"
        }
      ],
      "name": "ModerationResolved",
      "type": "event"
    },
    {
      "anonymous": false,
      "inputs": [
        {
          "indexed": false,
          "internalType": "uint256",
          "name": "contentId",
          "type": "uint256"
        },
        {
          "indexed": false,
          "internalType": "address",
          "name": "moderator",
          "type": "address"
        },
        {
          "indexed": false,
          "internalType": "bool",
          "name": "isCorrect",
          "type": "bool"
        }
      ],
      "name": "ModerationSubmitted",
      "type": "event"
    },
    {
      "inputs": [
        {
          "internalType": "uint256",
          "name": "",
          "type": "uint256"
        }
      ],
      "name": "contents",
      "outputs": [
        {
          "internalType": "uint256",
          "name": "id",
          "type": "uint256"
        },
        {
          "internalType": "address",
          "name": "author",
          "type": "address"
        },
        {
          "internalType": "string",
          "name": "data",
          "type": "string"
        },
        {
          "internalType": "bool",
          "name": "flagged",
          "type": "bool"
        },
        {
          "internalType": "bool",
          "name": "verified",
          "type": "bool"
        }
      ],
      "stateMutability": "view",
      "type": "function",
      "constant": true
    },
    {
      "inputs": [
        {
          "internalType": "uint256",
          "name": "contentId",
          "type": "uint256"
        }
      ],
      "name": "flagContent",
      "outputs": [],
      "stateMutability": "nonpayable",
      "type": "function"
    },
    {
      "inputs": [
        {
          "internalType": "uint256",
          "name": "",
          "type": "uint256"
        },
        {
          "internalType": "uint256",
          "name": "",
          "type": "uint256"
        }
      ],
      "name": "modVotes",
      "outputs": [
        {
          "internalType": "address",
          "name": "voter",
          "type": "address"
        },
        {
          "internalType": "bool",
          "name": "isCorrect",
          "type": "bool"
        }
      ],
      "stateMutability": "view",
      "type": "function",
      "constant": true
    },
    {
      "inputs": [],
      "name": "registerUser",
      "outputs": [],
      "stateMutability": "nonpayable",
      "type": "function"
    },
    {
      "inputs": [
        {
          "internalType": "address",
          "name": "",
          "type": "address"
        }
      ],
      "name": "reputation",
      "outputs": [
        {
          "internalType": "uint256",
          "name": "",
          "type": "uint256"
        }
      ],
      "stateMutability": "view",
      "type": "function",
      "constant": true
    },
    {
      "inputs": [
        {
          "internalType": "string",
          "name": "data",
          "type": "string"
        }
      ],
      "name": "submitContent",
      "outputs": [],
      "stateMutability": "nonpayable",
      "type": "function"
    },
    {
      "inputs": [
        {
          "internalType": "uint256",
          "name": "",
          "type": "uint256"
        },
        {
          "internalType": "address",
          "name": "",
          "type": "address"
        }
      ],
      "name": "votes",
      "outputs": [
        {
          "internalType": "int8",
          "name": "",
          "type": "int8"
        }
      ],
      "stateMutability": "view",
      "type": "function",
      "constant": true
    },
    {
      "inputs": [
        {
          "internalType": "uint256",
          "name": "contentId",
          "type": "uint256"
        },
        {
          "internalType": "bool",
          "name": "isCorrect",
          "type": "bool"
        }
      ],
      "name": "moderateContent",
      "outputs": [],
      "stateMutability": "nonpayable",
      "type": "function"
    }
  ],
  "bytecode": "0x608060405234801561000f575f80fd5b506119608061001d5f395ff3fe608060405234801561000f575f80fd5b5060043610610086575f3560e01c8063b5ecf91211610059578063b5ecf912146100e8578063b9f794511461011c578063ccedda451461014c578063d23254b41461017d57610086565b80632041eb821461008a57806330a1adeb146100a65780634d3820eb146100c25780636c52b987146100cc575b5f80fd5b6100a4600480360381019061009f9190610de0565b6101ad565b005b6100c060048036038101906100bb9190610f5a565b610612565b005b6100ca6107a5565b005b6100e660048036038101906100e19190610fa1565b610869565b005b61010260048036038101906100fd9190610fa1565b61096b565b6040516101139594939291906110a3565b60405180910390f35b61013660048036038101906101319190611125565b610a69565b6040516101439190611150565b60405180910390f35b61016660048036038101906101619190611169565b610a7e565b6040516101749291906111a7565b60405180910390f35b610197600480360381019061019291906111ce565b610adf565b6040516101a49190611226565b60405180910390f35b5f60015f3373ffffffffffffffffffffffffffffffffffffffff1673ffffffffffffffffffffffffffffffffffffffff1681526020019081526020015f20541161022c576040517f08c379a000000000000000000000000000000000000000000000000000000000815260040161022390611289565b60405180910390fd5b5f828154811061023f5761023e6112a7565b5b905f5260205f2090600402016003015f9054906101000a900460ff1661029a576040517f08c379a00000000000000000000000000000000000000000000000000000000081526004016102919061131e565b60405180910390fd5b603260015f3373ffffffffffffffffffffffffffffffffffffffff1673ffffffffffffffffffffffffffffffffffffffff1681526020019081526020015f2054101561031b576040517f08c379a000000000000000000000000000000000000000000000000000000000815260040161031290611386565b60405180910390fd5b5f60035f8481526020019081526020015f2090505f5b81805490508110156103fa573373ffffffffffffffffffffffffffffffffffffffff16828281548110610367576103666112a7565b5b905f5260205f20015f015f9054906101000a900473ffffffffffffffffffffffffffffffffffffffff1673ffffffffffffffffffffffffffffffffffffffff16036103e7576040517f08c379a00000000000000000000000000000000000000000000000000000000081526004016103de906113ee565b60405180910390fd5b80806103f290611439565b915050610331565b5060035f8481526020019081526020015f2060405180604001604052803373ffffffffffffffffffffffffffffffffffffffff168152602001841515815250908060018154018082558091505060019003905f5260205f20015f909190919091505f820151815f015f6101000a81548173ffffffffffffffffffffffffffffffffffffffff021916908373ffffffffffffffffffffffffffffffffffffffff1602179055506020820151815f0160146101000a81548160ff02191690831515021790555050507f8acce2dd584cd840bd9ab2d1e655f754b5aecff53b7b16b3468de1cf65c1a8848333846040516104f393929190611480565b60405180910390a16003805f8581526020019081526020015f20805490501061060d575f805b60038110156105845760035f8681526020019081526020015f208181548110610545576105446112a7565b5b905f5260205f20015f0160149054906101000a900460ff161561057157818061056d90611439565b9250505b808061057c90611439565b915050610519565b505f60028210159050805f86815481106105a1576105a06112a7565b5b905f5260205f20906004020160030160016101000a81548160ff0219169083151502179055507fe09bbdddd0978f226e5ab020b6e76375fb32f8501aa0b2d6e5c5f8cf16865fd385826040516105f89291906114b5565b60405180910390a161060a8582610b08565b50505b505050565b5f60015f3373ffffffffffffffffffffffffffffffffffffffff1673ffffffffffffffffffffffffffffffffffffffff1681526020019081526020015f205411610691576040517f08c379a000000000000000000000000000000000000000000000000000000000815260040161068890611289565b60405180910390fd5b5f6040518060a001604052805f8054905081526020013373ffffffffffffffffffffffffffffffffffffffff1681526020018381526020015f151581526020015f1515815250908060018154018082558091505060019003905f5260205f2090600402015f909190919091505f820151815f01556020820151816001015f6101000a81548173ffffffffffffffffffffffffffffffffffffffff021916908373ffffffffffffffffffffffffffffffffffffffff160217905550604082015181600201908161076091906116d6565b506060820151816003015f6101000a81548160ff02191690831515021790555060808201518160030160016101000a81548160ff021916908315150217905550505050565b5f60015f3373ffffffffffffffffffffffffffffffffffffffff1673ffffffffffffffffffffffffffffffffffffffff1681526020019081526020015f205414610824576040517f08c379a000000000000000000000000000000000000000000000000000000000815260040161081b906117ef565b60405180910390fd5b603260015f3373ffffffffffffffffffffffffffffffffffffffff1673ffffffffffffffffffffffffffffffffffffffff1681526020019081526020015f2081905550565b5f60015f3373ffffffffffffffffffffffffffffffffffffffff1673ffffffffffffffffffffffffffffffffffffffff1681526020019081526020015f2054116108e8576040517f08c379a00000000000000000000000000000000000000000000000000000000081526004016108df90611289565b60405180910390fd5b5f80549050811061092e576040517f08c379a000000000000000000000000000000000000000000000000000000000815260040161092590611857565b60405180910390fd5b60015f8281548110610943576109426112a7565b5b905f5260205f2090600402016003015f6101000a81548160ff02191690831515021790555050565b5f8181548110610979575f80fd5b905f5260205f2090600402015f91509050805f015490806001015f9054906101000a900473ffffffffffffffffffffffffffffffffffffffff16908060020180546109c390611509565b80601f01602080910402602001604051908101604052809291908181526020018280546109ef90611509565b8015610a3a5780601f10610a1157610100808354040283529160200191610a3a565b820191905f5260205f20905b815481529060010190602001808311610a1d57829003601f168201915b505050505090806003015f9054906101000a900460ff16908060030160019054906101000a900460ff16905085565b6001602052805f5260405f205f915090505481565b6003602052815f5260405f208181548110610a97575f80fd5b905f5260205f20015f9150915050805f015f9054906101000a900473ffffffffffffffffffffffffffffffffffffffff1690805f0160149054906101000a900460ff16905082565b6002602052815f5260405f20602052805f5260405f205f915091509054906101000a90045f0b81565b5f5b60035f8481526020019081526020015f2080549050811015610c10575f60035f8581526020019081526020015f208281548110610b4a57610b496112a7565b5b905f5260205f20015f015f9054906101000a900473ffffffffffffffffffffffffffffffffffffffff1690505f83151560035f8781526020019081526020015f208481548110610b9d57610b9c6112a7565b5b905f5260205f20015f0160149054906101000a900460ff1615151490508015610bd057610bcb826001610c15565b610bfb565b610bfa827fffffffffffffffffffffffffffffffffffffffffffffffffffffffffffffffff610c15565b5b50508080610c0890611439565b915050610b0a565b505050565b5f8112610c74578060015f8473ffffffffffffffffffffffffffffffffffffffff1673ffffffffffffffffffffffffffffffffffffffff1681526020019081526020015f205f828254610c689190611875565b92505081905550610d63565b5f81610c7f906118b1565b90508060015f8573ffffffffffffffffffffffffffffffffffffffff1673ffffffffffffffffffffffffffffffffffffffff1681526020019081526020015f20541115610d1e578060015f8573ffffffffffffffffffffffffffffffffffffffff1673ffffffffffffffffffffffffffffffffffffffff1681526020019081526020015f205f828254610d1291906118f7565b92505081905550610d61565b5f60015f8573ffffffffffffffffffffffffffffffffffffffff1673ffffffffffffffffffffffffffffffffffffffff1681526020019081526020015f20819055505b505b5050565b5f604051905090565b5f80fd5b5f80fd5b5f819050919050565b610d8a81610d78565b8114610d94575f80fd5b50565b5f81359050610da581610d81565b92915050565b5f8115159050919050565b610dbf81610dab565b8114610dc9575f80fd5b50565b5f81359050610dda81610db6565b92915050565b5f8060408385031215610df657610df5610d70565b5b5f610e0385828601610d97565b9250506020610e1485828601610dcc565b9150509250929050565b5f80fd5b5f80fd5b5f601f19601f8301169050919050565b7f4e487b71000000000000000000000000000000000000000000000000000000005f52604160045260245ffd5b610e6c82610e26565b810181811067ffffffffffffffff82111715610e8b57610e8a610e36565b5b80604052505050565b5f610e9d610d67565b9050610ea98282610e63565b919050565b5f67ffffffffffffffff821115610ec857610ec7610e36565b5b610ed182610e26565b9050602081019050919050565b828183375f83830152505050565b5f610efe610ef984610eae565b610e94565b905082815260208101848484011115610f1a57610f19610e22565b5b610f25848285610ede565b509392505050565b5f82601f830112610f4157610f40610e1e565b5b8135610f51848260208601610eec565b91505092915050565b5f60208284031215610f6f57610f6e610d70565b5b5f82013567ffffffffffffffff811115610f8c57610f8b610d74565b5b610f9884828501610f2d565b91505092915050565b5f60208284031215610fb657610fb5610d70565b5b5f610fc384828501610d97565b91505092915050565b610fd581610d78565b82525050565b5f73ffffffffffffffffffffffffffffffffffffffff82169050919050565b5f61100482610fdb565b9050919050565b61101481610ffa565b82525050565b5f81519050919050565b5f82825260208201905092915050565b5f5b83811015611051578082015181840152602081019050611036565b5f8484015250505050565b5f6110668261101a565b6110708185611024565b9350611080818560208601611034565b61108981610e26565b840191505092915050565b61109d81610dab565b82525050565b5f60a0820190506110b65f830188610fcc565b6110c3602083018761100b565b81810360408301526110d5818661105c565b90506110e46060830185611094565b6110f16080830184611094565b9695505050505050565b61110481610ffa565b811461110e575f80fd5b50565b5f8135905061111f816110fb565b92915050565b5f6020828403121561113a57611139610d70565b5b5f61114784828501611111565b91505092915050565b5f6020820190506111635f830184610fcc565b92915050565b5f806040838503121561117f5761117e610d70565b5b5f61118c85828601610d97565b925050602061119d85828601610d97565b9150509250929050565b5f6040820190506111ba5f83018561100b565b6111c76020830184611094565b9392505050565b5f80604083850312156111e4576111e3610d70565b5b5f6111f185828601610d97565b925050602061120285828601611111565b9150509250929050565b5f815f0b9050919050565b6112208161120c565b82525050565b5f6020820190506112395f830184611217565b92915050565b7f4e6f7420726567697374657265640000000000000000000000000000000000005f82015250565b5f611273600e83611024565b915061127e8261123f565b602082019050919050565b5f6020820190508181035f8301526112a081611267565b9050919050565b7f4e487b71000000000000000000000000000000000000000000000000000000005f52603260045260245ffd5b7f4e6f7420666c61676765640000000000000000000000000000000000000000005f82015250565b5f611308600b83611024565b9150611313826112d4565b602082019050919050565b5f6020820190508181035f830152611335816112fc565b9050919050565b7f4e6f7420686967682072657075746174696f6e000000000000000000000000005f82015250565b5f611370601383611024565b915061137b8261133c565b602082019050919050565b5f6020820190508181035f83015261139d81611364565b9050919050565b7f416c726561647920766f746564000000000000000000000000000000000000005f82015250565b5f6113d8600d83611024565b91506113e3826113a4565b602082019050919050565b5f6020820190508181035f830152611405816113cc565b9050919050565b7f4e487b71000000000000000000000000000000000000000000000000000000005f52601160045260245ffd5b5f61144382610d78565b91507fffffffffffffffffffffffffffffffffffffffffffffffffffffffffffffffff82036114755761147461140c565b5b600182019050919050565b5f6060820190506114935f830186610fcc565b6114a0602083018561100b565b6114ad6040830184611094565b949350505050565b5f6040820190506114c85f830185610fcc565b6114d56020830184611094565b9392505050565b7f4e487b71000000000000000000000000000000000000000000000000000000005f52602260045260245ffd5b5f600282049050600182168061152057607f821691505b602082108103611533576115326114dc565b5b50919050565b5f819050815f5260205f209050919050565b5f6020601f8301049050919050565b5f82821b905092915050565b5f600883026115957fffffffffffffffffffffffffffffffffffffffffffffffffffffffffffffffff8261155a565b61159f868361155a565b95508019841693508086168417925050509392505050565b5f819050919050565b5f6115da6115d56115d084610d78565b6115b7565b610d78565b9050919050565b5f819050919050565b6115f3836115c0565b6116076115ff826115e1565b848454611566565b825550505050565b5f90565b61161b61160f565b6116268184846115ea565b505050565b5b818110156116495761163e5f82611613565b60018101905061162c565b5050565b601f82111561168e5761165f81611539565b6116688461154b565b81016020851015611677578190505b61168b6116838561154b565b83018261162b565b50505b505050565b5f82821c905092915050565b5f6116ae5f1984600802611693565b1980831691505092915050565b5f6116c6838361169f565b9150826002028217905092915050565b6116df8261101a565b67ffffffffffffffff8111156116f8576116f7610e36565b5b6117028254611509565b61170d82828561164d565b5f60209050601f83116001811461173e575f841561172c578287015190505b61173685826116bb565b86555061179d565b601f19841661174c86611539565b5f5b828110156117735784890151825560018201915060208501945060208101905061174e565b86831015611790578489015161178c601f89168261169f565b8355505b6001600288020188555050505b505050505050565b7f416c7265616479207265676973746572656400000000000000000000000000005f82015250565b5f6117d9601283611024565b91506117e4826117a5565b602082019050919050565b5f6020820190508181035f830152611806816117cd565b9050919050565b7f496e76616c6964204944000000000000000000000000000000000000000000005f82015250565b5f611841600a83611024565b915061184c8261180d565b602082019050919050565b5f6020820190508181035f83015261186e81611835565b9050919050565b5f61187f82610d78565b915061188a83610d78565b92508282019050808211156118a2576118a161140c565b5b92915050565b5f819050919050565b5f6118bb826118a8565b91507f800000000000000000000000000000000000000000000000000000000000000082036118ed576118ec61140c565b5b815f039050919050565b5f61190182610d78565b915061190c83610d78565b92508282039050818111156119245761192361140c565b5b9291505056fea26469706673582212201a714532f8b8c3b4e7ee4229f2b27418a065137579779617073c74f6d0edbd0864736f6c63430008150033",
  "immutableReferences": {},
  "source": "// SPDX-License-Identifier: GPL-3.0\r\npragma solidity ^0.8.0;\r\n\r\nimport \"./ContentRegistry.sol\";\r\n\r\ncontract Moderation is ContentRegistry {\r\n    struct ModerationVote {\r\n        address voter;\r\n        bool isCorrect;\r\n    }\r\n\r\n    mapping(uint256 => ModerationVote[]) public modVotes;\r\n\r\n    event ModerationSubmitted(uint256 contentId, address moderator, bool isCorrect);\r\n    event ModerationResolved(uint256 contentId, bool finalVerdict);\r\n\r\n    function moderateContent(uint256 contentId, bool isCorrect) external onlyRegistered {\r\n        require(contents[contentId].flagged, \"Not flagged\");\r\n        require(reputation[msg.sender] >= 50, \"Not high reputation\");\r\n        \r\n        // prevent duplicate moderation\r\n        ModerationVote[] storage votesList = modVotes[contentId];\r\n        for (uint i = 0; i < votesList.length; i++) {\r\n            require(votesList[i].voter != msg.sender, \"Already voted\");\r\n        }\r\n\r\n        modVotes[contentId].push(ModerationVote(msg.sender, isCorrect));\r\n        emit ModerationSubmitted(contentId, msg.sender, isCorrect);\r\n\r\n        // Decide after 3 votes\r\n        if (modVotes[contentId].length >= 3) {\r\n            uint correct = 0;\r\n            for (uint i = 0; i < 3; i++) {\r\n                if (modVotes[contentId][i].isCorrect) correct++;\r\n            }\r\n\r\n            bool verdict = correct >= 2;\r\n            contents[contentId].verified = verdict;\r\n            emit ModerationResolved(contentId, verdict);\r\n\r\n            _updateReputations(contentId, verdict);\r\n        }\r\n    }\r\n\r\n    function _updateReputations(uint256 contentId, bool verdict) internal {\r\n        for (uint i = 0; i < modVotes[contentId].length; i++) {\r\n            address voter = modVotes[contentId][i].voter;\r\n            bool votedCorrectly = modVotes[contentId][i].isCorrect == verdict;\r\n            if (votedCorrectly) {\r\n                _adjustReputation(voter, 1);\r\n            } else {\r\n                _adjustReputation(voter, -1);\r\n            }\r\n        }\r\n    }\r\n}\r\n",
  "sourcePath": "E:\\Blockchain\\mis\\contracts\\Moderation.sol",
  "compiler": {
    "name": "solc",
    "version": "0.8.21+commit.d9974bed.Emscripten.clang"
  },
  "schemaVersion": "3.4.16",
  "updatedAt": "2025-04-11T20:39:29.744Z",
  "networkType": "ethereum",
  "devdoc": {
    "kind": "dev",
    "methods": {},
    "version": 1
  },
  "userdoc": {
    "kind": "user",
    "methods": {},
    "version": 1
  }
}