{
  "contractName": "UserRegistry",
  "abi": [
    {
      "anonymous": false,
      "inputs": [
        {
          "indexed": false,
          "internalType": "address",
          "name": "user",
          "type": "address"
        }
      ],
      "name": "UserRegistered",
      "type": "event"
    },
    {
      "inputs": [
        {
          "internalType": "address",
          "name": "",
          "type": "address"
        }
      ],
      "name": "isRegistered",
      "outputs": [
        {
          "internalType": "bool",
          "name": "",
          "type": "bool"
        }
      ],
      "stateMutability": "view",
      "type": "function",
      "constant": true
    },
    {
      "inputs": [
        {
          "internalType": "address",
          "name": "",
          "type": "address"
        }
      ],
      "name": "reputation",
      "outputs": [
        {
          "internalType": "uint256",
          "name": "",
          "type": "uint256"
        }
      ],
      "stateMutability": "view",
      "type": "function",
      "constant": true
    },
    {
      "inputs": [],
      "name": "register",
      "outputs": [],
      "stateMutability": "nonpayable",
      "type": "function"
    },
    {
      "inputs": [
        {
          "internalType": "address",
          "name": "user",
          "type": "address"
        }
      ],
      "name": "getReputation",
      "outputs": [
        {
          "internalType": "uint256",
          "name": "",
          "type": "uint256"
        }
      ],
      "stateMutability": "view",
      "type": "function",
      "constant": true
    }
  ],
  "bytecode": "0x608060405234801561000f575f80fd5b5061047a8061001d5f395ff3fe608060405234801561000f575f80fd5b506004361061004a575f3560e01c80631aa3a0081461004e5780639c89a0e214610058578063b9f7945114610088578063c3c5a547146100b8575b5f80fd5b6100566100e8565b005b610072600480360381019061006d9190610315565b610240565b60405161007f9190610358565b60405180910390f35b6100a2600480360381019061009d9190610315565b610286565b6040516100af9190610358565b60405180910390f35b6100d260048036038101906100cd9190610315565b61029b565b6040516100df919061038b565b60405180910390f35b5f803373ffffffffffffffffffffffffffffffffffffffff1673ffffffffffffffffffffffffffffffffffffffff1681526020019081526020015f205f9054906101000a900460ff1615610171576040517f08c379a0000000000000000000000000000000000000000000000000000000008152600401610168906103fe565b60405180910390fd5b60015f803373ffffffffffffffffffffffffffffffffffffffff1673ffffffffffffffffffffffffffffffffffffffff1681526020019081526020015f205f6101000a81548160ff0219169083151502179055505f60015f3373ffffffffffffffffffffffffffffffffffffffff1673ffffffffffffffffffffffffffffffffffffffff1681526020019081526020015f20819055507f54db7a5cb4735e1aac1f53db512d3390390bb6637bd30ad4bf9fc98667d9b9b933604051610236919061042b565b60405180910390a1565b5f60015f8373ffffffffffffffffffffffffffffffffffffffff1673ffffffffffffffffffffffffffffffffffffffff1681526020019081526020015f20549050919050565b6001602052805f5260405f205f915090505481565b5f602052805f5260405f205f915054906101000a900460ff1681565b5f80fd5b5f73ffffffffffffffffffffffffffffffffffffffff82169050919050565b5f6102e4826102bb565b9050919050565b6102f4816102da565b81146102fe575f80fd5b50565b5f8135905061030f816102eb565b92915050565b5f6020828403121561032a576103296102b7565b5b5f61033784828501610301565b91505092915050565b5f819050919050565b61035281610340565b82525050565b5f60208201905061036b5f830184610349565b92915050565b5f8115159050919050565b61038581610371565b82525050565b5f60208201905061039e5f83018461037c565b92915050565b5f82825260208201905092915050565b7f416c7265616479207265676973746572656400000000000000000000000000005f82015250565b5f6103e86012836103a4565b91506103f3826103b4565b602082019050919050565b5f6020820190508181035f830152610415816103dc565b9050919050565b610425816102da565b82525050565b5f60208201905061043e5f83018461041c565b9291505056fea264697066735822122076f5d4fd47361dceba323fb415e3326e69b742f2853cf173ce1b34932ff2403964736f6c63430008150033",
  "immutableReferences": {},
  "source": "// SPDX-License-Identifier: GPL-3.0\r\npragma solidity ^0.8.0;\r\n\r\ncontract UserRegistry {\r\n    mapping(address => bool) public isRegistered;\r\n    mapping(address => uint256) public reputation;\r\n\r\n    event UserRegistered(address user);\r\n    \r\n    modifier onlyRegistered() {\r\n        require(isRegistered[msg.sender], \"Not registered\");\r\n        _;\r\n    }\r\n\r\n    function register() external {\r\n        require(!isRegistered[msg.sender], \"Already registered\");\r\n        isRegistered[msg.sender] = true;\r\n        reputation[msg.sender] = 0;\r\n        emit UserRegistered(msg.sender);\r\n    }\r\n\r\n    function getReputation(address user) external view returns (uint256) {\r\n        return reputation[user];\r\n    }\r\n\r\n    function _adjustReputation(address user, int256 change) internal {\r\n        uint256 current = reputation[user];\r\n        if (change >= 0) {\r\n            reputation[user] = current + uint256(change);\r\n        } else {\r\n            uint256 decrease = uint256(-change);\r\n            reputation[user] = (current > decrease) ? current - decrease : 0;\r\n        }\r\n    }\r\n}\r\n",
  "sourcePath": "E:\\Blockchain\\mis\\contracts\\UserRegistry.sol",
  "compiler": {
    "name": "solc",
    "version": "0.8.21+commit.d9974bed.Emscripten.clang"
  },
  "schemaVersion": "3.4.16",
  "updatedAt": "2025-04-11T20:39:29.734Z",
  "networkType": "ethereum",
  "devdoc": {
    "kind": "dev",
    "methods": {},
    "version": 1
  },
  "userdoc": {
    "kind": "user",
    "methods": {},
    "version": 1
  }
}