{
  "contractName": "UserRegistry",
  "abi": [
    {
      "inputs": [],
      "stateMutability": "nonpayable",
      "type": "constructor"
    },
    {
      "inputs": [
        {
          "internalType": "address",
          "name": "sender",
          "type": "address"
        },
        {
          "internalType": "uint256",
          "name": "tokenId",
          "type": "uint256"
        },
        {
          "internalType": "address",
          "name": "owner",
          "type": "address"
        }
      ],
      "name": "ERC721IncorrectOwner",
      "type": "error"
    },
    {
      "inputs": [
        {
          "internalType": "address",
          "name": "operator",
          "type": "address"
        },
        {
          "internalType": "uint256",
          "name": "tokenId",
          "type": "uint256"
        }
      ],
      "name": "ERC721InsufficientApproval",
      "type": "error"
    },
    {
      "inputs": [
        {
          "internalType": "address",
          "name": "approver",
          "type": "address"
        }
      ],
      "name": "ERC721InvalidApprover",
      "type": "error"
    },
    {
      "inputs": [
        {
          "internalType": "address",
          "name": "operator",
          "type": "address"
        }
      ],
      "name": "ERC721InvalidOperator",
      "type": "error"
    },
    {
      "inputs": [
        {
          "internalType": "address",
          "name": "owner",
          "type": "address"
        }
      ],
      "name": "ERC721InvalidOwner",
      "type": "error"
    },
    {
      "inputs": [
        {
          "internalType": "address",
          "name": "receiver",
          "type": "address"
        }
      ],
      "name": "ERC721InvalidReceiver",
      "type": "error"
    },
    {
      "inputs": [
        {
          "internalType": "address",
          "name": "sender",
          "type": "address"
        }
      ],
      "name": "ERC721InvalidSender",
      "type": "error"
    },
    {
      "inputs": [
        {
          "internalType": "uint256",
          "name": "tokenId",
          "type": "uint256"
        }
      ],
      "name": "ERC721NonexistentToken",
      "type": "error"
    },
    {
      "anonymous": false,
      "inputs": [
        {
          "indexed": true,
          "internalType": "address",
          "name": "owner",
          "type": "address"
        },
        {
          "indexed": true,
          "internalType": "address",
          "name": "approved",
          "type": "address"
        },
        {
          "indexed": true,
          "internalType": "uint256",
          "name": "tokenId",
          "type": "uint256"
        }
      ],
      "name": "Approval",
      "type": "event"
    },
    {
      "anonymous": false,
      "inputs": [
        {
          "indexed": true,
          "internalType": "address",
          "name": "owner",
          "type": "address"
        },
        {
          "indexed": true,
          "internalType": "address",
          "name": "operator",
          "type": "address"
        },
        {
          "indexed": false,
          "internalType": "bool",
          "name": "approved",
          "type": "bool"
        }
      ],
      "name": "ApprovalForAll",
      "type": "event"
    },
    {
      "anonymous": false,
      "inputs": [
        {
          "indexed": false,
          "internalType": "uint256",
          "name": "tokenId",
          "type": "uint256"
        },
        {
          "indexed": false,
          "internalType": "int256",
          "name": "change",
          "type": "int256"
        }
      ],
      "name": "ReputationAdjusted",
      "type": "event"
    },
    {
      "anonymous": false,
      "inputs": [
        {
          "indexed": true,
          "internalType": "address",
          "name": "from",
          "type": "address"
        },
        {
          "indexed": true,
          "internalType": "address",
          "name": "to",
          "type": "address"
        },
        {
          "indexed": true,
          "internalType": "uint256",
          "name": "tokenId",
          "type": "uint256"
        }
      ],
      "name": "Transfer",
      "type": "event"
    },
    {
      "inputs": [
        {
          "internalType": "address",
          "name": "",
          "type": "address"
        }
      ],
      "name": "addressToTokenId",
      "outputs": [
        {
          "internalType": "uint256",
          "name": "",
          "type": "uint256"
        }
      ],
      "stateMutability": "view",
      "type": "function",
      "constant": true
    },
    {
      "inputs": [
        {
          "internalType": "uint256",
          "name": "",
          "type": "uint256"
        }
      ],
      "name": "allTokenIds",
      "outputs": [
        {
          "internalType": "uint256",
          "name": "",
          "type": "uint256"
        }
      ],
      "stateMutability": "view",
      "type": "function",
      "constant": true
    },
    {
      "inputs": [
        {
          "internalType": "address",
          "name": "to",
          "type": "address"
        },
        {
          "internalType": "uint256",
          "name": "tokenId",
          "type": "uint256"
        }
      ],
      "name": "approve",
      "outputs": [],
      "stateMutability": "nonpayable",
      "type": "function"
    },
    {
      "inputs": [
        {
          "internalType": "address",
          "name": "owner",
          "type": "address"
        }
      ],
      "name": "balanceOf",
      "outputs": [
        {
          "internalType": "uint256",
          "name": "",
          "type": "uint256"
        }
      ],
      "stateMutability": "view",
      "type": "function",
      "constant": true
    },
    {
      "inputs": [],
      "name": "contentRegistry",
      "outputs": [
        {
          "internalType": "address",
          "name": "",
          "type": "address"
        }
      ],
      "stateMutability": "view",
      "type": "function",
      "constant": true
    },
    {
      "inputs": [
        {
          "internalType": "uint256",
          "name": "tokenId",
          "type": "uint256"
        }
      ],
      "name": "getApproved",
      "outputs": [
        {
          "internalType": "address",
          "name": "",
          "type": "address"
        }
      ],
      "stateMutability": "view",
      "type": "function",
      "constant": true
    },
    {
      "inputs": [
        {
          "internalType": "address",
          "name": "owner",
          "type": "address"
        },
        {
          "internalType": "address",
          "name": "operator",
          "type": "address"
        }
      ],
      "name": "isApprovedForAll",
      "outputs": [
        {
          "internalType": "bool",
          "name": "",
          "type": "bool"
        }
      ],
      "stateMutability": "view",
      "type": "function",
      "constant": true
    },
    {
      "inputs": [],
      "name": "moderation",
      "outputs": [
        {
          "internalType": "address",
          "name": "",
          "type": "address"
        }
      ],
      "stateMutability": "view",
      "type": "function",
      "constant": true
    },
    {
      "inputs": [],
      "name": "name",
      "outputs": [
        {
          "internalType": "string",
          "name": "",
          "type": "string"
        }
      ],
      "stateMutability": "view",
      "type": "function",
      "constant": true
    },
    {
      "inputs": [
        {
          "internalType": "uint256",
          "name": "tokenId",
          "type": "uint256"
        }
      ],
      "name": "ownerOf",
      "outputs": [
        {
          "internalType": "address",
          "name": "",
          "type": "address"
        }
      ],
      "stateMutability": "view",
      "type": "function",
      "constant": true
    },
    {
      "inputs": [
        {
          "internalType": "address",
          "name": "from",
          "type": "address"
        },
        {
          "internalType": "address",
          "name": "to",
          "type": "address"
        },
        {
          "internalType": "uint256",
          "name": "tokenId",
          "type": "uint256"
        }
      ],
      "name": "safeTransferFrom",
      "outputs": [],
      "stateMutability": "nonpayable",
      "type": "function"
    },
    {
      "inputs": [
        {
          "internalType": "address",
          "name": "from",
          "type": "address"
        },
        {
          "internalType": "address",
          "name": "to",
          "type": "address"
        },
        {
          "internalType": "uint256",
          "name": "tokenId",
          "type": "uint256"
        },
        {
          "internalType": "bytes",
          "name": "data",
          "type": "bytes"
        }
      ],
      "name": "safeTransferFrom",
      "outputs": [],
      "stateMutability": "nonpayable",
      "type": "function"
    },
    {
      "inputs": [
        {
          "internalType": "address",
          "name": "operator",
          "type": "address"
        },
        {
          "internalType": "bool",
          "name": "approved",
          "type": "bool"
        }
      ],
      "name": "setApprovalForAll",
      "outputs": [],
      "stateMutability": "nonpayable",
      "type": "function"
    },
    {
      "inputs": [
        {
          "internalType": "bytes4",
          "name": "interfaceId",
          "type": "bytes4"
        }
      ],
      "name": "supportsInterface",
      "outputs": [
        {
          "internalType": "bool",
          "name": "",
          "type": "bool"
        }
      ],
      "stateMutability": "view",
      "type": "function",
      "constant": true
    },
    {
      "inputs": [],
      "name": "symbol",
      "outputs": [
        {
          "internalType": "string",
          "name": "",
          "type": "string"
        }
      ],
      "stateMutability": "view",
      "type": "function",
      "constant": true
    },
    {
      "inputs": [
        {
          "internalType": "uint256",
          "name": "tokenId",
          "type": "uint256"
        }
      ],
      "name": "tokenURI",
      "outputs": [
        {
          "internalType": "string",
          "name": "",
          "type": "string"
        }
      ],
      "stateMutability": "view",
      "type": "function",
      "constant": true
    },
    {
      "inputs": [
        {
          "internalType": "address",
          "name": "from",
          "type": "address"
        },
        {
          "internalType": "address",
          "name": "to",
          "type": "address"
        },
        {
          "internalType": "uint256",
          "name": "tokenId",
          "type": "uint256"
        }
      ],
      "name": "transferFrom",
      "outputs": [],
      "stateMutability": "nonpayable",
      "type": "function"
    },
    {
      "inputs": [
        {
          "internalType": "uint256",
          "name": "",
          "type": "uint256"
        }
      ],
      "name": "users",
      "outputs": [
        {
          "internalType": "uint256",
          "name": "reputation",
          "type": "uint256"
        },
        {
          "internalType": "uint256",
          "name": "contentCount",
          "type": "uint256"
        }
      ],
      "stateMutability": "view",
      "type": "function",
      "constant": true
    },
    {
      "inputs": [],
      "name": "register",
      "outputs": [
        {
          "internalType": "uint256",
          "name": "",
          "type": "uint256"
        }
      ],
      "stateMutability": "nonpayable",
      "type": "function"
    },
    {
      "inputs": [
        {
          "internalType": "address",
          "name": "userAddr",
          "type": "address"
        }
      ],
      "name": "getUser",
      "outputs": [
        {
          "components": [
            {
              "internalType": "uint256",
              "name": "reputation",
              "type": "uint256"
            },
            {
              "internalType": "uint256",
              "name": "contentCount",
              "type": "uint256"
            }
          ],
          "internalType": "struct UserRegistry.User",
          "name": "",
          "type": "tuple"
        },
        {
          "internalType": "uint256",
          "name": "",
          "type": "uint256"
        }
      ],
      "stateMutability": "view",
      "type": "function",
      "constant": true
    },
    {
      "inputs": [
        {
          "internalType": "uint256",
          "name": "tokenId",
          "type": "uint256"
        },
        {
          "internalType": "int256",
          "name": "change",
          "type": "int256"
        }
      ],
      "name": "adjustReputation",
      "outputs": [],
      "stateMutability": "nonpayable",
      "type": "function"
    },
    {
      "inputs": [
        {
          "internalType": "address",
          "name": "_content",
          "type": "address"
        },
        {
          "internalType": "address",
          "name": "_moderation",
          "type": "address"
        }
      ],
      "name": "setApprovedContracts",
      "outputs": [],
      "stateMutability": "nonpayable",
      "type": "function"
    },
    {
      "inputs": [],
      "name": "getUserCount",
      "outputs": [
        {
          "internalType": "uint256",
          "name": "",
          "type": "uint256"
        }
      ],
      "stateMutability": "view",
      "type": "function",
      "constant": true
    },
    {
      "inputs": [],
      "name": "getAllTokenIds",
      "outputs": [
        {
          "internalType": "uint256[]",
          "name": "",
          "type": "uint256[]"
        }
      ],
      "stateMutability": "view",
      "type": "function",
      "constant": true
    }
  ],
  "bytecode": "0x60806040525f60085534801562000014575f80fd5b506040518060400160405280600981526020017f55736572546f6b656e00000000000000000000000000000000000000000000008152506040518060400160405280600481526020017f55544b4e00000000000000000000000000000000000000000000000000000000815250815f908162000091919062000310565b508060019081620000a3919062000310565b505050620003f4565b5f81519050919050565b7f4e487b71000000000000000000000000000000000000000000000000000000005f52604160045260245ffd5b7f4e487b71000000000000000000000000000000000000000000000000000000005f52602260045260245ffd5b5f60028204905060018216806200012857607f821691505b6020821081036200013e576200013d620000e3565b5b50919050565b5f819050815f5260205f209050919050565b5f6020601f8301049050919050565b5f82821b905092915050565b5f60088302620001a27fffffffffffffffffffffffffffffffffffffffffffffffffffffffffffffffff8262000165565b620001ae868362000165565b95508019841693508086168417925050509392505050565b5f819050919050565b5f819050919050565b5f620001f8620001f2620001ec84620001c6565b620001cf565b620001c6565b9050919050565b5f819050919050565b6200021383620001d8565b6200022b6200022282620001ff565b84845462000171565b825550505050565b5f90565b6200024162000233565b6200024e81848462000208565b505050565b5b818110156200027557620002695f8262000237565b60018101905062000254565b5050565b601f821115620002c4576200028e8162000144565b620002998462000156565b81016020851015620002a9578190505b620002c1620002b88562000156565b83018262000253565b50505b505050565b5f82821c905092915050565b5f620002e65f1984600802620002c9565b1980831691505092915050565b5f620003008383620002d5565b9150826002028217905092915050565b6200031b82620000ac565b67ffffffffffffffff811115620003375762000336620000b6565b5b62000343825462000110565b6200035082828562000279565b5f60209050601f83116001811462000386575f841562000371578287015190505b6200037d8582620002f3565b865550620003ec565b601f198416620003968662000144565b5f5b82811015620003bf5784890151825560018201915060208501945060208101905062000398565b86831015620003df5784890151620003db601f891682620002d5565b8355505b6001600288020188555050505b505050505050565b6128c480620004025f395ff3fe608060405234801561000f575f80fd5b5060043610610156575f3560e01c80636f77926b116100c1578063b5cb15f71161007a578063b5cb15f7146103fe578063b88d4fde1461041c578063bdbed72214610438578063c87b56dd14610456578063cdc4e01314610486578063e985e9c5146104a257610156565b80636f77926b1461031557806370a08231146103465780637d07b2d21461037657806395d89b41146103a6578063a22cb465146103c4578063aaa07598146103e057610156565b806323b872dd1161011357806323b872dd1461022e57806327a4f2bb1461024a578063365b98b21461026857806342842e0e146102995780636352211e146102b55780636511bf2e146102e557610156565b806301ffc9a71461015a57806306fdde031461018a578063081812fc146101a8578063095ea7b3146101d85780631aa3a008146101f45780631f8c238614610212575b5f80fd5b610174600480360381019061016f9190611d04565b6104d2565b6040516101819190611d49565b60405180910390f35b6101926105b3565b60405161019f9190611dec565b60405180910390f35b6101c260048036038101906101bd9190611e3f565b610642565b6040516101cf9190611ea9565b60405180910390f35b6101f260048036038101906101ed9190611eec565b61065d565b005b6101fc610673565b6040516102099190611f39565b60405180910390f35b61022c60048036038101906102279190611f52565b61078b565b005b61024860048036038101906102439190611f90565b61089e565b005b61025261099d565b60405161025f9190611ea9565b60405180910390f35b610282600480360381019061027d9190611e3f565b6109c2565b604051610290929190611fe0565b60405180910390f35b6102b360048036038101906102ae9190611f90565b6109e2565b005b6102cf60048036038101906102ca9190611e3f565b610a01565b6040516102dc9190611ea9565b60405180910390f35b6102ff60048036038101906102fa9190612007565b610a12565b60405161030c9190611f39565b60405180910390f35b61032f600480360381019061032a9190612007565b610a27565b60405161033d92919061206e565b60405180910390f35b610360600480360381019061035b9190612007565b610aae565b60405161036d9190611f39565b60405180910390f35b610390600480360381019061038b9190611e3f565b610b64565b60405161039d9190611f39565b60405180910390f35b6103ae610b84565b6040516103bb9190611dec565b60405180910390f35b6103de60048036038101906103d991906120bf565b610c14565b005b6103e8610c2a565b6040516103f59190611ea9565b60405180910390f35b610406610c4f565b6040516104139190611f39565b60405180910390f35b61043660048036038101906104319190612229565b610c58565b005b610440610c7d565b60405161044d9190612351565b60405180910390f35b610470600480360381019061046b9190611e3f565b610cd3565b60405161047d9190611dec565b60405180910390f35b6104a0600480360381019061049b91906123a4565b610d39565b005b6104bc60048036038101906104b79190611f52565b610ef8565b6040516104c99190611d49565b60405180910390f35b5f7f80ac58cd000000000000000000000000000000000000000000000000000000007bffffffffffffffffffffffffffffffffffffffffffffffffffffffff1916827bffffffffffffffffffffffffffffffffffffffffffffffffffffffff1916148061059c57507f5b5e139f000000000000000000000000000000000000000000000000000000007bffffffffffffffffffffffffffffffffffffffffffffffffffffffff1916827bffffffffffffffffffffffffffffffffffffffffffffffffffffffff1916145b806105ac57506105ab82610f86565b5b9050919050565b60605f80546105c19061240f565b80601f01602080910402602001604051908101604052809291908181526020018280546105ed9061240f565b80156106385780601f1061060f57610100808354040283529160200191610638565b820191905f5260205f20905b81548152906001019060200180831161061b57829003601f168201915b5050505050905090565b5f61064c82610fef565b5061065682611075565b9050919050565b61066f828261066a6110ae565b6110b5565b5050565b5f8061067e33610aae565b146106be576040517f08c379a00000000000000000000000000000000000000000000000000000000081526004016106b590612489565b60405180910390fd5b5f60085f8154809291906106d1906124d4565b9190505590506106e133826110c7565b8060075f3373ffffffffffffffffffffffffffffffffffffffff1673ffffffffffffffffffffffffffffffffffffffff1681526020019081526020015f208190555060405180604001604052805f81526020015f81525060065f8381526020019081526020015f205f820151815f015560208201518160010155905050600b81908060018154018082558091505060019003905f5260205f20015f90919091909150558091505090565b5f73ffffffffffffffffffffffffffffffffffffffff1660095f9054906101000a900473ffffffffffffffffffffffffffffffffffffffff1673ffffffffffffffffffffffffffffffffffffffff161461081a576040517f08c379a000000000000000000000000000000000000000000000000000000000815260040161081190612565565b60405180910390fd5b8160095f6101000a81548173ffffffffffffffffffffffffffffffffffffffff021916908373ffffffffffffffffffffffffffffffffffffffff16021790555080600a5f6101000a81548173ffffffffffffffffffffffffffffffffffffffff021916908373ffffffffffffffffffffffffffffffffffffffff1602179055505050565b5f73ffffffffffffffffffffffffffffffffffffffff168273ffffffffffffffffffffffffffffffffffffffff160361090e575f6040517f64a0ae920000000000000000000000000000000000000000000000000000000081526004016109059190611ea9565b60405180910390fd5b5f610921838361091c6110ae565b6111ba565b90508373ffffffffffffffffffffffffffffffffffffffff168173ffffffffffffffffffffffffffffffffffffffff1614610997578382826040517f64283d7b00000000000000000000000000000000000000000000000000000000815260040161098e93929190612583565b60405180910390fd5b50505050565b60095f9054906101000a900473ffffffffffffffffffffffffffffffffffffffff1681565b6006602052805f5260405f205f91509050805f0154908060010154905082565b6109fc83838360405180602001604052805f815250610c58565b505050565b5f610a0b82610fef565b9050919050565b6007602052805f5260405f205f915090505481565b610a2f611c86565b5f8060075f8573ffffffffffffffffffffffffffffffffffffffff1673ffffffffffffffffffffffffffffffffffffffff1681526020019081526020015f2054905060065f8281526020019081526020015f2081816040518060400160405290815f820154815260200160018201548152505091509250925050915091565b5f8073ffffffffffffffffffffffffffffffffffffffff168273ffffffffffffffffffffffffffffffffffffffff1603610b1f575f6040517f89c62b64000000000000000000000000000000000000000000000000000000008152600401610b169190611ea9565b60405180910390fd5b60035f8373ffffffffffffffffffffffffffffffffffffffff1673ffffffffffffffffffffffffffffffffffffffff1681526020019081526020015f20549050919050565b600b8181548110610b73575f80fd5b905f5260205f20015f915090505481565b606060018054610b939061240f565b80601f0160208091040260200160405190810160405280929190818152602001828054610bbf9061240f565b8015610c0a5780601f10610be157610100808354040283529160200191610c0a565b820191905f5260205f20905b815481529060010190602001808311610bed57829003601f168201915b5050505050905090565b610c26610c1f6110ae565b83836113c5565b5050565b600a5f9054906101000a900473ffffffffffffffffffffffffffffffffffffffff1681565b5f600854905090565b610c6384848461089e565b610c77610c6e6110ae565b8585858561152e565b50505050565b6060600b805480602002602001604051908101604052809291908181526020018280548015610cc957602002820191905f5260205f20905b815481526020019060010190808311610cb5575b5050505050905090565b6060610cde82610fef565b505f610ce86116da565b90505f815111610d065760405180602001604052805f815250610d31565b80610d10846116f0565b604051602001610d219291906125f2565b6040516020818303038152906040525b915050919050565b60095f9054906101000a900473ffffffffffffffffffffffffffffffffffffffff1673ffffffffffffffffffffffffffffffffffffffff163373ffffffffffffffffffffffffffffffffffffffff161480610de05750600a5f9054906101000a900473ffffffffffffffffffffffffffffffffffffffff1673ffffffffffffffffffffffffffffffffffffffff163373ffffffffffffffffffffffffffffffffffffffff16145b610e1f576040517f08c379a0000000000000000000000000000000000000000000000000000000008152600401610e169061265f565b60405180910390fd5b5f811315610e55578060065f8481526020019081526020015f205f015f828254610e49919061267d565b92505081905550610ebb565b5f81610e60906126b0565b905060065f8481526020019081526020015f205f01548111610ea0578060065f8581526020019081526020015f205f0154610e9b91906126f6565b610ea2565b5f5b60065f8581526020019081526020015f205f0181905550505b7fc4fc23e82b3bcb4dabcee9b8e51e157e7847aa775c56f3d80f16ec50493d397d8282604051610eec929190612738565b60405180910390a15050565b5f60055f8473ffffffffffffffffffffffffffffffffffffffff1673ffffffffffffffffffffffffffffffffffffffff1681526020019081526020015f205f8373ffffffffffffffffffffffffffffffffffffffff1673ffffffffffffffffffffffffffffffffffffffff1681526020019081526020015f205f9054906101000a900460ff16905092915050565b5f7f01ffc9a7000000000000000000000000000000000000000000000000000000007bffffffffffffffffffffffffffffffffffffffffffffffffffffffff1916827bffffffffffffffffffffffffffffffffffffffffffffffffffffffff1916149050919050565b5f80610ffa836117ba565b90505f73ffffffffffffffffffffffffffffffffffffffff168173ffffffffffffffffffffffffffffffffffffffff160361106c57826040517f7e2732890000000000000000000000000000000000000000000000000000000081526004016110639190611f39565b60405180910390fd5b80915050919050565b5f60045f8381526020019081526020015f205f9054906101000a900473ffffffffffffffffffffffffffffffffffffffff169050919050565b5f33905090565b6110c283838360016117f3565b505050565b5f73ffffffffffffffffffffffffffffffffffffffff168273ffffffffffffffffffffffffffffffffffffffff1603611137575f6040517f64a0ae9200000000000000000000000000000000000000000000000000000000815260040161112e9190611ea9565b60405180910390fd5b5f61114383835f6111ba565b90505f73ffffffffffffffffffffffffffffffffffffffff168173ffffffffffffffffffffffffffffffffffffffff16146111b5575f6040517f73c6ac6e0000000000000000000000000000000000000000000000000000000081526004016111ac9190611ea9565b60405180910390fd5b505050565b5f806111c5846117ba565b90505f73ffffffffffffffffffffffffffffffffffffffff168373ffffffffffffffffffffffffffffffffffffffff1614611206576112058184866119b2565b5b5f73ffffffffffffffffffffffffffffffffffffffff168173ffffffffffffffffffffffffffffffffffffffff1614611291576112455f855f806117f3565b600160035f8373ffffffffffffffffffffffffffffffffffffffff1673ffffffffffffffffffffffffffffffffffffffff1681526020019081526020015f205f82825403925050819055505b5f73ffffffffffffffffffffffffffffffffffffffff168573ffffffffffffffffffffffffffffffffffffffff161461131057600160035f8773ffffffffffffffffffffffffffffffffffffffff1673ffffffffffffffffffffffffffffffffffffffff1681526020019081526020015f205f82825401925050819055505b8460025f8681526020019081526020015f205f6101000a81548173ffffffffffffffffffffffffffffffffffffffff021916908373ffffffffffffffffffffffffffffffffffffffff160217905550838573ffffffffffffffffffffffffffffffffffffffff168273ffffffffffffffffffffffffffffffffffffffff167fddf252ad1be2c89b69c2b068fc378daa952ba7f163c4a11628f55a4df523b3ef60405160405180910390a4809150509392505050565b5f73ffffffffffffffffffffffffffffffffffffffff168273ffffffffffffffffffffffffffffffffffffffff160361143557816040517f5b08ba1800000000000000000000000000000000000000000000000000000000815260040161142c9190611ea9565b60405180910390fd5b8060055f8573ffffffffffffffffffffffffffffffffffffffff1673ffffffffffffffffffffffffffffffffffffffff1681526020019081526020015f205f8473ffffffffffffffffffffffffffffffffffffffff1673ffffffffffffffffffffffffffffffffffffffff1681526020019081526020015f205f6101000a81548160ff0219169083151502179055508173ffffffffffffffffffffffffffffffffffffffff168373ffffffffffffffffffffffffffffffffffffffff167f17307eab39ab6107e8899845ad3d59bd9653f200f220920489ca2b5937696c31836040516115219190611d49565b60405180910390a3505050565b5f8373ffffffffffffffffffffffffffffffffffffffff163b11156116d3578273ffffffffffffffffffffffffffffffffffffffff1663150b7a02868685856040518563ffffffff1660e01b815260040161158c94939291906127b1565b6020604051808303815f875af19250505080156115c757506040513d601f19601f820116820180604052508101906115c4919061280f565b60015b611648573d805f81146115f5576040519150601f19603f3d011682016040523d82523d5f602084013e6115fa565b606091505b505f81510361164057836040517f64a0ae920000000000000000000000000000000000000000000000000000000081526004016116379190611ea9565b60405180910390fd5b805181602001fd5b63150b7a0260e01b7bffffffffffffffffffffffffffffffffffffffffffffffffffffffff1916817bffffffffffffffffffffffffffffffffffffffffffffffffffffffff1916146116d157836040517f64a0ae920000000000000000000000000000000000000000000000000000000081526004016116c89190611ea9565b60405180910390fd5b505b5050505050565b606060405180602001604052805f815250905090565b60605f60016116fe84611a75565b0190505f8167ffffffffffffffff81111561171c5761171b612105565b5b6040519080825280601f01601f19166020018201604052801561174e5781602001600182028036833780820191505090505b5090505f82602001820190505b6001156117af578080600190039150507f3031323334353637383961626364656600000000000000000000000000000000600a86061a8153600a85816117a4576117a361283a565b5b0494505f850361175b575b819350505050919050565b5f60025f8381526020019081526020015f205f9054906101000a900473ffffffffffffffffffffffffffffffffffffffff169050919050565b808061182b57505f73ffffffffffffffffffffffffffffffffffffffff168273ffffffffffffffffffffffffffffffffffffffff1614155b1561195d575f61183a84610fef565b90505f73ffffffffffffffffffffffffffffffffffffffff168373ffffffffffffffffffffffffffffffffffffffff16141580156118a457508273ffffffffffffffffffffffffffffffffffffffff168173ffffffffffffffffffffffffffffffffffffffff1614155b80156118b757506118b58184610ef8565b155b156118f957826040517fa9fbf51f0000000000000000000000000000000000000000000000000000000081526004016118f09190611ea9565b60405180910390fd5b811561195b57838573ffffffffffffffffffffffffffffffffffffffff168273ffffffffffffffffffffffffffffffffffffffff167f8c5be1e5ebec7d5bd14f71427d1e84f3dd0314c0f7b2291e5b200ac8c7c3b92560405160405180910390a45b505b8360045f8581526020019081526020015f205f6101000a81548173ffffffffffffffffffffffffffffffffffffffff021916908373ffffffffffffffffffffffffffffffffffffffff16021790555050505050565b6119bd838383611bc6565b611a70575f73ffffffffffffffffffffffffffffffffffffffff168373ffffffffffffffffffffffffffffffffffffffff1603611a3157806040517f7e273289000000000000000000000000000000000000000000000000000000008152600401611a289190611f39565b60405180910390fd5b81816040517f177e802f000000000000000000000000000000000000000000000000000000008152600401611a67929190612867565b60405180910390fd5b505050565b5f805f90507a184f03e93ff9f4daa797ed6e38ed64bf6a1f0100000000000000008310611ad1577a184f03e93ff9f4daa797ed6e38ed64bf6a1f0100000000000000008381611ac757611ac661283a565b5b0492506040810190505b6d04ee2d6d415b85acef81000000008310611b0e576d04ee2d6d415b85acef81000000008381611b0457611b0361283a565b5b0492506020810190505b662386f26fc100008310611b3d57662386f26fc100008381611b3357611b3261283a565b5b0492506010810190505b6305f5e1008310611b66576305f5e1008381611b5c57611b5b61283a565b5b0492506008810190505b6127108310611b8b576127108381611b8157611b8061283a565b5b0492506004810190505b60648310611bae5760648381611ba457611ba361283a565b5b0492506002810190505b600a8310611bbd576001810190505b80915050919050565b5f8073ffffffffffffffffffffffffffffffffffffffff168373ffffffffffffffffffffffffffffffffffffffff1614158015611c7d57508273ffffffffffffffffffffffffffffffffffffffff168473ffffffffffffffffffffffffffffffffffffffff161480611c3e5750611c3d8484610ef8565b5b80611c7c57508273ffffffffffffffffffffffffffffffffffffffff16611c6483611075565b73ffffffffffffffffffffffffffffffffffffffff16145b5b90509392505050565b60405180604001604052805f81526020015f81525090565b5f604051905090565b5f80fd5b5f80fd5b5f7fffffffff0000000000000000000000000000000000000000000000000000000082169050919050565b611ce381611caf565b8114611ced575f80fd5b50565b5f81359050611cfe81611cda565b92915050565b5f60208284031215611d1957611d18611ca7565b5b5f611d2684828501611cf0565b91505092915050565b5f8115159050919050565b611d4381611d2f565b82525050565b5f602082019050611d5c5f830184611d3a565b92915050565b5f81519050919050565b5f82825260208201905092915050565b5f5b83811015611d99578082015181840152602081019050611d7e565b5f8484015250505050565b5f601f19601f8301169050919050565b5f611dbe82611d62565b611dc88185611d6c565b9350611dd8818560208601611d7c565b611de181611da4565b840191505092915050565b5f6020820190508181035f830152611e048184611db4565b905092915050565b5f819050919050565b611e1e81611e0c565b8114611e28575f80fd5b50565b5f81359050611e3981611e15565b92915050565b5f60208284031215611e5457611e53611ca7565b5b5f611e6184828501611e2b565b91505092915050565b5f73ffffffffffffffffffffffffffffffffffffffff82169050919050565b5f611e9382611e6a565b9050919050565b611ea381611e89565b82525050565b5f602082019050611ebc5f830184611e9a565b92915050565b611ecb81611e89565b8114611ed5575f80fd5b50565b5f81359050611ee681611ec2565b92915050565b5f8060408385031215611f0257611f01611ca7565b5b5f611f0f85828601611ed8565b9250506020611f2085828601611e2b565b9150509250929050565b611f3381611e0c565b82525050565b5f602082019050611f4c5f830184611f2a565b92915050565b5f8060408385031215611f6857611f67611ca7565b5b5f611f7585828601611ed8565b9250506020611f8685828601611ed8565b9150509250929050565b5f805f60608486031215611fa757611fa6611ca7565b5b5f611fb486828701611ed8565b9350506020611fc586828701611ed8565b9250506040611fd686828701611e2b565b9150509250925092565b5f604082019050611ff35f830185611f2a565b6120006020830184611f2a565b9392505050565b5f6020828403121561201c5761201b611ca7565b5b5f61202984828501611ed8565b91505092915050565b61203b81611e0c565b82525050565b604082015f8201516120555f850182612032565b5060208201516120686020850182612032565b50505050565b5f6060820190506120815f830185612041565b61208e6040830184611f2a565b9392505050565b61209e81611d2f565b81146120a8575f80fd5b50565b5f813590506120b981612095565b92915050565b5f80604083850312156120d5576120d4611ca7565b5b5f6120e285828601611ed8565b92505060206120f3858286016120ab565b9150509250929050565b5f80fd5b5f80fd5b7f4e487b71000000000000000000000000000000000000000000000000000000005f52604160045260245ffd5b61213b82611da4565b810181811067ffffffffffffffff8211171561215a57612159612105565b5b80604052505050565b5f61216c611c9e565b90506121788282612132565b919050565b5f67ffffffffffffffff82111561219757612196612105565b5b6121a082611da4565b9050602081019050919050565b828183375f83830152505050565b5f6121cd6121c88461217d565b612163565b9050828152602081018484840111156121e9576121e8612101565b5b6121f48482856121ad565b509392505050565b5f82601f8301126122105761220f6120fd565b5b81356122208482602086016121bb565b91505092915050565b5f805f806080858703121561224157612240611ca7565b5b5f61224e87828801611ed8565b945050602061225f87828801611ed8565b935050604061227087828801611e2b565b925050606085013567ffffffffffffffff81111561229157612290611cab565b5b61229d878288016121fc565b91505092959194509250565b5f81519050919050565b5f82825260208201905092915050565b5f819050602082019050919050565b5f6122dd8383612032565b60208301905092915050565b5f602082019050919050565b5f6122ff826122a9565b61230981856122b3565b9350612314836122c3565b805f5b8381101561234457815161232b88826122d2565b9750612336836122e9565b925050600181019050612317565b5085935050505092915050565b5f6020820190508181035f83015261236981846122f5565b905092915050565b5f819050919050565b61238381612371565b811461238d575f80fd5b50565b5f8135905061239e8161237a565b92915050565b5f80604083850312156123ba576123b9611ca7565b5b5f6123c785828601611e2b565b92505060206123d885828601612390565b9150509250929050565b7f4e487b71000000000000000000000000000000000000000000000000000000005f52602260045260245ffd5b5f600282049050600182168061242657607f821691505b602082108103612439576124386123e2565b5b50919050565b7f416c7265616479207265676973746572656400000000000000000000000000005f82015250565b5f612473601283611d6c565b915061247e8261243f565b602082019050919050565b5f6020820190508181035f8301526124a081612467565b9050919050565b7f4e487b71000000000000000000000000000000000000000000000000000000005f52601160045260245ffd5b5f6124de82611e0c565b91507fffffffffffffffffffffffffffffffffffffffffffffffffffffffffffffffff82036125105761250f6124a7565b5b600182019050919050565b7f416c7265616479207365740000000000000000000000000000000000000000005f82015250565b5f61254f600b83611d6c565b915061255a8261251b565b602082019050919050565b5f6020820190508181035f83015261257c81612543565b9050919050565b5f6060820190506125965f830186611e9a565b6125a36020830185611f2a565b6125b06040830184611e9a565b949350505050565b5f81905092915050565b5f6125cc82611d62565b6125d681856125b8565b93506125e6818560208601611d7c565b80840191505092915050565b5f6125fd82856125c2565b915061260982846125c2565b91508190509392505050565b7f556e617574686f72697a656400000000000000000000000000000000000000005f82015250565b5f612649600c83611d6c565b915061265482612615565b602082019050919050565b5f6020820190508181035f8301526126768161263d565b9050919050565b5f61268782611e0c565b915061269283611e0c565b92508282019050808211156126aa576126a96124a7565b5b92915050565b5f6126ba82612371565b91507f800000000000000000000000000000000000000000000000000000000000000082036126ec576126eb6124a7565b5b815f039050919050565b5f61270082611e0c565b915061270b83611e0c565b9250828203905081811115612723576127226124a7565b5b92915050565b61273281612371565b82525050565b5f60408201905061274b5f830185611f2a565b6127586020830184612729565b9392505050565b5f81519050919050565b5f82825260208201905092915050565b5f6127838261275f565b61278d8185612769565b935061279d818560208601611d7c565b6127a681611da4565b840191505092915050565b5f6080820190506127c45f830187611e9a565b6127d16020830186611e9a565b6127de6040830185611f2a565b81810360608301526127f08184612779565b905095945050505050565b5f8151905061280981611cda565b92915050565b5f6020828403121561282457612823611ca7565b5b5f612831848285016127fb565b91505092915050565b7f4e487b71000000000000000000000000000000000000000000000000000000005f52601260045260245ffd5b5f60408201905061287a5f830185611e9a565b6128876020830184611f2a565b939250505056fea264697066735822122026b628e577341ae7f759e183803239b9848de64c685168769da0887b3a1ff2be64736f6c63430008150033",
  "immutableReferences": {},
  "source": "// SPDX-License-Identifier: GPL-3.0\r\npragma solidity ^0.8.0;\r\n\r\nimport \"@openzeppelin/contracts/token/ERC721/ERC721.sol\";\r\n\r\ncontract UserRegistry is ERC721 {\r\n    struct User {\r\n        uint256 reputation;\r\n        uint256 contentCount;\r\n    }\r\n\r\n    mapping(uint256 => User) public users;\r\n    mapping(address => uint256) public addressToTokenId;\r\n    uint256 private _tokenCounter = 0;\r\n    address public contentRegistry;\r\n    address public moderation;\r\n    uint256[] public allTokenIds;\r\n\r\n    event ReputationAdjusted(uint256 tokenId, int256 change);\r\n\r\n    constructor() ERC721(\"UserToken\", \"UTKN\") {}\r\n\r\n    modifier onlyApproved() {\r\n        require(msg.sender == contentRegistry || msg.sender == moderation, \"Unauthorized\");\r\n        _;\r\n    }\r\n\r\n    function register() external returns (uint256) {\r\n        require(balanceOf(msg.sender) == 0, \"Already registered\");\r\n        uint256 tokenId = _tokenCounter++;\r\n        _mint(msg.sender, tokenId);\r\n        addressToTokenId[msg.sender] = tokenId;\r\n        users[tokenId] = User(0, 0); // 0 initial reputation\r\n        allTokenIds.push(tokenId);\r\n        return tokenId;\r\n    }\r\n\r\n    function getUser(address userAddr) external view returns (User memory, uint256) {\r\n        uint256 tokenId = addressToTokenId[userAddr];\r\n        return (users[tokenId], tokenId);\r\n    }\r\n\r\n    function adjustReputation(uint256 tokenId, int256 change) external onlyApproved {\r\n        if (change > 0) {\r\n            users[tokenId].reputation += uint256(change);\r\n        } else {\r\n            uint256 decrease = uint256(-change);\r\n            users[tokenId].reputation = decrease > users[tokenId].reputation ? 0 : users[tokenId].reputation - decrease;\r\n        }\r\n        emit ReputationAdjusted(tokenId, change);\r\n    }\r\n\r\n    function setApprovedContracts(address _content, address _moderation) external {\r\n        require(contentRegistry == address(0), \"Already set\");\r\n        contentRegistry = _content;\r\n        moderation = _moderation;\r\n    }\r\n\r\n    function getUserCount() external view returns(uint256) {\r\n        return (_tokenCounter);\r\n    }\r\n\r\n    function getAllTokenIds() external view returns (uint256[] memory) {\r\n        return allTokenIds;\r\n    }\r\n\r\n}",
  "sourcePath": "E:\\Blockchain\\mis\\contracts\\UserRegistry.sol",
  "compiler": {
    "name": "solc",
    "version": "0.8.21+commit.d9974bed.Emscripten.clang"
  },
  "schemaVersion": "3.4.16",
  "updatedAt": "2025-04-12T09:03:50.962Z",
  "networkType": "ethereum",
  "devdoc": {
    "errors": {
      "ERC721IncorrectOwner(address,uint256,address)": [
        {
          "details": "Indicates an error related to the ownership over a particular token. Used in transfers.",
          "params": {
            "owner": "Address of the current owner of a token.",
            "sender": "Address whose tokens are being transferred.",
            "tokenId": "Identifier number of a token."
          }
        }
      ],
      "ERC721InsufficientApproval(address,uint256)": [
        {
          "details": "Indicates a failure with the `operator`s approval. Used in transfers.",
          "params": {
            "operator": "Address that may be allowed to operate on tokens without being their owner.",
            "tokenId": "Identifier number of a token."
          }
        }
      ],
      "ERC721InvalidApprover(address)": [
        {
          "details": "Indicates a failure with the `approver` of a token to be approved. Used in approvals.",
          "params": {
            "approver": "Address initiating an approval operation."
          }
        }
      ],
      "ERC721InvalidOperator(address)": [
        {
          "details": "Indicates a failure with the `operator` to be approved. Used in approvals.",
          "params": {
            "operator": "Address that may be allowed to operate on tokens without being their owner."
          }
        }
      ],
      "ERC721InvalidOwner(address)": [
        {
          "details": "Indicates that an address can't be an owner. For example, `address(0)` is a forbidden owner in ERC-20. Used in balance queries.",
          "params": {
            "owner": "Address of the current owner of a token."
          }
        }
      ],
      "ERC721InvalidReceiver(address)": [
        {
          "details": "Indicates a failure with the token `receiver`. Used in transfers.",
          "params": {
            "receiver": "Address to which tokens are being transferred."
          }
        }
      ],
      "ERC721InvalidSender(address)": [
        {
          "details": "Indicates a failure with the token `sender`. Used in transfers.",
          "params": {
            "sender": "Address whose tokens are being transferred."
          }
        }
      ],
      "ERC721NonexistentToken(uint256)": [
        {
          "details": "Indicates a `tokenId` whose `owner` is the zero address.",
          "params": {
            "tokenId": "Identifier number of a token."
          }
        }
      ]
    },
    "events": {
      "Approval(address,address,uint256)": {
        "details": "Emitted when `owner` enables `approved` to manage the `tokenId` token."
      },
      "ApprovalForAll(address,address,bool)": {
        "details": "Emitted when `owner` enables or disables (`approved`) `operator` to manage all of its assets."
      },
      "Transfer(address,address,uint256)": {
        "details": "Emitted when `tokenId` token is transferred from `from` to `to`."
      }
    },
    "kind": "dev",
    "methods": {
      "approve(address,uint256)": {
        "details": "See {IERC721-approve}."
      },
      "balanceOf(address)": {
        "details": "See {IERC721-balanceOf}."
      },
      "getApproved(uint256)": {
        "details": "See {IERC721-getApproved}."
      },
      "isApprovedForAll(address,address)": {
        "details": "See {IERC721-isApprovedForAll}."
      },
      "name()": {
        "details": "See {IERC721Metadata-name}."
      },
      "ownerOf(uint256)": {
        "details": "See {IERC721-ownerOf}."
      },
      "safeTransferFrom(address,address,uint256)": {
        "details": "See {IERC721-safeTransferFrom}."
      },
      "safeTransferFrom(address,address,uint256,bytes)": {
        "details": "See {IERC721-safeTransferFrom}."
      },
      "setApprovalForAll(address,bool)": {
        "details": "See {IERC721-setApprovalForAll}."
      },
      "supportsInterface(bytes4)": {
        "details": "See {IERC165-supportsInterface}."
      },
      "symbol()": {
        "details": "See {IERC721Metadata-symbol}."
      },
      "tokenURI(uint256)": {
        "details": "See {IERC721Metadata-tokenURI}."
      },
      "transferFrom(address,address,uint256)": {
        "details": "See {IERC721-transferFrom}."
      }
    },
    "version": 1
  },
  "userdoc": {
    "kind": "user",
    "methods": {},
    "version": 1
  }
}