{
  "contractName": "ContentRegistry",
  "abi": [
    {
      "inputs": [
        {
          "internalType": "address",
          "name": "_userRegistry",
          "type": "address"
        }
      ],
      "stateMutability": "nonpayable",
      "type": "constructor"
    },
    {
      "anonymous": false,
      "inputs": [
        {
          "indexed": true,
          "internalType": "uint256",
          "name": "id",
          "type": "uint256"
        },
        {
          "indexed": false,
          "internalType": "uint256",
          "name": "amount",
          "type": "uint256"
        }
      ],
      "name": "ContentRewarded",
      "type": "event"
    },
    {
      "anonymous": false,
      "inputs": [
        {
          "indexed": true,
          "internalType": "uint256",
          "name": "id",
          "type": "uint256"
        },
        {
          "indexed": false,
          "internalType": "uint256",
          "name": "authorTokenId",
          "type": "uint256"
        }
      ],
      "name": "ContentSubmitted",
      "type": "event"
    },
    {
      "anonymous": false,
      "inputs": [
        {
          "indexed": true,
          "internalType": "uint256",
          "name": "id",
          "type": "uint256"
        },
        {
          "indexed": false,
          "internalType": "uint256",
          "name": "voterTokenId",
          "type": "uint256"
        },
        {
          "indexed": false,
          "internalType": "bool",
          "name": "isUpvote",
          "type": "bool"
        }
      ],
      "name": "ContentVoted",
      "type": "event"
    },
    {
      "anonymous": false,
      "inputs": [
        {
          "indexed": true,
          "internalType": "uint256",
          "name": "contentId",
          "type": "uint256"
        },
        {
          "indexed": false,
          "internalType": "uint256",
          "name": "voterTokenId",
          "type": "uint256"
        },
        {
          "indexed": false,
          "internalType": "uint256",
          "name": "amount",
          "type": "uint256"
        }
      ],
      "name": "VoteRewarded",
      "type": "event"
    },
    {
      "inputs": [
        {
          "internalType": "uint256",
          "name": "",
          "type": "uint256"
        }
      ],
      "name": "contents",
      "outputs": [
        {
          "internalType": "uint256",
          "name": "id",
          "type": "uint256"
        },
        {
          "internalType": "uint256",
          "name": "authorTokenId",
          "type": "uint256"
        },
        {
          "internalType": "string",
          "name": "dataHash",
          "type": "string"
        },
        {
          "internalType": "int256",
          "name": "voteScore",
          "type": "int256"
        },
        {
          "internalType": "bool",
          "name": "flagged",
          "type": "bool"
        },
        {
          "internalType": "uint256",
          "name": "creationTime",
          "type": "uint256"
        }
      ],
      "stateMutability": "view",
      "type": "function",
      "constant": true
    },
    {
      "inputs": [
        {
          "internalType": "uint256",
          "name": "",
          "type": "uint256"
        },
        {
          "internalType": "uint256",
          "name": "",
          "type": "uint256"
        }
      ],
      "name": "downvoters",
      "outputs": [
        {
          "internalType": "uint256",
          "name": "",
          "type": "uint256"
        }
      ],
      "stateMutability": "view",
      "type": "function",
      "constant": true
    },
    {
      "inputs": [
        {
          "internalType": "uint256",
          "name": "",
          "type": "uint256"
        },
        {
          "internalType": "uint256",
          "name": "",
          "type": "uint256"
        }
      ],
      "name": "upvoters",
      "outputs": [
        {
          "internalType": "uint256",
          "name": "",
          "type": "uint256"
        }
      ],
      "stateMutability": "view",
      "type": "function",
      "constant": true
    },
    {
      "inputs": [],
      "name": "userRegistry",
      "outputs": [
        {
          "internalType": "contract IUserRegistry",
          "name": "",
          "type": "address"
        }
      ],
      "stateMutability": "view",
      "type": "function",
      "constant": true
    },
    {
      "inputs": [
        {
          "internalType": "uint256",
          "name": "",
          "type": "uint256"
        },
        {
          "internalType": "uint256",
          "name": "",
          "type": "uint256"
        }
      ],
      "name": "votes",
      "outputs": [
        {
          "internalType": "bool",
          "name": "",
          "type": "bool"
        }
      ],
      "stateMutability": "view",
      "type": "function",
      "constant": true
    },
    {
      "inputs": [
        {
          "internalType": "string",
          "name": "dataHash",
          "type": "string"
        }
      ],
      "name": "submitContent",
      "outputs": [],
      "stateMutability": "payable",
      "type": "function",
      "payable": true
    },
    {
      "inputs": [
        {
          "internalType": "uint256",
          "name": "contentId",
          "type": "uint256"
        },
        {
          "internalType": "bool",
          "name": "isUpvote",
          "type": "bool"
        }
      ],
      "name": "voteContent",
      "outputs": [],
      "stateMutability": "payable",
      "type": "function",
      "payable": true
    },
    {
      "inputs": [
        {
          "internalType": "uint256",
          "name": "contentId",
          "type": "uint256"
        }
      ],
      "name": "getUpvoters",
      "outputs": [
        {
          "internalType": "uint256[]",
          "name": "",
          "type": "uint256[]"
        }
      ],
      "stateMutability": "view",
      "type": "function",
      "constant": true
    },
    {
      "inputs": [
        {
          "internalType": "uint256",
          "name": "contentId",
          "type": "uint256"
        }
      ],
      "name": "getDownvoters",
      "outputs": [
        {
          "internalType": "uint256[]",
          "name": "",
          "type": "uint256[]"
        }
      ],
      "stateMutability": "view",
      "type": "function",
      "constant": true
    }
  ],
  "bytecode": "0x608060405234801562000010575f80fd5b5060405162001831380380620018318339818101604052810190620000369190620000e1565b805f806101000a81548173ffffffffffffffffffffffffffffffffffffffff021916908373ffffffffffffffffffffffffffffffffffffffff1602179055505062000111565b5f80fd5b5f73ffffffffffffffffffffffffffffffffffffffff82169050919050565b5f620000ab8262000080565b9050919050565b620000bd816200009f565b8114620000c8575f80fd5b50565b5f81519050620000db81620000b2565b92915050565b5f60208284031215620000f957620000f86200007c565b5b5f6200010884828501620000cb565b91505092915050565b611712806200011f5f395ff3fe608060405260043610610085575f3560e01c8063aa6ee29b11610058578063aa6ee29b14610127578063af6be96214610163578063b5ecf9121461019f578063c6e36a32146101e0578063c999945c1461021c57610085565b806329b5b1591461008957806330a1adeb146100c55780635c7460d6146100e1578063733387ec1461010b575b5f80fd5b348015610094575f80fd5b506100af60048036038101906100aa9190610b61565b610258565b6040516100bc9190610c43565b60405180910390f35b6100df60048036038101906100da9190610d9f565b6102bf565b005b3480156100ec575f80fd5b506100f561058c565b6040516101029190610e60565b60405180910390f35b61012560048036038101906101209190610eae565b6105af565b005b348015610132575f80fd5b5061014d60048036038101906101489190610b61565b61095d565b60405161015a9190610c43565b60405180910390f35b34801561016e575f80fd5b5061018960048036038101906101849190610eec565b6109c4565b6040516101969190610f39565b60405180910390f35b3480156101aa575f80fd5b506101c560048036038101906101c09190610b61565b6109ef565b6040516101d796959493929190610ff3565b60405180910390f35b3480156101eb575f80fd5b5061020660048036038101906102019190610eec565b610ac8565b6040516102139190611059565b60405180910390f35b348015610227575f80fd5b50610242600480360381019061023d9190610eec565b610af2565b60405161024f9190610f39565b60405180910390f35b606060045f8381526020019081526020015f208054806020026020016040519081016040528092919081815260200182805480156102b357602002820191905f5260205f20905b81548152602001906001019080831161029f575b50505050509050919050565b6611c37937e08000341015610309576040517f08c379a0000000000000000000000000000000000000000000000000000000008152600401610300906110e2565b60405180910390fd5b5f805f9054906101000a900473ffffffffffffffffffffffffffffffffffffffff1673ffffffffffffffffffffffffffffffffffffffff16636f77926b336040518263ffffffff1660e01b81526004016103639190611120565b606060405180830381865afa15801561037e573d5f803e3d5ffd5b505050506040513d601f19601f820116820180604052508101906103a291906111b2565b5f015190505f600180549050905060016040518060c001604052808381526020018481526020018581526020015f81526020015f1515815260200142815250908060018154018082558091505060019003905f5260205f2090600602015f909190919091505f820151815f015560208201518160010155604082015181600201908161042e91906113ce565b50606082015181600301556080820151816004015f6101000a81548160ff02191690831515021790555060a0820151816005015550505f8054906101000a900473ffffffffffffffffffffffffffffffffffffffff1673ffffffffffffffffffffffffffffffffffffffff1663cdc4e0138360016040518363ffffffff1660e01b81526004016104bf9291906114d6565b5f604051808303815f87803b1580156104d6575f80fd5b505af11580156104e8573d5f803e3d5ffd5b505050505f8054906101000a900473ffffffffffffffffffffffffffffffffffffffff1673ffffffffffffffffffffffffffffffffffffffff166108fc3490811502906040515f60405180830381858888f1935050505015801561054e573d5f803e3d5ffd5b50807f475ec08b654fce35d69a70cee481c770d52b267cfc9d994512fc456576b7c95f8360405161057f9190610f39565b60405180910390a2505050565b5f8054906101000a900473ffffffffffffffffffffffffffffffffffffffff1681565b66038d7ea4c680003410156105f9576040517f08c379a00000000000000000000000000000000000000000000000000000000081526004016105f09061156d565b60405180910390fd5b5f805f9054906101000a900473ffffffffffffffffffffffffffffffffffffffff1673ffffffffffffffffffffffffffffffffffffffff16636f77926b336040518263ffffffff1660e01b81526004016106539190611120565b606060405180830381865afa15801561066e573d5f803e3d5ffd5b505050506040513d601f19601f8201168201806040525081019061069291906111b2565b5f0151905060025f8281526020019081526020015f205f8481526020019081526020015f205f9054906101000a900460ff1615610704576040517f08c379a00000000000000000000000000000000000000000000000000000000081526004016106fb906115d5565b60405180910390fd5b5f60018481548110610719576107186115f3565b5b905f5260205f209060060201905082610752577fffffffffffffffffffffffffffffffffffffffffffffffffffffffffffffffff610755565b60015b816003015f828254610767919061164d565b92505081905550600160025f8481526020019081526020015f205f8681526020019081526020015f205f6101000a81548160ff02191690831515021790555082156107e65760035f8581526020019081526020015f2082908060018154018082558091505060019003905f5260205f20015f9091909190915055610880565b60045f8581526020019081526020015f2082908060018154018082558091505060019003905f5260205f20015f90919091909150557ffffffffffffffffffffffffffffffffffffffffffffffffffffffffffffffffb81600301541315801561085d5750806004015f9054906101000a900460ff16155b1561087f576001816004015f6101000a81548160ff0219169083151502179055505b5b5f8054906101000a900473ffffffffffffffffffffffffffffffffffffffff1673ffffffffffffffffffffffffffffffffffffffff166108fc3490811502906040515f60405180830381858888f193505050501580156108e2573d5f803e3d5ffd5b50837f325a30a9bd45b1f3693fd1e40772c908163d6c65f9fba8918d7f4221e6c89361833460405161091592919061168e565b60405180910390a2837f30c719d128d626d788f1614835c7b0273fd96085b49d646ddb446ccd780cea50838560405161094f9291906116b5565b60405180910390a250505050565b606060035f8381526020019081526020015f208054806020026020016040519081016040528092919081815260200182805480156109b857602002820191905f5260205f20905b8154815260200190600101908083116109a4575b50505050509050919050565b6004602052815f5260405f2081815481106109dd575f80fd5b905f5260205f20015f91509150505481565b600181815481106109fe575f80fd5b905f5260205f2090600602015f91509050805f015490806001015490806002018054610a299061120a565b80601f0160208091040260200160405190810160405280929190818152602001828054610a559061120a565b8015610aa05780601f10610a7757610100808354040283529160200191610aa0565b820191905f5260205f20905b815481529060010190602001808311610a8357829003601f168201915b505050505090806003015490806004015f9054906101000a900460ff16908060050154905086565b6002602052815f5260405f20602052805f5260405f205f915091509054906101000a900460ff1681565b6003602052815f5260405f208181548110610b0b575f80fd5b905f5260205f20015f91509150505481565b5f604051905090565b5f80fd5b5f80fd5b5f819050919050565b610b4081610b2e565b8114610b4a575f80fd5b50565b5f81359050610b5b81610b37565b92915050565b5f60208284031215610b7657610b75610b26565b5b5f610b8384828501610b4d565b91505092915050565b5f81519050919050565b5f82825260208201905092915050565b5f819050602082019050919050565b610bbe81610b2e565b82525050565b5f610bcf8383610bb5565b60208301905092915050565b5f602082019050919050565b5f610bf182610b8c565b610bfb8185610b96565b9350610c0683610ba6565b805f5b83811015610c36578151610c1d8882610bc4565b9750610c2883610bdb565b925050600181019050610c09565b5085935050505092915050565b5f6020820190508181035f830152610c5b8184610be7565b905092915050565b5f80fd5b5f80fd5b5f601f19601f8301169050919050565b7f4e487b71000000000000000000000000000000000000000000000000000000005f52604160045260245ffd5b610cb182610c6b565b810181811067ffffffffffffffff82111715610cd057610ccf610c7b565b5b80604052505050565b5f610ce2610b1d565b9050610cee8282610ca8565b919050565b5f67ffffffffffffffff821115610d0d57610d0c610c7b565b5b610d1682610c6b565b9050602081019050919050565b828183375f83830152505050565b5f610d43610d3e84610cf3565b610cd9565b905082815260208101848484011115610d5f57610d5e610c67565b5b610d6a848285610d23565b509392505050565b5f82601f830112610d8657610d85610c63565b5b8135610d96848260208601610d31565b91505092915050565b5f60208284031215610db457610db3610b26565b5b5f82013567ffffffffffffffff811115610dd157610dd0610b2a565b5b610ddd84828501610d72565b91505092915050565b5f73ffffffffffffffffffffffffffffffffffffffff82169050919050565b5f819050919050565b5f610e28610e23610e1e84610de6565b610e05565b610de6565b9050919050565b5f610e3982610e0e565b9050919050565b5f610e4a82610e2f565b9050919050565b610e5a81610e40565b82525050565b5f602082019050610e735f830184610e51565b92915050565b5f8115159050919050565b610e8d81610e79565b8114610e97575f80fd5b50565b5f81359050610ea881610e84565b92915050565b5f8060408385031215610ec457610ec3610b26565b5b5f610ed185828601610b4d565b9250506020610ee285828601610e9a565b9150509250929050565b5f8060408385031215610f0257610f01610b26565b5b5f610f0f85828601610b4d565b9250506020610f2085828601610b4d565b9150509250929050565b610f3381610b2e565b82525050565b5f602082019050610f4c5f830184610f2a565b92915050565b5f81519050919050565b5f82825260208201905092915050565b5f5b83811015610f89578082015181840152602081019050610f6e565b5f8484015250505050565b5f610f9e82610f52565b610fa88185610f5c565b9350610fb8818560208601610f6c565b610fc181610c6b565b840191505092915050565b5f819050919050565b610fde81610fcc565b82525050565b610fed81610e79565b82525050565b5f60c0820190506110065f830189610f2a565b6110136020830188610f2a565b81810360408301526110258187610f94565b90506110346060830186610fd5565b6110416080830185610fe4565b61104e60a0830184610f2a565b979650505050505050565b5f60208201905061106c5f830184610fe4565b92915050565b7f5375626d697373696f6e20726571756972657320302e303035204554482064655f8201527f706f736974000000000000000000000000000000000000000000000000000000602082015250565b5f6110cc602583610f5c565b91506110d782611072565b604082019050919050565b5f6020820190508181035f8301526110f9816110c0565b9050919050565b5f61110a82610de6565b9050919050565b61111a81611100565b82525050565b5f6020820190506111335f830184611111565b92915050565b5f80fd5b5f8151905061114b81610b37565b92915050565b5f6060828403121561116657611165611139565b5b6111706060610cd9565b90505f61117f8482850161113d565b5f8301525060206111928482850161113d565b60208301525060406111a68482850161113d565b60408301525092915050565b5f606082840312156111c7576111c6610b26565b5b5f6111d484828501611151565b91505092915050565b7f4e487b71000000000000000000000000000000000000000000000000000000005f52602260045260245ffd5b5f600282049050600182168061122157607f821691505b602082108103611234576112336111dd565b5b50919050565b5f819050815f5260205f209050919050565b5f6020601f8301049050919050565b5f82821b905092915050565b5f600883026112967fffffffffffffffffffffffffffffffffffffffffffffffffffffffffffffffff8261125b565b6112a0868361125b565b95508019841693508086168417925050509392505050565b5f6112d26112cd6112c884610b2e565b610e05565b610b2e565b9050919050565b5f819050919050565b6112eb836112b8565b6112ff6112f7826112d9565b848454611267565b825550505050565b5f90565b611313611307565b61131e8184846112e2565b505050565b5b81811015611341576113365f8261130b565b600181019050611324565b5050565b601f821115611386576113578161123a565b6113608461124c565b8101602085101561136f578190505b61138361137b8561124c565b830182611323565b50505b505050565b5f82821c905092915050565b5f6113a65f198460080261138b565b1980831691505092915050565b5f6113be8383611397565b9150826002028217905092915050565b6113d782610f52565b67ffffffffffffffff8111156113f0576113ef610c7b565b5b6113fa825461120a565b611405828285611345565b5f60209050601f831160018114611436575f8415611424578287015190505b61142e85826113b3565b865550611495565b601f1984166114448661123a565b5f5b8281101561146b57848901518255600182019150602085019450602081019050611446565b868310156114885784890151611484601f891682611397565b8355505b6001600288020188555050505b505050505050565b5f819050919050565b5f6114c06114bb6114b68461149d565b610e05565b610fcc565b9050919050565b6114d0816114a6565b82525050565b5f6040820190506114e95f830185610f2a565b6114f660208301846114c7565b9392505050565b7f566f74696e6720726571756972657320302e30303120455448206465706f73695f8201527f7400000000000000000000000000000000000000000000000000000000000000602082015250565b5f611557602183610f5c565b9150611562826114fd565b604082019050919050565b5f6020820190508181035f8301526115848161154b565b9050919050565b7f416c726561647920766f746564000000000000000000000000000000000000005f82015250565b5f6115bf600d83610f5c565b91506115ca8261158b565b602082019050919050565b5f6020820190508181035f8301526115ec816115b3565b9050919050565b7f4e487b71000000000000000000000000000000000000000000000000000000005f52603260045260245ffd5b7f4e487b71000000000000000000000000000000000000000000000000000000005f52601160045260245ffd5b5f61165782610fcc565b915061166283610fcc565b92508282019050828112155f8312168382125f84121516171561168857611687611620565b5b92915050565b5f6040820190506116a15f830185610f2a565b6116ae6020830184610f2a565b9392505050565b5f6040820190506116c85f830185610f2a565b6116d56020830184610fe4565b939250505056fea2646970667358221220f689a1f766d65d0cb43d8d667496b96c1e91c86c298c73921af90ecdd9c2c8df64736f6c63430008150033",
  "immutableReferences": {},
  "source": "// SPDX-License-Identifier: GPL-3.0\r\npragma solidity ^0.8.0;\r\n\r\nimport \"./IUserRegistry.sol\";\r\n\r\ncontract ContentRegistry {\r\n    IUserRegistry public userRegistry;\r\n\r\n    struct Content {\r\n        uint256 id;\r\n        uint256 authorTokenId;\r\n        string dataHash;\r\n        int256 voteScore;\r\n        bool flagged;\r\n        uint256 creationTime;\r\n    }\r\n\r\n    Content[] public contents;\r\n    mapping(uint256 => mapping(uint256 => bool)) public votes;\r\n    mapping(uint256 => uint256[]) public upvoters;\r\n    mapping(uint256 => uint256[]) public downvoters;\r\n    \r\n    event ContentRewarded(uint256 indexed id, uint256 amount);\r\n    event VoteRewarded(uint256 indexed contentId, uint256 voterTokenId, uint256 amount);\r\n    event ContentSubmitted(uint256 indexed id, uint256 authorTokenId);\r\n    event ContentVoted(uint256 indexed id, uint256 voterTokenId, bool isUpvote);\r\n\r\n    constructor(address _userRegistry) {\r\n        userRegistry = IUserRegistry(_userRegistry); \r\n    }\r\n\r\n    function submitContent(string memory dataHash) external payable {\r\n        require(msg.value >= 0.005 ether, \"Submission requires 0.005 ETH deposit\");\r\n        \r\n        uint256 tokenId = userRegistry.getUser(msg.sender).tokenId;\r\n        uint256 id = contents.length;\r\n        contents.push(Content(id, tokenId, dataHash, 0, false, block.timestamp));\r\n        userRegistry.adjustReputation(tokenId, 1);\r\n        \r\n        // Lock ETH deposit with content\r\n        payable(address(userRegistry)).transfer(msg.value);\r\n        emit ContentSubmitted(id, tokenId);\r\n    }\r\n\r\n    function voteContent(uint256 contentId, bool isUpvote) external payable {\r\n        require(msg.value >= 0.001 ether, \"Voting requires 0.001 ETH deposit\");\r\n        \r\n        uint256 tokenId = userRegistry.getUser(msg.sender).tokenId;\r\n        require(!votes[tokenId][contentId], \"Already voted\");\r\n\r\n        Content storage content = contents[contentId];\r\n        content.voteScore += isUpvote ? int256(1) : int256(-1);\r\n        votes[tokenId][contentId] = true;\r\n\r\n        if (isUpvote) {\r\n            upvoters[contentId].push(tokenId);\r\n        } else {\r\n            downvoters[contentId].push(tokenId);\r\n            if (content.voteScore <= -5 && !content.flagged) {\r\n                content.flagged = true;\r\n            }\r\n        }\r\n\r\n        // Lock voting deposit\r\n        payable(address(userRegistry)).transfer(msg.value);\r\n        emit VoteRewarded(contentId, tokenId, msg.value);\r\n        emit ContentVoted(contentId, tokenId, isUpvote);\r\n    }\r\n\r\n    function getUpvoters(uint256 contentId) external view returns (uint256[] memory) {\r\n        return upvoters[contentId];\r\n    }\r\n\r\n    function getDownvoters(uint256 contentId) external view returns (uint256[] memory) {\r\n        return downvoters[contentId];\r\n    }\r\n}",
  "sourcePath": "E:\\Blockchain\\mis\\contracts\\ContentRegistry.sol",
  "compiler": {
    "name": "solc",
    "version": "0.8.21+commit.d9974bed.Emscripten.clang"
  },
  "schemaVersion": "3.4.16",
  "updatedAt": "2025-04-12T14:00:03.934Z",
  "networkType": "ethereum",
  "devdoc": {
    "kind": "dev",
    "methods": {},
    "version": 1
  },
  "userdoc": {
    "kind": "user",
    "methods": {},
    "version": 1
  }
}