{
  "contractName": "MisinformationCombat",
  "abi": [
    {
      "inputs": [],
      "stateMutability": "nonpayable",
      "type": "constructor"
    },
    {
      "anonymous": false,
      "inputs": [
        {
          "indexed": true,
          "internalType": "string",
          "name": "contentID",
          "type": "string"
        }
      ],
      "name": "ContentFlagged",
      "type": "event"
    },
    {
      "anonymous": false,
      "inputs": [
        {
          "indexed": true,
          "internalType": "string",
          "name": "contentID",
          "type": "string"
        },
        {
          "indexed": true,
          "internalType": "address",
          "name": "publisher",
          "type": "address"
        }
      ],
      "name": "ContentSubmitted",
      "type": "event"
    },
    {
      "anonymous": false,
      "inputs": [
        {
          "indexed": true,
          "internalType": "string",
          "name": "contentID",
          "type": "string"
        },
        {
          "indexed": true,
          "internalType": "address",
          "name": "voter",
          "type": "address"
        }
      ],
      "name": "Downvoted",
      "type": "event"
    },
    {
      "anonymous": false,
      "inputs": [
        {
          "indexed": true,
          "internalType": "string",
          "name": "contentID",
          "type": "string"
        },
        {
          "indexed": true,
          "internalType": "address",
          "name": "voter",
          "type": "address"
        }
      ],
      "name": "Upvoted",
      "type": "event"
    },
    {
      "anonymous": false,
      "inputs": [
        {
          "indexed": true,
          "internalType": "address",
          "name": "user",
          "type": "address"
        }
      ],
      "name": "UserRegistered",
      "type": "event"
    },
    {
      "inputs": [],
      "name": "FLAG_THRESHOLD",
      "outputs": [
        {
          "internalType": "uint256",
          "name": "",
          "type": "uint256"
        }
      ],
      "stateMutability": "view",
      "type": "function",
      "constant": true
    },
    {
      "inputs": [],
      "name": "VOTE_FEE",
      "outputs": [
        {
          "internalType": "uint256",
          "name": "",
          "type": "uint256"
        }
      ],
      "stateMutability": "view",
      "type": "function",
      "constant": true
    },
    {
      "inputs": [
        {
          "internalType": "uint256",
          "name": "",
          "type": "uint256"
        }
      ],
      "name": "contentIDs",
      "outputs": [
        {
          "internalType": "string",
          "name": "",
          "type": "string"
        }
      ],
      "stateMutability": "view",
      "type": "function",
      "constant": true
    },
    {
      "inputs": [
        {
          "internalType": "string",
          "name": "",
          "type": "string"
        }
      ],
      "name": "contents",
      "outputs": [
        {
          "internalType": "string",
          "name": "contentID",
          "type": "string"
        },
        {
          "internalType": "address",
          "name": "publisher",
          "type": "address"
        },
        {
          "internalType": "uint256",
          "name": "upvotes",
          "type": "uint256"
        },
        {
          "internalType": "uint256",
          "name": "downvotes",
          "type": "uint256"
        },
        {
          "internalType": "bool",
          "name": "flagged",
          "type": "bool"
        }
      ],
      "stateMutability": "view",
      "type": "function",
      "constant": true
    },
    {
      "inputs": [],
      "name": "owner",
      "outputs": [
        {
          "internalType": "address",
          "name": "",
          "type": "address"
        }
      ],
      "stateMutability": "view",
      "type": "function",
      "constant": true
    },
    {
      "inputs": [
        {
          "internalType": "address",
          "name": "",
          "type": "address"
        }
      ],
      "name": "registeredUsers",
      "outputs": [
        {
          "internalType": "bool",
          "name": "",
          "type": "bool"
        }
      ],
      "stateMutability": "view",
      "type": "function",
      "constant": true
    },
    {
      "inputs": [],
      "name": "registerUser",
      "outputs": [],
      "stateMutability": "nonpayable",
      "type": "function"
    },
    {
      "inputs": [
        {
          "internalType": "string",
          "name": "_contentID",
          "type": "string"
        }
      ],
      "name": "submitContent",
      "outputs": [],
      "stateMutability": "nonpayable",
      "type": "function"
    },
    {
      "inputs": [
        {
          "internalType": "string",
          "name": "_contentID",
          "type": "string"
        }
      ],
      "name": "upvote",
      "outputs": [],
      "stateMutability": "payable",
      "type": "function",
      "payable": true
    },
    {
      "inputs": [
        {
          "internalType": "string",
          "name": "_contentID",
          "type": "string"
        }
      ],
      "name": "downvote",
      "outputs": [],
      "stateMutability": "payable",
      "type": "function",
      "payable": true
    },
    {
      "inputs": [
        {
          "internalType": "string",
          "name": "_contentID",
          "type": "string"
        }
      ],
      "name": "getContent",
      "outputs": [
        {
          "internalType": "string",
          "name": "contentID",
          "type": "string"
        },
        {
          "internalType": "address",
          "name": "publisher",
          "type": "address"
        },
        {
          "internalType": "uint256",
          "name": "upvotes",
          "type": "uint256"
        },
        {
          "internalType": "uint256",
          "name": "downvotes",
          "type": "uint256"
        },
        {
          "internalType": "bool",
          "name": "flagged",
          "type": "bool"
        }
      ],
      "stateMutability": "view",
      "type": "function",
      "constant": true
    },
    {
      "inputs": [],
      "name": "getAllContentIDs",
      "outputs": [
        {
          "internalType": "string[]",
          "name": "",
          "type": "string[]"
        }
      ],
      "stateMutability": "view",
      "type": "function",
      "constant": true
    },
    {
      "inputs": [
        {
          "internalType": "string",
          "name": "_contentID",
          "type": "string"
        },
        {
          "internalType": "address",
          "name": "_user",
          "type": "address"
        }
      ],
      "name": "hasUserVoted",
      "outputs": [
        {
          "internalType": "bool",
          "name": "",
          "type": "bool"
        }
      ],
      "stateMutability": "view",
      "type": "function",
      "constant": true
    },
    {
      "inputs": [],
      "name": "withdraw",
      "outputs": [],
      "stateMutability": "nonpayable",
      "type": "function"
    }
  ],
  "bytecode": "0x608060405234801561001057600080fd5b5033600360006101000a81548173ffffffffffffffffffffffffffffffffffffffff021916908373ffffffffffffffffffffffffffffffffffffffff160217905550611e9d806100616000396000f3fe6080604052600436106100dd5760003560e01c80637ef4aa7b1161007f5780638da5cb5b116100595780638da5cb5b14610282578063a56a9ea8146102ad578063a6acce35146102d8578063d49a277114610319576100dd565b80637ef4aa7b146101fa5780638374d7d5146102255780638c9e1f3c14610241576100dd565b80633ccfd60b116100bb5780633ccfd60b14610173578063414973851461018a5780634d3820eb146101c757806360bde833146101de576100dd565b80630e50cee5146100e257806330a1adeb1461011f578063396e354214610148575b600080fd5b3480156100ee57600080fd5b5061010960048036038101906101049190611511565b610356565b60405161011691906119e5565b60405180910390f35b34801561012b57600080fd5b506101466004803603810190610141919061153a565b610376565b005b34801561015457600080fd5b5061015d6105fd565b60405161016a91906119c3565b60405180910390f35b34801561017f57600080fd5b506101886106d6565b005b34801561019657600080fd5b506101b160048036038101906101ac919061157b565b61081a565b6040516101be91906119e5565b60405180910390f35b3480156101d357600080fd5b506101dc6108ff565b005b6101f860048036038101906101f3919061153a565b610a27565b005b34801561020657600080fd5b5061020f610d0c565b60405161021c9190611b9c565b60405180910390f35b61023f600480360381019061023a919061153a565b610d17565b005b34801561024d57600080fd5b506102686004803603810190610263919061153a565b611085565b604051610279959493929190611a22565b60405180910390f35b34801561028e57600080fd5b50610297611204565b6040516102a491906119a8565b60405180910390f35b3480156102b957600080fd5b506102c261122a565b6040516102cf9190611b9c565b60405180910390f35b3480156102e457600080fd5b506102ff60048036038101906102fa919061153a565b61122f565b604051610310959493929190611a22565b60405180910390f35b34801561032557600080fd5b50610340600480360381019061033b91906115cf565b611330565b60405161034d9190611a00565b60405180910390f35b60006020528060005260406000206000915054906101000a900460ff1681565b6000803373ffffffffffffffffffffffffffffffffffffffff1673ffffffffffffffffffffffffffffffffffffffff16815260200190815260200160002060009054906101000a900460ff16610401576040517f08c379a00000000000000000000000000000000000000000000000000000000081526004016103f890611abc565b60405180910390fd5b6000815111610445576040517f08c379a000000000000000000000000000000000000000000000000000000000815260040161043c90611b3c565b60405180910390fd5b60006001826040516104579190611991565b9081526020016040518091039020600001805461047390611d69565b9050146104b5576040517f08c379a00000000000000000000000000000000000000000000000000000000081526004016104ac90611a7c565b60405180910390fd5b60006001826040516104c79190611991565b90815260200160405180910390209050818160000190805190602001906104ef9291906113dc565b50338160010160006101000a81548173ffffffffffffffffffffffffffffffffffffffff021916908373ffffffffffffffffffffffffffffffffffffffff160217905550600081600201819055506000816003018190555060008160040160006101000a81548160ff02191690831515021790555060028290806001815401808255809150506001900390600052602060002001600090919091909150908051906020019061059f9291906113dc565b503373ffffffffffffffffffffffffffffffffffffffff16826040516105c59190611991565b60405180910390207ff83d409df9c5d0b87d0e9f5aa210c8a4c51449046a337e0d788f7c9657e0f8e760405160405180910390a35050565b60606002805480602002602001604051908101604052809291908181526020016000905b828210156106cd57838290600052602060002001805461064090611d69565b80601f016020809104026020016040519081016040528092919081815260200182805461066c90611d69565b80156106b95780601f1061068e576101008083540402835291602001916106b9565b820191906000526020600020905b81548152906001019060200180831161069c57829003601f168201915b505050505081526020019060010190610621565b50505050905090565b600360009054906101000a900473ffffffffffffffffffffffffffffffffffffffff1673ffffffffffffffffffffffffffffffffffffffff163373ffffffffffffffffffffffffffffffffffffffff1614610766576040517f08c379a000000000000000000000000000000000000000000000000000000000815260040161075d90611b7c565b60405180910390fd5b6000479050600081116107ae576040517f08c379a00000000000000000000000000000000000000000000000000000000081526004016107a590611afc565b60405180910390fd5b600360009054906101000a900473ffffffffffffffffffffffffffffffffffffffff1673ffffffffffffffffffffffffffffffffffffffff166108fc829081150290604051600060405180830381858888f19350505050158015610816573d6000803e3d6000fd5b5050565b60008060018460405161082d9190611991565b9081526020016040518091039020600001805461084990611d69565b90501161088b576040517f08c379a000000000000000000000000000000000000000000000000000000000815260040161088290611b1c565b60405180910390fd5b60018360405161089b9190611991565b908152602001604051809103902060050160008373ffffffffffffffffffffffffffffffffffffffff1673ffffffffffffffffffffffffffffffffffffffff16815260200190815260200160002060009054906101000a900460ff16905092915050565b6000803373ffffffffffffffffffffffffffffffffffffffff1673ffffffffffffffffffffffffffffffffffffffff16815260200190815260200160002060009054906101000a900460ff161561098b576040517f08c379a000000000000000000000000000000000000000000000000000000000815260040161098290611b5c565b60405180910390fd5b60016000803373ffffffffffffffffffffffffffffffffffffffff1673ffffffffffffffffffffffffffffffffffffffff16815260200190815260200160002060006101000a81548160ff0219169083151502179055503373ffffffffffffffffffffffffffffffffffffffff167f54db7a5cb4735e1aac1f53db512d3390390bb6637bd30ad4bf9fc98667d9b9b960405160405180910390a2565b6000803373ffffffffffffffffffffffffffffffffffffffff1673ffffffffffffffffffffffffffffffffffffffff16815260200190815260200160002060009054906101000a900460ff16610ab2576040517f08c379a0000000000000000000000000000000000000000000000000000000008152600401610aa990611abc565b60405180910390fd5b6000600182604051610ac49190611991565b90815260200160405180910390206000018054610ae090611d69565b905011610b22576040517f08c379a0000000000000000000000000000000000000000000000000000000008152600401610b1990611b1c565b60405180910390fd5b600181604051610b329190611991565b908152602001604051809103902060050160003373ffffffffffffffffffffffffffffffffffffffff1673ffffffffffffffffffffffffffffffffffffffff16815260200190815260200160002060009054906101000a900460ff1615610bce576040517f08c379a0000000000000000000000000000000000000000000000000000000008152600401610bc590611a9c565b60405180910390fd5b66038d7ea4c680003414610c17576040517f08c379a0000000000000000000000000000000000000000000000000000000008152600401610c0e90611adc565b60405180910390fd5b6000600182604051610c299190611991565b908152602001604051809103902090506001816002016000828254610c4e9190611c89565b9250508190555060018160050160003373ffffffffffffffffffffffffffffffffffffffff1673ffffffffffffffffffffffffffffffffffffffff16815260200190815260200160002060006101000a81548160ff0219169083151502179055503373ffffffffffffffffffffffffffffffffffffffff1682604051610cd49190611991565b60405180910390207f9b015edc307f9159a63b4f17c0b6760f9885d7ce29dc1a61ac7348787de8e9c660405160405180910390a35050565b66038d7ea4c6800081565b6000803373ffffffffffffffffffffffffffffffffffffffff1673ffffffffffffffffffffffffffffffffffffffff16815260200190815260200160002060009054906101000a900460ff16610da2576040517f08c379a0000000000000000000000000000000000000000000000000000000008152600401610d9990611abc565b60405180910390fd5b6000600182604051610db49190611991565b90815260200160405180910390206000018054610dd090611d69565b905011610e12576040517f08c379a0000000000000000000000000000000000000000000000000000000008152600401610e0990611b1c565b60405180910390fd5b600181604051610e229190611991565b908152602001604051809103902060050160003373ffffffffffffffffffffffffffffffffffffffff1673ffffffffffffffffffffffffffffffffffffffff16815260200190815260200160002060009054906101000a900460ff1615610ebe576040517f08c379a0000000000000000000000000000000000000000000000000000000008152600401610eb590611a9c565b60405180910390fd5b66038d7ea4c680003414610f07576040517f08c379a0000000000000000000000000000000000000000000000000000000008152600401610efe90611adc565b60405180910390fd5b6000600182604051610f199190611991565b908152602001604051809103902090506001816003016000828254610f3e9190611c89565b9250508190555060018160050160003373ffffffffffffffffffffffffffffffffffffffff1673ffffffffffffffffffffffffffffffffffffffff16815260200190815260200160002060006101000a81548160ff021916908315150217905550600a816003015410158015610fc357508060040160009054906101000a900460ff16155b156110285760018160040160006101000a81548160ff02191690831515021790555081604051610ff39190611991565b60405180910390207f8264255d6e4050bbddbea4af002b2035bd75e5c4036feaedae04fedc2477e72360405160405180910390a25b3373ffffffffffffffffffffffffffffffffffffffff168260405161104d9190611991565b60405180910390207f1e76fdd1b87634bbd8433d5811fd52ee597e77f7435ccb7a29e12a12d640b64560405160405180910390a35050565b6060600080600080600060018760405161109f9190611991565b908152602001604051809103902060000180546110bb90611d69565b9050116110fd576040517f08c379a00000000000000000000000000000000000000000000000000000000081526004016110f490611b1c565b60405180910390fd5b600060018760405161110f9190611991565b90815260200160405180910390209050806000018160010160009054906101000a900473ffffffffffffffffffffffffffffffffffffffff16826002015483600301548460040160009054906101000a900460ff1684805461117090611d69565b80601f016020809104026020016040519081016040528092919081815260200182805461119c90611d69565b80156111e95780601f106111be576101008083540402835291602001916111e9565b820191906000526020600020905b8154815290600101906020018083116111cc57829003601f168201915b50505050509450955095509550955095505091939590929450565b600360009054906101000a900473ffffffffffffffffffffffffffffffffffffffff1681565b600a81565b60018180516020810182018051848252602083016020850120818352809550505050505060009150905080600001805461126890611d69565b80601f016020809104026020016040519081016040528092919081815260200182805461129490611d69565b80156112e15780601f106112b6576101008083540402835291602001916112e1565b820191906000526020600020905b8154815290600101906020018083116112c457829003601f168201915b5050505050908060010160009054906101000a900473ffffffffffffffffffffffffffffffffffffffff16908060020154908060030154908060040160009054906101000a900460ff16905085565b6002818154811061134057600080fd5b90600052602060002001600091509050805461135b90611d69565b80601f016020809104026020016040519081016040528092919081815260200182805461138790611d69565b80156113d45780601f106113a9576101008083540402835291602001916113d4565b820191906000526020600020905b8154815290600101906020018083116113b757829003601f168201915b505050505081565b8280546113e890611d69565b90600052602060002090601f01602090048101928261140a5760008555611451565b82601f1061142357805160ff1916838001178555611451565b82800160010185558215611451579182015b82811115611450578251825591602001919060010190611435565b5b50905061145e9190611462565b5090565b5b8082111561147b576000816000905550600101611463565b5090565b600061149261148d84611be8565b611bb7565b9050828152602081018484840111156114aa57600080fd5b6114b5848285611d27565b509392505050565b6000813590506114cc81611e39565b92915050565b600082601f8301126114e357600080fd5b81356114f384826020860161147f565b91505092915050565b60008135905061150b81611e50565b92915050565b60006020828403121561152357600080fd5b6000611531848285016114bd565b91505092915050565b60006020828403121561154c57600080fd5b600082013567ffffffffffffffff81111561156657600080fd5b611572848285016114d2565b91505092915050565b6000806040838503121561158e57600080fd5b600083013567ffffffffffffffff8111156115a857600080fd5b6115b4858286016114d2565b92505060206115c5858286016114bd565b9150509250929050565b6000602082840312156115e157600080fd5b60006115ef848285016114fc565b91505092915050565b6000611604838361169f565b905092915050565b61161581611cdf565b82525050565b600061162682611c28565b6116308185611c4b565b93508360208202850161164285611c18565b8060005b8581101561167e578484038952815161165f85826115f8565b945061166a83611c3e565b925060208a01995050600181019050611646565b50829750879550505050505092915050565b61169981611cf1565b82525050565b60006116aa82611c33565b6116b48185611c5c565b93506116c4818560208601611d36565b6116cd81611e28565b840191505092915050565b60006116e382611c33565b6116ed8185611c6d565b93506116fd818560208601611d36565b61170681611e28565b840191505092915050565b600061171c82611c33565b6117268185611c7e565b9350611736818560208601611d36565b80840191505092915050565b600061174f601683611c6d565b91507f436f6e74656e7420616c726561647920657869737473000000000000000000006000830152602082019050919050565b600061178f601283611c6d565b91507f5573657220616c726561647920766f74656400000000000000000000000000006000830152602082019050919050565b60006117cf601383611c6d565b91507f55736572206e6f742072656769737465726564000000000000000000000000006000830152602082019050919050565b600061180f601483611c6d565b91507f496e636f72726563742066656520616d6f756e740000000000000000000000006000830152602082019050919050565b600061184f601483611c6d565b91507f4e6f2066756e647320746f2077697468647261770000000000000000000000006000830152602082019050919050565b600061188f601683611c6d565b91507f436f6e74656e7420646f6573206e6f74206578697374000000000000000000006000830152602082019050919050565b60006118cf601283611c6d565b91507f496e76616c696420636f6e74656e7420494400000000000000000000000000006000830152602082019050919050565b600061190f601783611c6d565b91507f5573657220616c726561647920726567697374657265640000000000000000006000830152602082019050919050565b600061194f600983611c6d565b91507f4e6f74206f776e657200000000000000000000000000000000000000000000006000830152602082019050919050565b61198b81611d1d565b82525050565b600061199d8284611711565b915081905092915050565b60006020820190506119bd600083018461160c565b92915050565b600060208201905081810360008301526119dd818461161b565b905092915050565b60006020820190506119fa6000830184611690565b92915050565b60006020820190508181036000830152611a1a81846116d8565b905092915050565b600060a0820190508181036000830152611a3c81886116d8565b9050611a4b602083018761160c565b611a586040830186611982565b611a656060830185611982565b611a726080830184611690565b9695505050505050565b60006020820190508181036000830152611a9581611742565b9050919050565b60006020820190508181036000830152611ab581611782565b9050919050565b60006020820190508181036000830152611ad5816117c2565b9050919050565b60006020820190508181036000830152611af581611802565b9050919050565b60006020820190508181036000830152611b1581611842565b9050919050565b60006020820190508181036000830152611b3581611882565b9050919050565b60006020820190508181036000830152611b55816118c2565b9050919050565b60006020820190508181036000830152611b7581611902565b9050919050565b60006020820190508181036000830152611b9581611942565b9050919050565b6000602082019050611bb16000830184611982565b92915050565b6000604051905081810181811067ffffffffffffffff82111715611bde57611bdd611df9565b5b8060405250919050565b600067ffffffffffffffff821115611c0357611c02611df9565b5b601f19601f8301169050602081019050919050565b6000819050602082019050919050565b600081519050919050565b600081519050919050565b6000602082019050919050565b600082825260208201905092915050565b600082825260208201905092915050565b600082825260208201905092915050565b600081905092915050565b6000611c9482611d1d565b9150611c9f83611d1d565b9250827fffffffffffffffffffffffffffffffffffffffffffffffffffffffffffffffff03821115611cd457611cd3611d9b565b5b828201905092915050565b6000611cea82611cfd565b9050919050565b60008115159050919050565b600073ffffffffffffffffffffffffffffffffffffffff82169050919050565b6000819050919050565b82818337600083830152505050565b60005b83811015611d54578082015181840152602081019050611d39565b83811115611d63576000848401525b50505050565b60006002820490506001821680611d8157607f821691505b60208210811415611d9557611d94611dca565b5b50919050565b7f4e487b7100000000000000000000000000000000000000000000000000000000600052601160045260246000fd5b7f4e487b7100000000000000000000000000000000000000000000000000000000600052602260045260246000fd5b7f4e487b7100000000000000000000000000000000000000000000000000000000600052604160045260246000fd5b6000601f19601f8301169050919050565b611e4281611cdf565b8114611e4d57600080fd5b50565b611e5981611d1d565b8114611e6457600080fd5b5056fea264697066735822122013e5f8320a6b5e32c1ca1c3106bb0b43acf8a98f664677848b01248e343e3b9864736f6c63430008000033",
  "immutableReferences": {},
  "source": "pragma solidity ^0.8.0;\r\n\r\ncontract MisinformationCombat {\r\n    // Structure to store content details\r\n    struct Content {\r\n        string contentID; // IPFS hash\r\n        address publisher;\r\n        uint256 upvotes;\r\n        uint256 downvotes;\r\n        bool flagged;\r\n        mapping(address => bool) hasVoted; // Tracks if user has voted\r\n    }\r\n\r\n    // Mapping to store registered users\r\n    mapping(address => bool) public registeredUsers;\r\n\r\n    // Mapping to store content by contentID\r\n    mapping(string => Content) public contents;\r\n\r\n    // Store list of content IDs for iteration\r\n    string[] public contentIDs;\r\n\r\n    // Threshold for flagging content\r\n    uint256 public constant FLAG_THRESHOLD = 10; // Adjustable\r\n\r\n    // Voting fee (in wei)\r\n    uint256 public constant VOTE_FEE = 0.001 ether;\r\n\r\n    // Events\r\n    event UserRegistered(address indexed user);\r\n    event ContentSubmitted(string indexed contentID, address indexed publisher);\r\n    event Upvoted(string indexed contentID, address indexed voter);\r\n    event Downvoted(string indexed contentID, address indexed voter);\r\n    event ContentFlagged(string indexed contentID);\r\n\r\n    // Modifier to check if user is registered\r\n    modifier onlyRegistered() {\r\n        require(registeredUsers[msg.sender], \"User not registered\");\r\n        _;\r\n    }\r\n\r\n    // Register a user\r\n    function registerUser() external {\r\n        require(!registeredUsers[msg.sender], \"User already registered\");\r\n        registeredUsers[msg.sender] = true;\r\n        emit UserRegistered(msg.sender);\r\n    }\r\n\r\n    // Submit content\r\n    function submitContent(string memory _contentID) external onlyRegistered {\r\n        require(bytes(_contentID).length > 0, \"Invalid content ID\");\r\n        require(bytes(contents[_contentID].contentID).length == 0, \"Content already exists\");\r\n\r\n        Content storage newContent = contents[_contentID];\r\n        newContent.contentID = _contentID;\r\n        newContent.publisher = msg.sender;\r\n        newContent.upvotes = 0;\r\n        newContent.downvotes = 0;\r\n        newContent.flagged = false;\r\n\r\n        contentIDs.push(_contentID);\r\n        emit ContentSubmitted(_contentID, msg.sender);\r\n    }\r\n\r\n    // Upvote content\r\n    function upvote(string memory _contentID) external payable onlyRegistered {\r\n        require(bytes(contents[_contentID].contentID).length > 0, \"Content does not exist\");\r\n        require(!contents[_contentID].hasVoted[msg.sender], \"User already voted\");\r\n        require(msg.value == VOTE_FEE, \"Incorrect fee amount\");\r\n\r\n        Content storage content = contents[_contentID];\r\n        content.upvotes += 1;\r\n        content.hasVoted[msg.sender] = true;\r\n\r\n        emit Upvoted(_contentID, msg.sender);\r\n    }\r\n\r\n    // Downvote content\r\n    function downvote(string memory _contentID) external payable onlyRegistered {\r\n        require(bytes(contents[_contentID].contentID).length > 0, \"Content does not exist\");\r\n        require(!contents[_contentID].hasVoted[msg.sender], \"User already voted\");\r\n        require(msg.value == VOTE_FEE, \"Incorrect fee amount\");\r\n\r\n        Content storage content = contents[_contentID];\r\n        content.downvotes += 1;\r\n        content.hasVoted[msg.sender] = true;\r\n\r\n        // Check if content should be flagged\r\n        if (content.downvotes >= FLAG_THRESHOLD && !content.flagged) {\r\n            content.flagged = true;\r\n            emit ContentFlagged(_contentID);\r\n        }\r\n\r\n        emit Downvoted(_contentID, msg.sender);\r\n    }\r\n\r\n    // Get content details\r\n    function getContent(string memory _contentID) external view returns (\r\n        string memory contentID,\r\n        address publisher,\r\n        uint256 upvotes,\r\n        uint256 downvotes,\r\n        bool flagged\r\n    ) {\r\n        require(bytes(contents[_contentID].contentID).length > 0, \"Content does not exist\");\r\n        Content storage content = contents[_contentID];\r\n        return (\r\n            content.contentID,\r\n            content.publisher,\r\n            content.upvotes,\r\n            content.downvotes,\r\n            content.flagged\r\n        );\r\n    }\r\n\r\n    // Get all content IDs\r\n    function getAllContentIDs() external view returns (string[] memory) {\r\n        return contentIDs;\r\n    }\r\n\r\n    // Check if user has voted on content\r\n    function hasUserVoted(string memory _contentID, address _user) external view returns (bool) {\r\n        require(bytes(contents[_contentID].contentID).length > 0, \"Content does not exist\");\r\n        return contents[_contentID].hasVoted[_user];\r\n    }\r\n\r\n    // Withdraw collected fees (for contract owner, optional)\r\n    address public owner;\r\n\r\n    constructor() {\r\n        owner = msg.sender;\r\n    }\r\n\r\n    modifier onlyOwner() {\r\n        require(msg.sender == owner, \"Not owner\");\r\n        _;\r\n    }\r\n\r\n    function withdraw() external onlyOwner {\r\n        uint256 balance = address(this).balance;\r\n        require(balance > 0, \"No funds to withdraw\");\r\n        payable(owner).transfer(balance);\r\n    }\r\n}",
  "sourcePath": "D:\\Code\\IntroToBlockchains\\blockchain-misinform-project\\new\\contracts\\MisinformationCombat.sol",
  "compiler": {
    "name": "solc",
    "version": "0.8.0+commit.c7dfd78e.Emscripten.clang"
  },
  "schemaVersion": "3.4.16",
  "updatedAt": "2025-04-12T17:13:12.508Z",
  "networkType": "ethereum",
  "devdoc": {
    "kind": "dev",
    "methods": {},
    "version": 1
  },
  "userdoc": {
    "kind": "user",
    "methods": {},
    "version": 1
  }
}