{
  "contractName": "ContentRegistry",
  "abi": [
    {
      "inputs": [
        {
          "internalType": "address",
          "name": "_userRegistry",
          "type": "address"
        }
      ],
      "stateMutability": "nonpayable",
      "type": "constructor"
    },
    {
      "anonymous": false,
      "inputs": [
        {
          "indexed": true,
          "internalType": "uint256",
          "name": "id",
          "type": "uint256"
        },
        {
          "indexed": false,
          "internalType": "uint256",
          "name": "amount",
          "type": "uint256"
        }
      ],
      "name": "ContentRewarded",
      "type": "event"
    },
    {
      "anonymous": false,
      "inputs": [
        {
          "indexed": true,
          "internalType": "uint256",
          "name": "id",
          "type": "uint256"
        },
        {
          "indexed": false,
          "internalType": "uint256",
          "name": "authorTokenId",
          "type": "uint256"
        }
      ],
      "name": "ContentSubmitted",
      "type": "event"
    },
    {
      "anonymous": false,
      "inputs": [
        {
          "indexed": true,
          "internalType": "uint256",
          "name": "id",
          "type": "uint256"
        },
        {
          "indexed": false,
          "internalType": "uint256",
          "name": "voterTokenId",
          "type": "uint256"
        },
        {
          "indexed": false,
          "internalType": "bool",
          "name": "isUpvote",
          "type": "bool"
        }
      ],
      "name": "ContentVoted",
      "type": "event"
    },
    {
      "anonymous": false,
      "inputs": [
        {
          "indexed": true,
          "internalType": "uint256",
          "name": "contentId",
          "type": "uint256"
        },
        {
          "indexed": false,
          "internalType": "uint256",
          "name": "voterTokenId",
          "type": "uint256"
        },
        {
          "indexed": false,
          "internalType": "uint256",
          "name": "amount",
          "type": "uint256"
        }
      ],
      "name": "VoteRewarded",
      "type": "event"
    },
    {
      "stateMutability": "payable",
      "type": "fallback",
      "payable": true
    },
    {
      "inputs": [
        {
          "internalType": "uint256",
          "name": "",
          "type": "uint256"
        }
      ],
      "name": "contents",
      "outputs": [
        {
          "internalType": "uint256",
          "name": "id",
          "type": "uint256"
        },
        {
          "internalType": "uint256",
          "name": "authorTokenId",
          "type": "uint256"
        },
        {
          "internalType": "string",
          "name": "dataHash",
          "type": "string"
        },
        {
          "internalType": "int256",
          "name": "voteScore",
          "type": "int256"
        },
        {
          "internalType": "bool",
          "name": "flagged",
          "type": "bool"
        },
        {
          "internalType": "uint256",
          "name": "creationTime",
          "type": "uint256"
        }
      ],
      "stateMutability": "view",
      "type": "function",
      "constant": true
    },
    {
      "inputs": [
        {
          "internalType": "uint256",
          "name": "",
          "type": "uint256"
        },
        {
          "internalType": "uint256",
          "name": "",
          "type": "uint256"
        }
      ],
      "name": "downvoters",
      "outputs": [
        {
          "internalType": "uint256",
          "name": "",
          "type": "uint256"
        }
      ],
      "stateMutability": "view",
      "type": "function",
      "constant": true
    },
    {
      "inputs": [],
      "name": "moderation",
      "outputs": [
        {
          "internalType": "address",
          "name": "",
          "type": "address"
        }
      ],
      "stateMutability": "view",
      "type": "function",
      "constant": true
    },
    {
      "inputs": [],
      "name": "totalDeposits",
      "outputs": [
        {
          "internalType": "uint256",
          "name": "",
          "type": "uint256"
        }
      ],
      "stateMutability": "view",
      "type": "function",
      "constant": true
    },
    {
      "inputs": [
        {
          "internalType": "uint256",
          "name": "",
          "type": "uint256"
        },
        {
          "internalType": "uint256",
          "name": "",
          "type": "uint256"
        }
      ],
      "name": "upvoters",
      "outputs": [
        {
          "internalType": "uint256",
          "name": "",
          "type": "uint256"
        }
      ],
      "stateMutability": "view",
      "type": "function",
      "constant": true
    },
    {
      "inputs": [],
      "name": "userRegistry",
      "outputs": [
        {
          "internalType": "contract IUserRegistry",
          "name": "",
          "type": "address"
        }
      ],
      "stateMutability": "view",
      "type": "function",
      "constant": true
    },
    {
      "inputs": [
        {
          "internalType": "uint256",
          "name": "",
          "type": "uint256"
        },
        {
          "internalType": "uint256",
          "name": "",
          "type": "uint256"
        }
      ],
      "name": "votes",
      "outputs": [
        {
          "internalType": "bool",
          "name": "",
          "type": "bool"
        }
      ],
      "stateMutability": "view",
      "type": "function",
      "constant": true
    },
    {
      "stateMutability": "payable",
      "type": "receive",
      "payable": true
    },
    {
      "inputs": [
        {
          "internalType": "address",
          "name": "_moderation",
          "type": "address"
        }
      ],
      "name": "setModerationContract",
      "outputs": [],
      "stateMutability": "nonpayable",
      "type": "function"
    },
    {
      "inputs": [
        {
          "internalType": "string",
          "name": "dataHash",
          "type": "string"
        }
      ],
      "name": "submitContent",
      "outputs": [],
      "stateMutability": "payable",
      "type": "function",
      "payable": true
    },
    {
      "inputs": [
        {
          "internalType": "uint256",
          "name": "contentId",
          "type": "uint256"
        },
        {
          "internalType": "bool",
          "name": "isUpvote",
          "type": "bool"
        }
      ],
      "name": "voteContent",
      "outputs": [],
      "stateMutability": "payable",
      "type": "function",
      "payable": true
    },
    {
      "inputs": [],
      "name": "getContentsCount",
      "outputs": [
        {
          "internalType": "uint256",
          "name": "",
          "type": "uint256"
        }
      ],
      "stateMutability": "view",
      "type": "function",
      "constant": true
    },
    {
      "inputs": [
        {
          "internalType": "uint256",
          "name": "contentId",
          "type": "uint256"
        }
      ],
      "name": "getUpvoters",
      "outputs": [
        {
          "internalType": "uint256[]",
          "name": "",
          "type": "uint256[]"
        }
      ],
      "stateMutability": "view",
      "type": "function",
      "constant": true
    },
    {
      "inputs": [
        {
          "internalType": "uint256",
          "name": "contentId",
          "type": "uint256"
        }
      ],
      "name": "getDownvoters",
      "outputs": [
        {
          "internalType": "uint256[]",
          "name": "",
          "type": "uint256[]"
        }
      ],
      "stateMutability": "view",
      "type": "function",
      "constant": true
    }
  ],
  "bytecode": "0x608060405234801562000010575f80fd5b5060405162001e4c38038062001e4c8339818101604052810190620000369190620000e1565b805f806101000a81548173ffffffffffffffffffffffffffffffffffffffff021916908373ffffffffffffffffffffffffffffffffffffffff1602179055505062000111565b5f80fd5b5f73ffffffffffffffffffffffffffffffffffffffff82169050919050565b5f620000ab8262000080565b9050919050565b620000bd816200009f565b8114620000c8575f80fd5b50565b5f81519050620000db81620000b2565b92915050565b5f60208284031215620000f957620000f86200007c565b5b5f6200010884828501620000cb565b91505092915050565b611d2d806200011f5f395ff3fe6080604052600436106100c5575f3560e01c806395289a0f1161007e578063af6be96211610058578063af6be9621461027c578063b5ecf912146102b8578063c6e36a32146102f9578063c999945c14610335576100e3565b806395289a0f146101ee578063aa6ee29b14610216578063aaa0759814610252576100e3565b806329b5b159146100fc57806330a1adeb146101385780635c7460d614610154578063733387ec1461017e5780637d2a96101461019a5780637d882097146101c4576100e3565b366100e3573460065f8282546100db9190610f5c565b925050819055005b3460065f8282546100f49190610f5c565b925050819055005b348015610107575f80fd5b50610122600480360381019061011d9190610fca565b610371565b60405161012f91906110ac565b60405180910390f35b610152600480360381019061014d9190611208565b61041f565b005b34801561015f575f80fd5b50610168610775565b60405161017591906112c9565b60405180910390f35b61019860048036038101906101939190611317565b610798565b005b3480156101a5575f80fd5b506101ae610c16565b6040516101bb9190611364565b60405180910390f35b3480156101cf575f80fd5b506101d8610c22565b6040516101e59190611364565b60405180910390f35b3480156101f9575f80fd5b50610214600480360381019061020f91906113b8565b610c28565b005b348015610221575f80fd5b5061023c60048036038101906102379190610fca565b610cfa565b60405161024991906110ac565b60405180910390f35b34801561025d575f80fd5b50610266610da8565b60405161027391906113f2565b60405180910390f35b348015610287575f80fd5b506102a2600480360381019061029d919061140b565b610dcd565b6040516102af9190611364565b60405180910390f35b3480156102c3575f80fd5b506102de60048036038101906102d99190610fca565b610df8565b6040516102f0969594939291906114ea565b60405180910390f35b348015610304575f80fd5b5061031f600480360381019061031a919061140b565b610ed1565b60405161032c9190611550565b60405180910390f35b348015610340575f80fd5b5061035b6004803603810190610356919061140b565b610efb565b6040516103689190611364565b60405180910390f35b606060028054905082106103ba576040517f08c379a00000000000000000000000000000000000000000000000000000000081526004016103b1906115b3565b60405180910390fd5b60055f8381526020019081526020015f2080548060200260200160405190810160405280929190818152602001828054801561041357602002820191905f5260205f20905b8154815260200190600101908083116103ff575b50505050509050919050565b6611c37937e08000341015610469576040517f08c379a000000000000000000000000000000000000000000000000000000000815260040161046090611641565b60405180910390fd5b5f8054906101000a900473ffffffffffffffffffffffffffffffffffffffff1673ffffffffffffffffffffffffffffffffffffffff1663c3c5a547336040518263ffffffff1660e01b81526004016104c191906113f2565b602060405180830381865afa1580156104dc573d5f803e3d5ffd5b505050506040513d601f19601f820116820180604052508101906105009190611673565b61053f576040517f08c379a0000000000000000000000000000000000000000000000000000000008152600401610536906116e8565b60405180910390fd5b5f805f9054906101000a900473ffffffffffffffffffffffffffffffffffffffff1673ffffffffffffffffffffffffffffffffffffffff16636f77926b336040518263ffffffff1660e01b815260040161059991906113f2565b608060405180830381865afa1580156105b4573d5f803e3d5ffd5b505050506040513d601f19601f820116820180604052508101906105d8919061177f565b9150505f600280549050905060026040518060c001604052808381526020018481526020018581526020015f81526020015f1515815260200142815250908060018154018082558091505060019003905f5260205f2090600602015f909190919091505f820151815f015560208201518160010155604082015181600201908161066291906119ae565b50606082015181600301556080820151816004015f6101000a81548160ff02191690831515021790555060a0820151816005015550505f8054906101000a900473ffffffffffffffffffffffffffffffffffffffff1673ffffffffffffffffffffffffffffffffffffffff1663cdc4e0138360016040518363ffffffff1660e01b81526004016106f3929190611ab6565b5f604051808303815f87803b15801561070a575f80fd5b505af115801561071c573d5f803e3d5ffd5b505050503460065f8282546107319190610f5c565b92505081905550807f475ec08b654fce35d69a70cee481c770d52b267cfc9d994512fc456576b7c95f836040516107689190611364565b60405180910390a2505050565b5f8054906101000a900473ffffffffffffffffffffffffffffffffffffffff1681565b66038d7ea4c680003410156107e2576040517f08c379a00000000000000000000000000000000000000000000000000000000081526004016107d990611b4d565b60405180910390fd5b6002805490508210610829576040517f08c379a0000000000000000000000000000000000000000000000000000000008152600401610820906115b3565b60405180910390fd5b5f8054906101000a900473ffffffffffffffffffffffffffffffffffffffff1673ffffffffffffffffffffffffffffffffffffffff1663c3c5a547336040518263ffffffff1660e01b815260040161088191906113f2565b602060405180830381865afa15801561089c573d5f803e3d5ffd5b505050506040513d601f19601f820116820180604052508101906108c09190611673565b6108ff576040517f08c379a00000000000000000000000000000000000000000000000000000000081526004016108f6906116e8565b60405180910390fd5b5f805f9054906101000a900473ffffffffffffffffffffffffffffffffffffffff1673ffffffffffffffffffffffffffffffffffffffff16636f77926b336040518263ffffffff1660e01b815260040161095991906113f2565b608060405180830381865afa158015610974573d5f803e3d5ffd5b505050506040513d601f19601f82011682018060405250810190610998919061177f565b91505060035f8281526020019081526020015f205f8481526020019081526020015f205f9054906101000a900460ff1615610a08576040517f08c379a00000000000000000000000000000000000000000000000000000000081526004016109ff90611bb5565b60405180910390fd5b5f60028481548110610a1d57610a1c611bd3565b5b905f5260205f209060060201905082610a56577fffffffffffffffffffffffffffffffffffffffffffffffffffffffffffffffff610a59565b60015b816003015f828254610a6b9190611c00565b92505081905550600160035f8481526020019081526020015f205f8681526020019081526020015f205f6101000a81548160ff0219169083151502179055508215610aea5760045f8581526020019081526020015f2082908060018154018082558091505060019003905f5260205f20015f9091909190915055610b84565b60055f8581526020019081526020015f2082908060018154018082558091505060019003905f5260205f20015f90919091909150557ffffffffffffffffffffffffffffffffffffffffffffffffffffffffffffffffb816003015413158015610b615750806004015f9054906101000a900460ff16155b15610b83576001816004015f6101000a81548160ff0219169083151502179055505b5b3460065f828254610b959190610f5c565b92505081905550837f325a30a9bd45b1f3693fd1e40772c908163d6c65f9fba8918d7f4221e6c893618334604051610bce929190611c41565b60405180910390a2837f30c719d128d626d788f1614835c7b0273fd96085b49d646ddb446ccd780cea508385604051610c08929190611c68565b60405180910390a250505050565b5f600280549050905090565b60065481565b5f73ffffffffffffffffffffffffffffffffffffffff1660015f9054906101000a900473ffffffffffffffffffffffffffffffffffffffff1673ffffffffffffffffffffffffffffffffffffffff1614610cb7576040517f08c379a0000000000000000000000000000000000000000000000000000000008152600401610cae90611cd9565b60405180910390fd5b8060015f6101000a81548173ffffffffffffffffffffffffffffffffffffffff021916908373ffffffffffffffffffffffffffffffffffffffff16021790555050565b60606002805490508210610d43576040517f08c379a0000000000000000000000000000000000000000000000000000000008152600401610d3a906115b3565b60405180910390fd5b60045f8381526020019081526020015f20805480602002602001604051908101604052809291908181526020018280548015610d9c57602002820191905f5260205f20905b815481526020019060010190808311610d88575b50505050509050919050565b60015f9054906101000a900473ffffffffffffffffffffffffffffffffffffffff1681565b6005602052815f5260405f208181548110610de6575f80fd5b905f5260205f20015f91509150505481565b60028181548110610e07575f80fd5b905f5260205f2090600602015f91509050805f015490806001015490806002018054610e32906117ea565b80601f0160208091040260200160405190810160405280929190818152602001828054610e5e906117ea565b8015610ea95780601f10610e8057610100808354040283529160200191610ea9565b820191905f5260205f20905b815481529060010190602001808311610e8c57829003601f168201915b505050505090806003015490806004015f9054906101000a900460ff16908060050154905086565b6003602052815f5260405f20602052805f5260405f205f915091509054906101000a900460ff1681565b6004602052815f5260405f208181548110610f14575f80fd5b905f5260205f20015f91509150505481565b5f819050919050565b7f4e487b71000000000000000000000000000000000000000000000000000000005f52601160045260245ffd5b5f610f6682610f26565b9150610f7183610f26565b9250828201905080821115610f8957610f88610f2f565b5b92915050565b5f604051905090565b5f80fd5b5f80fd5b610fa981610f26565b8114610fb3575f80fd5b50565b5f81359050610fc481610fa0565b92915050565b5f60208284031215610fdf57610fde610f98565b5b5f610fec84828501610fb6565b91505092915050565b5f81519050919050565b5f82825260208201905092915050565b5f819050602082019050919050565b61102781610f26565b82525050565b5f611038838361101e565b60208301905092915050565b5f602082019050919050565b5f61105a82610ff5565b6110648185610fff565b935061106f8361100f565b805f5b8381101561109f578151611086888261102d565b975061109183611044565b925050600181019050611072565b5085935050505092915050565b5f6020820190508181035f8301526110c48184611050565b905092915050565b5f80fd5b5f80fd5b5f601f19601f8301169050919050565b7f4e487b71000000000000000000000000000000000000000000000000000000005f52604160045260245ffd5b61111a826110d4565b810181811067ffffffffffffffff82111715611139576111386110e4565b5b80604052505050565b5f61114b610f8f565b90506111578282611111565b919050565b5f67ffffffffffffffff821115611176576111756110e4565b5b61117f826110d4565b9050602081019050919050565b828183375f83830152505050565b5f6111ac6111a78461115c565b611142565b9050828152602081018484840111156111c8576111c76110d0565b5b6111d384828561118c565b509392505050565b5f82601f8301126111ef576111ee6110cc565b5b81356111ff84826020860161119a565b91505092915050565b5f6020828403121561121d5761121c610f98565b5b5f82013567ffffffffffffffff81111561123a57611239610f9c565b5b611246848285016111db565b91505092915050565b5f73ffffffffffffffffffffffffffffffffffffffff82169050919050565b5f819050919050565b5f61129161128c6112878461124f565b61126e565b61124f565b9050919050565b5f6112a282611277565b9050919050565b5f6112b382611298565b9050919050565b6112c3816112a9565b82525050565b5f6020820190506112dc5f8301846112ba565b92915050565b5f8115159050919050565b6112f6816112e2565b8114611300575f80fd5b50565b5f81359050611311816112ed565b92915050565b5f806040838503121561132d5761132c610f98565b5b5f61133a85828601610fb6565b925050602061134b85828601611303565b9150509250929050565b61135e81610f26565b82525050565b5f6020820190506113775f830184611355565b92915050565b5f6113878261124f565b9050919050565b6113978161137d565b81146113a1575f80fd5b50565b5f813590506113b28161138e565b92915050565b5f602082840312156113cd576113cc610f98565b5b5f6113da848285016113a4565b91505092915050565b6113ec8161137d565b82525050565b5f6020820190506114055f8301846113e3565b92915050565b5f806040838503121561142157611420610f98565b5b5f61142e85828601610fb6565b925050602061143f85828601610fb6565b9150509250929050565b5f81519050919050565b5f82825260208201905092915050565b5f5b83811015611480578082015181840152602081019050611465565b5f8484015250505050565b5f61149582611449565b61149f8185611453565b93506114af818560208601611463565b6114b8816110d4565b840191505092915050565b5f819050919050565b6114d5816114c3565b82525050565b6114e4816112e2565b82525050565b5f60c0820190506114fd5f830189611355565b61150a6020830188611355565b818103604083015261151c818761148b565b905061152b60608301866114cc565b61153860808301856114db565b61154560a0830184611355565b979650505050505050565b5f6020820190506115635f8301846114db565b92915050565b7f436f6e74656e7420646f6573206e6f74206578697374000000000000000000005f82015250565b5f61159d601683611453565b91506115a882611569565b602082019050919050565b5f6020820190508181035f8301526115ca81611591565b9050919050565b7f5375626d697373696f6e20726571756972657320302e303035204554482064655f8201527f706f736974000000000000000000000000000000000000000000000000000000602082015250565b5f61162b602583611453565b9150611636826115d1565b604082019050919050565b5f6020820190508181035f8301526116588161161f565b9050919050565b5f8151905061166d816112ed565b92915050565b5f6020828403121561168857611687610f98565b5b5f6116958482850161165f565b91505092915050565b7f55736572206e6f742072656769737465726564000000000000000000000000005f82015250565b5f6116d2601383611453565b91506116dd8261169e565b602082019050919050565b5f6020820190508181035f8301526116ff816116c6565b9050919050565b5f80fd5b5f8151905061171881610fa0565b92915050565b5f6060828403121561173357611732611706565b5b61173d6060611142565b90505f61174c8482850161170a565b5f83015250602061175f8482850161170a565b60208301525060406117738482850161170a565b60408301525092915050565b5f806080838503121561179557611794610f98565b5b5f6117a28582860161171e565b92505060606117b38582860161170a565b9150509250929050565b7f4e487b71000000000000000000000000000000000000000000000000000000005f52602260045260245ffd5b5f600282049050600182168061180157607f821691505b602082108103611814576118136117bd565b5b50919050565b5f819050815f5260205f209050919050565b5f6020601f8301049050919050565b5f82821b905092915050565b5f600883026118767fffffffffffffffffffffffffffffffffffffffffffffffffffffffffffffffff8261183b565b611880868361183b565b95508019841693508086168417925050509392505050565b5f6118b26118ad6118a884610f26565b61126e565b610f26565b9050919050565b5f819050919050565b6118cb83611898565b6118df6118d7826118b9565b848454611847565b825550505050565b5f90565b6118f36118e7565b6118fe8184846118c2565b505050565b5b81811015611921576119165f826118eb565b600181019050611904565b5050565b601f821115611966576119378161181a565b6119408461182c565b8101602085101561194f578190505b61196361195b8561182c565b830182611903565b50505b505050565b5f82821c905092915050565b5f6119865f198460080261196b565b1980831691505092915050565b5f61199e8383611977565b9150826002028217905092915050565b6119b782611449565b67ffffffffffffffff8111156119d0576119cf6110e4565b5b6119da82546117ea565b6119e5828285611925565b5f60209050601f831160018114611a16575f8415611a04578287015190505b611a0e8582611993565b865550611a75565b601f198416611a248661181a565b5f5b82811015611a4b57848901518255600182019150602085019450602081019050611a26565b86831015611a685784890151611a64601f891682611977565b8355505b6001600288020188555050505b505050505050565b5f819050919050565b5f611aa0611a9b611a9684611a7d565b61126e565b6114c3565b9050919050565b611ab081611a86565b82525050565b5f604082019050611ac95f830185611355565b611ad66020830184611aa7565b9392505050565b7f566f74696e6720726571756972657320302e30303120455448206465706f73695f8201527f7400000000000000000000000000000000000000000000000000000000000000602082015250565b5f611b37602183611453565b9150611b4282611add565b604082019050919050565b5f6020820190508181035f830152611b6481611b2b565b9050919050565b7f416c726561647920766f746564000000000000000000000000000000000000005f82015250565b5f611b9f600d83611453565b9150611baa82611b6b565b602082019050919050565b5f6020820190508181035f830152611bcc81611b93565b9050919050565b7f4e487b71000000000000000000000000000000000000000000000000000000005f52603260045260245ffd5b5f611c0a826114c3565b9150611c15836114c3565b92508282019050828112155f8312168382125f841215161715611c3b57611c3a610f2f565b5b92915050565b5f604082019050611c545f830185611355565b611c616020830184611355565b9392505050565b5f604082019050611c7b5f830185611355565b611c8860208301846114db565b9392505050565b7f416c7265616479207365740000000000000000000000000000000000000000005f82015250565b5f611cc3600b83611453565b9150611cce82611c8f565b602082019050919050565b5f6020820190508181035f830152611cf081611cb7565b905091905056fea2646970667358221220e36b3a93363d5c4da1df4492b38483145383c795f40e0f63e4ac6b31d7caa45764736f6c63430008150033",
  "immutableReferences": {},
  "source": "// SPDX-License-Identifier: GPL-3.0\r\npragma solidity ^0.8.0;\r\n\r\nimport \"./IUserRegistry.sol\";\r\n\r\ncontract ContentRegistry {\r\n    IUserRegistry public userRegistry;\r\n    address public moderation;\r\n\r\n    struct Content {\r\n        uint256 id;\r\n        uint256 authorTokenId;\r\n        string dataHash;\r\n        int256 voteScore;\r\n        bool flagged;\r\n        uint256 creationTime;\r\n    }\r\n\r\n    Content[] public contents;\r\n    mapping(uint256 => mapping(uint256 => bool)) public votes;\r\n    mapping(uint256 => uint256[]) public upvoters;\r\n    mapping(uint256 => uint256[]) public downvoters;\r\n    \r\n    event ContentRewarded(uint256 indexed id, uint256 amount);\r\n    event VoteRewarded(uint256 indexed contentId, uint256 voterTokenId, uint256 amount);\r\n    event ContentSubmitted(uint256 indexed id, uint256 authorTokenId);\r\n    event ContentVoted(uint256 indexed id, uint256 voterTokenId, bool isUpvote);\r\n    \r\n    // For deposit tracking\r\n    uint256 public totalDeposits;\r\n    \r\n    receive() external payable {\r\n        // Accept ETH transfers\r\n        totalDeposits += msg.value;\r\n    }\r\n    \r\n    fallback() external payable {\r\n        // Fallback function to accept ETH\r\n        totalDeposits += msg.value;\r\n    }\r\n\r\n    constructor(address _userRegistry) {\r\n        userRegistry = IUserRegistry(_userRegistry); \r\n    }\r\n    \r\n    modifier onlyModeration() {\r\n        require(msg.sender == moderation, \"Only moderation contract\");\r\n        _;\r\n    }\r\n\r\n    function setModerationContract(address _moderation) external {\r\n        require(moderation == address(0), \"Already set\");\r\n        moderation = _moderation;\r\n    }\r\n\r\n    function submitContent(string memory dataHash) external payable {\r\n        require(msg.value >= 0.005 ether, \"Submission requires 0.005 ETH deposit\");\r\n        \r\n        // Check if user is registered\r\n        require(userRegistry.isRegistered(msg.sender), \"User not registered\");\r\n        \r\n        // Get user info & token ID\r\n        (, uint256 tokenId) = userRegistry.getUser(msg.sender);\r\n        \r\n        // Create content\r\n        uint256 id = contents.length;\r\n        contents.push(Content(id, tokenId, dataHash, 0, false, block.timestamp));\r\n        \r\n        // Adjust reputation\r\n        userRegistry.adjustReputation(tokenId, 1);\r\n        \r\n        // Keep track of deposits directly\r\n        totalDeposits += msg.value;\r\n        \r\n        // Emit event\r\n        emit ContentSubmitted(id, tokenId);\r\n    }\r\n\r\n    function voteContent(uint256 contentId, bool isUpvote) external payable {\r\n        require(msg.value >= 0.001 ether, \"Voting requires 0.001 ETH deposit\");\r\n        require(contentId < contents.length, \"Content does not exist\");\r\n        \r\n        // Check if user is registered\r\n        require(userRegistry.isRegistered(msg.sender), \"User not registered\");\r\n        \r\n        // Get user token ID\r\n        (, uint256 tokenId) = userRegistry.getUser(msg.sender);\r\n        require(!votes[tokenId][contentId], \"Already voted\");\r\n\r\n        Content storage content = contents[contentId];\r\n        content.voteScore += isUpvote ? int256(1) : int256(-1);\r\n        votes[tokenId][contentId] = true;\r\n\r\n        if (isUpvote) {\r\n            upvoters[contentId].push(tokenId);\r\n        } else {\r\n            downvoters[contentId].push(tokenId);\r\n            if (content.voteScore <= -5 && !content.flagged) {\r\n                content.flagged = true;\r\n            }\r\n        }\r\n\r\n        // Keep track of deposits directly\r\n        totalDeposits += msg.value;\r\n        \r\n        emit VoteRewarded(contentId, tokenId, msg.value);\r\n        emit ContentVoted(contentId, tokenId, isUpvote);\r\n    }\r\n\r\n    function getContentsCount() external view returns (uint256) {\r\n        return contents.length;\r\n    }\r\n\r\n    function getUpvoters(uint256 contentId) external view returns (uint256[] memory) {\r\n        require(contentId < contents.length, \"Content does not exist\");\r\n        return upvoters[contentId];\r\n    }\r\n\r\n    function getDownvoters(uint256 contentId) external view returns (uint256[] memory) {\r\n        require(contentId < contents.length, \"Content does not exist\");\r\n        return downvoters[contentId];\r\n    }\r\n}",
  "sourcePath": "E:\\Blockchain\\final-expt\\contracts\\ContentRegistry.sol",
  "compiler": {
    "name": "solc",
    "version": "0.8.21+commit.d9974bed.Emscripten.clang"
  },
  "schemaVersion": "3.4.16",
  "updatedAt": "2025-04-16T20:22:36.341Z",
  "networkType": "ethereum",
  "devdoc": {
    "kind": "dev",
    "methods": {},
    "version": 1
  },
  "userdoc": {
    "kind": "user",
    "methods": {},
    "version": 1
  }
}