{
  "contractName": "Moderation",
  "abi": [
    {
      "inputs": [
        {
          "internalType": "address",
          "name": "_userRegistry",
          "type": "address"
        },
        {
          "internalType": "address",
          "name": "_contentRegistry",
          "type": "address"
        }
      ],
      "stateMutability": "nonpayable",
      "type": "constructor"
    },
    {
      "anonymous": false,
      "inputs": [
        {
          "indexed": true,
          "internalType": "uint256",
          "name": "contentId",
          "type": "uint256"
        },
        {
          "indexed": false,
          "internalType": "uint256",
          "name": "moderatorTokenId",
          "type": "uint256"
        },
        {
          "indexed": false,
          "internalType": "uint256",
          "name": "amount",
          "type": "uint256"
        }
      ],
      "name": "ModerationPenalized",
      "type": "event"
    },
    {
      "anonymous": false,
      "inputs": [
        {
          "indexed": true,
          "internalType": "uint256",
          "name": "contentId",
          "type": "uint256"
        },
        {
          "indexed": false,
          "internalType": "uint256",
          "name": "moderatorTokenId",
          "type": "uint256"
        },
        {
          "indexed": false,
          "internalType": "uint256",
          "name": "amount",
          "type": "uint256"
        }
      ],
      "name": "ModerationRewarded",
      "type": "event"
    },
    {
      "stateMutability": "payable",
      "type": "fallback",
      "payable": true
    },
    {
      "inputs": [],
      "name": "MIN_REP",
      "outputs": [
        {
          "internalType": "uint256",
          "name": "",
          "type": "uint256"
        }
      ],
      "stateMutability": "view",
      "type": "function",
      "constant": true
    },
    {
      "inputs": [],
      "name": "MOD_THRESHOLD",
      "outputs": [
        {
          "internalType": "uint256",
          "name": "",
          "type": "uint256"
        }
      ],
      "stateMutability": "view",
      "type": "function",
      "constant": true
    },
    {
      "inputs": [],
      "name": "contentRegistryAddress",
      "outputs": [
        {
          "internalType": "address",
          "name": "",
          "type": "address"
        }
      ],
      "stateMutability": "view",
      "type": "function",
      "constant": true
    },
    {
      "inputs": [
        {
          "internalType": "uint256",
          "name": "",
          "type": "uint256"
        },
        {
          "internalType": "uint256",
          "name": "",
          "type": "uint256"
        }
      ],
      "name": "moderationVotes",
      "outputs": [
        {
          "internalType": "uint256",
          "name": "tokenId",
          "type": "uint256"
        },
        {
          "internalType": "bool",
          "name": "isCorrect",
          "type": "bool"
        }
      ],
      "stateMutability": "view",
      "type": "function",
      "constant": true
    },
    {
      "inputs": [],
      "name": "totalDeposits",
      "outputs": [
        {
          "internalType": "uint256",
          "name": "",
          "type": "uint256"
        }
      ],
      "stateMutability": "view",
      "type": "function",
      "constant": true
    },
    {
      "inputs": [],
      "name": "userRegistry",
      "outputs": [
        {
          "internalType": "contract IUserRegistry",
          "name": "",
          "type": "address"
        }
      ],
      "stateMutability": "view",
      "type": "function",
      "constant": true
    },
    {
      "stateMutability": "payable",
      "type": "receive",
      "payable": true
    },
    {
      "inputs": [
        {
          "internalType": "uint256",
          "name": "contentId",
          "type": "uint256"
        },
        {
          "internalType": "bool",
          "name": "isCorrect",
          "type": "bool"
        }
      ],
      "name": "moderateContent",
      "outputs": [],
      "stateMutability": "payable",
      "type": "function",
      "payable": true
    },
    {
      "inputs": [],
      "name": "getTop50PercentUsers",
      "outputs": [
        {
          "internalType": "uint256[]",
          "name": "",
          "type": "uint256[]"
        }
      ],
      "stateMutability": "view",
      "type": "function",
      "constant": true
    }
  ],
  "bytecode": "0x608060405234801562000010575f80fd5b506040516200223538038062002235833981810160405281019062000036919062000122565b815f806101000a81548173ffffffffffffffffffffffffffffffffffffffff021916908373ffffffffffffffffffffffffffffffffffffffff1602179055508060015f6101000a81548173ffffffffffffffffffffffffffffffffffffffff021916908373ffffffffffffffffffffffffffffffffffffffff160217905550505062000167565b5f80fd5b5f73ffffffffffffffffffffffffffffffffffffffff82169050919050565b5f620000ec82620000c1565b9050919050565b620000fe81620000e0565b811462000109575f80fd5b50565b5f815190506200011c81620000f3565b92915050565b5f80604083850312156200013b576200013a620000bd565b5b5f6200014a858286016200010c565b92505060206200015d858286016200010c565b9150509250929050565b6120c080620001755f395ff3fe60806040526004361061007e575f3560e01c80637d8820971161004d5780637d8820971461014f5780638e31e9fb14610179578063ab05465e146101b6578063ff04444b146101e05761009c565b80630a743bd2146100b557806313476517146100df5780632041eb82146101095780635c7460d6146101255761009c565b3661009c573460025f8282546100949190611386565b925050819055005b3460025f8282546100ad9190611386565b925050819055005b3480156100c0575f80fd5b506100c961020a565b6040516100d691906113c8565b60405180910390f35b3480156100ea575f80fd5b506100f361020f565b6040516101009190611420565b60405180910390f35b610123600480360381019061011e91906114a9565b610234565b005b348015610130575f80fd5b5061013961070b565b6040516101469190611542565b60405180910390f35b34801561015a575f80fd5b5061016361072e565b60405161017091906113c8565b60405180910390f35b348015610184575f80fd5b5061019f600480360381019061019a919061155b565b610734565b6040516101ad9291906115a8565b60405180910390f35b3480156101c1575f80fd5b506101ca61077a565b6040516101d791906113c8565b60405180910390f35b3480156101eb575f80fd5b506101f461077f565b6040516102019190611686565b60405180910390f35b602881565b60015f9054906101000a900473ffffffffffffffffffffffffffffffffffffffff1681565b662386f26fc1000034101561027e576040517f08c379a000000000000000000000000000000000000000000000000000000000815260040161027590611726565b60405180910390fd5b5f610287610aeb565b90505f8173ffffffffffffffffffffffffffffffffffffffff1663b5ecf912856040518263ffffffff1660e01b81526004016102c391906113c8565b5f60405180830381865afa1580156102dd573d5f803e3d5ffd5b505050506040513d5f823e3d601f19601f8201168201806040525081019061030591906118f5565b509450505050508061034c576040517f08c379a000000000000000000000000000000000000000000000000000000000815260040161034390611a0a565b60405180910390fd5b5f8054906101000a900473ffffffffffffffffffffffffffffffffffffffff1673ffffffffffffffffffffffffffffffffffffffff1663c3c5a547336040518263ffffffff1660e01b81526004016103a49190611420565b602060405180830381865afa1580156103bf573d5f803e3d5ffd5b505050506040513d601f19601f820116820180604052508101906103e39190611a28565b610422576040517f08c379a000000000000000000000000000000000000000000000000000000000815260040161041990611a9d565b60405180910390fd5b5f805f8054906101000a900473ffffffffffffffffffffffffffffffffffffffff1673ffffffffffffffffffffffffffffffffffffffff16636f77926b336040518263ffffffff1660e01b815260040161047c9190611420565b608060405180830381865afa158015610497573d5f803e3d5ffd5b505050506040513d601f19601f820116820180604052508101906104bb9190611b20565b915091505f6104c861077f565b9050600a835f01511015610511576040517f08c379a000000000000000000000000000000000000000000000000000000000815260040161050890611ba8565b60405180910390fd5b5f805b825181101561055a578383828151811061053157610530611bc6565b5b602002602001015103610547576001915061055a565b808061055290611bf3565b915050610514565b508061059b576040517f08c379a000000000000000000000000000000000000000000000000000000000815260040161059290611c84565b60405180910390fd5b5f5b60035f8a81526020019081526020015f208054905081101561063f578360035f8b81526020019081526020015f2082815481106105dd576105dc611bc6565b5b905f5260205f2090600202015f01540361062c576040517f08c379a000000000000000000000000000000000000000000000000000000000815260040161062390611cec565b60405180910390fd5b808061063790611bf3565b91505061059d565b5060035f8981526020019081526020015f206040518060400160405280858152602001891515815250908060018154018082558091505060019003905f5260205f2090600202015f909190919091505f820151815f01556020820151816001015f6101000a81548160ff02191690831515021790555050503460025f8282546106c89190611386565b92505081905550600282516106dd9190611d37565b60035f8a81526020019081526020015f2080549050106107015761070088610b13565b5b5050505050505050565b5f8054906101000a900473ffffffffffffffffffffffffffffffffffffffff1681565b60025481565b6003602052815f5260405f20818154811061074d575f80fd5b905f5260205f2090600202015f9150915050805f015490806001015f9054906101000a900460ff16905082565b600a81565b60605f805f9054906101000a900473ffffffffffffffffffffffffffffffffffffffff1673ffffffffffffffffffffffffffffffffffffffff1663bdbed7226040518163ffffffff1660e01b81526004015f60405180830381865afa1580156107ea573d5f803e3d5ffd5b505050506040513d5f823e3d601f19601f820116820180604052508101906108129190611e2b565b90505f815190505f811161085b576040517f08c379a000000000000000000000000000000000000000000000000000000000815260040161085290611ebc565b60405180910390fd5b5f8167ffffffffffffffff81111561087657610875611770565b5b6040519080825280602002602001820160405280156108a45781602001602082028036833780820191505090505b5090505f805b838110156109ab575f805f9054906101000a900473ffffffffffffffffffffffffffffffffffffffff1673ffffffffffffffffffffffffffffffffffffffff1663365b98b287848151811061090257610901611bc6565b5b60200260200101516040518263ffffffff1660e01b815260040161092691906113c8565b606060405180830381865afa158015610941573d5f803e3d5ffd5b505050506040513d601f19601f820116820180604052508101906109659190611eda565b505090508084838151811061097d5761097c611bc6565b5b60200260200101818152505080836109959190611386565b92505080806109a390611bf3565b9150506108aa565b505f83826109b99190611d37565b90505f805b85811015610a0957828582815181106109da576109d9611bc6565b5b6020026020010151106109f65781806109f290611bf3565b9250505b8080610a0190611bf3565b9150506109be565b505f8167ffffffffffffffff811115610a2557610a24611770565b5b604051908082528060200260200182016040528015610a535781602001602082028036833780820191505090505b5090505f805b87811015610adc5784878281518110610a7557610a74611bc6565b5b602002602001015110610ac957888181518110610a9557610a94611bc6565b5b6020026020010151838380610aa990611bf3565b945081518110610abc57610abb611bc6565b5b6020026020010181815250505b8080610ad490611bf3565b915050610a59565b50819850505050505050505090565b5f60015f9054906101000a900473ffffffffffffffffffffffffffffffffffffffff16905090565b5f8060035f8481526020019081526020015f2090505f5b8180549050811015610b8c57818181548110610b4957610b48611bc6565b5b905f5260205f2090600202016001015f9054906101000a900460ff1615610b79578280610b7590611bf3565b9350505b8080610b8490611bf3565b915050610b2a565b505f60028280549050610b9f9190611d37565b8310159050610bae8482610bbe565b610bb88482610feb565b50505050565b5f610bc7610aeb565b90505f8173ffffffffffffffffffffffffffffffffffffffff1663aa6ee29b856040518263ffffffff1660e01b8152600401610c0391906113c8565b5f60405180830381865afa158015610c1d573d5f803e3d5ffd5b505050506040513d5f823e3d601f19601f82011682018060405250810190610c459190611e2b565b90505f8273ffffffffffffffffffffffffffffffffffffffff166329b5b159866040518263ffffffff1660e01b8152600401610c8191906113c8565b5f60405180830381865afa158015610c9b573d5f803e3d5ffd5b505050506040513d5f823e3d601f19601f82011682018060405250810190610cc39190611e2b565b90505f5b8251811015610db1575f8054906101000a900473ffffffffffffffffffffffffffffffffffffffff1673ffffffffffffffffffffffffffffffffffffffff1663cdc4e013848381518110610d1e57610d1d611bc6565b5b602002602001015187610d51577ffffffffffffffffffffffffffffffffffffffffffffffffffffffffffffffffd610d54565b60055b6040518363ffffffff1660e01b8152600401610d71929190611f65565b5f604051808303815f87803b158015610d88575f80fd5b505af1158015610d9a573d5f803e3d5ffd5b505050508080610da990611bf3565b915050610cc7565b505f5b8151811015610e9e575f8054906101000a900473ffffffffffffffffffffffffffffffffffffffff1673ffffffffffffffffffffffffffffffffffffffff1663cdc4e013838381518110610e0b57610e0a611bc6565b5b602002602001015187610e1f576005610e41565b7ffffffffffffffffffffffffffffffffffffffffffffffffffffffffffffffffd5b6040518363ffffffff1660e01b8152600401610e5e929190611f65565b5f604051808303815f87803b158015610e75575f80fd5b505af1158015610e87573d5f803e3d5ffd5b505050508080610e9690611bf3565b915050610db4565b505f60035f8781526020019081526020015f2090505f5b8180549050811015610fe2575f861515838381548110610ed857610ed7611bc6565b5b905f5260205f2090600202016001015f9054906101000a900460ff1615151490505f8054906101000a900473ffffffffffffffffffffffffffffffffffffffff1673ffffffffffffffffffffffffffffffffffffffff1663cdc4e013848481548110610f4757610f46611bc6565b5b905f5260205f2090600202015f015483610f81577ffffffffffffffffffffffffffffffffffffffffffffffffffffffffffffffffb610f84565b600a5b6040518363ffffffff1660e01b8152600401610fa1929190611f65565b5f604051808303815f87803b158015610fb8575f80fd5b505af1158015610fca573d5f803e3d5ffd5b50505050508080610fda90611bf3565b915050610eb5565b50505050505050565b5f4790505f8103610ffc575061134c565b5f60035f8581526020019081526020015f2090505f81805490500361102257505061134c565b5f818054905060646032856110379190611f8c565b6110419190611d37565b61104b9190611d37565b90505f5b8280549050811015611347575f85151584838154811061107257611071611bc6565b5b905f5260205f2090600202016001015f9054906101000a900460ff161515149050801561122f575f805f9054906101000a900473ffffffffffffffffffffffffffffffffffffffff1673ffffffffffffffffffffffffffffffffffffffff16636352211e8685815481106110e9576110e8611bc6565b5b905f5260205f2090600202015f01546040518263ffffffff1660e01b815260040161111491906113c8565b602060405180830381865afa15801561112f573d5f803e3d5ffd5b505050506040513d601f19601f820116820180604052508101906111539190611ff7565b90505f841115611229575f8173ffffffffffffffffffffffffffffffffffffffff16856040516111829061204f565b5f6040518083038185875af1925050503d805f81146111bc576040519150601f19603f3d011682016040523d82523d5f602084013e6111c1565b606091505b50509050801561122757887fed4a4b8a977eefb54639a8f911959a101a0f33cb75cebfae4921b7ed2629e65a878681548110611200576111ff611bc6565b5b905f5260205f2090600202015f01548760405161121e929190612063565b60405180910390a25b505b50611333565b5f8054906101000a900473ffffffffffffffffffffffffffffffffffffffff1673ffffffffffffffffffffffffffffffffffffffff1663d0f0887285848154811061127d5761127c611bc6565b5b905f5260205f2090600202015f0154856040518363ffffffff1660e01b81526004016112aa929190612063565b5f604051808303815f87803b1580156112c1575f80fd5b505af11580156112d3573d5f803e3d5ffd5b50505050867f5ae13e9377993d1f6b5124a90aa84db615e4abd950c3d35621ac90aa01dad66785848154811061130c5761130b611bc6565b5b905f5260205f2090600202015f01548560405161132a929190612063565b60405180910390a25b50808061133f90611bf3565b91505061104f565b505050505b5050565b5f819050919050565b7f4e487b71000000000000000000000000000000000000000000000000000000005f52601160045260245ffd5b5f61139082611350565b915061139b83611350565b92508282019050808211156113b3576113b2611359565b5b92915050565b6113c281611350565b82525050565b5f6020820190506113db5f8301846113b9565b92915050565b5f73ffffffffffffffffffffffffffffffffffffffff82169050919050565b5f61140a826113e1565b9050919050565b61141a81611400565b82525050565b5f6020820190506114335f830184611411565b92915050565b5f604051905090565b5f80fd5b5f80fd5b61145381611350565b811461145d575f80fd5b50565b5f8135905061146e8161144a565b92915050565b5f8115159050919050565b61148881611474565b8114611492575f80fd5b50565b5f813590506114a38161147f565b92915050565b5f80604083850312156114bf576114be611442565b5b5f6114cc85828601611460565b92505060206114dd85828601611495565b9150509250929050565b5f819050919050565b5f61150a611505611500846113e1565b6114e7565b6113e1565b9050919050565b5f61151b826114f0565b9050919050565b5f61152c82611511565b9050919050565b61153c81611522565b82525050565b5f6020820190506115555f830184611533565b92915050565b5f806040838503121561157157611570611442565b5b5f61157e85828601611460565b925050602061158f85828601611460565b9150509250929050565b6115a281611474565b82525050565b5f6040820190506115bb5f8301856113b9565b6115c86020830184611599565b9392505050565b5f81519050919050565b5f82825260208201905092915050565b5f819050602082019050919050565b61160181611350565b82525050565b5f61161283836115f8565b60208301905092915050565b5f602082019050919050565b5f611634826115cf565b61163e81856115d9565b9350611649836115e9565b805f5b838110156116795781516116608882611607565b975061166b8361161e565b92505060018101905061164c565b5085935050505092915050565b5f6020820190508181035f83015261169e818461162a565b905092915050565b5f82825260208201905092915050565b7f4d6f6465726174696f6e20726571756972657320302e303120455448206465705f8201527f6f73697400000000000000000000000000000000000000000000000000000000602082015250565b5f6117106024836116a6565b915061171b826116b6565b604082019050919050565b5f6020820190508181035f83015261173d81611704565b9050919050565b5f815190506117528161144a565b92915050565b5f80fd5b5f80fd5b5f601f19601f8301169050919050565b7f4e487b71000000000000000000000000000000000000000000000000000000005f52604160045260245ffd5b6117a682611760565b810181811067ffffffffffffffff821117156117c5576117c4611770565b5b80604052505050565b5f6117d7611439565b90506117e3828261179d565b919050565b5f67ffffffffffffffff82111561180257611801611770565b5b61180b82611760565b9050602081019050919050565b5f5b8381101561183557808201518184015260208101905061181a565b5f8484015250505050565b5f61185261184d846117e8565b6117ce565b90508281526020810184848401111561186e5761186d61175c565b5b611879848285611818565b509392505050565b5f82601f83011261189557611894611758565b5b81516118a5848260208601611840565b91505092915050565b5f819050919050565b6118c0816118ae565b81146118ca575f80fd5b50565b5f815190506118db816118b7565b92915050565b5f815190506118ef8161147f565b92915050565b5f805f805f8060c0878903121561190f5761190e611442565b5b5f61191c89828a01611744565b965050602061192d89828a01611744565b955050604087015167ffffffffffffffff81111561194e5761194d611446565b5b61195a89828a01611881565b945050606061196b89828a016118cd565b935050608061197c89828a016118e1565b92505060a061198d89828a01611744565b9150509295509295509295565b7f436f6e74656e74206e6f7420666c6167676564206f7220646f65736e277420655f8201527f7869737400000000000000000000000000000000000000000000000000000000602082015250565b5f6119f46024836116a6565b91506119ff8261199a565b604082019050919050565b5f6020820190508181035f830152611a21816119e8565b9050919050565b5f60208284031215611a3d57611a3c611442565b5b5f611a4a848285016118e1565b91505092915050565b7f55736572206e6f742072656769737465726564000000000000000000000000005f82015250565b5f611a876013836116a6565b9150611a9282611a53565b602082019050919050565b5f6020820190508181035f830152611ab481611a7b565b9050919050565b5f80fd5b5f60608284031215611ad457611ad3611abb565b5b611ade60606117ce565b90505f611aed84828501611744565b5f830152506020611b0084828501611744565b6020830152506040611b1484828501611744565b60408301525092915050565b5f8060808385031215611b3657611b35611442565b5b5f611b4385828601611abf565b9250506060611b5485828601611744565b9150509250929050565b7f4c6f7720726570000000000000000000000000000000000000000000000000005f82015250565b5f611b926007836116a6565b9150611b9d82611b5e565b602082019050919050565b5f6020820190508181035f830152611bbf81611b86565b9050919050565b7f4e487b71000000000000000000000000000000000000000000000000000000005f52603260045260245ffd5b5f611bfd82611350565b91507fffffffffffffffffffffffffffffffffffffffffffffffffffffffffffffffff8203611c2f57611c2e611359565b5b600182019050919050565b7f4e6f7420696e20746f70203530252072657075746564207573657273000000005f82015250565b5f611c6e601c836116a6565b9150611c7982611c3a565b602082019050919050565b5f6020820190508181035f830152611c9b81611c62565b9050919050565b7f416c726561647920766f746564000000000000000000000000000000000000005f82015250565b5f611cd6600d836116a6565b9150611ce182611ca2565b602082019050919050565b5f6020820190508181035f830152611d0381611cca565b9050919050565b7f4e487b71000000000000000000000000000000000000000000000000000000005f52601260045260245ffd5b5f611d4182611350565b9150611d4c83611350565b925082611d5c57611d5b611d0a565b5b828204905092915050565b5f67ffffffffffffffff821115611d8157611d80611770565b5b602082029050602081019050919050565b5f80fd5b5f611da8611da384611d67565b6117ce565b90508083825260208201905060208402830185811115611dcb57611dca611d92565b5b835b81811015611df45780611de08882611744565b845260208401935050602081019050611dcd565b5050509392505050565b5f82601f830112611e1257611e11611758565b5b8151611e22848260208601611d96565b91505092915050565b5f60208284031215611e4057611e3f611442565b5b5f82015167ffffffffffffffff811115611e5d57611e5c611446565b5b611e6984828501611dfe565b91505092915050565b7f4e6f2075736572730000000000000000000000000000000000000000000000005f82015250565b5f611ea66008836116a6565b9150611eb182611e72565b602082019050919050565b5f6020820190508181035f830152611ed381611e9a565b9050919050565b5f805f60608486031215611ef157611ef0611442565b5b5f611efe86828701611744565b9350506020611f0f86828701611744565b9250506040611f2086828701611744565b9150509250925092565b5f815f0b9050919050565b5f611f4f611f4a611f4584611f2a565b6114e7565b6118ae565b9050919050565b611f5f81611f35565b82525050565b5f604082019050611f785f8301856113b9565b611f856020830184611f56565b9392505050565b5f611f9682611350565b9150611fa183611350565b9250828202611faf81611350565b91508282048414831517611fc657611fc5611359565b5b5092915050565b611fd681611400565b8114611fe0575f80fd5b50565b5f81519050611ff181611fcd565b92915050565b5f6020828403121561200c5761200b611442565b5b5f61201984828501611fe3565b91505092915050565b5f81905092915050565b50565b5f61203a5f83612022565b91506120458261202c565b5f82019050919050565b5f6120598261202f565b9150819050919050565b5f6040820190506120765f8301856113b9565b61208360208301846113b9565b939250505056fea2646970667358221220a46dd98c4ba100644b96257c493292b7010e9fafb661bc990cbeb421df33575e64736f6c63430008150033",
  "immutableReferences": {},
  "source": "// SPDX-License-Identifier: GPL-3.0\r\npragma solidity ^0.8.0;\r\n\r\nimport \"./IUserRegistry.sol\";\r\nimport \"./ContentRegistry.sol\";\r\n\r\ncontract Moderation {\r\n    IUserRegistry public userRegistry;\r\n    address public contentRegistryAddress;\r\n    \r\n    // For deposit tracking\r\n    uint256 public totalDeposits;\r\n\r\n    struct ModerationVote {\r\n        uint256 tokenId;\r\n        bool isCorrect;\r\n    }\r\n\r\n    mapping(uint256 => ModerationVote[]) public moderationVotes;\r\n    uint256 public constant MIN_REP = 10; // Lowered for testing\r\n    uint256 public constant MOD_THRESHOLD = 40;\r\n    \r\n    // New events\r\n    event ModerationRewarded(uint256 indexed contentId, uint256 moderatorTokenId, uint256 amount);\r\n    event ModerationPenalized(uint256 indexed contentId, uint256 moderatorTokenId, uint256 amount);\r\n    \r\n    receive() external payable {\r\n        // Accept ETH transfers\r\n        totalDeposits += msg.value;\r\n    }\r\n    \r\n    fallback() external payable {\r\n        // Fallback function to accept ETH\r\n        totalDeposits += msg.value;\r\n    }\r\n\r\n    constructor(address _userRegistry, address _contentRegistry) {\r\n        userRegistry = IUserRegistry(_userRegistry);\r\n        contentRegistryAddress = _contentRegistry;\r\n    }\r\n    \r\n    function getContentRegistry() internal view returns (ContentRegistry) {\r\n        return ContentRegistry(payable(contentRegistryAddress));\r\n    }\r\n\r\n    function moderateContent(uint256 contentId, bool isCorrect) external payable {\r\n        require(msg.value >= 0.01 ether, \"Moderation requires 0.01 ETH deposit\");\r\n        \r\n        ContentRegistry contentRegistry = getContentRegistry();\r\n        \r\n        // Check if content exists and is flagged\r\n        (,,,,bool flagged,) = contentRegistry.contents(contentId);\r\n        require(flagged, \"Content not flagged or doesn't exist\");\r\n        \r\n        // Check if user is registered\r\n        require(userRegistry.isRegistered(msg.sender), \"User not registered\");\r\n        \r\n        // Get user reputation and token ID\r\n        (IUserRegistry.User memory user, uint256 tokenId) = userRegistry.getUser(msg.sender);\r\n        uint256[] memory topModerators = getTop50PercentUsers();\r\n        require(user.reputation >= MIN_REP, \"Low rep\");\r\n\r\n        bool isTop = false;\r\n        for (uint i = 0; i < topModerators.length; i++) {\r\n            if (topModerators[i] == tokenId) {\r\n                isTop = true;\r\n                break;\r\n            }\r\n        }\r\n        require(isTop, \"Not in top 50% reputed users\");\r\n\r\n        for (uint i = 0; i < moderationVotes[contentId].length; i++) {\r\n            require(moderationVotes[contentId][i].tokenId != tokenId, \"Already voted\");\r\n        }\r\n\r\n        moderationVotes[contentId].push(ModerationVote(tokenId, isCorrect));\r\n        \r\n        // Keep track of deposits\r\n        totalDeposits += msg.value;\r\n\r\n        if (moderationVotes[contentId].length >= topModerators.length / 2) {\r\n            _finalizeModeration(contentId);\r\n        }\r\n    }\r\n\r\n    function _finalizeModeration(uint256 contentId) private {\r\n        uint256 correctVotes;\r\n        ModerationVote[] storage votes = moderationVotes[contentId];\r\n        \r\n        for (uint i = 0; i < votes.length; i++) {\r\n            if (votes[i].isCorrect) correctVotes++;\r\n        }\r\n\r\n        bool verdict = correctVotes >= votes.length / 2;\r\n        _updateReputations(contentId, verdict);\r\n        _distributeFunds(contentId, verdict);\r\n    }\r\n\r\n    function _distributeFunds(uint256 contentId, bool isCorrect) private {\r\n        uint256 totalPool = address(this).balance;\r\n        if (totalPool == 0) return; // No funds to distribute\r\n        \r\n        // Reward moderators (50% of pool)\r\n        ModerationVote[] storage votes = moderationVotes[contentId];\r\n        if (votes.length == 0) return; // No votes to reward\r\n        \r\n        uint256 modRewardPerVoter = totalPool * 50 / 100 / votes.length;\r\n        \r\n        for (uint i = 0; i < votes.length; i++) {\r\n            bool votedCorrectly = votes[i].isCorrect == isCorrect;\r\n            if (votedCorrectly) {\r\n                address payable voter = payable(userRegistry.ownerOf(votes[i].tokenId));\r\n                if (modRewardPerVoter > 0) {\r\n                    (bool success, ) = voter.call{value: modRewardPerVoter}(\"\");\r\n                    if (success) {\r\n                        emit ModerationRewarded(contentId, votes[i].tokenId, modRewardPerVoter);\r\n                    }\r\n                }\r\n            } else {\r\n                userRegistry.applyPenalty(votes[i].tokenId, modRewardPerVoter);\r\n                emit ModerationPenalized(contentId, votes[i].tokenId, modRewardPerVoter);\r\n            }\r\n        }\r\n    }\r\n\r\n    function getTop50PercentUsers() public view returns (uint256[] memory) {\r\n        uint256[] memory tokenIds = userRegistry.getAllTokenIds();\r\n        uint256 total = tokenIds.length;\r\n\r\n        require(total > 0, \"No users\");\r\n\r\n        uint256[] memory reputations = new uint256[](total);\r\n        uint256 sum = 0;\r\n\r\n        for (uint i = 0; i < total; i++) {\r\n            (uint256 rep, ,) = userRegistry.users(tokenIds[i]);\r\n            reputations[i] = rep;\r\n            sum += rep;\r\n        }\r\n\r\n        uint256 avg = sum / total;\r\n\r\n        uint256 count = 0;\r\n        for (uint i = 0; i < total; i++) {\r\n            if (reputations[i] >= avg) count++;\r\n        }\r\n\r\n        uint256[] memory topUsers = new uint256[](count);\r\n        uint256 idx = 0;\r\n        for (uint i = 0; i < total; i++) {\r\n            if (reputations[i] >= avg) {\r\n                topUsers[idx++] = tokenIds[i];\r\n            }\r\n        }\r\n\r\n        return topUsers;\r\n    }\r\n\r\n    function _updateReputations(uint256 contentId, bool isCorrect) private {\r\n        ContentRegistry contentRegistry = getContentRegistry();\r\n        \r\n        // Update voters\r\n        uint256[] memory ups = contentRegistry.getUpvoters(contentId);\r\n        uint256[] memory downs = contentRegistry.getDownvoters(contentId);\r\n\r\n        for (uint i = 0; i < ups.length; i++) {\r\n            userRegistry.adjustReputation(ups[i], isCorrect ? int8(5) : -3);\r\n        }\r\n\r\n        for (uint i = 0; i < downs.length; i++) {\r\n            userRegistry.adjustReputation(downs[i], isCorrect ? -3 : int8(5));\r\n        }\r\n\r\n        // Update moderators\r\n        ModerationVote[] storage votes = moderationVotes[contentId];\r\n        for (uint i = 0; i < votes.length; i++) {\r\n            bool votedCorrectly = votes[i].isCorrect == isCorrect;\r\n            userRegistry.adjustReputation(votes[i].tokenId, votedCorrectly ? int8(10) : -5);\r\n        }\r\n    }\r\n}",
  "sourcePath": "E:\\Blockchain\\final-expt\\contracts\\Moderation.sol",
  "compiler": {
    "name": "solc",
    "version": "0.8.21+commit.d9974bed.Emscripten.clang"
  },
  "schemaVersion": "3.4.16",
  "updatedAt": "2025-04-16T20:22:36.357Z",
  "networkType": "ethereum",
  "devdoc": {
    "kind": "dev",
    "methods": {},
    "version": 1
  },
  "userdoc": {
    "kind": "user",
    "methods": {},
    "version": 1
  }
}