{
  "contractName": "Moderation",
  "abi": [
    {
      "inputs": [
        {
          "internalType": "address",
          "name": "_userRegistry",
          "type": "address"
        },
        {
          "internalType": "address",
          "name": "_contentRegistry",
          "type": "address"
        }
      ],
      "stateMutability": "nonpayable",
      "type": "constructor"
    },
    {
      "anonymous": false,
      "inputs": [
        {
          "indexed": true,
          "internalType": "uint256",
          "name": "contentId",
          "type": "uint256"
        },
        {
          "indexed": false,
          "internalType": "uint256",
          "name": "moderatorTokenId",
          "type": "uint256"
        },
        {
          "indexed": false,
          "internalType": "uint256",
          "name": "amount",
          "type": "uint256"
        }
      ],
      "name": "ModerationPenalized",
      "type": "event"
    },
    {
      "anonymous": false,
      "inputs": [
        {
          "indexed": true,
          "internalType": "uint256",
          "name": "contentId",
          "type": "uint256"
        },
        {
          "indexed": false,
          "internalType": "uint256",
          "name": "moderatorTokenId",
          "type": "uint256"
        },
        {
          "indexed": false,
          "internalType": "uint256",
          "name": "amount",
          "type": "uint256"
        }
      ],
      "name": "ModerationRewarded",
      "type": "event"
    },
    {
      "inputs": [],
      "name": "MIN_REP",
      "outputs": [
        {
          "internalType": "uint256",
          "name": "",
          "type": "uint256"
        }
      ],
      "stateMutability": "view",
      "type": "function",
      "constant": true
    },
    {
      "inputs": [],
      "name": "MOD_THRESHOLD",
      "outputs": [
        {
          "internalType": "uint256",
          "name": "",
          "type": "uint256"
        }
      ],
      "stateMutability": "view",
      "type": "function",
      "constant": true
    },
    {
      "inputs": [],
      "name": "contentRegistry",
      "outputs": [
        {
          "internalType": "contract ContentRegistry",
          "name": "",
          "type": "address"
        }
      ],
      "stateMutability": "view",
      "type": "function",
      "constant": true
    },
    {
      "inputs": [
        {
          "internalType": "uint256",
          "name": "",
          "type": "uint256"
        },
        {
          "internalType": "uint256",
          "name": "",
          "type": "uint256"
        }
      ],
      "name": "moderationVotes",
      "outputs": [
        {
          "internalType": "uint256",
          "name": "tokenId",
          "type": "uint256"
        },
        {
          "internalType": "bool",
          "name": "isCorrect",
          "type": "bool"
        }
      ],
      "stateMutability": "view",
      "type": "function",
      "constant": true
    },
    {
      "inputs": [],
      "name": "userRegistry",
      "outputs": [
        {
          "internalType": "contract IUserRegistry",
          "name": "",
          "type": "address"
        }
      ],
      "stateMutability": "view",
      "type": "function",
      "constant": true
    },
    {
      "inputs": [
        {
          "internalType": "uint256",
          "name": "contentId",
          "type": "uint256"
        },
        {
          "internalType": "bool",
          "name": "isCorrect",
          "type": "bool"
        }
      ],
      "name": "moderateContent",
      "outputs": [],
      "stateMutability": "payable",
      "type": "function",
      "payable": true
    },
    {
      "inputs": [],
      "name": "getTop50PercentUsers",
      "outputs": [
        {
          "internalType": "uint256[]",
          "name": "",
          "type": "uint256[]"
        }
      ],
      "stateMutability": "view",
      "type": "function",
      "constant": true
    }
  ],
  "bytecode": "0x608060405234801562000010575f80fd5b506040516200205b3803806200205b833981810160405281019062000036919062000122565b815f806101000a81548173ffffffffffffffffffffffffffffffffffffffff021916908373ffffffffffffffffffffffffffffffffffffffff1602179055508060015f6101000a81548173ffffffffffffffffffffffffffffffffffffffff021916908373ffffffffffffffffffffffffffffffffffffffff160217905550505062000167565b5f80fd5b5f73ffffffffffffffffffffffffffffffffffffffff82169050919050565b5f620000ec82620000c1565b9050919050565b620000fe81620000e0565b811462000109575f80fd5b50565b5f815190506200011c81620000f3565b92915050565b5f80604083850312156200013b576200013a620000bd565b5b5f6200014a858286016200010c565b92505060206200015d858286016200010c565b9150509250929050565b611ee680620001755f395ff3fe60806040526004361061006f575f3560e01c80635c7460d61161004d5780635c7460d6146100e35780638e31e9fb1461010d578063ab05465e1461014a578063ff04444b146101745761006f565b80630a743bd2146100735780632041eb821461009d57806327a4f2bb146100b9575b5f80fd5b34801561007e575f80fd5b5061008761019e565b60405161009491906112b2565b60405180910390f35b6100b760048036038101906100b2919061133b565b6101a3565b005b3480156100c4575f80fd5b506100cd61069b565b6040516100da91906113f3565b60405180910390f35b3480156100ee575f80fd5b506100f76106c0565b604051610104919061142c565b60405180910390f35b348015610118575f80fd5b50610133600480360381019061012e9190611445565b6106e3565b604051610141929190611492565b60405180910390f35b348015610155575f80fd5b5061015e610729565b60405161016b91906112b2565b60405180910390f35b34801561017f575f80fd5b5061018861072e565b6040516101959190611570565b60405180910390f35b602881565b662386f26fc100003410156101ed576040517f08c379a00000000000000000000000000000000000000000000000000000000081526004016101e490611610565b60405180910390fd5b5f805f9054906101000a900473ffffffffffffffffffffffffffffffffffffffff1673ffffffffffffffffffffffffffffffffffffffff16636f77926b336040518263ffffffff1660e01b8152600401610247919061164e565b606060405180830381865afa158015610262573d5f803e3d5ffd5b505050506040513d601f19601f820116820180604052508101906102869190611768565b5f015190505f61029461072e565b90505f60015f9054906101000a900473ffffffffffffffffffffffffffffffffffffffff1673ffffffffffffffffffffffffffffffffffffffff1663b5ecf912866040518263ffffffff1660e01b81526004016102f191906112b2565b5f60405180830381865afa15801561030b573d5f803e3d5ffd5b505050506040513d5f823e3d601f19601f8201168201806040525081019061033391906118a8565b5094505050505060645f8054906101000a900473ffffffffffffffffffffffffffffffffffffffff1673ffffffffffffffffffffffffffffffffffffffff16636f77926b336040518263ffffffff1660e01b8152600401610394919061164e565b606060405180830381865afa1580156103af573d5f803e3d5ffd5b505050506040513d601f19601f820116820180604052508101906103d39190611768565b602001511015610418576040517f08c379a000000000000000000000000000000000000000000000000000000000815260040161040f90611997565b60405180910390fd5b80610458576040517f08c379a000000000000000000000000000000000000000000000000000000000815260040161044f906119ff565b60405180910390fd5b5f805b83518110156104a1578484828151811061047857610477611a1d565b5b60200260200101510361048e57600191506104a1565b808061049990611a77565b91505061045b565b50806104e2576040517f08c379a00000000000000000000000000000000000000000000000000000000081526004016104d990611b08565b60405180910390fd5b5f5b60025f8881526020019081526020015f2080549050811015610586578460025f8981526020019081526020015f20828154811061052457610523611a1d565b5b905f5260205f2090600202015f015403610573576040517f08c379a000000000000000000000000000000000000000000000000000000000815260040161056a90611b70565b60405180910390fd5b808061057e90611a77565b9150506104e4565b5060025f8781526020019081526020015f206040518060400160405280868152602001871515815250908060018154018082558091505060019003905f5260205f2090600202015f909190919091505f820151815f01556020820151816001015f6101000a81548160ff02191690831515021790555050505f8054906101000a900473ffffffffffffffffffffffffffffffffffffffff1673ffffffffffffffffffffffffffffffffffffffff166108fc3490811502906040515f60405180830381858888f19350505050158015610660573d5f803e3d5ffd5b506002835161066f9190611bbb565b60025f8881526020019081526020015f2080549050106106935761069286610a82565b5b505050505050565b60015f9054906101000a900473ffffffffffffffffffffffffffffffffffffffff1681565b5f8054906101000a900473ffffffffffffffffffffffffffffffffffffffff1681565b6002602052815f5260405f2081815481106106fc575f80fd5b905f5260205f2090600202015f9150915050805f015490806001015f9054906101000a900460ff16905082565b606481565b60605f805f9054906101000a900473ffffffffffffffffffffffffffffffffffffffff1673ffffffffffffffffffffffffffffffffffffffff1663bdbed7226040518163ffffffff1660e01b81526004015f60405180830381865afa158015610799573d5f803e3d5ffd5b505050506040513d5f823e3d601f19601f820116820180604052508101906107c19190611caf565b90505f815190505f811161080a576040517f08c379a000000000000000000000000000000000000000000000000000000000815260040161080190611d40565b60405180910390fd5b5f8167ffffffffffffffff8111156108255761082461167b565b5b6040519080825280602002602001820160405280156108535781602001602082028036833780820191505090505b5090505f805b83811015610942575f805f9054906101000a900473ffffffffffffffffffffffffffffffffffffffff1673ffffffffffffffffffffffffffffffffffffffff16636f77926b336040518263ffffffff1660e01b81526004016108bb919061164e565b606060405180830381865afa1580156108d6573d5f803e3d5ffd5b505050506040513d601f19601f820116820180604052508101906108fa9190611768565b6020015190508084838151811061091457610913611a1d565b5b602002602001018181525050808361092c9190611d5e565b925050808061093a90611a77565b915050610859565b505f83826109509190611bbb565b90505f805b858110156109a0578285828151811061097157610970611a1d565b5b60200260200101511061098d57818061098990611a77565b9250505b808061099890611a77565b915050610955565b505f8167ffffffffffffffff8111156109bc576109bb61167b565b5b6040519080825280602002602001820160405280156109ea5781602001602082028036833780820191505090505b5090505f805b87811015610a735784878281518110610a0c57610a0b611a1d565b5b602002602001015110610a6057888181518110610a2c57610a2b611a1d565b5b6020026020010151838380610a4090611a77565b945081518110610a5357610a52611a1d565b5b6020026020010181815250505b8080610a6b90611a77565b9150506109f0565b50819850505050505050505090565b5f8060025f8481526020019081526020015f2090505f5b8180549050811015610afb57818181548110610ab857610ab7611a1d565b5b905f5260205f2090600202016001015f9054906101000a900460ff1615610ae8578280610ae490611a77565b9350505b8080610af390611a77565b915050610a99565b505f60028280549050610b0e9190611bbb565b8310159050610b1d8482610b2d565b610b278482610f90565b50505050565b5f60015f9054906101000a900473ffffffffffffffffffffffffffffffffffffffff1673ffffffffffffffffffffffffffffffffffffffff1663aa6ee29b846040518263ffffffff1660e01b8152600401610b8891906112b2565b5f60405180830381865afa158015610ba2573d5f803e3d5ffd5b505050506040513d5f823e3d601f19601f82011682018060405250810190610bca9190611caf565b90505f60015f9054906101000a900473ffffffffffffffffffffffffffffffffffffffff1673ffffffffffffffffffffffffffffffffffffffff166329b5b159856040518263ffffffff1660e01b8152600401610c2791906112b2565b5f60405180830381865afa158015610c41573d5f803e3d5ffd5b505050506040513d5f823e3d601f19601f82011682018060405250810190610c699190611caf565b90505f5b8251811015610d57575f8054906101000a900473ffffffffffffffffffffffffffffffffffffffff1673ffffffffffffffffffffffffffffffffffffffff1663cdc4e013848381518110610cc457610cc3611a1d565b5b602002602001015186610cf7577ffffffffffffffffffffffffffffffffffffffffffffffffffffffffffffffffd610cfa565b60055b6040518363ffffffff1660e01b8152600401610d17929190611dcc565b5f604051808303815f87803b158015610d2e575f80fd5b505af1158015610d40573d5f803e3d5ffd5b505050508080610d4f90611a77565b915050610c6d565b505f5b8151811015610e44575f8054906101000a900473ffffffffffffffffffffffffffffffffffffffff1673ffffffffffffffffffffffffffffffffffffffff1663cdc4e013838381518110610db157610db0611a1d565b5b602002602001015186610dc5576005610de7565b7ffffffffffffffffffffffffffffffffffffffffffffffffffffffffffffffffd5b6040518363ffffffff1660e01b8152600401610e04929190611dcc565b5f604051808303815f87803b158015610e1b575f80fd5b505af1158015610e2d573d5f803e3d5ffd5b505050508080610e3c90611a77565b915050610d5a565b505f60025f8681526020019081526020015f2090505f5b8180549050811015610f88575f851515838381548110610e7e57610e7d611a1d565b5b905f5260205f2090600202016001015f9054906101000a900460ff1615151490505f8054906101000a900473ffffffffffffffffffffffffffffffffffffffff1673ffffffffffffffffffffffffffffffffffffffff1663cdc4e013848481548110610eed57610eec611a1d565b5b905f5260205f2090600202015f015483610f27577ffffffffffffffffffffffffffffffffffffffffffffffffffffffffffffffffb610f2a565b600a5b6040518363ffffffff1660e01b8152600401610f47929190611dcc565b5f604051808303815f87803b158015610f5e575f80fd5b505af1158015610f70573d5f803e3d5ffd5b50505050508080610f8090611a77565b915050610e5b565b505050505050565b5f4790505f60025f8581526020019081526020015f2090505f81805490506064603285610fbd9190611df3565b610fc79190611bbb565b610fd19190611bbb565b90505f5b8280549050811015611292575f851515848381548110610ff857610ff7611a1d565b5b905f5260205f2090600202016001015f9054906101000a900460ff161515149050801561117a575f8054906101000a900473ffffffffffffffffffffffffffffffffffffffff1673ffffffffffffffffffffffffffffffffffffffff16636352211e85848154811061106d5761106c611a1d565b5b905f5260205f2090600202015f01546040518263ffffffff1660e01b815260040161109891906112b2565b602060405180830381865afa1580156110b3573d5f803e3d5ffd5b505050506040513d601f19601f820116820180604052508101906110d79190611e5e565b73ffffffffffffffffffffffffffffffffffffffff166108fc8490811502906040515f60405180830381858888f19350505050158015611119573d5f803e3d5ffd5b50867fed4a4b8a977eefb54639a8f911959a101a0f33cb75cebfae4921b7ed2629e65a85848154811061114f5761114e611a1d565b5b905f5260205f2090600202015f01548560405161116d929190611e89565b60405180910390a261127e565b5f8054906101000a900473ffffffffffffffffffffffffffffffffffffffff1673ffffffffffffffffffffffffffffffffffffffff1663d0f088728584815481106111c8576111c7611a1d565b5b905f5260205f2090600202015f0154856040518363ffffffff1660e01b81526004016111f5929190611e89565b5f604051808303815f87803b15801561120c575f80fd5b505af115801561121e573d5f803e3d5ffd5b50505050867f5ae13e9377993d1f6b5124a90aa84db615e4abd950c3d35621ac90aa01dad66785848154811061125757611256611a1d565b5b905f5260205f2090600202015f015485604051611275929190611e89565b60405180910390a25b50808061128a90611a77565b915050610fd5565b505050505050565b5f819050919050565b6112ac8161129a565b82525050565b5f6020820190506112c55f8301846112a3565b92915050565b5f604051905090565b5f80fd5b5f80fd5b6112e58161129a565b81146112ef575f80fd5b50565b5f81359050611300816112dc565b92915050565b5f8115159050919050565b61131a81611306565b8114611324575f80fd5b50565b5f8135905061133581611311565b92915050565b5f8060408385031215611351576113506112d4565b5b5f61135e858286016112f2565b925050602061136f85828601611327565b9150509250929050565b5f73ffffffffffffffffffffffffffffffffffffffff82169050919050565b5f819050919050565b5f6113bb6113b66113b184611379565b611398565b611379565b9050919050565b5f6113cc826113a1565b9050919050565b5f6113dd826113c2565b9050919050565b6113ed816113d3565b82525050565b5f6020820190506114065f8301846113e4565b92915050565b5f611416826113c2565b9050919050565b6114268161140c565b82525050565b5f60208201905061143f5f83018461141d565b92915050565b5f806040838503121561145b5761145a6112d4565b5b5f611468858286016112f2565b9250506020611479858286016112f2565b9150509250929050565b61148c81611306565b82525050565b5f6040820190506114a55f8301856112a3565b6114b26020830184611483565b9392505050565b5f81519050919050565b5f82825260208201905092915050565b5f819050602082019050919050565b6114eb8161129a565b82525050565b5f6114fc83836114e2565b60208301905092915050565b5f602082019050919050565b5f61151e826114b9565b61152881856114c3565b9350611533836114d3565b805f5b8381101561156357815161154a88826114f1565b975061155583611508565b925050600181019050611536565b5085935050505092915050565b5f6020820190508181035f8301526115888184611514565b905092915050565b5f82825260208201905092915050565b7f4d6f6465726174696f6e20726571756972657320302e303120455448206465705f8201527f6f73697400000000000000000000000000000000000000000000000000000000602082015250565b5f6115fa602483611590565b9150611605826115a0565b604082019050919050565b5f6020820190508181035f830152611627816115ee565b9050919050565b5f61163882611379565b9050919050565b6116488161162e565b82525050565b5f6020820190506116615f83018461163f565b92915050565b5f80fd5b5f601f19601f8301169050919050565b7f4e487b71000000000000000000000000000000000000000000000000000000005f52604160045260245ffd5b6116b18261166b565b810181811067ffffffffffffffff821117156116d0576116cf61167b565b5b80604052505050565b5f6116e26112cb565b90506116ee82826116a8565b919050565b5f81519050611701816112dc565b92915050565b5f6060828403121561171c5761171b611667565b5b61172660606116d9565b90505f611735848285016116f3565b5f830152506020611748848285016116f3565b602083015250604061175c848285016116f3565b60408301525092915050565b5f6060828403121561177d5761177c6112d4565b5b5f61178a84828501611707565b91505092915050565b5f80fd5b5f80fd5b5f67ffffffffffffffff8211156117b5576117b461167b565b5b6117be8261166b565b9050602081019050919050565b5f5b838110156117e85780820151818401526020810190506117cd565b5f8484015250505050565b5f6118056118008461179b565b6116d9565b90508281526020810184848401111561182157611820611797565b5b61182c8482856117cb565b509392505050565b5f82601f83011261184857611847611793565b5b81516118588482602086016117f3565b91505092915050565b5f819050919050565b61187381611861565b811461187d575f80fd5b50565b5f8151905061188e8161186a565b92915050565b5f815190506118a281611311565b92915050565b5f805f805f8060c087890312156118c2576118c16112d4565b5b5f6118cf89828a016116f3565b96505060206118e089828a016116f3565b955050604087015167ffffffffffffffff811115611901576119006112d8565b5b61190d89828a01611834565b945050606061191e89828a01611880565b935050608061192f89828a01611894565b92505060a061194089828a016116f3565b9150509295509295509295565b7f4c6f7720726570000000000000000000000000000000000000000000000000005f82015250565b5f611981600783611590565b915061198c8261194d565b602082019050919050565b5f6020820190508181035f8301526119ae81611975565b9050919050565b7f4e6f7420666c61676765640000000000000000000000000000000000000000005f82015250565b5f6119e9600b83611590565b91506119f4826119b5565b602082019050919050565b5f6020820190508181035f830152611a16816119dd565b9050919050565b7f4e487b71000000000000000000000000000000000000000000000000000000005f52603260045260245ffd5b7f4e487b71000000000000000000000000000000000000000000000000000000005f52601160045260245ffd5b5f611a818261129a565b91507fffffffffffffffffffffffffffffffffffffffffffffffffffffffffffffffff8203611ab357611ab2611a4a565b5b600182019050919050565b7f4e6f7420696e20746f70203530252072657075746564207573657273000000005f82015250565b5f611af2601c83611590565b9150611afd82611abe565b602082019050919050565b5f6020820190508181035f830152611b1f81611ae6565b9050919050565b7f416c726561647920766f746564000000000000000000000000000000000000005f82015250565b5f611b5a600d83611590565b9150611b6582611b26565b602082019050919050565b5f6020820190508181035f830152611b8781611b4e565b9050919050565b7f4e487b71000000000000000000000000000000000000000000000000000000005f52601260045260245ffd5b5f611bc58261129a565b9150611bd08361129a565b925082611be057611bdf611b8e565b5b828204905092915050565b5f67ffffffffffffffff821115611c0557611c0461167b565b5b602082029050602081019050919050565b5f80fd5b5f611c2c611c2784611beb565b6116d9565b90508083825260208201905060208402830185811115611c4f57611c4e611c16565b5b835b81811015611c785780611c6488826116f3565b845260208401935050602081019050611c51565b5050509392505050565b5f82601f830112611c9657611c95611793565b5b8151611ca6848260208601611c1a565b91505092915050565b5f60208284031215611cc457611cc36112d4565b5b5f82015167ffffffffffffffff811115611ce157611ce06112d8565b5b611ced84828501611c82565b91505092915050565b7f4e6f2075736572730000000000000000000000000000000000000000000000005f82015250565b5f611d2a600883611590565b9150611d3582611cf6565b602082019050919050565b5f6020820190508181035f830152611d5781611d1e565b9050919050565b5f611d688261129a565b9150611d738361129a565b9250828201905080821115611d8b57611d8a611a4a565b5b92915050565b5f815f0b9050919050565b5f611db6611db1611dac84611d91565b611398565b611861565b9050919050565b611dc681611d9c565b82525050565b5f604082019050611ddf5f8301856112a3565b611dec6020830184611dbd565b9392505050565b5f611dfd8261129a565b9150611e088361129a565b9250828202611e168161129a565b91508282048414831517611e2d57611e2c611a4a565b5b5092915050565b611e3d8161162e565b8114611e47575f80fd5b50565b5f81519050611e5881611e34565b92915050565b5f60208284031215611e7357611e726112d4565b5b5f611e8084828501611e4a565b91505092915050565b5f604082019050611e9c5f8301856112a3565b611ea960208301846112a3565b939250505056fea2646970667358221220add9c464114929192b32103a10aacdc4d9a485852e548d47a653e3bfb8147e0f64736f6c63430008150033",
  "immutableReferences": {},
  "source": "// SPDX-License-Identifier: GPL-3.0\r\npragma solidity ^0.8.0;\r\n\r\nimport \"./IUserRegistry.sol\";\r\nimport \"./ContentRegistry.sol\";\r\n\r\ncontract Moderation {\r\n    IUserRegistry public userRegistry;\r\n    ContentRegistry public contentRegistry;\r\n\r\n    struct ModerationVote {\r\n        uint256 tokenId;\r\n        bool isCorrect;\r\n    }\r\n\r\n    mapping(uint256 => ModerationVote[]) public moderationVotes;\r\n    uint256 public constant MIN_REP = 100;\r\n    uint256 public constant MOD_THRESHOLD = 40;\r\n    \r\n    // New events\r\n    event ModerationRewarded(uint256 indexed contentId, uint256 moderatorTokenId, uint256 amount);\r\n    event ModerationPenalized(uint256 indexed contentId, uint256 moderatorTokenId, uint256 amount);\r\n\r\n    constructor(address _userRegistry, address _contentRegistry) {\r\n        userRegistry = IUserRegistry(_userRegistry);\r\n        contentRegistry = ContentRegistry(_contentRegistry);\r\n    }\r\n\r\n    function moderateContent(uint256 contentId, bool isCorrect) external payable {\r\n        require(msg.value >= 0.01 ether, \"Moderation requires 0.01 ETH deposit\");\r\n        \r\n        uint256 tokenId = userRegistry.getUser(msg.sender).tokenId;\r\n        uint256[] memory topModerators = getTop50PercentUsers();\r\n        (,,,,bool flagged,) = contentRegistry.contents(contentId);\r\n        require(userRegistry.getUser(msg.sender).reputation >= MIN_REP, \"Low rep\");\r\n        require(flagged, \"Not flagged\");\r\n\r\n        bool isTop = false;\r\n        for (uint i = 0; i < topModerators.length; i++) {\r\n            if (topModerators[i] == tokenId) {\r\n                isTop = true;\r\n                break;\r\n            }\r\n        }\r\n        require(isTop, \"Not in top 50% reputed users\");\r\n\r\n        for (uint i = 0; i < moderationVotes[contentId].length; i++) {\r\n            require(moderationVotes[contentId][i].tokenId != tokenId, \"Already voted\");\r\n        }\r\n\r\n        moderationVotes[contentId].push(ModerationVote(tokenId, isCorrect));\r\n        payable(address(userRegistry)).transfer(msg.value);\r\n\r\n        if (moderationVotes[contentId].length >= topModerators.length / 2) {\r\n            _finalizeModeration(contentId);\r\n        }\r\n    }\r\n\r\n    function _finalizeModeration(uint256 contentId) private {\r\n        uint256 correctVotes;\r\n        ModerationVote[] storage votes = moderationVotes[contentId];\r\n        \r\n        for (uint i = 0; i < votes.length; i++) {\r\n            if (votes[i].isCorrect) correctVotes++;\r\n        }\r\n\r\n        bool verdict = correctVotes >= votes.length / 2;\r\n        _updateReputations(contentId, verdict);\r\n        _distributeFunds(contentId, verdict);\r\n    }\r\n\r\n    function _distributeFunds(uint256 contentId, bool isCorrect) private {\r\n        uint256 totalPool = address(this).balance;\r\n        \r\n        // Reward moderators (50% of pool)\r\n        ModerationVote[] storage votes = moderationVotes[contentId];\r\n        uint256 modRewardPerVoter = totalPool * 50 / 100 / votes.length;\r\n        \r\n        for (uint i = 0; i < votes.length; i++) {\r\n            bool votedCorrectly = votes[i].isCorrect == isCorrect;\r\n            if (votedCorrectly) {\r\n                payable(userRegistry.ownerOf(votes[i].tokenId)).transfer(modRewardPerVoter);\r\n                emit ModerationRewarded(contentId, votes[i].tokenId, modRewardPerVoter);\r\n            } else {\r\n                userRegistry.applyPenalty(votes[i].tokenId, modRewardPerVoter);\r\n                emit ModerationPenalized(contentId, votes[i].tokenId, modRewardPerVoter);\r\n            }\r\n        }\r\n        \r\n    }\r\n\r\n    function getTop50PercentUsers() public view returns (uint256[] memory) {\r\n        uint256[] memory tokenIds = userRegistry.getAllTokenIds();\r\n        uint256 total = tokenIds.length;\r\n\r\n        require(total > 0, \"No users\");\r\n\r\n        uint256[] memory reputations = new uint256[](total);\r\n        uint256 sum = 0;\r\n\r\n        for (uint i = 0; i < total; i++) {\r\n            uint256 rep = userRegistry.getUser(msg.sender).reputation;\r\n            reputations[i] = rep;\r\n            sum += rep;\r\n        }\r\n\r\n        uint256 avg = sum / total;\r\n\r\n        uint256 count = 0;\r\n        for (uint i = 0; i < total; i++) {\r\n            if (reputations[i] >= avg) count++;\r\n        }\r\n\r\n        uint256[] memory topUsers = new uint256[](count);\r\n        uint256 idx = 0;\r\n        for (uint i = 0; i < total; i++) {\r\n            if (reputations[i] >= avg) {\r\n                topUsers[idx++] = tokenIds[i];\r\n            }\r\n        }\r\n\r\n        return topUsers;\r\n    }\r\n\r\n    function _updateReputations(uint256 contentId, bool isCorrect) private {\r\n        // Update voters\r\n        uint256[] memory ups = contentRegistry.getUpvoters(contentId);\r\n        uint256[] memory downs = contentRegistry.getDownvoters(contentId);\r\n\r\n        for (uint i = 0; i < ups.length; i++) {\r\n            userRegistry.adjustReputation(ups[i], isCorrect ? int8(5) : -3);\r\n        }\r\n\r\n        for (uint i = 0; i < downs.length; i++) {\r\n            userRegistry.adjustReputation(downs[i], isCorrect ? -3 : int8(5));\r\n        }\r\n\r\n        // Update moderators\r\n        ModerationVote[] storage votes = moderationVotes[contentId];\r\n        for (uint i = 0; i < votes.length; i++) {\r\n            bool votedCorrectly = votes[i].isCorrect == isCorrect;\r\n            userRegistry.adjustReputation(votes[i].tokenId, votedCorrectly ? int8(10) : -5);\r\n        }\r\n    }\r\n}",
  "sourcePath": "D:\\Code\\IntroToBlockchains\\blockchain-misinform-project\\final-expt\\contracts\\Moderation.sol",
  "compiler": {
    "name": "solc",
    "version": "0.8.21+commit.d9974bed.Emscripten.clang"
  },
  "schemaVersion": "3.4.16",
  "updatedAt": "2025-04-16T14:44:23.221Z",
  "networkType": "ethereum",
  "devdoc": {
    "kind": "dev",
    "methods": {},
    "version": 1
  },
  "userdoc": {
    "kind": "user",
    "methods": {},
    "version": 1
  }
}