{
  "contractName": "UserRegistry",
  "abi": [
    {
      "inputs": [],
      "stateMutability": "nonpayable",
      "type": "constructor"
    },
    {
      "inputs": [
        {
          "internalType": "address",
          "name": "sender",
          "type": "address"
        },
        {
          "internalType": "uint256",
          "name": "tokenId",
          "type": "uint256"
        },
        {
          "internalType": "address",
          "name": "owner",
          "type": "address"
        }
      ],
      "name": "ERC721IncorrectOwner",
      "type": "error"
    },
    {
      "inputs": [
        {
          "internalType": "address",
          "name": "operator",
          "type": "address"
        },
        {
          "internalType": "uint256",
          "name": "tokenId",
          "type": "uint256"
        }
      ],
      "name": "ERC721InsufficientApproval",
      "type": "error"
    },
    {
      "inputs": [
        {
          "internalType": "address",
          "name": "approver",
          "type": "address"
        }
      ],
      "name": "ERC721InvalidApprover",
      "type": "error"
    },
    {
      "inputs": [
        {
          "internalType": "address",
          "name": "operator",
          "type": "address"
        }
      ],
      "name": "ERC721InvalidOperator",
      "type": "error"
    },
    {
      "inputs": [
        {
          "internalType": "address",
          "name": "owner",
          "type": "address"
        }
      ],
      "name": "ERC721InvalidOwner",
      "type": "error"
    },
    {
      "inputs": [
        {
          "internalType": "address",
          "name": "receiver",
          "type": "address"
        }
      ],
      "name": "ERC721InvalidReceiver",
      "type": "error"
    },
    {
      "inputs": [
        {
          "internalType": "address",
          "name": "sender",
          "type": "address"
        }
      ],
      "name": "ERC721InvalidSender",
      "type": "error"
    },
    {
      "inputs": [
        {
          "internalType": "uint256",
          "name": "tokenId",
          "type": "uint256"
        }
      ],
      "name": "ERC721NonexistentToken",
      "type": "error"
    },
    {
      "anonymous": false,
      "inputs": [
        {
          "indexed": true,
          "internalType": "address",
          "name": "owner",
          "type": "address"
        },
        {
          "indexed": true,
          "internalType": "address",
          "name": "approved",
          "type": "address"
        },
        {
          "indexed": true,
          "internalType": "uint256",
          "name": "tokenId",
          "type": "uint256"
        }
      ],
      "name": "Approval",
      "type": "event"
    },
    {
      "anonymous": false,
      "inputs": [
        {
          "indexed": true,
          "internalType": "address",
          "name": "owner",
          "type": "address"
        },
        {
          "indexed": true,
          "internalType": "address",
          "name": "operator",
          "type": "address"
        },
        {
          "indexed": false,
          "internalType": "bool",
          "name": "approved",
          "type": "bool"
        }
      ],
      "name": "ApprovalForAll",
      "type": "event"
    },
    {
      "anonymous": false,
      "inputs": [
        {
          "indexed": false,
          "internalType": "uint256",
          "name": "tokenId",
          "type": "uint256"
        },
        {
          "indexed": false,
          "internalType": "uint256",
          "name": "amount",
          "type": "uint256"
        }
      ],
      "name": "DepositMade",
      "type": "event"
    },
    {
      "anonymous": false,
      "inputs": [
        {
          "indexed": false,
          "internalType": "uint256",
          "name": "tokenId",
          "type": "uint256"
        },
        {
          "indexed": false,
          "internalType": "uint256",
          "name": "amount",
          "type": "uint256"
        }
      ],
      "name": "PenaltyApplied",
      "type": "event"
    },
    {
      "anonymous": false,
      "inputs": [
        {
          "indexed": false,
          "internalType": "uint256",
          "name": "tokenId",
          "type": "uint256"
        },
        {
          "indexed": false,
          "internalType": "int256",
          "name": "change",
          "type": "int256"
        }
      ],
      "name": "ReputationAdjusted",
      "type": "event"
    },
    {
      "anonymous": false,
      "inputs": [
        {
          "indexed": true,
          "internalType": "address",
          "name": "from",
          "type": "address"
        },
        {
          "indexed": true,
          "internalType": "address",
          "name": "to",
          "type": "address"
        },
        {
          "indexed": true,
          "internalType": "uint256",
          "name": "tokenId",
          "type": "uint256"
        }
      ],
      "name": "Transfer",
      "type": "event"
    },
    {
      "anonymous": false,
      "inputs": [
        {
          "indexed": false,
          "internalType": "uint256",
          "name": "tokenId",
          "type": "uint256"
        },
        {
          "indexed": false,
          "internalType": "address",
          "name": "userAddress",
          "type": "address"
        }
      ],
      "name": "UserRegistered",
      "type": "event"
    },
    {
      "anonymous": false,
      "inputs": [
        {
          "indexed": false,
          "internalType": "uint256",
          "name": "tokenId",
          "type": "uint256"
        },
        {
          "indexed": false,
          "internalType": "uint256",
          "name": "amount",
          "type": "uint256"
        }
      ],
      "name": "WithdrawalMade",
      "type": "event"
    },
    {
      "inputs": [
        {
          "internalType": "address",
          "name": "",
          "type": "address"
        }
      ],
      "name": "addressToTokenId",
      "outputs": [
        {
          "internalType": "uint256",
          "name": "",
          "type": "uint256"
        }
      ],
      "stateMutability": "view",
      "type": "function",
      "constant": true
    },
    {
      "inputs": [
        {
          "internalType": "uint256",
          "name": "",
          "type": "uint256"
        }
      ],
      "name": "allTokenIds",
      "outputs": [
        {
          "internalType": "uint256",
          "name": "",
          "type": "uint256"
        }
      ],
      "stateMutability": "view",
      "type": "function",
      "constant": true
    },
    {
      "inputs": [
        {
          "internalType": "address",
          "name": "to",
          "type": "address"
        },
        {
          "internalType": "uint256",
          "name": "tokenId",
          "type": "uint256"
        }
      ],
      "name": "approve",
      "outputs": [],
      "stateMutability": "nonpayable",
      "type": "function"
    },
    {
      "inputs": [
        {
          "internalType": "address",
          "name": "owner",
          "type": "address"
        }
      ],
      "name": "balanceOf",
      "outputs": [
        {
          "internalType": "uint256",
          "name": "",
          "type": "uint256"
        }
      ],
      "stateMutability": "view",
      "type": "function",
      "constant": true
    },
    {
      "inputs": [],
      "name": "contentRegistry",
      "outputs": [
        {
          "internalType": "address",
          "name": "",
          "type": "address"
        }
      ],
      "stateMutability": "view",
      "type": "function",
      "constant": true
    },
    {
      "inputs": [
        {
          "internalType": "uint256",
          "name": "tokenId",
          "type": "uint256"
        }
      ],
      "name": "getApproved",
      "outputs": [
        {
          "internalType": "address",
          "name": "",
          "type": "address"
        }
      ],
      "stateMutability": "view",
      "type": "function",
      "constant": true
    },
    {
      "inputs": [
        {
          "internalType": "address",
          "name": "owner",
          "type": "address"
        },
        {
          "internalType": "address",
          "name": "operator",
          "type": "address"
        }
      ],
      "name": "isApprovedForAll",
      "outputs": [
        {
          "internalType": "bool",
          "name": "",
          "type": "bool"
        }
      ],
      "stateMutability": "view",
      "type": "function",
      "constant": true
    },
    {
      "inputs": [],
      "name": "moderation",
      "outputs": [
        {
          "internalType": "address",
          "name": "",
          "type": "address"
        }
      ],
      "stateMutability": "view",
      "type": "function",
      "constant": true
    },
    {
      "inputs": [],
      "name": "name",
      "outputs": [
        {
          "internalType": "string",
          "name": "",
          "type": "string"
        }
      ],
      "stateMutability": "view",
      "type": "function",
      "constant": true
    },
    {
      "inputs": [
        {
          "internalType": "uint256",
          "name": "tokenId",
          "type": "uint256"
        }
      ],
      "name": "ownerOf",
      "outputs": [
        {
          "internalType": "address",
          "name": "",
          "type": "address"
        }
      ],
      "stateMutability": "view",
      "type": "function",
      "constant": true
    },
    {
      "inputs": [
        {
          "internalType": "address",
          "name": "from",
          "type": "address"
        },
        {
          "internalType": "address",
          "name": "to",
          "type": "address"
        },
        {
          "internalType": "uint256",
          "name": "tokenId",
          "type": "uint256"
        }
      ],
      "name": "safeTransferFrom",
      "outputs": [],
      "stateMutability": "nonpayable",
      "type": "function"
    },
    {
      "inputs": [
        {
          "internalType": "address",
          "name": "from",
          "type": "address"
        },
        {
          "internalType": "address",
          "name": "to",
          "type": "address"
        },
        {
          "internalType": "uint256",
          "name": "tokenId",
          "type": "uint256"
        },
        {
          "internalType": "bytes",
          "name": "data",
          "type": "bytes"
        }
      ],
      "name": "safeTransferFrom",
      "outputs": [],
      "stateMutability": "nonpayable",
      "type": "function"
    },
    {
      "inputs": [
        {
          "internalType": "address",
          "name": "operator",
          "type": "address"
        },
        {
          "internalType": "bool",
          "name": "approved",
          "type": "bool"
        }
      ],
      "name": "setApprovalForAll",
      "outputs": [],
      "stateMutability": "nonpayable",
      "type": "function"
    },
    {
      "inputs": [
        {
          "internalType": "bytes4",
          "name": "interfaceId",
          "type": "bytes4"
        }
      ],
      "name": "supportsInterface",
      "outputs": [
        {
          "internalType": "bool",
          "name": "",
          "type": "bool"
        }
      ],
      "stateMutability": "view",
      "type": "function",
      "constant": true
    },
    {
      "inputs": [],
      "name": "symbol",
      "outputs": [
        {
          "internalType": "string",
          "name": "",
          "type": "string"
        }
      ],
      "stateMutability": "view",
      "type": "function",
      "constant": true
    },
    {
      "inputs": [
        {
          "internalType": "uint256",
          "name": "tokenId",
          "type": "uint256"
        }
      ],
      "name": "tokenURI",
      "outputs": [
        {
          "internalType": "string",
          "name": "",
          "type": "string"
        }
      ],
      "stateMutability": "view",
      "type": "function",
      "constant": true
    },
    {
      "inputs": [
        {
          "internalType": "address",
          "name": "from",
          "type": "address"
        },
        {
          "internalType": "address",
          "name": "to",
          "type": "address"
        },
        {
          "internalType": "uint256",
          "name": "tokenId",
          "type": "uint256"
        }
      ],
      "name": "transferFrom",
      "outputs": [],
      "stateMutability": "nonpayable",
      "type": "function"
    },
    {
      "inputs": [
        {
          "internalType": "uint256",
          "name": "",
          "type": "uint256"
        }
      ],
      "name": "users",
      "outputs": [
        {
          "internalType": "uint256",
          "name": "reputation",
          "type": "uint256"
        },
        {
          "internalType": "uint256",
          "name": "contentCount",
          "type": "uint256"
        },
        {
          "internalType": "uint256",
          "name": "ethDeposit",
          "type": "uint256"
        }
      ],
      "stateMutability": "view",
      "type": "function",
      "constant": true
    },
    {
      "inputs": [],
      "name": "register",
      "outputs": [
        {
          "internalType": "uint256",
          "name": "",
          "type": "uint256"
        }
      ],
      "stateMutability": "payable",
      "type": "function",
      "payable": true
    },
    {
      "inputs": [
        {
          "internalType": "address",
          "name": "user",
          "type": "address"
        }
      ],
      "name": "isRegistered",
      "outputs": [
        {
          "internalType": "bool",
          "name": "",
          "type": "bool"
        }
      ],
      "stateMutability": "view",
      "type": "function",
      "constant": true
    },
    {
      "inputs": [
        {
          "internalType": "uint256",
          "name": "tokenId",
          "type": "uint256"
        }
      ],
      "name": "depositETH",
      "outputs": [],
      "stateMutability": "payable",
      "type": "function",
      "payable": true
    },
    {
      "inputs": [
        {
          "internalType": "uint256",
          "name": "tokenId",
          "type": "uint256"
        },
        {
          "internalType": "uint256",
          "name": "amount",
          "type": "uint256"
        }
      ],
      "name": "withdrawETH",
      "outputs": [],
      "stateMutability": "nonpayable",
      "type": "function"
    },
    {
      "inputs": [
        {
          "internalType": "uint256",
          "name": "tokenId",
          "type": "uint256"
        },
        {
          "internalType": "uint256",
          "name": "amount",
          "type": "uint256"
        }
      ],
      "name": "applyPenalty",
      "outputs": [],
      "stateMutability": "nonpayable",
      "type": "function"
    },
    {
      "inputs": [
        {
          "internalType": "address",
          "name": "userAddr",
          "type": "address"
        }
      ],
      "name": "getUser",
      "outputs": [
        {
          "components": [
            {
              "internalType": "uint256",
              "name": "reputation",
              "type": "uint256"
            },
            {
              "internalType": "uint256",
              "name": "contentCount",
              "type": "uint256"
            },
            {
              "internalType": "uint256",
              "name": "ethDeposit",
              "type": "uint256"
            }
          ],
          "internalType": "struct UserRegistry.User",
          "name": "",
          "type": "tuple"
        },
        {
          "internalType": "uint256",
          "name": "",
          "type": "uint256"
        }
      ],
      "stateMutability": "view",
      "type": "function",
      "constant": true
    },
    {
      "inputs": [
        {
          "internalType": "uint256",
          "name": "tokenId",
          "type": "uint256"
        },
        {
          "internalType": "int256",
          "name": "change",
          "type": "int256"
        }
      ],
      "name": "adjustReputation",
      "outputs": [],
      "stateMutability": "nonpayable",
      "type": "function"
    },
    {
      "inputs": [
        {
          "internalType": "address",
          "name": "_content",
          "type": "address"
        },
        {
          "internalType": "address",
          "name": "_moderation",
          "type": "address"
        }
      ],
      "name": "setApprovedContracts",
      "outputs": [],
      "stateMutability": "nonpayable",
      "type": "function"
    },
    {
      "inputs": [],
      "name": "getUserCount",
      "outputs": [
        {
          "internalType": "uint256",
          "name": "",
          "type": "uint256"
        }
      ],
      "stateMutability": "view",
      "type": "function",
      "constant": true
    },
    {
      "inputs": [],
      "name": "getAllTokenIds",
      "outputs": [
        {
          "internalType": "uint256[]",
          "name": "",
          "type": "uint256[]"
        }
      ],
      "stateMutability": "view",
      "type": "function",
      "constant": true
    }
  ],
  "bytecode": "0x60806040525f60085534801562000014575f80fd5b506040518060400160405280600981526020017f55736572546f6b656e00000000000000000000000000000000000000000000008152506040518060400160405280600481526020017f55544b4e00000000000000000000000000000000000000000000000000000000815250815f908162000091919062000310565b508060019081620000a3919062000310565b505050620003f4565b5f81519050919050565b7f4e487b71000000000000000000000000000000000000000000000000000000005f52604160045260245ffd5b7f4e487b71000000000000000000000000000000000000000000000000000000005f52602260045260245ffd5b5f60028204905060018216806200012857607f821691505b6020821081036200013e576200013d620000e3565b5b50919050565b5f819050815f5260205f209050919050565b5f6020601f8301049050919050565b5f82821b905092915050565b5f60088302620001a27fffffffffffffffffffffffffffffffffffffffffffffffffffffffffffffffff8262000165565b620001ae868362000165565b95508019841693508086168417925050509392505050565b5f819050919050565b5f819050919050565b5f620001f8620001f2620001ec84620001c6565b620001cf565b620001c6565b9050919050565b5f819050919050565b6200021383620001d8565b6200022b6200022282620001ff565b84845462000171565b825550505050565b5f90565b6200024162000233565b6200024e81848462000208565b505050565b5b818110156200027557620002695f8262000237565b60018101905062000254565b5050565b601f821115620002c4576200028e8162000144565b620002998462000156565b81016020851015620002a9578190505b620002c1620002b88562000156565b83018262000253565b50505b505050565b5f82821c905092915050565b5f620002e65f1984600802620002c9565b1980831691505092915050565b5f620003008383620002d5565b9150826002028217905092915050565b6200031b82620000ac565b67ffffffffffffffff811115620003375762000336620000b6565b5b62000343825462000110565b6200035082828562000279565b5f60209050601f83116001811462000386575f841562000371578287015190505b6200037d8582620002f3565b865550620003ec565b601f198416620003968662000144565b5f5b82811015620003bf5784890151825560018201915060208501945060208101905062000398565b86831015620003df5784890151620003db601f891682620002d5565b8355505b6001600288020188555050505b505050505050565b6132f480620004025f395ff3fe6080604052600436106101b6575f3560e01c806370a08231116100eb578063bdbed72211610089578063c87b56dd11610063578063c87b56dd14610627578063cdc4e01314610663578063d0f088721461068b578063e985e9c5146106b3576101b6565b8063bdbed72214610599578063c3c5a547146105c3578063c7cdea37146105ff576101b6565b8063a22cb465116100c5578063a22cb465146104f5578063aaa075981461051d578063b5cb15f714610547578063b88d4fde14610571576101b6565b806370a08231146104535780637d07b2d21461048f57806395d89b41146104cb576101b6565b806327a4f2bb116101585780635358fbda116101325780635358fbda146103825780636352211e1461039e5780636511bf2e146103da5780636f77926b14610416576101b6565b806327a4f2bb146102f2578063365b98b21461031c57806342842e0e1461035a576101b6565b8063095ea7b311610194578063095ea7b31461025c5780631aa3a008146102845780631f8c2386146102a257806323b872dd146102ca576101b6565b806301ffc9a7146101ba57806306fdde03146101f6578063081812fc14610220575b5f80fd5b3480156101c5575f80fd5b506101e060048036038101906101db9190612459565b6106ef565b6040516101ed919061249e565b60405180910390f35b348015610201575f80fd5b5061020a6107d0565b6040516102179190612541565b60405180910390f35b34801561022b575f80fd5b5061024660048036038101906102419190612594565b61085f565b60405161025391906125fe565b60405180910390f35b348015610267575f80fd5b50610282600480360381019061027d9190612641565b61087a565b005b61028c610890565b604051610299919061268e565b60405180910390f35b3480156102ad575f80fd5b506102c860048036038101906102c391906126a7565b610a74565b005b3480156102d5575f80fd5b506102f060048036038101906102eb91906126e5565b610b87565b005b3480156102fd575f80fd5b50610306610c86565b60405161031391906125fe565b60405180910390f35b348015610327575f80fd5b50610342600480360381019061033d9190612594565b610cab565b60405161035193929190612735565b60405180910390f35b348015610365575f80fd5b50610380600480360381019061037b91906126e5565b610cd1565b005b61039c60048036038101906103979190612594565b610cf0565b005b3480156103a9575f80fd5b506103c460048036038101906103bf9190612594565b610dcc565b6040516103d191906125fe565b60405180910390f35b3480156103e5575f80fd5b5061040060048036038101906103fb919061276a565b610ddd565b60405161040d919061268e565b60405180910390f35b348015610421575f80fd5b5061043c6004803603810190610437919061276a565b610df2565b60405161044a9291906127e4565b60405180910390f35b34801561045e575f80fd5b506104796004803603810190610474919061276a565b610ecd565b604051610486919061268e565b60405180910390f35b34801561049a575f80fd5b506104b560048036038101906104b09190612594565b610f83565b6040516104c2919061268e565b60405180910390f35b3480156104d6575f80fd5b506104df610fa3565b6040516104ec9190612541565b60405180910390f35b348015610500575f80fd5b5061051b60048036038101906105169190612835565b611033565b005b348015610528575f80fd5b50610531611049565b60405161053e91906125fe565b60405180910390f35b348015610552575f80fd5b5061055b61106e565b604051610568919061268e565b60405180910390f35b34801561057c575f80fd5b506105976004803603810190610592919061299f565b611077565b005b3480156105a4575f80fd5b506105ad61109c565b6040516105ba9190612ac7565b60405180910390f35b3480156105ce575f80fd5b506105e960048036038101906105e4919061276a565b6110f2565b6040516105f6919061249e565b60405180910390f35b34801561060a575f80fd5b5061062560048036038101906106209190612ae7565b611106565b005b348015610632575f80fd5b5061064d60048036038101906106489190612594565b61127e565b60405161065a9190612541565b60405180910390f35b34801561066e575f80fd5b5061068960048036038101906106849190612b58565b6112e4565b005b348015610696575f80fd5b506106b160048036038101906106ac9190612ae7565b6114a3565b005b3480156106be575f80fd5b506106d960048036038101906106d491906126a7565b611647565b6040516106e6919061249e565b60405180910390f35b5f7f80ac58cd000000000000000000000000000000000000000000000000000000007bffffffffffffffffffffffffffffffffffffffffffffffffffffffff1916827bffffffffffffffffffffffffffffffffffffffffffffffffffffffff191614806107b957507f5b5e139f000000000000000000000000000000000000000000000000000000007bffffffffffffffffffffffffffffffffffffffffffffffffffffffff1916827bffffffffffffffffffffffffffffffffffffffffffffffffffffffff1916145b806107c957506107c8826116d5565b5b9050919050565b60605f80546107de90612bc3565b80601f016020809104026020016040519081016040528092919081815260200182805461080a90612bc3565b80156108555780601f1061082c57610100808354040283529160200191610855565b820191905f5260205f20905b81548152906001019060200180831161083857829003601f168201915b5050505050905090565b5f6108698261173e565b50610873826117c4565b9050919050565b61088c82826108876117fd565b611804565b5050565b5f8061089b33610ecd565b146108db576040517f08c379a00000000000000000000000000000000000000000000000000000000081526004016108d290612c3d565b60405180910390fd5b662386f26fc10000341015610925576040517f08c379a000000000000000000000000000000000000000000000000000000000815260040161091c90612ccb565b60405180910390fd5b5f60085f81548092919061093890612d16565b9190505590506109483382611816565b8060075f3373ffffffffffffffffffffffffffffffffffffffff1673ffffffffffffffffffffffffffffffffffffffff1681526020019081526020015f208190555060405180606001604052805f81526020015f81526020013481525060065f8381526020019081526020015f205f820151815f01556020820151816001015560408201518160020155905050600b81908060018154018082558091505060019003905f5260205f20015f90919091909150557f0793979a87d9a8a3698d9afc4736042bcc2a41b10151127638dcdef36ede4ce18134604051610a2c929190612d5d565b60405180910390a17fb442efe467d2ef30e62927a3cae0afcbc799a8a0944d8a143332e4e5e51cee5d8133604051610a65929190612d84565b60405180910390a18091505090565b5f73ffffffffffffffffffffffffffffffffffffffff1660095f9054906101000a900473ffffffffffffffffffffffffffffffffffffffff1673ffffffffffffffffffffffffffffffffffffffff1614610b03576040517f08c379a0000000000000000000000000000000000000000000000000000000008152600401610afa90612df5565b60405180910390fd5b8160095f6101000a81548173ffffffffffffffffffffffffffffffffffffffff021916908373ffffffffffffffffffffffffffffffffffffffff16021790555080600a5f6101000a81548173ffffffffffffffffffffffffffffffffffffffff021916908373ffffffffffffffffffffffffffffffffffffffff1602179055505050565b5f73ffffffffffffffffffffffffffffffffffffffff168273ffffffffffffffffffffffffffffffffffffffff1603610bf7575f6040517f64a0ae92000000000000000000000000000000000000000000000000000000008152600401610bee91906125fe565b60405180910390fd5b5f610c0a8383610c056117fd565b611909565b90508373ffffffffffffffffffffffffffffffffffffffff168173ffffffffffffffffffffffffffffffffffffffff1614610c80578382826040517f64283d7b000000000000000000000000000000000000000000000000000000008152600401610c7793929190612e13565b60405180910390fd5b50505050565b60095f9054906101000a900473ffffffffffffffffffffffffffffffffffffffff1681565b6006602052805f5260405f205f91509050805f0154908060010154908060020154905083565b610ceb83838360405180602001604052805f815250611077565b505050565b3373ffffffffffffffffffffffffffffffffffffffff16610d1082610dcc565b73ffffffffffffffffffffffffffffffffffffffff1614610d66576040517f08c379a0000000000000000000000000000000000000000000000000000000008152600401610d5d90612e92565b60405180910390fd5b3460065f8381526020019081526020015f206002015f828254610d899190612eb0565b925050819055507f0793979a87d9a8a3698d9afc4736042bcc2a41b10151127638dcdef36ede4ce18134604051610dc1929190612d5d565b60405180910390a150565b5f610dd68261173e565b9050919050565b6007602052805f5260405f205f915090505481565b610dfa6123d5565b5f8060075f8573ffffffffffffffffffffffffffffffffffffffff1673ffffffffffffffffffffffffffffffffffffffff1681526020019081526020015f205490505f610e4685610ecd565b11610e86576040517f08c379a0000000000000000000000000000000000000000000000000000000008152600401610e7d90612f2d565b60405180910390fd5b60065f8281526020019081526020015f2081816040518060600160405290815f82015481526020016001820154815260200160028201548152505091509250925050915091565b5f8073ffffffffffffffffffffffffffffffffffffffff168273ffffffffffffffffffffffffffffffffffffffff1603610f3e575f6040517f89c62b64000000000000000000000000000000000000000000000000000000008152600401610f3591906125fe565b60405180910390fd5b60035f8373ffffffffffffffffffffffffffffffffffffffff1673ffffffffffffffffffffffffffffffffffffffff1681526020019081526020015f20549050919050565b600b8181548110610f92575f80fd5b905f5260205f20015f915090505481565b606060018054610fb290612bc3565b80601f0160208091040260200160405190810160405280929190818152602001828054610fde90612bc3565b80156110295780601f1061100057610100808354040283529160200191611029565b820191905f5260205f20905b81548152906001019060200180831161100c57829003601f168201915b5050505050905090565b61104561103e6117fd565b8383611b14565b5050565b600a5f9054906101000a900473ffffffffffffffffffffffffffffffffffffffff1681565b5f600854905090565b611082848484610b87565b61109661108d6117fd565b85858585611c7d565b50505050565b6060600b8054806020026020016040519081016040528092919081815260200182805480156110e857602002820191905f5260205f20905b8154815260200190600101908083116110d4575b5050505050905090565b5f806110fd83610ecd565b14159050919050565b3373ffffffffffffffffffffffffffffffffffffffff1661112683610dcc565b73ffffffffffffffffffffffffffffffffffffffff161461117c576040517f08c379a000000000000000000000000000000000000000000000000000000000815260040161117390612e92565b60405180910390fd5b8060065f8481526020019081526020015f206002015410156111d3576040517f08c379a00000000000000000000000000000000000000000000000000000000081526004016111ca90612f95565b60405180910390fd5b8060065f8481526020019081526020015f206002015f8282546111f69190612fb3565b925050819055503373ffffffffffffffffffffffffffffffffffffffff166108fc8290811502906040515f60405180830381858888f19350505050158015611240573d5f803e3d5ffd5b507f507d725de18592fab6aa559b11bf0ccc122b23f10be2cbdd4e7c276d1ba733e58282604051611272929190612d5d565b60405180910390a15050565b60606112898261173e565b505f611293611e29565b90505f8151116112b15760405180602001604052805f8152506112dc565b806112bb84611e3f565b6040516020016112cc929190613020565b6040516020818303038152906040525b915050919050565b60095f9054906101000a900473ffffffffffffffffffffffffffffffffffffffff1673ffffffffffffffffffffffffffffffffffffffff163373ffffffffffffffffffffffffffffffffffffffff16148061138b5750600a5f9054906101000a900473ffffffffffffffffffffffffffffffffffffffff1673ffffffffffffffffffffffffffffffffffffffff163373ffffffffffffffffffffffffffffffffffffffff16145b6113ca576040517f08c379a00000000000000000000000000000000000000000000000000000000081526004016113c19061308d565b60405180910390fd5b5f811315611400578060065f8481526020019081526020015f205f015f8282546113f49190612eb0565b92505081905550611466565b5f8161140b906130ab565b905060065f8481526020019081526020015f205f0154811161144b578060065f8581526020019081526020015f205f01546114469190612fb3565b61144d565b5f5b60065f8581526020019081526020015f205f0181905550505b7fc4fc23e82b3bcb4dabcee9b8e51e157e7847aa775c56f3d80f16ec50493d397d8282604051611497929190613100565b60405180910390a15050565b60095f9054906101000a900473ffffffffffffffffffffffffffffffffffffffff1673ffffffffffffffffffffffffffffffffffffffff163373ffffffffffffffffffffffffffffffffffffffff16148061154a5750600a5f9054906101000a900473ffffffffffffffffffffffffffffffffffffffff1673ffffffffffffffffffffffffffffffffffffffff163373ffffffffffffffffffffffffffffffffffffffff16145b611589576040517f08c379a00000000000000000000000000000000000000000000000000000000081526004016115809061308d565b60405180910390fd5b8060065f8481526020019081526020015f206002015410156115e0576040517f08c379a00000000000000000000000000000000000000000000000000000000081526004016115d790613171565b60405180910390fd5b8060065f8481526020019081526020015f206002015f8282546116039190612fb3565b925050819055507f8cde5670f6ee74478a4d7a5073596874894ea932ab8cc9c2ee3e0ae61c42e4ca828260405161163b929190612d5d565b60405180910390a15050565b5f60055f8473ffffffffffffffffffffffffffffffffffffffff1673ffffffffffffffffffffffffffffffffffffffff1681526020019081526020015f205f8373ffffffffffffffffffffffffffffffffffffffff1673ffffffffffffffffffffffffffffffffffffffff1681526020019081526020015f205f9054906101000a900460ff16905092915050565b5f7f01ffc9a7000000000000000000000000000000000000000000000000000000007bffffffffffffffffffffffffffffffffffffffffffffffffffffffff1916827bffffffffffffffffffffffffffffffffffffffffffffffffffffffff1916149050919050565b5f8061174983611f09565b90505f73ffffffffffffffffffffffffffffffffffffffff168173ffffffffffffffffffffffffffffffffffffffff16036117bb57826040517f7e2732890000000000000000000000000000000000000000000000000000000081526004016117b2919061268e565b60405180910390fd5b80915050919050565b5f60045f8381526020019081526020015f205f9054906101000a900473ffffffffffffffffffffffffffffffffffffffff169050919050565b5f33905090565b6118118383836001611f42565b505050565b5f73ffffffffffffffffffffffffffffffffffffffff168273ffffffffffffffffffffffffffffffffffffffff1603611886575f6040517f64a0ae9200000000000000000000000000000000000000000000000000000000815260040161187d91906125fe565b60405180910390fd5b5f61189283835f611909565b90505f73ffffffffffffffffffffffffffffffffffffffff168173ffffffffffffffffffffffffffffffffffffffff1614611904575f6040517f73c6ac6e0000000000000000000000000000000000000000000000000000000081526004016118fb91906125fe565b60405180910390fd5b505050565b5f8061191484611f09565b90505f73ffffffffffffffffffffffffffffffffffffffff168373ffffffffffffffffffffffffffffffffffffffff161461195557611954818486612101565b5b5f73ffffffffffffffffffffffffffffffffffffffff168173ffffffffffffffffffffffffffffffffffffffff16146119e0576119945f855f80611f42565b600160035f8373ffffffffffffffffffffffffffffffffffffffff1673ffffffffffffffffffffffffffffffffffffffff1681526020019081526020015f205f82825403925050819055505b5f73ffffffffffffffffffffffffffffffffffffffff168573ffffffffffffffffffffffffffffffffffffffff1614611a5f57600160035f8773ffffffffffffffffffffffffffffffffffffffff1673ffffffffffffffffffffffffffffffffffffffff1681526020019081526020015f205f82825401925050819055505b8460025f8681526020019081526020015f205f6101000a81548173ffffffffffffffffffffffffffffffffffffffff021916908373ffffffffffffffffffffffffffffffffffffffff160217905550838573ffffffffffffffffffffffffffffffffffffffff168273ffffffffffffffffffffffffffffffffffffffff167fddf252ad1be2c89b69c2b068fc378daa952ba7f163c4a11628f55a4df523b3ef60405160405180910390a4809150509392505050565b5f73ffffffffffffffffffffffffffffffffffffffff168273ffffffffffffffffffffffffffffffffffffffff1603611b8457816040517f5b08ba18000000000000000000000000000000000000000000000000000000008152600401611b7b91906125fe565b60405180910390fd5b8060055f8573ffffffffffffffffffffffffffffffffffffffff1673ffffffffffffffffffffffffffffffffffffffff1681526020019081526020015f205f8473ffffffffffffffffffffffffffffffffffffffff1673ffffffffffffffffffffffffffffffffffffffff1681526020019081526020015f205f6101000a81548160ff0219169083151502179055508173ffffffffffffffffffffffffffffffffffffffff168373ffffffffffffffffffffffffffffffffffffffff167f17307eab39ab6107e8899845ad3d59bd9653f200f220920489ca2b5937696c3183604051611c70919061249e565b60405180910390a3505050565b5f8373ffffffffffffffffffffffffffffffffffffffff163b1115611e22578273ffffffffffffffffffffffffffffffffffffffff1663150b7a02868685856040518563ffffffff1660e01b8152600401611cdb94939291906131e1565b6020604051808303815f875af1925050508015611d1657506040513d601f19601f82011682018060405250810190611d13919061323f565b60015b611d97573d805f8114611d44576040519150601f19603f3d011682016040523d82523d5f602084013e611d49565b606091505b505f815103611d8f57836040517f64a0ae92000000000000000000000000000000000000000000000000000000008152600401611d8691906125fe565b60405180910390fd5b805181602001fd5b63150b7a0260e01b7bffffffffffffffffffffffffffffffffffffffffffffffffffffffff1916817bffffffffffffffffffffffffffffffffffffffffffffffffffffffff191614611e2057836040517f64a0ae92000000000000000000000000000000000000000000000000000000008152600401611e1791906125fe565b60405180910390fd5b505b5050505050565b606060405180602001604052805f815250905090565b60605f6001611e4d846121c4565b0190505f8167ffffffffffffffff811115611e6b57611e6a61287b565b5b6040519080825280601f01601f191660200182016040528015611e9d5781602001600182028036833780820191505090505b5090505f82602001820190505b600115611efe578080600190039150507f3031323334353637383961626364656600000000000000000000000000000000600a86061a8153600a8581611ef357611ef261326a565b5b0494505f8503611eaa575b819350505050919050565b5f60025f8381526020019081526020015f205f9054906101000a900473ffffffffffffffffffffffffffffffffffffffff169050919050565b8080611f7a57505f73ffffffffffffffffffffffffffffffffffffffff168273ffffffffffffffffffffffffffffffffffffffff1614155b156120ac575f611f898461173e565b90505f73ffffffffffffffffffffffffffffffffffffffff168373ffffffffffffffffffffffffffffffffffffffff1614158015611ff357508273ffffffffffffffffffffffffffffffffffffffff168173ffffffffffffffffffffffffffffffffffffffff1614155b801561200657506120048184611647565b155b1561204857826040517fa9fbf51f00000000000000000000000000000000000000000000000000000000815260040161203f91906125fe565b60405180910390fd5b81156120aa57838573ffffffffffffffffffffffffffffffffffffffff168273ffffffffffffffffffffffffffffffffffffffff167f8c5be1e5ebec7d5bd14f71427d1e84f3dd0314c0f7b2291e5b200ac8c7c3b92560405160405180910390a45b505b8360045f8581526020019081526020015f205f6101000a81548173ffffffffffffffffffffffffffffffffffffffff021916908373ffffffffffffffffffffffffffffffffffffffff16021790555050505050565b61210c838383612315565b6121bf575f73ffffffffffffffffffffffffffffffffffffffff168373ffffffffffffffffffffffffffffffffffffffff160361218057806040517f7e273289000000000000000000000000000000000000000000000000000000008152600401612177919061268e565b60405180910390fd5b81816040517f177e802f0000000000000000000000000000000000000000000000000000000081526004016121b6929190613297565b60405180910390fd5b505050565b5f805f90507a184f03e93ff9f4daa797ed6e38ed64bf6a1f0100000000000000008310612220577a184f03e93ff9f4daa797ed6e38ed64bf6a1f01000000000000000083816122165761221561326a565b5b0492506040810190505b6d04ee2d6d415b85acef8100000000831061225d576d04ee2d6d415b85acef810000000083816122535761225261326a565b5b0492506020810190505b662386f26fc10000831061228c57662386f26fc1000083816122825761228161326a565b5b0492506010810190505b6305f5e10083106122b5576305f5e10083816122ab576122aa61326a565b5b0492506008810190505b61271083106122da5761271083816122d0576122cf61326a565b5b0492506004810190505b606483106122fd57606483816122f3576122f261326a565b5b0492506002810190505b600a831061230c576001810190505b80915050919050565b5f8073ffffffffffffffffffffffffffffffffffffffff168373ffffffffffffffffffffffffffffffffffffffff16141580156123cc57508273ffffffffffffffffffffffffffffffffffffffff168473ffffffffffffffffffffffffffffffffffffffff16148061238d575061238c8484611647565b5b806123cb57508273ffffffffffffffffffffffffffffffffffffffff166123b3836117c4565b73ffffffffffffffffffffffffffffffffffffffff16145b5b90509392505050565b60405180606001604052805f81526020015f81526020015f81525090565b5f604051905090565b5f80fd5b5f80fd5b5f7fffffffff0000000000000000000000000000000000000000000000000000000082169050919050565b61243881612404565b8114612442575f80fd5b50565b5f813590506124538161242f565b92915050565b5f6020828403121561246e5761246d6123fc565b5b5f61247b84828501612445565b91505092915050565b5f8115159050919050565b61249881612484565b82525050565b5f6020820190506124b15f83018461248f565b92915050565b5f81519050919050565b5f82825260208201905092915050565b5f5b838110156124ee5780820151818401526020810190506124d3565b5f8484015250505050565b5f601f19601f8301169050919050565b5f612513826124b7565b61251d81856124c1565b935061252d8185602086016124d1565b612536816124f9565b840191505092915050565b5f6020820190508181035f8301526125598184612509565b905092915050565b5f819050919050565b61257381612561565b811461257d575f80fd5b50565b5f8135905061258e8161256a565b92915050565b5f602082840312156125a9576125a86123fc565b5b5f6125b684828501612580565b91505092915050565b5f73ffffffffffffffffffffffffffffffffffffffff82169050919050565b5f6125e8826125bf565b9050919050565b6125f8816125de565b82525050565b5f6020820190506126115f8301846125ef565b92915050565b612620816125de565b811461262a575f80fd5b50565b5f8135905061263b81612617565b92915050565b5f8060408385031215612657576126566123fc565b5b5f6126648582860161262d565b925050602061267585828601612580565b9150509250929050565b61268881612561565b82525050565b5f6020820190506126a15f83018461267f565b92915050565b5f80604083850312156126bd576126bc6123fc565b5b5f6126ca8582860161262d565b92505060206126db8582860161262d565b9150509250929050565b5f805f606084860312156126fc576126fb6123fc565b5b5f6127098682870161262d565b935050602061271a8682870161262d565b925050604061272b86828701612580565b9150509250925092565b5f6060820190506127485f83018661267f565b612755602083018561267f565b612762604083018461267f565b949350505050565b5f6020828403121561277f5761277e6123fc565b5b5f61278c8482850161262d565b91505092915050565b61279e81612561565b82525050565b606082015f8201516127b85f850182612795565b5060208201516127cb6020850182612795565b5060408201516127de6040850182612795565b50505050565b5f6080820190506127f75f8301856127a4565b612804606083018461267f565b9392505050565b61281481612484565b811461281e575f80fd5b50565b5f8135905061282f8161280b565b92915050565b5f806040838503121561284b5761284a6123fc565b5b5f6128588582860161262d565b925050602061286985828601612821565b9150509250929050565b5f80fd5b5f80fd5b7f4e487b71000000000000000000000000000000000000000000000000000000005f52604160045260245ffd5b6128b1826124f9565b810181811067ffffffffffffffff821117156128d0576128cf61287b565b5b80604052505050565b5f6128e26123f3565b90506128ee82826128a8565b919050565b5f67ffffffffffffffff82111561290d5761290c61287b565b5b612916826124f9565b9050602081019050919050565b828183375f83830152505050565b5f61294361293e846128f3565b6128d9565b90508281526020810184848401111561295f5761295e612877565b5b61296a848285612923565b509392505050565b5f82601f83011261298657612985612873565b5b8135612996848260208601612931565b91505092915050565b5f805f80608085870312156129b7576129b66123fc565b5b5f6129c48782880161262d565b94505060206129d58782880161262d565b93505060406129e687828801612580565b925050606085013567ffffffffffffffff811115612a0757612a06612400565b5b612a1387828801612972565b91505092959194509250565b5f81519050919050565b5f82825260208201905092915050565b5f819050602082019050919050565b5f612a538383612795565b60208301905092915050565b5f602082019050919050565b5f612a7582612a1f565b612a7f8185612a29565b9350612a8a83612a39565b805f5b83811015612aba578151612aa18882612a48565b9750612aac83612a5f565b925050600181019050612a8d565b5085935050505092915050565b5f6020820190508181035f830152612adf8184612a6b565b905092915050565b5f8060408385031215612afd57612afc6123fc565b5b5f612b0a85828601612580565b9250506020612b1b85828601612580565b9150509250929050565b5f819050919050565b612b3781612b25565b8114612b41575f80fd5b50565b5f81359050612b5281612b2e565b92915050565b5f8060408385031215612b6e57612b6d6123fc565b5b5f612b7b85828601612580565b9250506020612b8c85828601612b44565b9150509250929050565b7f4e487b71000000000000000000000000000000000000000000000000000000005f52602260045260245ffd5b5f6002820490506001821680612bda57607f821691505b602082108103612bed57612bec612b96565b5b50919050565b7f416c7265616479207265676973746572656400000000000000000000000000005f82015250565b5f612c276012836124c1565b9150612c3282612bf3565b602082019050919050565b5f6020820190508181035f830152612c5481612c1b565b9050919050565b7f4d696e696d756d20302e303120455448206465706f73697420726571756972655f8201527f6400000000000000000000000000000000000000000000000000000000000000602082015250565b5f612cb56021836124c1565b9150612cc082612c5b565b604082019050919050565b5f6020820190508181035f830152612ce281612ca9565b9050919050565b7f4e487b71000000000000000000000000000000000000000000000000000000005f52601160045260245ffd5b5f612d2082612561565b91507fffffffffffffffffffffffffffffffffffffffffffffffffffffffffffffffff8203612d5257612d51612ce9565b5b600182019050919050565b5f604082019050612d705f83018561267f565b612d7d602083018461267f565b9392505050565b5f604082019050612d975f83018561267f565b612da460208301846125ef565b9392505050565b7f416c7265616479207365740000000000000000000000000000000000000000005f82015250565b5f612ddf600b836124c1565b9150612dea82612dab565b602082019050919050565b5f6020820190508181035f830152612e0c81612dd3565b9050919050565b5f606082019050612e265f8301866125ef565b612e33602083018561267f565b612e4060408301846125ef565b949350505050565b7f4e6f7420746f6b656e206f776e657200000000000000000000000000000000005f82015250565b5f612e7c600f836124c1565b9150612e8782612e48565b602082019050919050565b5f6020820190508181035f830152612ea981612e70565b9050919050565b5f612eba82612561565b9150612ec583612561565b9250828201905080821115612edd57612edc612ce9565b5b92915050565b7f55736572206e6f742072656769737465726564000000000000000000000000005f82015250565b5f612f176013836124c1565b9150612f2282612ee3565b602082019050919050565b5f6020820190508181035f830152612f4481612f0b565b9050919050565b7f496e73756666696369656e742062616c616e63650000000000000000000000005f82015250565b5f612f7f6014836124c1565b9150612f8a82612f4b565b602082019050919050565b5f6020820190508181035f830152612fac81612f73565b9050919050565b5f612fbd82612561565b9150612fc883612561565b9250828203905081811115612fe057612fdf612ce9565b5b92915050565b5f81905092915050565b5f612ffa826124b7565b6130048185612fe6565b93506130148185602086016124d1565b80840191505092915050565b5f61302b8285612ff0565b91506130378284612ff0565b91508190509392505050565b7f556e617574686f72697a656400000000000000000000000000000000000000005f82015250565b5f613077600c836124c1565b915061308282613043565b602082019050919050565b5f6020820190508181035f8301526130a48161306b565b9050919050565b5f6130b582612b25565b91507f800000000000000000000000000000000000000000000000000000000000000082036130e7576130e6612ce9565b5b815f039050919050565b6130fa81612b25565b82525050565b5f6040820190506131135f83018561267f565b61312060208301846130f1565b9392505050565b7f496e73756666696369656e742062616c616e636520666f722070656e616c74795f82015250565b5f61315b6020836124c1565b915061316682613127565b602082019050919050565b5f6020820190508181035f8301526131888161314f565b9050919050565b5f81519050919050565b5f82825260208201905092915050565b5f6131b38261318f565b6131bd8185613199565b93506131cd8185602086016124d1565b6131d6816124f9565b840191505092915050565b5f6080820190506131f45f8301876125ef565b61320160208301866125ef565b61320e604083018561267f565b818103606083015261322081846131a9565b905095945050505050565b5f815190506132398161242f565b92915050565b5f60208284031215613254576132536123fc565b5b5f6132618482850161322b565b91505092915050565b7f4e487b71000000000000000000000000000000000000000000000000000000005f52601260045260245ffd5b5f6040820190506132aa5f8301856125ef565b6132b7602083018461267f565b939250505056fea26469706673582212207c83ea9ea34d3a26ca0ba0f5f571d3aa23e333a4b0eb19e63c8ffeae26e0c4a864736f6c63430008150033",
  "immutableReferences": {},
  "source": "// SPDX-License-Identifier: GPL-3.0\r\npragma solidity ^0.8.0;\r\n\r\nimport \"@openzeppelin/contracts/token/ERC721/ERC721.sol\";\r\nimport \"./IUserRegistry.sol\";\r\n\r\ncontract UserRegistry is ERC721 {\r\n    struct User {\r\n        uint256 reputation;\r\n        uint256 contentCount;\r\n        uint256 ethDeposit;\r\n    }\r\n\r\n    mapping(uint256 => User) public users;\r\n    mapping(address => uint256) public addressToTokenId;\r\n    uint256 private _tokenCounter = 0;\r\n    address public contentRegistry;\r\n    address public moderation;\r\n    uint256[] public allTokenIds;\r\n\r\n    event ReputationAdjusted(uint256 tokenId, int256 change);\r\n    event DepositMade(uint256 tokenId, uint256 amount);\r\n    event WithdrawalMade(uint256 tokenId, uint256 amount);\r\n    event PenaltyApplied(uint256 tokenId, uint256 amount);\r\n    event UserRegistered(uint256 tokenId, address userAddress);\r\n\r\n    constructor() ERC721(\"UserToken\", \"UTKN\") {}\r\n\r\n    modifier onlyApproved() {\r\n        require(msg.sender == contentRegistry || msg.sender == moderation, \"Unauthorized\");\r\n        _;\r\n    }\r\n\r\n    function register() external payable returns (uint256) {\r\n        require(balanceOf(msg.sender) == 0, \"Already registered\");\r\n        require(msg.value >= 0.01 ether, \"Minimum 0.01 ETH deposit required\");\r\n        \r\n        uint256 tokenId = _tokenCounter++;\r\n        _mint(msg.sender, tokenId);\r\n        addressToTokenId[msg.sender] = tokenId;\r\n        users[tokenId] = User(0, 0, msg.value);\r\n        allTokenIds.push(tokenId);\r\n        \r\n        emit DepositMade(tokenId, msg.value);\r\n        emit UserRegistered(tokenId, msg.sender);\r\n        return tokenId;\r\n    }\r\n\r\n    function isRegistered(address user) external view returns (bool) {\r\n        return (balanceOf(user) != 0);\r\n    }\r\n\r\n    function depositETH(uint256 tokenId) external payable {\r\n        require(ownerOf(tokenId) == msg.sender, \"Not token owner\");\r\n        users[tokenId].ethDeposit += msg.value;\r\n        emit DepositMade(tokenId, msg.value);\r\n    }\r\n\r\n    function withdrawETH(uint256 tokenId, uint256 amount) external {\r\n        require(ownerOf(tokenId) == msg.sender, \"Not token owner\");\r\n        require(users[tokenId].ethDeposit >= amount, \"Insufficient balance\");\r\n        \r\n        users[tokenId].ethDeposit -= amount;\r\n        payable(msg.sender).transfer(amount);\r\n        emit WithdrawalMade(tokenId, amount);\r\n    }\r\n\r\n    function applyPenalty(uint256 tokenId, uint256 amount) external onlyApproved {\r\n        require(users[tokenId].ethDeposit >= amount, \"Insufficient balance for penalty\");\r\n        users[tokenId].ethDeposit -= amount;\r\n        emit PenaltyApplied(tokenId, amount);\r\n    }\r\n\r\n    function getUser(address userAddr) external view returns (User memory, uint256) {\r\n        uint256 tokenId = addressToTokenId[userAddr];\r\n        require(balanceOf(userAddr) > 0, \"User not registered\");\r\n        return (users[tokenId], tokenId);\r\n    }\r\n\r\n    function adjustReputation(uint256 tokenId, int256 change) external onlyApproved {\r\n        if (change > 0) {\r\n            users[tokenId].reputation += uint256(change);\r\n        } else {\r\n            uint256 decrease = uint256(-change);\r\n            users[tokenId].reputation = decrease > users[tokenId].reputation ? 0 : users[tokenId].reputation - decrease;\r\n        }\r\n        emit ReputationAdjusted(tokenId, change);\r\n    }\r\n\r\n    function setApprovedContracts(address _content, address _moderation) external {\r\n        require(contentRegistry == address(0), \"Already set\");\r\n        contentRegistry = _content;\r\n        moderation = _moderation;\r\n    }\r\n\r\n    function getUserCount() external view returns(uint256) {\r\n        return (_tokenCounter);\r\n    }\r\n\r\n    function getAllTokenIds() external view returns (uint256[] memory) {\r\n        return allTokenIds;\r\n    }\r\n\r\n}",
  "sourcePath": "E:\\Blockchain\\final-expt\\contracts\\UserRegistry.sol",
  "compiler": {
    "name": "solc",
    "version": "0.8.21+commit.d9974bed.Emscripten.clang"
  },
  "schemaVersion": "3.4.16",
  "updatedAt": "2025-04-16T20:22:36.303Z",
  "networkType": "ethereum",
  "devdoc": {
    "errors": {
      "ERC721IncorrectOwner(address,uint256,address)": [
        {
          "details": "Indicates an error related to the ownership over a particular token. Used in transfers.",
          "params": {
            "owner": "Address of the current owner of a token.",
            "sender": "Address whose tokens are being transferred.",
            "tokenId": "Identifier number of a token."
          }
        }
      ],
      "ERC721InsufficientApproval(address,uint256)": [
        {
          "details": "Indicates a failure with the `operator`s approval. Used in transfers.",
          "params": {
            "operator": "Address that may be allowed to operate on tokens without being their owner.",
            "tokenId": "Identifier number of a token."
          }
        }
      ],
      "ERC721InvalidApprover(address)": [
        {
          "details": "Indicates a failure with the `approver` of a token to be approved. Used in approvals.",
          "params": {
            "approver": "Address initiating an approval operation."
          }
        }
      ],
      "ERC721InvalidOperator(address)": [
        {
          "details": "Indicates a failure with the `operator` to be approved. Used in approvals.",
          "params": {
            "operator": "Address that may be allowed to operate on tokens without being their owner."
          }
        }
      ],
      "ERC721InvalidOwner(address)": [
        {
          "details": "Indicates that an address can't be an owner. For example, `address(0)` is a forbidden owner in ERC-20. Used in balance queries.",
          "params": {
            "owner": "Address of the current owner of a token."
          }
        }
      ],
      "ERC721InvalidReceiver(address)": [
        {
          "details": "Indicates a failure with the token `receiver`. Used in transfers.",
          "params": {
            "receiver": "Address to which tokens are being transferred."
          }
        }
      ],
      "ERC721InvalidSender(address)": [
        {
          "details": "Indicates a failure with the token `sender`. Used in transfers.",
          "params": {
            "sender": "Address whose tokens are being transferred."
          }
        }
      ],
      "ERC721NonexistentToken(uint256)": [
        {
          "details": "Indicates a `tokenId` whose `owner` is the zero address.",
          "params": {
            "tokenId": "Identifier number of a token."
          }
        }
      ]
    },
    "events": {
      "Approval(address,address,uint256)": {
        "details": "Emitted when `owner` enables `approved` to manage the `tokenId` token."
      },
      "ApprovalForAll(address,address,bool)": {
        "details": "Emitted when `owner` enables or disables (`approved`) `operator` to manage all of its assets."
      },
      "Transfer(address,address,uint256)": {
        "details": "Emitted when `tokenId` token is transferred from `from` to `to`."
      }
    },
    "kind": "dev",
    "methods": {
      "approve(address,uint256)": {
        "details": "See {IERC721-approve}."
      },
      "balanceOf(address)": {
        "details": "See {IERC721-balanceOf}."
      },
      "getApproved(uint256)": {
        "details": "See {IERC721-getApproved}."
      },
      "isApprovedForAll(address,address)": {
        "details": "See {IERC721-isApprovedForAll}."
      },
      "name()": {
        "details": "See {IERC721Metadata-name}."
      },
      "ownerOf(uint256)": {
        "details": "See {IERC721-ownerOf}."
      },
      "safeTransferFrom(address,address,uint256)": {
        "details": "See {IERC721-safeTransferFrom}."
      },
      "safeTransferFrom(address,address,uint256,bytes)": {
        "details": "See {IERC721-safeTransferFrom}."
      },
      "setApprovalForAll(address,bool)": {
        "details": "See {IERC721-setApprovalForAll}."
      },
      "supportsInterface(bytes4)": {
        "details": "See {IERC165-supportsInterface}."
      },
      "symbol()": {
        "details": "See {IERC721Metadata-symbol}."
      },
      "tokenURI(uint256)": {
        "details": "See {IERC721Metadata-tokenURI}."
      },
      "transferFrom(address,address,uint256)": {
        "details": "See {IERC721-transferFrom}."
      }
    },
    "version": 1
  },
  "userdoc": {
    "kind": "user",
    "methods": {},
    "version": 1
  }
}