{
  "contractName": "UserRegistry",
  "abi": [
    {
      "inputs": [],
      "stateMutability": "nonpayable",
      "type": "constructor"
    },
    {
      "inputs": [
        {
          "internalType": "address",
          "name": "sender",
          "type": "address"
        },
        {
          "internalType": "uint256",
          "name": "tokenId",
          "type": "uint256"
        },
        {
          "internalType": "address",
          "name": "owner",
          "type": "address"
        }
      ],
      "name": "ERC721IncorrectOwner",
      "type": "error"
    },
    {
      "inputs": [
        {
          "internalType": "address",
          "name": "operator",
          "type": "address"
        },
        {
          "internalType": "uint256",
          "name": "tokenId",
          "type": "uint256"
        }
      ],
      "name": "ERC721InsufficientApproval",
      "type": "error"
    },
    {
      "inputs": [
        {
          "internalType": "address",
          "name": "approver",
          "type": "address"
        }
      ],
      "name": "ERC721InvalidApprover",
      "type": "error"
    },
    {
      "inputs": [
        {
          "internalType": "address",
          "name": "operator",
          "type": "address"
        }
      ],
      "name": "ERC721InvalidOperator",
      "type": "error"
    },
    {
      "inputs": [
        {
          "internalType": "address",
          "name": "owner",
          "type": "address"
        }
      ],
      "name": "ERC721InvalidOwner",
      "type": "error"
    },
    {
      "inputs": [
        {
          "internalType": "address",
          "name": "receiver",
          "type": "address"
        }
      ],
      "name": "ERC721InvalidReceiver",
      "type": "error"
    },
    {
      "inputs": [
        {
          "internalType": "address",
          "name": "sender",
          "type": "address"
        }
      ],
      "name": "ERC721InvalidSender",
      "type": "error"
    },
    {
      "inputs": [
        {
          "internalType": "uint256",
          "name": "tokenId",
          "type": "uint256"
        }
      ],
      "name": "ERC721NonexistentToken",
      "type": "error"
    },
    {
      "anonymous": false,
      "inputs": [
        {
          "indexed": true,
          "internalType": "address",
          "name": "owner",
          "type": "address"
        },
        {
          "indexed": true,
          "internalType": "address",
          "name": "approved",
          "type": "address"
        },
        {
          "indexed": true,
          "internalType": "uint256",
          "name": "tokenId",
          "type": "uint256"
        }
      ],
      "name": "Approval",
      "type": "event"
    },
    {
      "anonymous": false,
      "inputs": [
        {
          "indexed": true,
          "internalType": "address",
          "name": "owner",
          "type": "address"
        },
        {
          "indexed": true,
          "internalType": "address",
          "name": "operator",
          "type": "address"
        },
        {
          "indexed": false,
          "internalType": "bool",
          "name": "approved",
          "type": "bool"
        }
      ],
      "name": "ApprovalForAll",
      "type": "event"
    },
    {
      "anonymous": false,
      "inputs": [
        {
          "indexed": false,
          "internalType": "uint256",
          "name": "tokenId",
          "type": "uint256"
        },
        {
          "indexed": false,
          "internalType": "uint256",
          "name": "amount",
          "type": "uint256"
        }
      ],
      "name": "DepositMade",
      "type": "event"
    },
    {
      "anonymous": false,
      "inputs": [
        {
          "indexed": false,
          "internalType": "uint256",
          "name": "tokenId",
          "type": "uint256"
        },
        {
          "indexed": false,
          "internalType": "uint256",
          "name": "amount",
          "type": "uint256"
        }
      ],
      "name": "PenaltyApplied",
      "type": "event"
    },
    {
      "anonymous": false,
      "inputs": [
        {
          "indexed": false,
          "internalType": "uint256",
          "name": "tokenId",
          "type": "uint256"
        },
        {
          "indexed": false,
          "internalType": "int256",
          "name": "change",
          "type": "int256"
        }
      ],
      "name": "ReputationAdjusted",
      "type": "event"
    },
    {
      "anonymous": false,
      "inputs": [
        {
          "indexed": true,
          "internalType": "address",
          "name": "from",
          "type": "address"
        },
        {
          "indexed": true,
          "internalType": "address",
          "name": "to",
          "type": "address"
        },
        {
          "indexed": true,
          "internalType": "uint256",
          "name": "tokenId",
          "type": "uint256"
        }
      ],
      "name": "Transfer",
      "type": "event"
    },
    {
      "anonymous": false,
      "inputs": [
        {
          "indexed": false,
          "internalType": "uint256",
          "name": "tokenId",
          "type": "uint256"
        },
        {
          "indexed": false,
          "internalType": "uint256",
          "name": "amount",
          "type": "uint256"
        }
      ],
      "name": "WithdrawalMade",
      "type": "event"
    },
    {
      "inputs": [
        {
          "internalType": "address",
          "name": "",
          "type": "address"
        }
      ],
      "name": "addressToTokenId",
      "outputs": [
        {
          "internalType": "uint256",
          "name": "",
          "type": "uint256"
        }
      ],
      "stateMutability": "view",
      "type": "function",
      "constant": true
    },
    {
      "inputs": [
        {
          "internalType": "uint256",
          "name": "",
          "type": "uint256"
        }
      ],
      "name": "allTokenIds",
      "outputs": [
        {
          "internalType": "uint256",
          "name": "",
          "type": "uint256"
        }
      ],
      "stateMutability": "view",
      "type": "function",
      "constant": true
    },
    {
      "inputs": [
        {
          "internalType": "address",
          "name": "to",
          "type": "address"
        },
        {
          "internalType": "uint256",
          "name": "tokenId",
          "type": "uint256"
        }
      ],
      "name": "approve",
      "outputs": [],
      "stateMutability": "nonpayable",
      "type": "function"
    },
    {
      "inputs": [
        {
          "internalType": "address",
          "name": "owner",
          "type": "address"
        }
      ],
      "name": "balanceOf",
      "outputs": [
        {
          "internalType": "uint256",
          "name": "",
          "type": "uint256"
        }
      ],
      "stateMutability": "view",
      "type": "function",
      "constant": true
    },
    {
      "inputs": [],
      "name": "contentRegistry",
      "outputs": [
        {
          "internalType": "address",
          "name": "",
          "type": "address"
        }
      ],
      "stateMutability": "view",
      "type": "function",
      "constant": true
    },
    {
      "inputs": [
        {
          "internalType": "uint256",
          "name": "tokenId",
          "type": "uint256"
        }
      ],
      "name": "getApproved",
      "outputs": [
        {
          "internalType": "address",
          "name": "",
          "type": "address"
        }
      ],
      "stateMutability": "view",
      "type": "function",
      "constant": true
    },
    {
      "inputs": [
        {
          "internalType": "address",
          "name": "owner",
          "type": "address"
        },
        {
          "internalType": "address",
          "name": "operator",
          "type": "address"
        }
      ],
      "name": "isApprovedForAll",
      "outputs": [
        {
          "internalType": "bool",
          "name": "",
          "type": "bool"
        }
      ],
      "stateMutability": "view",
      "type": "function",
      "constant": true
    },
    {
      "inputs": [],
      "name": "moderation",
      "outputs": [
        {
          "internalType": "address",
          "name": "",
          "type": "address"
        }
      ],
      "stateMutability": "view",
      "type": "function",
      "constant": true
    },
    {
      "inputs": [],
      "name": "name",
      "outputs": [
        {
          "internalType": "string",
          "name": "",
          "type": "string"
        }
      ],
      "stateMutability": "view",
      "type": "function",
      "constant": true
    },
    {
      "inputs": [
        {
          "internalType": "uint256",
          "name": "tokenId",
          "type": "uint256"
        }
      ],
      "name": "ownerOf",
      "outputs": [
        {
          "internalType": "address",
          "name": "",
          "type": "address"
        }
      ],
      "stateMutability": "view",
      "type": "function",
      "constant": true
    },
    {
      "inputs": [
        {
          "internalType": "address",
          "name": "from",
          "type": "address"
        },
        {
          "internalType": "address",
          "name": "to",
          "type": "address"
        },
        {
          "internalType": "uint256",
          "name": "tokenId",
          "type": "uint256"
        }
      ],
      "name": "safeTransferFrom",
      "outputs": [],
      "stateMutability": "nonpayable",
      "type": "function"
    },
    {
      "inputs": [
        {
          "internalType": "address",
          "name": "from",
          "type": "address"
        },
        {
          "internalType": "address",
          "name": "to",
          "type": "address"
        },
        {
          "internalType": "uint256",
          "name": "tokenId",
          "type": "uint256"
        },
        {
          "internalType": "bytes",
          "name": "data",
          "type": "bytes"
        }
      ],
      "name": "safeTransferFrom",
      "outputs": [],
      "stateMutability": "nonpayable",
      "type": "function"
    },
    {
      "inputs": [
        {
          "internalType": "address",
          "name": "operator",
          "type": "address"
        },
        {
          "internalType": "bool",
          "name": "approved",
          "type": "bool"
        }
      ],
      "name": "setApprovalForAll",
      "outputs": [],
      "stateMutability": "nonpayable",
      "type": "function"
    },
    {
      "inputs": [
        {
          "internalType": "bytes4",
          "name": "interfaceId",
          "type": "bytes4"
        }
      ],
      "name": "supportsInterface",
      "outputs": [
        {
          "internalType": "bool",
          "name": "",
          "type": "bool"
        }
      ],
      "stateMutability": "view",
      "type": "function",
      "constant": true
    },
    {
      "inputs": [],
      "name": "symbol",
      "outputs": [
        {
          "internalType": "string",
          "name": "",
          "type": "string"
        }
      ],
      "stateMutability": "view",
      "type": "function",
      "constant": true
    },
    {
      "inputs": [
        {
          "internalType": "uint256",
          "name": "tokenId",
          "type": "uint256"
        }
      ],
      "name": "tokenURI",
      "outputs": [
        {
          "internalType": "string",
          "name": "",
          "type": "string"
        }
      ],
      "stateMutability": "view",
      "type": "function",
      "constant": true
    },
    {
      "inputs": [
        {
          "internalType": "address",
          "name": "from",
          "type": "address"
        },
        {
          "internalType": "address",
          "name": "to",
          "type": "address"
        },
        {
          "internalType": "uint256",
          "name": "tokenId",
          "type": "uint256"
        }
      ],
      "name": "transferFrom",
      "outputs": [],
      "stateMutability": "nonpayable",
      "type": "function"
    },
    {
      "inputs": [
        {
          "internalType": "uint256",
          "name": "",
          "type": "uint256"
        }
      ],
      "name": "users",
      "outputs": [
        {
          "internalType": "uint256",
          "name": "reputation",
          "type": "uint256"
        },
        {
          "internalType": "uint256",
          "name": "contentCount",
          "type": "uint256"
        },
        {
          "internalType": "uint256",
          "name": "ethDeposit",
          "type": "uint256"
        }
      ],
      "stateMutability": "view",
      "type": "function",
      "constant": true
    },
    {
      "inputs": [],
      "name": "register",
      "outputs": [
        {
          "internalType": "uint256",
          "name": "",
          "type": "uint256"
        }
      ],
      "stateMutability": "payable",
      "type": "function",
      "payable": true
    },
    {
      "inputs": [
        {
          "internalType": "address",
          "name": "user",
          "type": "address"
        }
      ],
      "name": "isRegistered",
      "outputs": [
        {
          "internalType": "bool",
          "name": "",
          "type": "bool"
        }
      ],
      "stateMutability": "view",
      "type": "function",
      "constant": true
    },
    {
      "inputs": [
        {
          "internalType": "uint256",
          "name": "tokenId",
          "type": "uint256"
        }
      ],
      "name": "depositETH",
      "outputs": [],
      "stateMutability": "payable",
      "type": "function",
      "payable": true
    },
    {
      "inputs": [
        {
          "internalType": "uint256",
          "name": "tokenId",
          "type": "uint256"
        },
        {
          "internalType": "uint256",
          "name": "amount",
          "type": "uint256"
        }
      ],
      "name": "withdrawETH",
      "outputs": [],
      "stateMutability": "nonpayable",
      "type": "function"
    },
    {
      "inputs": [
        {
          "internalType": "uint256",
          "name": "tokenId",
          "type": "uint256"
        },
        {
          "internalType": "uint256",
          "name": "amount",
          "type": "uint256"
        }
      ],
      "name": "applyPenalty",
      "outputs": [],
      "stateMutability": "nonpayable",
      "type": "function"
    },
    {
      "inputs": [
        {
          "internalType": "address",
          "name": "userAddr",
          "type": "address"
        }
      ],
      "name": "getUser",
      "outputs": [
        {
          "components": [
            {
              "internalType": "uint256",
              "name": "reputation",
              "type": "uint256"
            },
            {
              "internalType": "uint256",
              "name": "contentCount",
              "type": "uint256"
            },
            {
              "internalType": "uint256",
              "name": "ethDeposit",
              "type": "uint256"
            }
          ],
          "internalType": "struct UserRegistry.User",
          "name": "",
          "type": "tuple"
        },
        {
          "internalType": "uint256",
          "name": "",
          "type": "uint256"
        }
      ],
      "stateMutability": "view",
      "type": "function",
      "constant": true
    },
    {
      "inputs": [
        {
          "internalType": "uint256",
          "name": "tokenId",
          "type": "uint256"
        },
        {
          "internalType": "int256",
          "name": "change",
          "type": "int256"
        }
      ],
      "name": "adjustReputation",
      "outputs": [],
      "stateMutability": "nonpayable",
      "type": "function"
    },
    {
      "inputs": [
        {
          "internalType": "address",
          "name": "_content",
          "type": "address"
        },
        {
          "internalType": "address",
          "name": "_moderation",
          "type": "address"
        }
      ],
      "name": "setApprovedContracts",
      "outputs": [],
      "stateMutability": "nonpayable",
      "type": "function"
    },
    {
      "inputs": [],
      "name": "getUserCount",
      "outputs": [
        {
          "internalType": "uint256",
          "name": "",
          "type": "uint256"
        }
      ],
      "stateMutability": "view",
      "type": "function",
      "constant": true
    },
    {
      "inputs": [],
      "name": "getAllTokenIds",
      "outputs": [
        {
          "internalType": "uint256[]",
          "name": "",
          "type": "uint256[]"
        }
      ],
      "stateMutability": "view",
      "type": "function",
      "constant": true
    }
  ],
  "bytecode": "0x60806040525f60085534801562000014575f80fd5b506040518060400160405280600981526020017f55736572546f6b656e00000000000000000000000000000000000000000000008152506040518060400160405280600481526020017f55544b4e00000000000000000000000000000000000000000000000000000000815250815f908162000091919062000310565b508060019081620000a3919062000310565b505050620003f4565b5f81519050919050565b7f4e487b71000000000000000000000000000000000000000000000000000000005f52604160045260245ffd5b7f4e487b71000000000000000000000000000000000000000000000000000000005f52602260045260245ffd5b5f60028204905060018216806200012857607f821691505b6020821081036200013e576200013d620000e3565b5b50919050565b5f819050815f5260205f209050919050565b5f6020601f8301049050919050565b5f82821b905092915050565b5f60088302620001a27fffffffffffffffffffffffffffffffffffffffffffffffffffffffffffffffff8262000165565b620001ae868362000165565b95508019841693508086168417925050509392505050565b5f819050919050565b5f819050919050565b5f620001f8620001f2620001ec84620001c6565b620001cf565b620001c6565b9050919050565b5f819050919050565b6200021383620001d8565b6200022b6200022282620001ff565b84845462000171565b825550505050565b5f90565b6200024162000233565b6200024e81848462000208565b505050565b5b818110156200027557620002695f8262000237565b60018101905062000254565b5050565b601f821115620002c4576200028e8162000144565b620002998462000156565b81016020851015620002a9578190505b620002c1620002b88562000156565b83018262000253565b50505b505050565b5f82821c905092915050565b5f620002e65f1984600802620002c9565b1980831691505092915050565b5f620003008383620002d5565b9150826002028217905092915050565b6200031b82620000ac565b67ffffffffffffffff811115620003375762000336620000b6565b5b62000343825462000110565b6200035082828562000279565b5f60209050601f83116001811462000386575f841562000371578287015190505b6200037d8582620002f3565b865550620003ec565b601f198416620003968662000144565b5f5b82811015620003bf5784890151825560018201915060208501945060208101905062000398565b86831015620003df5784890151620003db601f891682620002d5565b8355505b6001600288020188555050505b505050505050565b61329480620004025f395ff3fe6080604052600436106101b6575f3560e01c806370a08231116100eb578063bdbed72211610089578063c87b56dd11610063578063c87b56dd14610627578063cdc4e01314610663578063d0f088721461068b578063e985e9c5146106b3576101b6565b8063bdbed72214610599578063c3c5a547146105c3578063c7cdea37146105ff576101b6565b8063a22cb465116100c5578063a22cb465146104f5578063aaa075981461051d578063b5cb15f714610547578063b88d4fde14610571576101b6565b806370a08231146104535780637d07b2d21461048f57806395d89b41146104cb576101b6565b806327a4f2bb116101585780635358fbda116101325780635358fbda146103825780636352211e1461039e5780636511bf2e146103da5780636f77926b14610416576101b6565b806327a4f2bb146102f2578063365b98b21461031c57806342842e0e1461035a576101b6565b8063095ea7b311610194578063095ea7b31461025c5780631aa3a008146102845780631f8c2386146102a257806323b872dd146102ca576101b6565b806301ffc9a7146101ba57806306fdde03146101f6578063081812fc14610220575b5f80fd5b3480156101c5575f80fd5b506101e060048036038101906101db9190612420565b6106ef565b6040516101ed9190612465565b60405180910390f35b348015610201575f80fd5b5061020a6107d0565b6040516102179190612508565b60405180910390f35b34801561022b575f80fd5b506102466004803603810190610241919061255b565b61085f565b60405161025391906125c5565b60405180910390f35b348015610267575f80fd5b50610282600480360381019061027d9190612608565b61087a565b005b61028c610890565b6040516102999190612655565b60405180910390f35b3480156102ad575f80fd5b506102c860048036038101906102c3919061266e565b610a3b565b005b3480156102d5575f80fd5b506102f060048036038101906102eb91906126ac565b610b4e565b005b3480156102fd575f80fd5b50610306610c4d565b60405161031391906125c5565b60405180910390f35b348015610327575f80fd5b50610342600480360381019061033d919061255b565b610c72565b604051610351939291906126fc565b60405180910390f35b348015610365575f80fd5b50610380600480360381019061037b91906126ac565b610c98565b005b61039c6004803603810190610397919061255b565b610cb7565b005b3480156103a9575f80fd5b506103c460048036038101906103bf919061255b565b610d93565b6040516103d191906125c5565b60405180910390f35b3480156103e5575f80fd5b5061040060048036038101906103fb9190612731565b610da4565b60405161040d9190612655565b60405180910390f35b348015610421575f80fd5b5061043c60048036038101906104379190612731565b610db9565b60405161044a9291906127ab565b60405180910390f35b34801561045e575f80fd5b5061047960048036038101906104749190612731565b610e94565b6040516104869190612655565b60405180910390f35b34801561049a575f80fd5b506104b560048036038101906104b0919061255b565b610f4a565b6040516104c29190612655565b60405180910390f35b3480156104d6575f80fd5b506104df610f6a565b6040516104ec9190612508565b60405180910390f35b348015610500575f80fd5b5061051b600480360381019061051691906127fc565b610ffa565b005b348015610528575f80fd5b50610531611010565b60405161053e91906125c5565b60405180910390f35b348015610552575f80fd5b5061055b611035565b6040516105689190612655565b60405180910390f35b34801561057c575f80fd5b5061059760048036038101906105929190612966565b61103e565b005b3480156105a4575f80fd5b506105ad611063565b6040516105ba9190612a8e565b60405180910390f35b3480156105ce575f80fd5b506105e960048036038101906105e49190612731565b6110b9565b6040516105f69190612465565b60405180910390f35b34801561060a575f80fd5b5061062560048036038101906106209190612aae565b6110cd565b005b348015610632575f80fd5b5061064d6004803603810190610648919061255b565b611245565b60405161065a9190612508565b60405180910390f35b34801561066e575f80fd5b5061068960048036038101906106849190612b1f565b6112ab565b005b348015610696575f80fd5b506106b160048036038101906106ac9190612aae565b61146a565b005b3480156106be575f80fd5b506106d960048036038101906106d4919061266e565b61160e565b6040516106e69190612465565b60405180910390f35b5f7f80ac58cd000000000000000000000000000000000000000000000000000000007bffffffffffffffffffffffffffffffffffffffffffffffffffffffff1916827bffffffffffffffffffffffffffffffffffffffffffffffffffffffff191614806107b957507f5b5e139f000000000000000000000000000000000000000000000000000000007bffffffffffffffffffffffffffffffffffffffffffffffffffffffff1916827bffffffffffffffffffffffffffffffffffffffffffffffffffffffff1916145b806107c957506107c88261169c565b5b9050919050565b60605f80546107de90612b8a565b80601f016020809104026020016040519081016040528092919081815260200182805461080a90612b8a565b80156108555780601f1061082c57610100808354040283529160200191610855565b820191905f5260205f20905b81548152906001019060200180831161083857829003601f168201915b5050505050905090565b5f61086982611705565b506108738261178b565b9050919050565b61088c82826108876117c4565b6117cb565b5050565b5f8061089b33610e94565b146108db576040517f08c379a00000000000000000000000000000000000000000000000000000000081526004016108d290612c04565b60405180910390fd5b662386f26fc10000341015610925576040517f08c379a000000000000000000000000000000000000000000000000000000000815260040161091c90612c92565b60405180910390fd5b5f60085f81548092919061093890612cdd565b91905055905061094833826117dd565b8060075f3373ffffffffffffffffffffffffffffffffffffffff1673ffffffffffffffffffffffffffffffffffffffff1681526020019081526020015f208190555060405180606001604052805f81526020015f81526020013481525060065f8381526020019081526020015f205f820151815f01556020820151816001015560408201518160020155905050600b81908060018154018082558091505060019003905f5260205f20015f90919091909150557f0793979a87d9a8a3698d9afc4736042bcc2a41b10151127638dcdef36ede4ce18134604051610a2c929190612d24565b60405180910390a18091505090565b5f73ffffffffffffffffffffffffffffffffffffffff1660095f9054906101000a900473ffffffffffffffffffffffffffffffffffffffff1673ffffffffffffffffffffffffffffffffffffffff1614610aca576040517f08c379a0000000000000000000000000000000000000000000000000000000008152600401610ac190612d95565b60405180910390fd5b8160095f6101000a81548173ffffffffffffffffffffffffffffffffffffffff021916908373ffffffffffffffffffffffffffffffffffffffff16021790555080600a5f6101000a81548173ffffffffffffffffffffffffffffffffffffffff021916908373ffffffffffffffffffffffffffffffffffffffff1602179055505050565b5f73ffffffffffffffffffffffffffffffffffffffff168273ffffffffffffffffffffffffffffffffffffffff1603610bbe575f6040517f64a0ae92000000000000000000000000000000000000000000000000000000008152600401610bb591906125c5565b60405180910390fd5b5f610bd18383610bcc6117c4565b6118d0565b90508373ffffffffffffffffffffffffffffffffffffffff168173ffffffffffffffffffffffffffffffffffffffff1614610c47578382826040517f64283d7b000000000000000000000000000000000000000000000000000000008152600401610c3e93929190612db3565b60405180910390fd5b50505050565b60095f9054906101000a900473ffffffffffffffffffffffffffffffffffffffff1681565b6006602052805f5260405f205f91509050805f0154908060010154908060020154905083565b610cb283838360405180602001604052805f81525061103e565b505050565b3373ffffffffffffffffffffffffffffffffffffffff16610cd782610d93565b73ffffffffffffffffffffffffffffffffffffffff1614610d2d576040517f08c379a0000000000000000000000000000000000000000000000000000000008152600401610d2490612e32565b60405180910390fd5b3460065f8381526020019081526020015f206002015f828254610d509190612e50565b925050819055507f0793979a87d9a8a3698d9afc4736042bcc2a41b10151127638dcdef36ede4ce18134604051610d88929190612d24565b60405180910390a150565b5f610d9d82611705565b9050919050565b6007602052805f5260405f205f915090505481565b610dc161239c565b5f8060075f8573ffffffffffffffffffffffffffffffffffffffff1673ffffffffffffffffffffffffffffffffffffffff1681526020019081526020015f205490505f610e0d85610e94565b11610e4d576040517f08c379a0000000000000000000000000000000000000000000000000000000008152600401610e4490612ecd565b60405180910390fd5b60065f8281526020019081526020015f2081816040518060600160405290815f82015481526020016001820154815260200160028201548152505091509250925050915091565b5f8073ffffffffffffffffffffffffffffffffffffffff168273ffffffffffffffffffffffffffffffffffffffff1603610f05575f6040517f89c62b64000000000000000000000000000000000000000000000000000000008152600401610efc91906125c5565b60405180910390fd5b60035f8373ffffffffffffffffffffffffffffffffffffffff1673ffffffffffffffffffffffffffffffffffffffff1681526020019081526020015f20549050919050565b600b8181548110610f59575f80fd5b905f5260205f20015f915090505481565b606060018054610f7990612b8a565b80601f0160208091040260200160405190810160405280929190818152602001828054610fa590612b8a565b8015610ff05780601f10610fc757610100808354040283529160200191610ff0565b820191905f5260205f20905b815481529060010190602001808311610fd357829003601f168201915b5050505050905090565b61100c6110056117c4565b8383611adb565b5050565b600a5f9054906101000a900473ffffffffffffffffffffffffffffffffffffffff1681565b5f600854905090565b611049848484610b4e565b61105d6110546117c4565b85858585611c44565b50505050565b6060600b8054806020026020016040519081016040528092919081815260200182805480156110af57602002820191905f5260205f20905b81548152602001906001019080831161109b575b5050505050905090565b5f806110c483610e94565b14159050919050565b3373ffffffffffffffffffffffffffffffffffffffff166110ed83610d93565b73ffffffffffffffffffffffffffffffffffffffff1614611143576040517f08c379a000000000000000000000000000000000000000000000000000000000815260040161113a90612e32565b60405180910390fd5b8060065f8481526020019081526020015f2060020154101561119a576040517f08c379a000000000000000000000000000000000000000000000000000000000815260040161119190612f35565b60405180910390fd5b8060065f8481526020019081526020015f206002015f8282546111bd9190612f53565b925050819055503373ffffffffffffffffffffffffffffffffffffffff166108fc8290811502906040515f60405180830381858888f19350505050158015611207573d5f803e3d5ffd5b507f507d725de18592fab6aa559b11bf0ccc122b23f10be2cbdd4e7c276d1ba733e58282604051611239929190612d24565b60405180910390a15050565b606061125082611705565b505f61125a611df0565b90505f8151116112785760405180602001604052805f8152506112a3565b8061128284611e06565b604051602001611293929190612fc0565b6040516020818303038152906040525b915050919050565b60095f9054906101000a900473ffffffffffffffffffffffffffffffffffffffff1673ffffffffffffffffffffffffffffffffffffffff163373ffffffffffffffffffffffffffffffffffffffff1614806113525750600a5f9054906101000a900473ffffffffffffffffffffffffffffffffffffffff1673ffffffffffffffffffffffffffffffffffffffff163373ffffffffffffffffffffffffffffffffffffffff16145b611391576040517f08c379a00000000000000000000000000000000000000000000000000000000081526004016113889061302d565b60405180910390fd5b5f8113156113c7578060065f8481526020019081526020015f205f015f8282546113bb9190612e50565b9250508190555061142d565b5f816113d29061304b565b905060065f8481526020019081526020015f205f01548111611412578060065f8581526020019081526020015f205f015461140d9190612f53565b611414565b5f5b60065f8581526020019081526020015f205f0181905550505b7fc4fc23e82b3bcb4dabcee9b8e51e157e7847aa775c56f3d80f16ec50493d397d828260405161145e9291906130a0565b60405180910390a15050565b60095f9054906101000a900473ffffffffffffffffffffffffffffffffffffffff1673ffffffffffffffffffffffffffffffffffffffff163373ffffffffffffffffffffffffffffffffffffffff1614806115115750600a5f9054906101000a900473ffffffffffffffffffffffffffffffffffffffff1673ffffffffffffffffffffffffffffffffffffffff163373ffffffffffffffffffffffffffffffffffffffff16145b611550576040517f08c379a00000000000000000000000000000000000000000000000000000000081526004016115479061302d565b60405180910390fd5b8060065f8481526020019081526020015f206002015410156115a7576040517f08c379a000000000000000000000000000000000000000000000000000000000815260040161159e90613111565b60405180910390fd5b8060065f8481526020019081526020015f206002015f8282546115ca9190612f53565b925050819055507f8cde5670f6ee74478a4d7a5073596874894ea932ab8cc9c2ee3e0ae61c42e4ca8282604051611602929190612d24565b60405180910390a15050565b5f60055f8473ffffffffffffffffffffffffffffffffffffffff1673ffffffffffffffffffffffffffffffffffffffff1681526020019081526020015f205f8373ffffffffffffffffffffffffffffffffffffffff1673ffffffffffffffffffffffffffffffffffffffff1681526020019081526020015f205f9054906101000a900460ff16905092915050565b5f7f01ffc9a7000000000000000000000000000000000000000000000000000000007bffffffffffffffffffffffffffffffffffffffffffffffffffffffff1916827bffffffffffffffffffffffffffffffffffffffffffffffffffffffff1916149050919050565b5f8061171083611ed0565b90505f73ffffffffffffffffffffffffffffffffffffffff168173ffffffffffffffffffffffffffffffffffffffff160361178257826040517f7e2732890000000000000000000000000000000000000000000000000000000081526004016117799190612655565b60405180910390fd5b80915050919050565b5f60045f8381526020019081526020015f205f9054906101000a900473ffffffffffffffffffffffffffffffffffffffff169050919050565b5f33905090565b6117d88383836001611f09565b505050565b5f73ffffffffffffffffffffffffffffffffffffffff168273ffffffffffffffffffffffffffffffffffffffff160361184d575f6040517f64a0ae9200000000000000000000000000000000000000000000000000000000815260040161184491906125c5565b60405180910390fd5b5f61185983835f6118d0565b90505f73ffffffffffffffffffffffffffffffffffffffff168173ffffffffffffffffffffffffffffffffffffffff16146118cb575f6040517f73c6ac6e0000000000000000000000000000000000000000000000000000000081526004016118c291906125c5565b60405180910390fd5b505050565b5f806118db84611ed0565b90505f73ffffffffffffffffffffffffffffffffffffffff168373ffffffffffffffffffffffffffffffffffffffff161461191c5761191b8184866120c8565b5b5f73ffffffffffffffffffffffffffffffffffffffff168173ffffffffffffffffffffffffffffffffffffffff16146119a75761195b5f855f80611f09565b600160035f8373ffffffffffffffffffffffffffffffffffffffff1673ffffffffffffffffffffffffffffffffffffffff1681526020019081526020015f205f82825403925050819055505b5f73ffffffffffffffffffffffffffffffffffffffff168573ffffffffffffffffffffffffffffffffffffffff1614611a2657600160035f8773ffffffffffffffffffffffffffffffffffffffff1673ffffffffffffffffffffffffffffffffffffffff1681526020019081526020015f205f82825401925050819055505b8460025f8681526020019081526020015f205f6101000a81548173ffffffffffffffffffffffffffffffffffffffff021916908373ffffffffffffffffffffffffffffffffffffffff160217905550838573ffffffffffffffffffffffffffffffffffffffff168273ffffffffffffffffffffffffffffffffffffffff167fddf252ad1be2c89b69c2b068fc378daa952ba7f163c4a11628f55a4df523b3ef60405160405180910390a4809150509392505050565b5f73ffffffffffffffffffffffffffffffffffffffff168273ffffffffffffffffffffffffffffffffffffffff1603611b4b57816040517f5b08ba18000000000000000000000000000000000000000000000000000000008152600401611b4291906125c5565b60405180910390fd5b8060055f8573ffffffffffffffffffffffffffffffffffffffff1673ffffffffffffffffffffffffffffffffffffffff1681526020019081526020015f205f8473ffffffffffffffffffffffffffffffffffffffff1673ffffffffffffffffffffffffffffffffffffffff1681526020019081526020015f205f6101000a81548160ff0219169083151502179055508173ffffffffffffffffffffffffffffffffffffffff168373ffffffffffffffffffffffffffffffffffffffff167f17307eab39ab6107e8899845ad3d59bd9653f200f220920489ca2b5937696c3183604051611c379190612465565b60405180910390a3505050565b5f8373ffffffffffffffffffffffffffffffffffffffff163b1115611de9578273ffffffffffffffffffffffffffffffffffffffff1663150b7a02868685856040518563ffffffff1660e01b8152600401611ca29493929190613181565b6020604051808303815f875af1925050508015611cdd57506040513d601f19601f82011682018060405250810190611cda91906131df565b60015b611d5e573d805f8114611d0b576040519150601f19603f3d011682016040523d82523d5f602084013e611d10565b606091505b505f815103611d5657836040517f64a0ae92000000000000000000000000000000000000000000000000000000008152600401611d4d91906125c5565b60405180910390fd5b805181602001fd5b63150b7a0260e01b7bffffffffffffffffffffffffffffffffffffffffffffffffffffffff1916817bffffffffffffffffffffffffffffffffffffffffffffffffffffffff191614611de757836040517f64a0ae92000000000000000000000000000000000000000000000000000000008152600401611dde91906125c5565b60405180910390fd5b505b5050505050565b606060405180602001604052805f815250905090565b60605f6001611e148461218b565b0190505f8167ffffffffffffffff811115611e3257611e31612842565b5b6040519080825280601f01601f191660200182016040528015611e645781602001600182028036833780820191505090505b5090505f82602001820190505b600115611ec5578080600190039150507f3031323334353637383961626364656600000000000000000000000000000000600a86061a8153600a8581611eba57611eb961320a565b5b0494505f8503611e71575b819350505050919050565b5f60025f8381526020019081526020015f205f9054906101000a900473ffffffffffffffffffffffffffffffffffffffff169050919050565b8080611f4157505f73ffffffffffffffffffffffffffffffffffffffff168273ffffffffffffffffffffffffffffffffffffffff1614155b15612073575f611f5084611705565b90505f73ffffffffffffffffffffffffffffffffffffffff168373ffffffffffffffffffffffffffffffffffffffff1614158015611fba57508273ffffffffffffffffffffffffffffffffffffffff168173ffffffffffffffffffffffffffffffffffffffff1614155b8015611fcd5750611fcb818461160e565b155b1561200f57826040517fa9fbf51f00000000000000000000000000000000000000000000000000000000815260040161200691906125c5565b60405180910390fd5b811561207157838573ffffffffffffffffffffffffffffffffffffffff168273ffffffffffffffffffffffffffffffffffffffff167f8c5be1e5ebec7d5bd14f71427d1e84f3dd0314c0f7b2291e5b200ac8c7c3b92560405160405180910390a45b505b8360045f8581526020019081526020015f205f6101000a81548173ffffffffffffffffffffffffffffffffffffffff021916908373ffffffffffffffffffffffffffffffffffffffff16021790555050505050565b6120d38383836122dc565b612186575f73ffffffffffffffffffffffffffffffffffffffff168373ffffffffffffffffffffffffffffffffffffffff160361214757806040517f7e27328900000000000000000000000000000000000000000000000000000000815260040161213e9190612655565b60405180910390fd5b81816040517f177e802f00000000000000000000000000000000000000000000000000000000815260040161217d929190613237565b60405180910390fd5b505050565b5f805f90507a184f03e93ff9f4daa797ed6e38ed64bf6a1f01000000000000000083106121e7577a184f03e93ff9f4daa797ed6e38ed64bf6a1f01000000000000000083816121dd576121dc61320a565b5b0492506040810190505b6d04ee2d6d415b85acef81000000008310612224576d04ee2d6d415b85acef8100000000838161221a5761221961320a565b5b0492506020810190505b662386f26fc10000831061225357662386f26fc1000083816122495761224861320a565b5b0492506010810190505b6305f5e100831061227c576305f5e10083816122725761227161320a565b5b0492506008810190505b61271083106122a15761271083816122975761229661320a565b5b0492506004810190505b606483106122c457606483816122ba576122b961320a565b5b0492506002810190505b600a83106122d3576001810190505b80915050919050565b5f8073ffffffffffffffffffffffffffffffffffffffff168373ffffffffffffffffffffffffffffffffffffffff161415801561239357508273ffffffffffffffffffffffffffffffffffffffff168473ffffffffffffffffffffffffffffffffffffffff1614806123545750612353848461160e565b5b8061239257508273ffffffffffffffffffffffffffffffffffffffff1661237a8361178b565b73ffffffffffffffffffffffffffffffffffffffff16145b5b90509392505050565b60405180606001604052805f81526020015f81526020015f81525090565b5f604051905090565b5f80fd5b5f80fd5b5f7fffffffff0000000000000000000000000000000000000000000000000000000082169050919050565b6123ff816123cb565b8114612409575f80fd5b50565b5f8135905061241a816123f6565b92915050565b5f60208284031215612435576124346123c3565b5b5f6124428482850161240c565b91505092915050565b5f8115159050919050565b61245f8161244b565b82525050565b5f6020820190506124785f830184612456565b92915050565b5f81519050919050565b5f82825260208201905092915050565b5f5b838110156124b557808201518184015260208101905061249a565b5f8484015250505050565b5f601f19601f8301169050919050565b5f6124da8261247e565b6124e48185612488565b93506124f4818560208601612498565b6124fd816124c0565b840191505092915050565b5f6020820190508181035f83015261252081846124d0565b905092915050565b5f819050919050565b61253a81612528565b8114612544575f80fd5b50565b5f8135905061255581612531565b92915050565b5f602082840312156125705761256f6123c3565b5b5f61257d84828501612547565b91505092915050565b5f73ffffffffffffffffffffffffffffffffffffffff82169050919050565b5f6125af82612586565b9050919050565b6125bf816125a5565b82525050565b5f6020820190506125d85f8301846125b6565b92915050565b6125e7816125a5565b81146125f1575f80fd5b50565b5f81359050612602816125de565b92915050565b5f806040838503121561261e5761261d6123c3565b5b5f61262b858286016125f4565b925050602061263c85828601612547565b9150509250929050565b61264f81612528565b82525050565b5f6020820190506126685f830184612646565b92915050565b5f8060408385031215612684576126836123c3565b5b5f612691858286016125f4565b92505060206126a2858286016125f4565b9150509250929050565b5f805f606084860312156126c3576126c26123c3565b5b5f6126d0868287016125f4565b93505060206126e1868287016125f4565b92505060406126f286828701612547565b9150509250925092565b5f60608201905061270f5f830186612646565b61271c6020830185612646565b6127296040830184612646565b949350505050565b5f60208284031215612746576127456123c3565b5b5f612753848285016125f4565b91505092915050565b61276581612528565b82525050565b606082015f82015161277f5f85018261275c565b506020820151612792602085018261275c565b5060408201516127a5604085018261275c565b50505050565b5f6080820190506127be5f83018561276b565b6127cb6060830184612646565b9392505050565b6127db8161244b565b81146127e5575f80fd5b50565b5f813590506127f6816127d2565b92915050565b5f8060408385031215612812576128116123c3565b5b5f61281f858286016125f4565b9250506020612830858286016127e8565b9150509250929050565b5f80fd5b5f80fd5b7f4e487b71000000000000000000000000000000000000000000000000000000005f52604160045260245ffd5b612878826124c0565b810181811067ffffffffffffffff8211171561289757612896612842565b5b80604052505050565b5f6128a96123ba565b90506128b5828261286f565b919050565b5f67ffffffffffffffff8211156128d4576128d3612842565b5b6128dd826124c0565b9050602081019050919050565b828183375f83830152505050565b5f61290a612905846128ba565b6128a0565b9050828152602081018484840111156129265761292561283e565b5b6129318482856128ea565b509392505050565b5f82601f83011261294d5761294c61283a565b5b813561295d8482602086016128f8565b91505092915050565b5f805f806080858703121561297e5761297d6123c3565b5b5f61298b878288016125f4565b945050602061299c878288016125f4565b93505060406129ad87828801612547565b925050606085013567ffffffffffffffff8111156129ce576129cd6123c7565b5b6129da87828801612939565b91505092959194509250565b5f81519050919050565b5f82825260208201905092915050565b5f819050602082019050919050565b5f612a1a838361275c565b60208301905092915050565b5f602082019050919050565b5f612a3c826129e6565b612a4681856129f0565b9350612a5183612a00565b805f5b83811015612a81578151612a688882612a0f565b9750612a7383612a26565b925050600181019050612a54565b5085935050505092915050565b5f6020820190508181035f830152612aa68184612a32565b905092915050565b5f8060408385031215612ac457612ac36123c3565b5b5f612ad185828601612547565b9250506020612ae285828601612547565b9150509250929050565b5f819050919050565b612afe81612aec565b8114612b08575f80fd5b50565b5f81359050612b1981612af5565b92915050565b5f8060408385031215612b3557612b346123c3565b5b5f612b4285828601612547565b9250506020612b5385828601612b0b565b9150509250929050565b7f4e487b71000000000000000000000000000000000000000000000000000000005f52602260045260245ffd5b5f6002820490506001821680612ba157607f821691505b602082108103612bb457612bb3612b5d565b5b50919050565b7f416c7265616479207265676973746572656400000000000000000000000000005f82015250565b5f612bee601283612488565b9150612bf982612bba565b602082019050919050565b5f6020820190508181035f830152612c1b81612be2565b9050919050565b7f4d696e696d756d20302e303120455448206465706f73697420726571756972655f8201527f6400000000000000000000000000000000000000000000000000000000000000602082015250565b5f612c7c602183612488565b9150612c8782612c22565b604082019050919050565b5f6020820190508181035f830152612ca981612c70565b9050919050565b7f4e487b71000000000000000000000000000000000000000000000000000000005f52601160045260245ffd5b5f612ce782612528565b91507fffffffffffffffffffffffffffffffffffffffffffffffffffffffffffffffff8203612d1957612d18612cb0565b5b600182019050919050565b5f604082019050612d375f830185612646565b612d446020830184612646565b9392505050565b7f416c7265616479207365740000000000000000000000000000000000000000005f82015250565b5f612d7f600b83612488565b9150612d8a82612d4b565b602082019050919050565b5f6020820190508181035f830152612dac81612d73565b9050919050565b5f606082019050612dc65f8301866125b6565b612dd36020830185612646565b612de060408301846125b6565b949350505050565b7f4e6f7420746f6b656e206f776e657200000000000000000000000000000000005f82015250565b5f612e1c600f83612488565b9150612e2782612de8565b602082019050919050565b5f6020820190508181035f830152612e4981612e10565b9050919050565b5f612e5a82612528565b9150612e6583612528565b9250828201905080821115612e7d57612e7c612cb0565b5b92915050565b7f55736572206e6f742072656769737465726564000000000000000000000000005f82015250565b5f612eb7601383612488565b9150612ec282612e83565b602082019050919050565b5f6020820190508181035f830152612ee481612eab565b9050919050565b7f496e73756666696369656e742062616c616e63650000000000000000000000005f82015250565b5f612f1f601483612488565b9150612f2a82612eeb565b602082019050919050565b5f6020820190508181035f830152612f4c81612f13565b9050919050565b5f612f5d82612528565b9150612f6883612528565b9250828203905081811115612f8057612f7f612cb0565b5b92915050565b5f81905092915050565b5f612f9a8261247e565b612fa48185612f86565b9350612fb4818560208601612498565b80840191505092915050565b5f612fcb8285612f90565b9150612fd78284612f90565b91508190509392505050565b7f556e617574686f72697a656400000000000000000000000000000000000000005f82015250565b5f613017600c83612488565b915061302282612fe3565b602082019050919050565b5f6020820190508181035f8301526130448161300b565b9050919050565b5f61305582612aec565b91507f8000000000000000000000000000000000000000000000000000000000000000820361308757613086612cb0565b5b815f039050919050565b61309a81612aec565b82525050565b5f6040820190506130b35f830185612646565b6130c06020830184613091565b9392505050565b7f496e73756666696369656e742062616c616e636520666f722070656e616c74795f82015250565b5f6130fb602083612488565b9150613106826130c7565b602082019050919050565b5f6020820190508181035f830152613128816130ef565b9050919050565b5f81519050919050565b5f82825260208201905092915050565b5f6131538261312f565b61315d8185613139565b935061316d818560208601612498565b613176816124c0565b840191505092915050565b5f6080820190506131945f8301876125b6565b6131a160208301866125b6565b6131ae6040830185612646565b81810360608301526131c08184613149565b905095945050505050565b5f815190506131d9816123f6565b92915050565b5f602082840312156131f4576131f36123c3565b5b5f613201848285016131cb565b91505092915050565b7f4e487b71000000000000000000000000000000000000000000000000000000005f52601260045260245ffd5b5f60408201905061324a5f8301856125b6565b6132576020830184612646565b939250505056fea2646970667358221220646845658c7d8351a9ffa3cd10114e3ac52cc36b34dfefeb1c7cdde7883f6ac964736f6c63430008150033",
  "immutableReferences": {},
  "source": "// SPDX-License-Identifier: GPL-3.0\r\npragma solidity ^0.8.0;\r\n\r\nimport \"@openzeppelin/contracts/token/ERC721/ERC721.sol\";\r\nimport \"./IUserRegistry.sol\";\r\n\r\ncontract UserRegistry is ERC721 {\r\n    struct User {\r\n        uint256 reputation;\r\n        uint256 contentCount;\r\n        uint256 ethDeposit;\r\n    }\r\n\r\n    mapping(uint256 => User) public users;\r\n    mapping(address => uint256) public addressToTokenId;\r\n    uint256 private _tokenCounter = 0;\r\n    address public contentRegistry;\r\n    address public moderation;\r\n    uint256[] public allTokenIds;\r\n\r\n    event ReputationAdjusted(uint256 tokenId, int256 change);\r\n    event DepositMade(uint256 tokenId, uint256 amount);\r\n    event WithdrawalMade(uint256 tokenId, uint256 amount);\r\n    event PenaltyApplied(uint256 tokenId, uint256 amount);\r\n\r\n    constructor() ERC721(\"UserToken\", \"UTKN\") {}\r\n\r\n    modifier onlyApproved() {\r\n        require(msg.sender == contentRegistry || msg.sender == moderation, \"Unauthorized\");\r\n        _;\r\n    }\r\n\r\n    function register() external payable returns (uint256) {\r\n        require(balanceOf(msg.sender) == 0, \"Already registered\");\r\n        require(msg.value >= 0.01 ether, \"Minimum 0.01 ETH deposit required\");\r\n        \r\n        uint256 tokenId = _tokenCounter++;\r\n        _mint(msg.sender, tokenId);\r\n        addressToTokenId[msg.sender] = tokenId;\r\n        users[tokenId] = User(0, 0, msg.value);\r\n        allTokenIds.push(tokenId);\r\n        \r\n        emit DepositMade(tokenId, msg.value);\r\n        return tokenId;\r\n    }\r\n\r\n    function isRegistered(address user) external view returns (bool) {\r\n        return (balanceOf(user) != 0);\r\n    }\r\n\r\n    function depositETH(uint256 tokenId) external payable {\r\n        require(ownerOf(tokenId) == msg.sender, \"Not token owner\");\r\n        users[tokenId].ethDeposit += msg.value;\r\n        emit DepositMade(tokenId, msg.value);\r\n    }\r\n\r\n    function withdrawETH(uint256 tokenId, uint256 amount) external {\r\n        require(ownerOf(tokenId) == msg.sender, \"Not token owner\");\r\n        require(users[tokenId].ethDeposit >= amount, \"Insufficient balance\");\r\n        \r\n        users[tokenId].ethDeposit -= amount;\r\n        payable(msg.sender).transfer(amount);\r\n        emit WithdrawalMade(tokenId, amount);\r\n    }\r\n\r\n    function applyPenalty(uint256 tokenId, uint256 amount) external onlyApproved {\r\n        require(users[tokenId].ethDeposit >= amount, \"Insufficient balance for penalty\");\r\n        users[tokenId].ethDeposit -= amount;\r\n        emit PenaltyApplied(tokenId, amount);\r\n    }\r\n\r\n    function getUser(address userAddr) external view returns (User memory, uint256) {\r\n        uint256 tokenId = addressToTokenId[userAddr];\r\n        require(balanceOf(userAddr) > 0, \"User not registered\");\r\n        return (users[tokenId], tokenId);\r\n    }\r\n\r\n    function adjustReputation(uint256 tokenId, int256 change) external onlyApproved {\r\n        if (change > 0) {\r\n            users[tokenId].reputation += uint256(change);\r\n        } else {\r\n            uint256 decrease = uint256(-change);\r\n            users[tokenId].reputation = decrease > users[tokenId].reputation ? 0 : users[tokenId].reputation - decrease;\r\n        }\r\n        emit ReputationAdjusted(tokenId, change);\r\n    }\r\n\r\n    function setApprovedContracts(address _content, address _moderation) external {\r\n        require(contentRegistry == address(0), \"Already set\");\r\n        contentRegistry = _content;\r\n        moderation = _moderation;\r\n    }\r\n\r\n    function getUserCount() external view returns(uint256) {\r\n        return (_tokenCounter);\r\n    }\r\n\r\n    function getAllTokenIds() external view returns (uint256[] memory) {\r\n        return allTokenIds;\r\n    }\r\n\r\n}",
  "sourcePath": "D:\\Code\\IntroToBlockchains\\blockchain-misinform-project\\final-expt\\contracts\\UserRegistry.sol",
  "compiler": {
    "name": "solc",
    "version": "0.8.21+commit.d9974bed.Emscripten.clang"
  },
  "schemaVersion": "3.4.16",
  "updatedAt": "2025-04-16T14:44:23.194Z",
  "networkType": "ethereum",
  "devdoc": {
    "errors": {
      "ERC721IncorrectOwner(address,uint256,address)": [
        {
          "details": "Indicates an error related to the ownership over a particular token. Used in transfers.",
          "params": {
            "owner": "Address of the current owner of a token.",
            "sender": "Address whose tokens are being transferred.",
            "tokenId": "Identifier number of a token."
          }
        }
      ],
      "ERC721InsufficientApproval(address,uint256)": [
        {
          "details": "Indicates a failure with the `operator`s approval. Used in transfers.",
          "params": {
            "operator": "Address that may be allowed to operate on tokens without being their owner.",
            "tokenId": "Identifier number of a token."
          }
        }
      ],
      "ERC721InvalidApprover(address)": [
        {
          "details": "Indicates a failure with the `approver` of a token to be approved. Used in approvals.",
          "params": {
            "approver": "Address initiating an approval operation."
          }
        }
      ],
      "ERC721InvalidOperator(address)": [
        {
          "details": "Indicates a failure with the `operator` to be approved. Used in approvals.",
          "params": {
            "operator": "Address that may be allowed to operate on tokens without being their owner."
          }
        }
      ],
      "ERC721InvalidOwner(address)": [
        {
          "details": "Indicates that an address can't be an owner. For example, `address(0)` is a forbidden owner in ERC-20. Used in balance queries.",
          "params": {
            "owner": "Address of the current owner of a token."
          }
        }
      ],
      "ERC721InvalidReceiver(address)": [
        {
          "details": "Indicates a failure with the token `receiver`. Used in transfers.",
          "params": {
            "receiver": "Address to which tokens are being transferred."
          }
        }
      ],
      "ERC721InvalidSender(address)": [
        {
          "details": "Indicates a failure with the token `sender`. Used in transfers.",
          "params": {
            "sender": "Address whose tokens are being transferred."
          }
        }
      ],
      "ERC721NonexistentToken(uint256)": [
        {
          "details": "Indicates a `tokenId` whose `owner` is the zero address.",
          "params": {
            "tokenId": "Identifier number of a token."
          }
        }
      ]
    },
    "events": {
      "Approval(address,address,uint256)": {
        "details": "Emitted when `owner` enables `approved` to manage the `tokenId` token."
      },
      "ApprovalForAll(address,address,bool)": {
        "details": "Emitted when `owner` enables or disables (`approved`) `operator` to manage all of its assets."
      },
      "Transfer(address,address,uint256)": {
        "details": "Emitted when `tokenId` token is transferred from `from` to `to`."
      }
    },
    "kind": "dev",
    "methods": {
      "approve(address,uint256)": {
        "details": "See {IERC721-approve}."
      },
      "balanceOf(address)": {
        "details": "See {IERC721-balanceOf}."
      },
      "getApproved(uint256)": {
        "details": "See {IERC721-getApproved}."
      },
      "isApprovedForAll(address,address)": {
        "details": "See {IERC721-isApprovedForAll}."
      },
      "name()": {
        "details": "See {IERC721Metadata-name}."
      },
      "ownerOf(uint256)": {
        "details": "See {IERC721-ownerOf}."
      },
      "safeTransferFrom(address,address,uint256)": {
        "details": "See {IERC721-safeTransferFrom}."
      },
      "safeTransferFrom(address,address,uint256,bytes)": {
        "details": "See {IERC721-safeTransferFrom}."
      },
      "setApprovalForAll(address,bool)": {
        "details": "See {IERC721-setApprovalForAll}."
      },
      "supportsInterface(bytes4)": {
        "details": "See {IERC165-supportsInterface}."
      },
      "symbol()": {
        "details": "See {IERC721Metadata-symbol}."
      },
      "tokenURI(uint256)": {
        "details": "See {IERC721Metadata-tokenURI}."
      },
      "transferFrom(address,address,uint256)": {
        "details": "See {IERC721-transferFrom}."
      }
    },
    "version": 1
  },
  "userdoc": {
    "kind": "user",
    "methods": {},
    "version": 1
  }
}